{
	"data": {
		"bytecode": {
			"linkReferences": {},
			"object": "608060405234801561001057600080fd5b50610c41806100206000396000f3fe608060405234801561001057600080fd5b50600436106100575760003560e01c806335e317f31461005c57806354bfa6a4146100785780637b4cd9eb146100a8578063f52aee1d146100d8578063fc782c9f14610108575b600080fd5b610076600480360381019061007191906104e5565b610126565b005b610092600480360381019061008d9190610541565b610182565b60405161009f91906105c8565b60405180910390f35b6100c260048036038101906100bd91906105e3565b6101a8565b6040516100cf91906105c8565b60405180910390f35b6100f260048036038101906100ed919061062c565b610232565b6040516100ff91906106d8565b60405180910390f35b6101106102de565b60405161011d91906105c8565b60405180910390f35b816000826040516101379190610736565b90815260200160405180910390208190555060018190806001815401808255809150506001900390600052602060002001600090919091909150908161017d9190610959565b505050565b600061018d826101a8565b610196846101a8565b6101a09190610a5a565b905092915050565b600081600080826040516101bc9190610736565b9081526020016040518091039020540361020b576040517f08c379a000000000000000000000000000000000000000000000000000000000815260040161020290610ada565b60405180910390fd5b60008360405161021b9190610736565b908152602001604051809103902054915050919050565b6001818154811061024257600080fd5b90600052602060002001600091509050805461025d9061077c565b80601f01602080910402602001604051908101604052809291908181526020018280546102899061077c565b80156102d65780601f106102ab576101008083540402835291602001916102d6565b820191906000526020600020905b8154815290600101906020018083116102b957829003601f168201915b505050505081565b60008060005b60018054905081101561034d5760006001828154811061030757610306610afa565b5b9060005260206000200160405161031e9190610bac565b908152602001604051809103902054826103389190610a5a565b9150808061034590610bc3565b9150506102e4565b508091505090565b6000604051905090565b600080fd5b600080fd5b6000819050919050565b61037c81610369565b811461038757600080fd5b50565b60008135905061039981610373565b92915050565b600080fd5b600080fd5b6000601f19601f8301169050919050565b7f4e487b7100000000000000000000000000000000000000000000000000000000600052604160045260246000fd5b6103f2826103a9565b810181811067ffffffffffffffff82111715610411576104106103ba565b5b80604052505050565b6000610424610355565b905061043082826103e9565b919050565b600067ffffffffffffffff8211156104505761044f6103ba565b5b610459826103a9565b9050602081019050919050565b82818337600083830152505050565b600061048861048384610435565b61041a565b9050828152602081018484840111156104a4576104a36103a4565b5b6104af848285610466565b509392505050565b600082601f8301126104cc576104cb61039f565b5b81356104dc848260208601610475565b91505092915050565b600080604083850312156104fc576104fb61035f565b5b600061050a8582860161038a565b925050602083013567ffffffffffffffff81111561052b5761052a610364565b5b610537858286016104b7565b9150509250929050565b600080604083850312156105585761055761035f565b5b600083013567ffffffffffffffff81111561057657610575610364565b5b610582858286016104b7565b925050602083013567ffffffffffffffff8111156105a3576105a2610364565b5b6105af858286016104b7565b9150509250929050565b6105c281610369565b82525050565b60006020820190506105dd60008301846105b9565b92915050565b6000602082840312156105f9576105f861035f565b5b600082013567ffffffffffffffff81111561061757610616610364565b5b610623848285016104b7565b91505092915050565b6000602082840312156106425761064161035f565b5b60006106508482850161038a565b91505092915050565b600081519050919050565b600082825260208201905092915050565b60005b83811015610693578082015181840152602081019050610678565b60008484015250505050565b60006106aa82610659565b6106b48185610664565b93506106c4818560208601610675565b6106cd816103a9565b840191505092915050565b600060208201905081810360008301526106f2818461069f565b905092915050565b600081905092915050565b600061071082610659565b61071a81856106fa565b935061072a818560208601610675565b80840191505092915050565b60006107428284610705565b915081905092915050565b7f4e487b7100000000000000000000000000000000000000000000000000000000600052602260045260246000fd5b6000600282049050600182168061079457607f821691505b6020821081036107a7576107a661074d565b5b50919050565b60008190508160005260206000209050919050565b60006020601f8301049050919050565b600082821b905092915050565b60006008830261080f7fffffffffffffffffffffffffffffffffffffffffffffffffffffffffffffffff826107d2565b61081986836107d2565b95508019841693508086168417925050509392505050565b6000819050919050565b600061085661085161084c84610369565b610831565b610369565b9050919050565b6000819050919050565b6108708361083b565b61088461087c8261085d565b8484546107df565b825550505050565b600090565b61089961088c565b6108a4818484610867565b505050565b5b818110156108c8576108bd600082610891565b6001810190506108aa565b5050565b601f82111561090d576108de816107ad565b6108e7846107c2565b810160208510156108f6578190505b61090a610902856107c2565b8301826108a9565b50505b505050565b600082821c905092915050565b600061093060001984600802610912565b1980831691505092915050565b6000610949838361091f565b9150826002028217905092915050565b61096282610659565b67ffffffffffffffff81111561097b5761097a6103ba565b5b610985825461077c565b6109908282856108cc565b600060209050601f8311600181146109c357600084156109b1578287015190505b6109bb858261093d565b865550610a23565b601f1984166109d1866107ad565b60005b828110156109f9578489015182556001820191506020850194506020810190506109d4565b86831015610a165784890151610a12601f89168261091f565b8355505b6001600288020188555050505b505050505050565b7f4e487b7100000000000000000000000000000000000000000000000000000000600052601160045260246000fd5b6000610a6582610369565b9150610a7083610369565b9250828201905080821115610a8857610a87610a2b565b5b92915050565b7f5468697320706572736f6e20646f6573206e6f742065786973742e0000000000600082015250565b6000610ac4601b83610664565b9150610acf82610a8e565b602082019050919050565b60006020820190508181036000830152610af381610ab7565b9050919050565b7f4e487b7100000000000000000000000000000000000000000000000000000000600052603260045260246000fd5b60008154610b368161077c565b610b4081866106fa565b94506001821660008114610b5b5760018114610b7057610ba3565b60ff1983168652811515820286019350610ba3565b610b79856107ad565b60005b83811015610b9b57815481890152600182019150602081019050610b7c565b838801955050505b50505092915050565b6000610bb88284610b29565b915081905092915050565b6000610bce82610369565b91507fffffffffffffffffffffffffffffffffffffffffffffffffffffffffffffffff8203610c0057610bff610a2b565b5b60018201905091905056fea26469706673582212204d82c13dacd46eeb827aea71e406d92c63107f08aadf453c4af901afd4c817e464736f6c63430008130033",
			"opcodes": "PUSH1 0x80 PUSH1 0x40 MSTORE CALLVALUE DUP1 ISZERO PUSH2 0x10 JUMPI PUSH1 0x0 DUP1 REVERT JUMPDEST POP PUSH2 0xC41 DUP1 PUSH2 0x20 PUSH1 0x0 CODECOPY PUSH1 0x0 RETURN INVALID PUSH1 0x80 PUSH1 0x40 MSTORE CALLVALUE DUP1 ISZERO PUSH2 0x10 JUMPI PUSH1 0x0 DUP1 REVERT JUMPDEST POP PUSH1 0x4 CALLDATASIZE LT PUSH2 0x57 JUMPI PUSH1 0x0 CALLDATALOAD PUSH1 0xE0 SHR DUP1 PUSH4 0x35E317F3 EQ PUSH2 0x5C JUMPI DUP1 PUSH4 0x54BFA6A4 EQ PUSH2 0x78 JUMPI DUP1 PUSH4 0x7B4CD9EB EQ PUSH2 0xA8 JUMPI DUP1 PUSH4 0xF52AEE1D EQ PUSH2 0xD8 JUMPI DUP1 PUSH4 0xFC782C9F EQ PUSH2 0x108 JUMPI JUMPDEST PUSH1 0x0 DUP1 REVERT JUMPDEST PUSH2 0x76 PUSH1 0x4 DUP1 CALLDATASIZE SUB DUP2 ADD SWAP1 PUSH2 0x71 SWAP2 SWAP1 PUSH2 0x4E5 JUMP JUMPDEST PUSH2 0x126 JUMP JUMPDEST STOP JUMPDEST PUSH2 0x92 PUSH1 0x4 DUP1 CALLDATASIZE SUB DUP2 ADD SWAP1 PUSH2 0x8D SWAP2 SWAP1 PUSH2 0x541 JUMP JUMPDEST PUSH2 0x182 JUMP JUMPDEST PUSH1 0x40 MLOAD PUSH2 0x9F SWAP2 SWAP1 PUSH2 0x5C8 JUMP JUMPDEST PUSH1 0x40 MLOAD DUP1 SWAP2 SUB SWAP1 RETURN JUMPDEST PUSH2 0xC2 PUSH1 0x4 DUP1 CALLDATASIZE SUB DUP2 ADD SWAP1 PUSH2 0xBD SWAP2 SWAP1 PUSH2 0x5E3 JUMP JUMPDEST PUSH2 0x1A8 JUMP JUMPDEST PUSH1 0x40 MLOAD PUSH2 0xCF SWAP2 SWAP1 PUSH2 0x5C8 JUMP JUMPDEST PUSH1 0x40 MLOAD DUP1 SWAP2 SUB SWAP1 RETURN JUMPDEST PUSH2 0xF2 PUSH1 0x4 DUP1 CALLDATASIZE SUB DUP2 ADD SWAP1 PUSH2 0xED SWAP2 SWAP1 PUSH2 0x62C JUMP JUMPDEST PUSH2 0x232 JUMP JUMPDEST PUSH1 0x40 MLOAD PUSH2 0xFF SWAP2 SWAP1 PUSH2 0x6D8 JUMP JUMPDEST PUSH1 0x40 MLOAD DUP1 SWAP2 SUB SWAP1 RETURN JUMPDEST PUSH2 0x110 PUSH2 0x2DE JUMP JUMPDEST PUSH1 0x40 MLOAD PUSH2 0x11D SWAP2 SWAP1 PUSH2 0x5C8 JUMP JUMPDEST PUSH1 0x40 MLOAD DUP1 SWAP2 SUB SWAP1 RETURN JUMPDEST DUP2 PUSH1 0x0 DUP3 PUSH1 0x40 MLOAD PUSH2 0x137 SWAP2 SWAP1 PUSH2 0x736 JUMP JUMPDEST SWAP1 DUP2 MSTORE PUSH1 0x20 ADD PUSH1 0x40 MLOAD DUP1 SWAP2 SUB SWAP1 KECCAK256 DUP2 SWAP1 SSTORE POP PUSH1 0x1 DUP2 SWAP1 DUP1 PUSH1 0x1 DUP2 SLOAD ADD DUP1 DUP3 SSTORE DUP1 SWAP2 POP POP PUSH1 0x1 SWAP1 SUB SWAP1 PUSH1 0x0 MSTORE PUSH1 0x20 PUSH1 0x0 KECCAK256 ADD PUSH1 0x0 SWAP1 SWAP2 SWAP1 SWAP2 SWAP1 SWAP2 POP SWAP1 DUP2 PUSH2 0x17D SWAP2 SWAP1 PUSH2 0x959 JUMP JUMPDEST POP POP POP JUMP JUMPDEST PUSH1 0x0 PUSH2 0x18D DUP3 PUSH2 0x1A8 JUMP JUMPDEST PUSH2 0x196 DUP5 PUSH2 0x1A8 JUMP JUMPDEST PUSH2 0x1A0 SWAP2 SWAP1 PUSH2 0xA5A JUMP JUMPDEST SWAP1 POP SWAP3 SWAP2 POP POP JUMP JUMPDEST PUSH1 0x0 DUP2 PUSH1 0x0 DUP1 DUP3 PUSH1 0x40 MLOAD PUSH2 0x1BC SWAP2 SWAP1 PUSH2 0x736 JUMP JUMPDEST SWAP1 DUP2 MSTORE PUSH1 0x20 ADD PUSH1 0x40 MLOAD DUP1 SWAP2 SUB SWAP1 KECCAK256 SLOAD SUB PUSH2 0x20B JUMPI PUSH1 0x40 MLOAD PUSH32 0x8C379A000000000000000000000000000000000000000000000000000000000 DUP2 MSTORE PUSH1 0x4 ADD PUSH2 0x202 SWAP1 PUSH2 0xADA JUMP JUMPDEST PUSH1 0x40 MLOAD DUP1 SWAP2 SUB SWAP1 REVERT JUMPDEST PUSH1 0x0 DUP4 PUSH1 0x40 MLOAD PUSH2 0x21B SWAP2 SWAP1 PUSH2 0x736 JUMP JUMPDEST SWAP1 DUP2 MSTORE PUSH1 0x20 ADD PUSH1 0x40 MLOAD DUP1 SWAP2 SUB SWAP1 KECCAK256 SLOAD SWAP2 POP POP SWAP2 SWAP1 POP JUMP JUMPDEST PUSH1 0x1 DUP2 DUP2 SLOAD DUP2 LT PUSH2 0x242 JUMPI PUSH1 0x0 DUP1 REVERT JUMPDEST SWAP1 PUSH1 0x0 MSTORE PUSH1 0x20 PUSH1 0x0 KECCAK256 ADD PUSH1 0x0 SWAP2 POP SWAP1 POP DUP1 SLOAD PUSH2 0x25D SWAP1 PUSH2 0x77C JUMP JUMPDEST DUP1 PUSH1 0x1F ADD PUSH1 0x20 DUP1 SWAP2 DIV MUL PUSH1 0x20 ADD PUSH1 0x40 MLOAD SWAP1 DUP2 ADD PUSH1 0x40 MSTORE DUP1 SWAP3 SWAP2 SWAP1 DUP2 DUP2 MSTORE PUSH1 0x20 ADD DUP3 DUP1 SLOAD PUSH2 0x289 SWAP1 PUSH2 0x77C JUMP JUMPDEST DUP1 ISZERO PUSH2 0x2D6 JUMPI DUP1 PUSH1 0x1F LT PUSH2 0x2AB JUMPI PUSH2 0x100 DUP1 DUP4 SLOAD DIV MUL DUP4 MSTORE SWAP2 PUSH1 0x20 ADD SWAP2 PUSH2 0x2D6 JUMP JUMPDEST DUP3 ADD SWAP2 SWAP1 PUSH1 0x0 MSTORE PUSH1 0x20 PUSH1 0x0 KECCAK256 SWAP1 JUMPDEST DUP2 SLOAD DUP2 MSTORE SWAP1 PUSH1 0x1 ADD SWAP1 PUSH1 0x20 ADD DUP1 DUP4 GT PUSH2 0x2B9 JUMPI DUP3 SWAP1 SUB PUSH1 0x1F AND DUP3 ADD SWAP2 JUMPDEST POP POP POP POP POP DUP2 JUMP JUMPDEST PUSH1 0x0 DUP1 PUSH1 0x0 JUMPDEST PUSH1 0x1 DUP1 SLOAD SWAP1 POP DUP2 LT ISZERO PUSH2 0x34D JUMPI PUSH1 0x0 PUSH1 0x1 DUP3 DUP2 SLOAD DUP2 LT PUSH2 0x307 JUMPI PUSH2 0x306 PUSH2 0xAFA JUMP JUMPDEST JUMPDEST SWAP1 PUSH1 0x0 MSTORE PUSH1 0x20 PUSH1 0x0 KECCAK256 ADD PUSH1 0x40 MLOAD PUSH2 0x31E SWAP2 SWAP1 PUSH2 0xBAC JUMP JUMPDEST SWAP1 DUP2 MSTORE PUSH1 0x20 ADD PUSH1 0x40 MLOAD DUP1 SWAP2 SUB SWAP1 KECCAK256 SLOAD DUP3 PUSH2 0x338 SWAP2 SWAP1 PUSH2 0xA5A JUMP JUMPDEST SWAP2 POP DUP1 DUP1 PUSH2 0x345 SWAP1 PUSH2 0xBC3 JUMP JUMPDEST SWAP2 POP POP PUSH2 0x2E4 JUMP JUMPDEST POP DUP1 SWAP2 POP POP SWAP1 JUMP JUMPDEST PUSH1 0x0 PUSH1 0x40 MLOAD SWAP1 POP SWAP1 JUMP JUMPDEST PUSH1 0x0 DUP1 REVERT JUMPDEST PUSH1 0x0 DUP1 REVERT JUMPDEST PUSH1 0x0 DUP2 SWAP1 POP SWAP2 SWAP1 POP JUMP JUMPDEST PUSH2 0x37C DUP2 PUSH2 0x369 JUMP JUMPDEST DUP2 EQ PUSH2 0x387 JUMPI PUSH1 0x0 DUP1 REVERT JUMPDEST POP JUMP JUMPDEST PUSH1 0x0 DUP2 CALLDATALOAD SWAP1 POP PUSH2 0x399 DUP2 PUSH2 0x373 JUMP JUMPDEST SWAP3 SWAP2 POP POP JUMP JUMPDEST PUSH1 0x0 DUP1 REVERT JUMPDEST PUSH1 0x0 DUP1 REVERT JUMPDEST PUSH1 0x0 PUSH1 0x1F NOT PUSH1 0x1F DUP4 ADD AND SWAP1 POP SWAP2 SWAP1 POP JUMP JUMPDEST PUSH32 0x4E487B7100000000000000000000000000000000000000000000000000000000 PUSH1 0x0 MSTORE PUSH1 0x41 PUSH1 0x4 MSTORE PUSH1 0x24 PUSH1 0x0 REVERT JUMPDEST PUSH2 0x3F2 DUP3 PUSH2 0x3A9 JUMP JUMPDEST DUP2 ADD DUP2 DUP2 LT PUSH8 0xFFFFFFFFFFFFFFFF DUP3 GT OR ISZERO PUSH2 0x411 JUMPI PUSH2 0x410 PUSH2 0x3BA JUMP JUMPDEST JUMPDEST DUP1 PUSH1 0x40 MSTORE POP POP POP JUMP JUMPDEST PUSH1 0x0 PUSH2 0x424 PUSH2 0x355 JUMP JUMPDEST SWAP1 POP PUSH2 0x430 DUP3 DUP3 PUSH2 0x3E9 JUMP JUMPDEST SWAP2 SWAP1 POP JUMP JUMPDEST PUSH1 0x0 PUSH8 0xFFFFFFFFFFFFFFFF DUP3 GT ISZERO PUSH2 0x450 JUMPI PUSH2 0x44F PUSH2 0x3BA JUMP JUMPDEST JUMPDEST PUSH2 0x459 DUP3 PUSH2 0x3A9 JUMP JUMPDEST SWAP1 POP PUSH1 0x20 DUP2 ADD SWAP1 POP SWAP2 SWAP1 POP JUMP JUMPDEST DUP3 DUP2 DUP4 CALLDATACOPY PUSH1 0x0 DUP4 DUP4 ADD MSTORE POP POP POP JUMP JUMPDEST PUSH1 0x0 PUSH2 0x488 PUSH2 0x483 DUP5 PUSH2 0x435 JUMP JUMPDEST PUSH2 0x41A JUMP JUMPDEST SWAP1 POP DUP3 DUP2 MSTORE PUSH1 0x20 DUP2 ADD DUP5 DUP5 DUP5 ADD GT ISZERO PUSH2 0x4A4 JUMPI PUSH2 0x4A3 PUSH2 0x3A4 JUMP JUMPDEST JUMPDEST PUSH2 0x4AF DUP5 DUP3 DUP6 PUSH2 0x466 JUMP JUMPDEST POP SWAP4 SWAP3 POP POP POP JUMP JUMPDEST PUSH1 0x0 DUP3 PUSH1 0x1F DUP4 ADD SLT PUSH2 0x4CC JUMPI PUSH2 0x4CB PUSH2 0x39F JUMP JUMPDEST JUMPDEST DUP2 CALLDATALOAD PUSH2 0x4DC DUP5 DUP3 PUSH1 0x20 DUP7 ADD PUSH2 0x475 JUMP JUMPDEST SWAP2 POP POP SWAP3 SWAP2 POP POP JUMP JUMPDEST PUSH1 0x0 DUP1 PUSH1 0x40 DUP4 DUP6 SUB SLT ISZERO PUSH2 0x4FC JUMPI PUSH2 0x4FB PUSH2 0x35F JUMP JUMPDEST JUMPDEST PUSH1 0x0 PUSH2 0x50A DUP6 DUP3 DUP7 ADD PUSH2 0x38A JUMP JUMPDEST SWAP3 POP POP PUSH1 0x20 DUP4 ADD CALLDATALOAD PUSH8 0xFFFFFFFFFFFFFFFF DUP2 GT ISZERO PUSH2 0x52B JUMPI PUSH2 0x52A PUSH2 0x364 JUMP JUMPDEST JUMPDEST PUSH2 0x537 DUP6 DUP3 DUP7 ADD PUSH2 0x4B7 JUMP JUMPDEST SWAP2 POP POP SWAP3 POP SWAP3 SWAP1 POP JUMP JUMPDEST PUSH1 0x0 DUP1 PUSH1 0x40 DUP4 DUP6 SUB SLT ISZERO PUSH2 0x558 JUMPI PUSH2 0x557 PUSH2 0x35F JUMP JUMPDEST JUMPDEST PUSH1 0x0 DUP4 ADD CALLDATALOAD PUSH8 0xFFFFFFFFFFFFFFFF DUP2 GT ISZERO PUSH2 0x576 JUMPI PUSH2 0x575 PUSH2 0x364 JUMP JUMPDEST JUMPDEST PUSH2 0x582 DUP6 DUP3 DUP7 ADD PUSH2 0x4B7 JUMP JUMPDEST SWAP3 POP POP PUSH1 0x20 DUP4 ADD CALLDATALOAD PUSH8 0xFFFFFFFFFFFFFFFF DUP2 GT ISZERO PUSH2 0x5A3 JUMPI PUSH2 0x5A2 PUSH2 0x364 JUMP JUMPDEST JUMPDEST PUSH2 0x5AF DUP6 DUP3 DUP7 ADD PUSH2 0x4B7 JUMP JUMPDEST SWAP2 POP POP SWAP3 POP SWAP3 SWAP1 POP JUMP JUMPDEST PUSH2 0x5C2 DUP2 PUSH2 0x369 JUMP JUMPDEST DUP3 MSTORE POP POP JUMP JUMPDEST PUSH1 0x0 PUSH1 0x20 DUP3 ADD SWAP1 POP PUSH2 0x5DD PUSH1 0x0 DUP4 ADD DUP5 PUSH2 0x5B9 JUMP JUMPDEST SWAP3 SWAP2 POP POP JUMP JUMPDEST PUSH1 0x0 PUSH1 0x20 DUP3 DUP5 SUB SLT ISZERO PUSH2 0x5F9 JUMPI PUSH2 0x5F8 PUSH2 0x35F JUMP JUMPDEST JUMPDEST PUSH1 0x0 DUP3 ADD CALLDATALOAD PUSH8 0xFFFFFFFFFFFFFFFF DUP2 GT ISZERO PUSH2 0x617 JUMPI PUSH2 0x616 PUSH2 0x364 JUMP JUMPDEST JUMPDEST PUSH2 0x623 DUP5 DUP3 DUP6 ADD PUSH2 0x4B7 JUMP JUMPDEST SWAP2 POP POP SWAP3 SWAP2 POP POP JUMP JUMPDEST PUSH1 0x0 PUSH1 0x20 DUP3 DUP5 SUB SLT ISZERO PUSH2 0x642 JUMPI PUSH2 0x641 PUSH2 0x35F JUMP JUMPDEST JUMPDEST PUSH1 0x0 PUSH2 0x650 DUP5 DUP3 DUP6 ADD PUSH2 0x38A JUMP JUMPDEST SWAP2 POP POP SWAP3 SWAP2 POP POP JUMP JUMPDEST PUSH1 0x0 DUP2 MLOAD SWAP1 POP SWAP2 SWAP1 POP JUMP JUMPDEST PUSH1 0x0 DUP3 DUP3 MSTORE PUSH1 0x20 DUP3 ADD SWAP1 POP SWAP3 SWAP2 POP POP JUMP JUMPDEST PUSH1 0x0 JUMPDEST DUP4 DUP2 LT ISZERO PUSH2 0x693 JUMPI DUP1 DUP3 ADD MLOAD DUP2 DUP5 ADD MSTORE PUSH1 0x20 DUP2 ADD SWAP1 POP PUSH2 0x678 JUMP JUMPDEST PUSH1 0x0 DUP5 DUP5 ADD MSTORE POP POP POP POP JUMP JUMPDEST PUSH1 0x0 PUSH2 0x6AA DUP3 PUSH2 0x659 JUMP JUMPDEST PUSH2 0x6B4 DUP2 DUP6 PUSH2 0x664 JUMP JUMPDEST SWAP4 POP PUSH2 0x6C4 DUP2 DUP6 PUSH1 0x20 DUP7 ADD PUSH2 0x675 JUMP JUMPDEST PUSH2 0x6CD DUP2 PUSH2 0x3A9 JUMP JUMPDEST DUP5 ADD SWAP2 POP POP SWAP3 SWAP2 POP POP JUMP JUMPDEST PUSH1 0x0 PUSH1 0x20 DUP3 ADD SWAP1 POP DUP2 DUP2 SUB PUSH1 0x0 DUP4 ADD MSTORE PUSH2 0x6F2 DUP2 DUP5 PUSH2 0x69F JUMP JUMPDEST SWAP1 POP SWAP3 SWAP2 POP POP JUMP JUMPDEST PUSH1 0x0 DUP2 SWAP1 POP SWAP3 SWAP2 POP POP JUMP JUMPDEST PUSH1 0x0 PUSH2 0x710 DUP3 PUSH2 0x659 JUMP JUMPDEST PUSH2 0x71A DUP2 DUP6 PUSH2 0x6FA JUMP JUMPDEST SWAP4 POP PUSH2 0x72A DUP2 DUP6 PUSH1 0x20 DUP7 ADD PUSH2 0x675 JUMP JUMPDEST DUP1 DUP5 ADD SWAP2 POP POP SWAP3 SWAP2 POP POP JUMP JUMPDEST PUSH1 0x0 PUSH2 0x742 DUP3 DUP5 PUSH2 0x705 JUMP JUMPDEST SWAP2 POP DUP2 SWAP1 POP SWAP3 SWAP2 POP POP JUMP JUMPDEST PUSH32 0x4E487B7100000000000000000000000000000000000000000000000000000000 PUSH1 0x0 MSTORE PUSH1 0x22 PUSH1 0x4 MSTORE PUSH1 0x24 PUSH1 0x0 REVERT JUMPDEST PUSH1 0x0 PUSH1 0x2 DUP3 DIV SWAP1 POP PUSH1 0x1 DUP3 AND DUP1 PUSH2 0x794 JUMPI PUSH1 0x7F DUP3 AND SWAP2 POP JUMPDEST PUSH1 0x20 DUP3 LT DUP2 SUB PUSH2 0x7A7 JUMPI PUSH2 0x7A6 PUSH2 0x74D JUMP JUMPDEST JUMPDEST POP SWAP2 SWAP1 POP JUMP JUMPDEST PUSH1 0x0 DUP2 SWAP1 POP DUP2 PUSH1 0x0 MSTORE PUSH1 0x20 PUSH1 0x0 KECCAK256 SWAP1 POP SWAP2 SWAP1 POP JUMP JUMPDEST PUSH1 0x0 PUSH1 0x20 PUSH1 0x1F DUP4 ADD DIV SWAP1 POP SWAP2 SWAP1 POP JUMP JUMPDEST PUSH1 0x0 DUP3 DUP3 SHL SWAP1 POP SWAP3 SWAP2 POP POP JUMP JUMPDEST PUSH1 0x0 PUSH1 0x8 DUP4 MUL PUSH2 0x80F PUSH32 0xFFFFFFFFFFFFFFFFFFFFFFFFFFFFFFFFFFFFFFFFFFFFFFFFFFFFFFFFFFFFFFFF DUP3 PUSH2 0x7D2 JUMP JUMPDEST PUSH2 0x819 DUP7 DUP4 PUSH2 0x7D2 JUMP JUMPDEST SWAP6 POP DUP1 NOT DUP5 AND SWAP4 POP DUP1 DUP7 AND DUP5 OR SWAP3 POP POP POP SWAP4 SWAP3 POP POP POP JUMP JUMPDEST PUSH1 0x0 DUP2 SWAP1 POP SWAP2 SWAP1 POP JUMP JUMPDEST PUSH1 0x0 PUSH2 0x856 PUSH2 0x851 PUSH2 0x84C DUP5 PUSH2 0x369 JUMP JUMPDEST PUSH2 0x831 JUMP JUMPDEST PUSH2 0x369 JUMP JUMPDEST SWAP1 POP SWAP2 SWAP1 POP JUMP JUMPDEST PUSH1 0x0 DUP2 SWAP1 POP SWAP2 SWAP1 POP JUMP JUMPDEST PUSH2 0x870 DUP4 PUSH2 0x83B JUMP JUMPDEST PUSH2 0x884 PUSH2 0x87C DUP3 PUSH2 0x85D JUMP JUMPDEST DUP5 DUP5 SLOAD PUSH2 0x7DF JUMP JUMPDEST DUP3 SSTORE POP POP POP POP JUMP JUMPDEST PUSH1 0x0 SWAP1 JUMP JUMPDEST PUSH2 0x899 PUSH2 0x88C JUMP JUMPDEST PUSH2 0x8A4 DUP2 DUP5 DUP5 PUSH2 0x867 JUMP JUMPDEST POP POP POP JUMP JUMPDEST JUMPDEST DUP2 DUP2 LT ISZERO PUSH2 0x8C8 JUMPI PUSH2 0x8BD PUSH1 0x0 DUP3 PUSH2 0x891 JUMP JUMPDEST PUSH1 0x1 DUP2 ADD SWAP1 POP PUSH2 0x8AA JUMP JUMPDEST POP POP JUMP JUMPDEST PUSH1 0x1F DUP3 GT ISZERO PUSH2 0x90D JUMPI PUSH2 0x8DE DUP2 PUSH2 0x7AD JUMP JUMPDEST PUSH2 0x8E7 DUP5 PUSH2 0x7C2 JUMP JUMPDEST DUP2 ADD PUSH1 0x20 DUP6 LT ISZERO PUSH2 0x8F6 JUMPI DUP2 SWAP1 POP JUMPDEST PUSH2 0x90A PUSH2 0x902 DUP6 PUSH2 0x7C2 JUMP JUMPDEST DUP4 ADD DUP3 PUSH2 0x8A9 JUMP JUMPDEST POP POP JUMPDEST POP POP POP JUMP JUMPDEST PUSH1 0x0 DUP3 DUP3 SHR SWAP1 POP SWAP3 SWAP2 POP POP JUMP JUMPDEST PUSH1 0x0 PUSH2 0x930 PUSH1 0x0 NOT DUP5 PUSH1 0x8 MUL PUSH2 0x912 JUMP JUMPDEST NOT DUP1 DUP4 AND SWAP2 POP POP SWAP3 SWAP2 POP POP JUMP JUMPDEST PUSH1 0x0 PUSH2 0x949 DUP4 DUP4 PUSH2 0x91F JUMP JUMPDEST SWAP2 POP DUP3 PUSH1 0x2 MUL DUP3 OR SWAP1 POP SWAP3 SWAP2 POP POP JUMP JUMPDEST PUSH2 0x962 DUP3 PUSH2 0x659 JUMP JUMPDEST PUSH8 0xFFFFFFFFFFFFFFFF DUP2 GT ISZERO PUSH2 0x97B JUMPI PUSH2 0x97A PUSH2 0x3BA JUMP JUMPDEST JUMPDEST PUSH2 0x985 DUP3 SLOAD PUSH2 0x77C JUMP JUMPDEST PUSH2 0x990 DUP3 DUP3 DUP6 PUSH2 0x8CC JUMP JUMPDEST PUSH1 0x0 PUSH1 0x20 SWAP1 POP PUSH1 0x1F DUP4 GT PUSH1 0x1 DUP2 EQ PUSH2 0x9C3 JUMPI PUSH1 0x0 DUP5 ISZERO PUSH2 0x9B1 JUMPI DUP3 DUP8 ADD MLOAD SWAP1 POP JUMPDEST PUSH2 0x9BB DUP6 DUP3 PUSH2 0x93D JUMP JUMPDEST DUP7 SSTORE POP PUSH2 0xA23 JUMP JUMPDEST PUSH1 0x1F NOT DUP5 AND PUSH2 0x9D1 DUP7 PUSH2 0x7AD JUMP JUMPDEST PUSH1 0x0 JUMPDEST DUP3 DUP2 LT ISZERO PUSH2 0x9F9 JUMPI DUP5 DUP10 ADD MLOAD DUP3 SSTORE PUSH1 0x1 DUP3 ADD SWAP2 POP PUSH1 0x20 DUP6 ADD SWAP5 POP PUSH1 0x20 DUP2 ADD SWAP1 POP PUSH2 0x9D4 JUMP JUMPDEST DUP7 DUP4 LT ISZERO PUSH2 0xA16 JUMPI DUP5 DUP10 ADD MLOAD PUSH2 0xA12 PUSH1 0x1F DUP10 AND DUP3 PUSH2 0x91F JUMP JUMPDEST DUP4 SSTORE POP JUMPDEST PUSH1 0x1 PUSH1 0x2 DUP9 MUL ADD DUP9 SSTORE POP POP POP JUMPDEST POP POP POP POP POP POP JUMP JUMPDEST PUSH32 0x4E487B7100000000000000000000000000000000000000000000000000000000 PUSH1 0x0 MSTORE PUSH1 0x11 PUSH1 0x4 MSTORE PUSH1 0x24 PUSH1 0x0 REVERT JUMPDEST PUSH1 0x0 PUSH2 0xA65 DUP3 PUSH2 0x369 JUMP JUMPDEST SWAP2 POP PUSH2 0xA70 DUP4 PUSH2 0x369 JUMP JUMPDEST SWAP3 POP DUP3 DUP3 ADD SWAP1 POP DUP1 DUP3 GT ISZERO PUSH2 0xA88 JUMPI PUSH2 0xA87 PUSH2 0xA2B JUMP JUMPDEST JUMPDEST SWAP3 SWAP2 POP POP JUMP JUMPDEST PUSH32 0x5468697320706572736F6E20646F6573206E6F742065786973742E0000000000 PUSH1 0x0 DUP3 ADD MSTORE POP JUMP JUMPDEST PUSH1 0x0 PUSH2 0xAC4 PUSH1 0x1B DUP4 PUSH2 0x664 JUMP JUMPDEST SWAP2 POP PUSH2 0xACF DUP3 PUSH2 0xA8E JUMP JUMPDEST PUSH1 0x20 DUP3 ADD SWAP1 POP SWAP2 SWAP1 POP JUMP JUMPDEST PUSH1 0x0 PUSH1 0x20 DUP3 ADD SWAP1 POP DUP2 DUP2 SUB PUSH1 0x0 DUP4 ADD MSTORE PUSH2 0xAF3 DUP2 PUSH2 0xAB7 JUMP JUMPDEST SWAP1 POP SWAP2 SWAP1 POP JUMP JUMPDEST PUSH32 0x4E487B7100000000000000000000000000000000000000000000000000000000 PUSH1 0x0 MSTORE PUSH1 0x32 PUSH1 0x4 MSTORE PUSH1 0x24 PUSH1 0x0 REVERT JUMPDEST PUSH1 0x0 DUP2 SLOAD PUSH2 0xB36 DUP2 PUSH2 0x77C JUMP JUMPDEST PUSH2 0xB40 DUP2 DUP7 PUSH2 0x6FA JUMP JUMPDEST SWAP5 POP PUSH1 0x1 DUP3 AND PUSH1 0x0 DUP2 EQ PUSH2 0xB5B JUMPI PUSH1 0x1 DUP2 EQ PUSH2 0xB70 JUMPI PUSH2 0xBA3 JUMP JUMPDEST PUSH1 0xFF NOT DUP4 AND DUP7 MSTORE DUP2 ISZERO ISZERO DUP3 MUL DUP7 ADD SWAP4 POP PUSH2 0xBA3 JUMP JUMPDEST PUSH2 0xB79 DUP6 PUSH2 0x7AD JUMP JUMPDEST PUSH1 0x0 JUMPDEST DUP4 DUP2 LT ISZERO PUSH2 0xB9B JUMPI DUP2 SLOAD DUP2 DUP10 ADD MSTORE PUSH1 0x1 DUP3 ADD SWAP2 POP PUSH1 0x20 DUP2 ADD SWAP1 POP PUSH2 0xB7C JUMP JUMPDEST DUP4 DUP9 ADD SWAP6 POP POP POP JUMPDEST POP POP POP SWAP3 SWAP2 POP POP JUMP JUMPDEST PUSH1 0x0 PUSH2 0xBB8 DUP3 DUP5 PUSH2 0xB29 JUMP JUMPDEST SWAP2 POP DUP2 SWAP1 POP SWAP3 SWAP2 POP POP JUMP JUMPDEST PUSH1 0x0 PUSH2 0xBCE DUP3 PUSH2 0x369 JUMP JUMPDEST SWAP2 POP PUSH32 0xFFFFFFFFFFFFFFFFFFFFFFFFFFFFFFFFFFFFFFFFFFFFFFFFFFFFFFFFFFFFFFFF DUP3 SUB PUSH2 0xC00 JUMPI PUSH2 0xBFF PUSH2 0xA2B JUMP JUMPDEST JUMPDEST PUSH1 0x1 DUP3 ADD SWAP1 POP SWAP2 SWAP1 POP JUMP INVALID LOG2 PUSH5 0x6970667358 0x22 SLT KECCAK256 0x4D DUP3 0xC1 RETURNDATASIZE 0xAC 0xD4 PUSH15 0xEB827AEA71E406D92C63107F08AADF GASLIMIT EXTCODECOPY 0x4A 0xF9 ADD 0xAF 0xD4 0xC8 OR 0xE4 PUSH5 0x736F6C6343 STOP ADDMOD SGT STOP CALLER "
		},
		"gasEstimates": {
			"creation": {
				"codeDepositCost": "627400",
				"executionCost": "664",
				"totalCost": "628064"
			},
			"external": {
				"addTwoPeopleFavoriteNumbers(string,string)": "infinite",
				"getPersonFavoriteNumber(string)": "infinite",
				"listOfNames(uint256)": "infinite",
				"newPerson(uint256,string)": "infinite",
				"sumOfFavoriteNumbers()": "infinite"
			}
		},
		"methodIdentifiers": {
			"addTwoPeopleFavoriteNumbers(string,string)": "54bfa6a4",
			"getPersonFavoriteNumber(string)": "7b4cd9eb",
			"listOfNames(uint256)": "f52aee1d",
			"newPerson(uint256,string)": "35e317f3",
			"sumOfFavoriteNumbers()": "fc782c9f"
		}
	},
	"abi": [
		{
			"inputs": [
				{
					"internalType": "string",
					"name": "_firstName",
					"type": "string"
				},
				{
					"internalType": "string",
					"name": "_secondName",
					"type": "string"
				}
			],
			"name": "addTwoPeopleFavoriteNumbers",
			"outputs": [
				{
					"internalType": "uint256",
					"name": "",
					"type": "uint256"
				}
			],
			"stateMutability": "view",
			"type": "function"
		},
		{
			"inputs": [
				{
					"internalType": "string",
					"name": "_name",
					"type": "string"
				}
			],
			"name": "getPersonFavoriteNumber",
			"outputs": [
				{
					"internalType": "uint256",
					"name": "",
					"type": "uint256"
				}
			],
			"stateMutability": "view",
			"type": "function"
		},
		{
			"inputs": [
				{
					"internalType": "uint256",
					"name": "",
					"type": "uint256"
				}
			],
			"name": "listOfNames",
			"outputs": [
				{
					"internalType": "string",
					"name": "",
					"type": "string"
				}
			],
			"stateMutability": "view",
			"type": "function"
		},
		{
			"inputs": [
				{
					"internalType": "uint256",
					"name": "_favoriteNumber",
					"type": "uint256"
				},
				{
					"internalType": "string",
					"name": "_name",
					"type": "string"
				}
			],
			"name": "newPerson",
			"outputs": [],
			"stateMutability": "nonpayable",
			"type": "function"
		},
		{
			"inputs": [],
			"name": "sumOfFavoriteNumbers",
			"outputs": [
				{
					"internalType": "uint256",
					"name": "",
					"type": "uint256"
				}
			],
			"stateMutability": "view",
			"type": "function"
		}
	]
}