{
	"contracts/Lesson 4/FundMe.sol": {
		"FundMe": {
			"abi": [
				{
					"inputs": [],
					"stateMutability": "nonpayable",
					"type": "constructor"
				},
				{
					"inputs": [],
					"name": "NotOwner",
					"type": "error"
				},
				{
					"stateMutability": "payable",
					"type": "fallback"
				},
				{
					"inputs": [],
					"name": "MINIMUM_USD",
					"outputs": [
						{
							"internalType": "uint256",
							"name": "",
							"type": "uint256"
						}
					],
					"stateMutability": "view",
					"type": "function"
				},
				{
					"inputs": [
						{
							"internalType": "string",
							"name": "_name",
							"type": "string"
						}
					],
					"name": "fund",
					"outputs": [],
					"stateMutability": "payable",
					"type": "function"
				},
				{
					"inputs": [
						{
							"internalType": "string",
							"name": "_name",
							"type": "string"
						}
					],
					"name": "fundUserAmount",
					"outputs": [
						{
							"internalType": "uint256",
							"name": "",
							"type": "uint256"
						}
					],
					"stateMutability": "view",
					"type": "function"
				},
				{
					"inputs": [
						{
							"internalType": "string",
							"name": "",
							"type": "string"
						}
					],
					"name": "funders",
					"outputs": [
						{
							"internalType": "address",
							"name": "walletAddress",
							"type": "address"
						},
						{
							"internalType": "uint256",
							"name": "fundAmount",
							"type": "uint256"
						}
					],
					"stateMutability": "view",
					"type": "function"
				},
				{
					"inputs": [
						{
							"internalType": "uint256",
							"name": "",
							"type": "uint256"
						}
					],
					"name": "fundersNames",
					"outputs": [
						{
							"internalType": "string",
							"name": "",
							"type": "string"
						}
					],
					"stateMutability": "view",
					"type": "function"
				},
				{
					"inputs": [],
					"name": "i_owner",
					"outputs": [
						{
							"internalType": "address",
							"name": "",
							"type": "address"
						}
					],
					"stateMutability": "view",
					"type": "function"
				},
				{
					"inputs": [],
					"name": "withdraw",
					"outputs": [],
					"stateMutability": "nonpayable",
					"type": "function"
				},
				{
					"stateMutability": "payable",
					"type": "receive"
				}
			],
			"devdoc": {
				"kind": "dev",
				"methods": {},
				"version": 1
			},
			"evm": {
				"assembly": "    /* \"contracts/Lesson 4/FundMe.sol\":169:1787  contract FundMe {... */\n  mstore(0x40, 0x80)\n    /* \"contracts/Lesson 4/FundMe.sol\":262:266  5e18 */\n  0x4563918244f40000\n    /* \"contracts/Lesson 4/FundMe.sol\":233:266  uint256 public MINIMUM_USD = 5e18 */\n  0x00\n  sstore\n    /* \"contracts/Lesson 4/FundMe.sol\":483:536  constructor() {... */\n  callvalue\n  dup1\n  iszero\n  tag_1\n  jumpi\n  0x00\n  dup1\n  revert\ntag_1:\n  pop\n    /* \"contracts/Lesson 4/FundMe.sol\":518:528  msg.sender */\n  caller\n    /* \"contracts/Lesson 4/FundMe.sol\":508:515  i_owner */\n  0x03\n  0x00\n    /* \"contracts/Lesson 4/FundMe.sol\":508:528  i_owner = msg.sender */\n  0x0100\n  exp\n  dup2\n  sload\n  dup2\n  0xffffffffffffffffffffffffffffffffffffffff\n  mul\n  not\n  and\n  swap1\n  dup4\n  0xffffffffffffffffffffffffffffffffffffffff\n  and\n  mul\n  or\n  swap1\n  sstore\n  pop\n    /* \"contracts/Lesson 4/FundMe.sol\":169:1787  contract FundMe {... */\n  dataSize(sub_0)\n  dup1\n  dataOffset(sub_0)\n  0x00\n  codecopy\n  0x00\n  return\nstop\n\nsub_0: assembly {\n        /* \"contracts/Lesson 4/FundMe.sol\":169:1787  contract FundMe {... */\n      mstore(0x40, 0x80)\n      jumpi(tag_1, lt(calldatasize, 0x04))\n      shr(0xe0, calldataload(0x00))\n      dup1\n      0xa5b5b177\n      gt\n      tag_10\n      jumpi\n      dup1\n      0xa5b5b177\n      eq\n      tag_6\n      jumpi\n      dup1\n      0xc111cc87\n      eq\n      tag_7\n      jumpi\n      dup1\n      0xc4ab6b03\n      eq\n      tag_8\n      jumpi\n      dup1\n      0xdba6335f\n      eq\n      tag_9\n      jumpi\n      jump(tag_2)\n    tag_10:\n      dup1\n      0x3ccfd60b\n      eq\n      tag_3\n      jumpi\n      dup1\n      0x6b69a592\n      eq\n      tag_4\n      jumpi\n      dup1\n      0x73451f65\n      eq\n      tag_5\n      jumpi\n      jump(tag_2)\n    tag_1:\n      jumpi(tag_2, calldatasize)\n        /* \"contracts/Lesson 4/FundMe.sol\":1675:1698  fund(\"External Source\") */\n      tag_13\n      mload(0x40)\n      dup1\n      0x40\n      add\n      0x40\n      mstore\n      dup1\n      0x0f\n      dup2\n      mstore\n      0x20\n      add\n      0x45787465726e616c20536f757263650000000000000000000000000000000000\n      dup2\n      mstore\n      pop\n        /* \"contracts/Lesson 4/FundMe.sol\":1675:1679  fund */\n      tag_14\n        /* \"contracts/Lesson 4/FundMe.sol\":1675:1698  fund(\"External Source\") */\n      jump\t// in\n    tag_13:\n        /* \"contracts/Lesson 4/FundMe.sol\":169:1787  contract FundMe {... */\n      stop\n    tag_2:\n        /* \"contracts/Lesson 4/FundMe.sol\":1753:1776  fund(\"External Source\") */\n      tag_17\n      mload(0x40)\n      dup1\n      0x40\n      add\n      0x40\n      mstore\n      dup1\n      0x0f\n      dup2\n      mstore\n      0x20\n      add\n      0x45787465726e616c20536f757263650000000000000000000000000000000000\n      dup2\n      mstore\n      pop\n        /* \"contracts/Lesson 4/FundMe.sol\":1753:1757  fund */\n      tag_14\n        /* \"contracts/Lesson 4/FundMe.sol\":1753:1776  fund(\"External Source\") */\n      jump\t// in\n    tag_17:\n        /* \"contracts/Lesson 4/FundMe.sol\":169:1787  contract FundMe {... */\n      stop\n        /* \"contracts/Lesson 4/FundMe.sol\":877:1311  function withdraw() public onlyOwner { ... */\n    tag_3:\n      callvalue\n      dup1\n      iszero\n      tag_18\n      jumpi\n      0x00\n      dup1\n      revert\n    tag_18:\n      pop\n      tag_19\n      tag_20\n      jump\t// in\n    tag_19:\n      stop\n        /* \"contracts/Lesson 4/FundMe.sol\":233:266  uint256 public MINIMUM_USD = 5e18 */\n    tag_4:\n      callvalue\n      dup1\n      iszero\n      tag_21\n      jumpi\n      0x00\n      dup1\n      revert\n    tag_21:\n      pop\n      tag_22\n      tag_23\n      jump\t// in\n    tag_22:\n      mload(0x40)\n      tag_24\n      swap2\n      swap1\n      tag_25\n      jump\t// in\n    tag_24:\n      mload(0x40)\n      dup1\n      swap2\n      sub\n      swap1\n      return\n        /* \"contracts/Lesson 4/FundMe.sol\":544:736  function fund(string memory _name) public payable enoughEthSent {... */\n    tag_5:\n      tag_26\n      0x04\n      dup1\n      calldatasize\n      sub\n      dup2\n      add\n      swap1\n      tag_27\n      swap2\n      swap1\n      tag_28\n      jump\t// in\n    tag_27:\n      tag_14\n      jump\t// in\n    tag_26:\n      stop\n        /* \"contracts/Lesson 4/FundMe.sol\":275:303  string[] public fundersNames */\n    tag_6:\n      callvalue\n      dup1\n      iszero\n      tag_29\n      jumpi\n      0x00\n      dup1\n      revert\n    tag_29:\n      pop\n      tag_30\n      0x04\n      dup1\n      calldatasize\n      sub\n      dup2\n      add\n      swap1\n      tag_31\n      swap2\n      swap1\n      tag_32\n      jump\t// in\n    tag_31:\n      tag_33\n      jump\t// in\n    tag_30:\n      mload(0x40)\n      tag_34\n      swap2\n      swap1\n      tag_35\n      jump\t// in\n    tag_34:\n      mload(0x40)\n      dup1\n      swap2\n      sub\n      swap1\n      return\n        /* \"contracts/Lesson 4/FundMe.sol\":744:869  function fundUserAmount(string memory _name) public view returns(uint256) {... */\n    tag_7:\n      callvalue\n      dup1\n      iszero\n      tag_36\n      jumpi\n      0x00\n      dup1\n      revert\n    tag_36:\n      pop\n      tag_37\n      0x04\n      dup1\n      calldatasize\n      sub\n      dup2\n      add\n      swap1\n      tag_38\n      swap2\n      swap1\n      tag_28\n      jump\t// in\n    tag_38:\n      tag_39\n      jump\t// in\n    tag_37:\n      mload(0x40)\n      tag_40\n      swap2\n      swap1\n      tag_25\n      jump\t// in\n    tag_40:\n      mload(0x40)\n      dup1\n      swap2\n      sub\n      swap1\n      return\n        /* \"contracts/Lesson 4/FundMe.sol\":403:443  mapping(string => Funder) public funders */\n    tag_8:\n      callvalue\n      dup1\n      iszero\n      tag_41\n      jumpi\n      0x00\n      dup1\n      revert\n    tag_41:\n      pop\n      tag_42\n      0x04\n      dup1\n      calldatasize\n      sub\n      dup2\n      add\n      swap1\n      tag_43\n      swap2\n      swap1\n      tag_28\n      jump\t// in\n    tag_43:\n      tag_44\n      jump\t// in\n    tag_42:\n      mload(0x40)\n      tag_45\n      swap3\n      swap2\n      swap1\n      tag_46\n      jump\t// in\n    tag_45:\n      mload(0x40)\n      dup1\n      swap2\n      sub\n      swap1\n      return\n        /* \"contracts/Lesson 4/FundMe.sol\":452:474  address public i_owner */\n    tag_9:\n      callvalue\n      dup1\n      iszero\n      tag_47\n      jumpi\n      0x00\n      dup1\n      revert\n    tag_47:\n      pop\n      tag_48\n      tag_49\n      jump\t// in\n    tag_48:\n      mload(0x40)\n      tag_50\n      swap2\n      swap1\n      tag_51\n      jump\t// in\n    tag_50:\n      mload(0x40)\n      dup1\n      swap2\n      sub\n      swap1\n      return\n        /* \"contracts/Lesson 4/FundMe.sol\":544:736  function fund(string memory _name) public payable enoughEthSent {... */\n    tag_14:\n        /* \"contracts/Lesson 4/FundMe.sol\":1571:1582  MINIMUM_USD */\n      sload(0x00)\n        /* \"contracts/Lesson 4/FundMe.sol\":1538:1567  msg.value.getConversionRate() */\n      tag_53\n        /* \"contracts/Lesson 4/FundMe.sol\":1538:1547  msg.value */\n      callvalue\n        /* \"contracts/Lesson 4/FundMe.sol\":1538:1565  msg.value.getConversionRate */\n      tag_54\n        /* \"contracts/Lesson 4/FundMe.sol\":1538:1567  msg.value.getConversionRate() */\n      jump\t// in\n    tag_53:\n        /* \"contracts/Lesson 4/FundMe.sol\":1538:1582  msg.value.getConversionRate() >= MINIMUM_USD */\n      lt\n      iszero\n        /* \"contracts/Lesson 4/FundMe.sol\":1530:1609  require(msg.value.getConversionRate() >= MINIMUM_USD, \"didn't send enough ETH\") */\n      tag_55\n      jumpi\n      mload(0x40)\n      0x08c379a000000000000000000000000000000000000000000000000000000000\n      dup2\n      mstore\n      0x04\n      add\n      tag_56\n      swap1\n      tag_57\n      jump\t// in\n    tag_56:\n      mload(0x40)\n      dup1\n      swap2\n      sub\n      swap1\n      revert\n    tag_55:\n        /* \"contracts/Lesson 4/FundMe.sol\":619:631  fundersNames */\n      0x01\n        /* \"contracts/Lesson 4/FundMe.sol\":637:642  _name */\n      dup2\n        /* \"contracts/Lesson 4/FundMe.sol\":619:643  fundersNames.push(_name) */\n      swap1\n      dup1\n      0x01\n      dup2\n      sload\n      add\n      dup1\n      dup3\n      sstore\n      dup1\n      swap2\n      pop\n      pop\n      0x01\n      swap1\n      sub\n      swap1\n      0x00\n      mstore\n      keccak256(0x00, 0x20)\n      add\n      0x00\n      swap1\n      swap2\n      swap1\n      swap2\n      swap1\n      swap2\n      pop\n      swap1\n      dup2\n      tag_60\n      swap2\n      swap1\n      tag_61\n      jump\t// in\n    tag_60:\n      pop\n        /* \"contracts/Lesson 4/FundMe.sol\":671:728  Funder(msg.sender, funders[_name].fundAmount + msg.value) */\n      mload(0x40)\n      dup1\n      0x40\n      add\n      0x40\n      mstore\n      dup1\n        /* \"contracts/Lesson 4/FundMe.sol\":678:688  msg.sender */\n      caller\n        /* \"contracts/Lesson 4/FundMe.sol\":671:728  Funder(msg.sender, funders[_name].fundAmount + msg.value) */\n      0xffffffffffffffffffffffffffffffffffffffff\n      and\n      dup2\n      mstore\n      0x20\n      add\n        /* \"contracts/Lesson 4/FundMe.sol\":718:727  msg.value */\n      callvalue\n        /* \"contracts/Lesson 4/FundMe.sol\":690:697  funders */\n      0x02\n        /* \"contracts/Lesson 4/FundMe.sol\":698:703  _name */\n      dup5\n        /* \"contracts/Lesson 4/FundMe.sol\":690:704  funders[_name] */\n      mload(0x40)\n      tag_62\n      swap2\n      swap1\n      tag_63\n      jump\t// in\n    tag_62:\n      swap1\n      dup2\n      mstore\n      0x20\n      add\n      mload(0x40)\n      dup1\n      swap2\n      sub\n      swap1\n      keccak256\n        /* \"contracts/Lesson 4/FundMe.sol\":690:715  funders[_name].fundAmount */\n      0x01\n      add\n      sload\n        /* \"contracts/Lesson 4/FundMe.sol\":690:727  funders[_name].fundAmount + msg.value */\n      tag_64\n      swap2\n      swap1\n      tag_65\n      jump\t// in\n    tag_64:\n        /* \"contracts/Lesson 4/FundMe.sol\":671:728  Funder(msg.sender, funders[_name].fundAmount + msg.value) */\n      dup2\n      mstore\n      pop\n        /* \"contracts/Lesson 4/FundMe.sol\":654:661  funders */\n      0x02\n        /* \"contracts/Lesson 4/FundMe.sol\":662:667  _name */\n      dup3\n        /* \"contracts/Lesson 4/FundMe.sol\":654:668  funders[_name] */\n      mload(0x40)\n      tag_66\n      swap2\n      swap1\n      tag_63\n      jump\t// in\n    tag_66:\n      swap1\n      dup2\n      mstore\n      0x20\n      add\n      mload(0x40)\n      dup1\n      swap2\n      sub\n      swap1\n      keccak256\n        /* \"contracts/Lesson 4/FundMe.sol\":654:728  funders[_name] = Funder(msg.sender, funders[_name].fundAmount + msg.value) */\n      0x00\n      dup3\n      add\n      mload\n      dup2\n      0x00\n      add\n      exp(0x0100, 0x00)\n      dup2\n      sload\n      dup2\n      0xffffffffffffffffffffffffffffffffffffffff\n      mul\n      not\n      and\n      swap1\n      dup4\n      0xffffffffffffffffffffffffffffffffffffffff\n      and\n      mul\n      or\n      swap1\n      sstore\n      pop\n      0x20\n      dup3\n      add\n      mload\n      dup2\n      0x01\n      add\n      sstore\n      swap1\n      pop\n      pop\n        /* \"contracts/Lesson 4/FundMe.sol\":544:736  function fund(string memory _name) public payable enoughEthSent {... */\n      pop\n      jump\t// out\n        /* \"contracts/Lesson 4/FundMe.sol\":877:1311  function withdraw() public onlyOwner { ... */\n    tag_20:\n        /* \"contracts/Lesson 4/FundMe.sol\":1436:1443  i_owner */\n      0x03\n      0x00\n      swap1\n      sload\n      swap1\n      0x0100\n      exp\n      swap1\n      div\n      0xffffffffffffffffffffffffffffffffffffffff\n      and\n        /* \"contracts/Lesson 4/FundMe.sol\":1422:1443  msg.sender != i_owner */\n      0xffffffffffffffffffffffffffffffffffffffff\n      and\n        /* \"contracts/Lesson 4/FundMe.sol\":1422:1432  msg.sender */\n      caller\n        /* \"contracts/Lesson 4/FundMe.sol\":1422:1443  msg.sender != i_owner */\n      0xffffffffffffffffffffffffffffffffffffffff\n      and\n      eq\n        /* \"contracts/Lesson 4/FundMe.sol\":1418:1467  if (msg.sender != i_owner) { revert NotOwner(); } */\n      tag_68\n      jumpi\n        /* \"contracts/Lesson 4/FundMe.sol\":1454:1464  NotOwner() */\n      mload(0x40)\n      0x30cd747100000000000000000000000000000000000000000000000000000000\n      dup2\n      mstore\n      0x04\n      add\n      mload(0x40)\n      dup1\n      swap2\n      sub\n      swap1\n      revert\n        /* \"contracts/Lesson 4/FundMe.sol\":1418:1467  if (msg.sender != i_owner) { revert NotOwner(); } */\n    tag_68:\n        /* \"contracts/Lesson 4/FundMe.sol\":930:949  uint256 funderIndex */\n      0x00\n        /* \"contracts/Lesson 4/FundMe.sol\":926:1123  for(uint256 funderIndex = 0; funderIndex < fundersNames.length; funderIndex++) {... */\n    tag_70:\n        /* \"contracts/Lesson 4/FundMe.sol\":969:981  fundersNames */\n      0x01\n        /* \"contracts/Lesson 4/FundMe.sol\":969:988  fundersNames.length */\n      dup1\n      sload\n      swap1\n      pop\n        /* \"contracts/Lesson 4/FundMe.sol\":955:966  funderIndex */\n      dup2\n        /* \"contracts/Lesson 4/FundMe.sol\":955:988  funderIndex < fundersNames.length */\n      lt\n        /* \"contracts/Lesson 4/FundMe.sol\":926:1123  for(uint256 funderIndex = 0; funderIndex < fundersNames.length; funderIndex++) {... */\n      iszero\n      tag_71\n      jumpi\n        /* \"contracts/Lesson 4/FundMe.sol\":1020:1039  string memory _name */\n      0x00\n        /* \"contracts/Lesson 4/FundMe.sol\":1042:1054  fundersNames */\n      0x01\n        /* \"contracts/Lesson 4/FundMe.sol\":1055:1066  funderIndex */\n      dup3\n        /* \"contracts/Lesson 4/FundMe.sol\":1042:1067  fundersNames[funderIndex] */\n      dup2\n      sload\n      dup2\n      lt\n      tag_73\n      jumpi\n      tag_74\n      tag_75\n      jump\t// in\n    tag_74:\n    tag_73:\n      swap1\n      0x00\n      mstore\n      keccak256(0x00, 0x20)\n      add\n        /* \"contracts/Lesson 4/FundMe.sol\":1020:1067  string memory _name = fundersNames[funderIndex] */\n      dup1\n      sload\n      tag_77\n      swap1\n      tag_78\n      jump\t// in\n    tag_77:\n      dup1\n      0x1f\n      add\n      0x20\n      dup1\n      swap2\n      div\n      mul\n      0x20\n      add\n      mload(0x40)\n      swap1\n      dup2\n      add\n      0x40\n      mstore\n      dup1\n      swap3\n      swap2\n      swap1\n      dup2\n      dup2\n      mstore\n      0x20\n      add\n      dup3\n      dup1\n      sload\n      tag_79\n      swap1\n      tag_78\n      jump\t// in\n    tag_79:\n      dup1\n      iszero\n      tag_80\n      jumpi\n      dup1\n      0x1f\n      lt\n      tag_81\n      jumpi\n      0x0100\n      dup1\n      dup4\n      sload\n      div\n      mul\n      dup4\n      mstore\n      swap2\n      0x20\n      add\n      swap2\n      jump(tag_80)\n    tag_81:\n      dup3\n      add\n      swap2\n      swap1\n      0x00\n      mstore\n      keccak256(0x00, 0x20)\n      swap1\n    tag_82:\n      dup2\n      sload\n      dup2\n      mstore\n      swap1\n      0x01\n      add\n      swap1\n      0x20\n      add\n      dup1\n      dup4\n      gt\n      tag_82\n      jumpi\n      dup3\n      swap1\n      sub\n      0x1f\n      and\n      dup3\n      add\n      swap2\n    tag_80:\n      pop\n      pop\n      pop\n      pop\n      pop\n      swap1\n      pop\n        /* \"contracts/Lesson 4/FundMe.sol\":1110:1111  0 */\n      0x00\n        /* \"contracts/Lesson 4/FundMe.sol\":1082:1089  funders */\n      0x02\n        /* \"contracts/Lesson 4/FundMe.sol\":1090:1095  _name */\n      dup3\n        /* \"contracts/Lesson 4/FundMe.sol\":1082:1096  funders[_name] */\n      mload(0x40)\n      tag_83\n      swap2\n      swap1\n      tag_63\n      jump\t// in\n    tag_83:\n      swap1\n      dup2\n      mstore\n      0x20\n      add\n      mload(0x40)\n      dup1\n      swap2\n      sub\n      swap1\n      keccak256\n        /* \"contracts/Lesson 4/FundMe.sol\":1082:1107  funders[_name].fundAmount */\n      0x01\n      add\n        /* \"contracts/Lesson 4/FundMe.sol\":1082:1111  funders[_name].fundAmount = 0 */\n      dup2\n      swap1\n      sstore\n      pop\n        /* \"contracts/Lesson 4/FundMe.sol\":1005:1123  {... */\n      pop\n        /* \"contracts/Lesson 4/FundMe.sol\":990:1003  funderIndex++ */\n      dup1\n      dup1\n      tag_84\n      swap1\n      tag_85\n      jump\t// in\n    tag_84:\n      swap2\n      pop\n      pop\n        /* \"contracts/Lesson 4/FundMe.sol\":926:1123  for(uint256 funderIndex = 0; funderIndex < fundersNames.length; funderIndex++) {... */\n      jump(tag_70)\n    tag_71:\n      pop\n        /* \"contracts/Lesson 4/FundMe.sol\":1161:1162  0 */\n      0x00\n        /* \"contracts/Lesson 4/FundMe.sol\":1148:1163  new string[](0) */\n      0xffffffffffffffff\n      dup2\n      gt\n      iszero\n      tag_86\n      jumpi\n      tag_87\n      tag_88\n      jump\t// in\n    tag_87:\n    tag_86:\n      mload(0x40)\n      swap1\n      dup1\n      dup3\n      mstore\n      dup1\n      0x20\n      mul\n      0x20\n      add\n      dup3\n      add\n      0x40\n      mstore\n      dup1\n      iszero\n      tag_89\n      jumpi\n      dup2\n      0x20\n      add\n    tag_90:\n      0x60\n      dup2\n      mstore\n      0x20\n      add\n      swap1\n      0x01\n      swap1\n      sub\n      swap1\n      dup2\n      tag_90\n      jumpi\n      swap1\n      pop\n    tag_89:\n      pop\n        /* \"contracts/Lesson 4/FundMe.sol\":1133:1145  fundersNames */\n      0x01\n        /* \"contracts/Lesson 4/FundMe.sol\":1133:1163  fundersNames = new string[](0) */\n      swap1\n      dup1\n      mload\n      swap1\n      0x20\n      add\n      swap1\n      tag_91\n      swap3\n      swap2\n      swap1\n      tag_92\n      jump\t// in\n    tag_91:\n      pop\n        /* \"contracts/Lesson 4/FundMe.sol\":1177:1193  bool callSuccess */\n      0x00\n        /* \"contracts/Lesson 4/FundMe.sol\":1207:1217  msg.sender */\n      caller\n        /* \"contracts/Lesson 4/FundMe.sol\":1199:1223  payable(msg.sender).call */\n      0xffffffffffffffffffffffffffffffffffffffff\n      and\n        /* \"contracts/Lesson 4/FundMe.sol\":1231:1252  address(this).balance */\n      selfbalance\n        /* \"contracts/Lesson 4/FundMe.sol\":1199:1257  payable(msg.sender).call{value: address(this).balance}(\"\") */\n      mload(0x40)\n      tag_93\n      swap1\n      tag_94\n      jump\t// in\n    tag_93:\n      0x00\n      mload(0x40)\n      dup1\n      dup4\n      sub\n      dup2\n      dup6\n      dup8\n      gas\n      call\n      swap3\n      pop\n      pop\n      pop\n      returndatasize\n      dup1\n      0x00\n      dup2\n      eq\n      tag_97\n      jumpi\n      mload(0x40)\n      swap2\n      pop\n      and(add(returndatasize, 0x3f), not(0x1f))\n      dup3\n      add\n      0x40\n      mstore\n      returndatasize\n      dup3\n      mstore\n      returndatasize\n      0x00\n      0x20\n      dup5\n      add\n      returndatacopy\n      jump(tag_96)\n    tag_97:\n      0x60\n      swap2\n      pop\n    tag_96:\n      pop\n        /* \"contracts/Lesson 4/FundMe.sol\":1176:1257  (bool callSuccess, ) = payable(msg.sender).call{value: address(this).balance}(\"\") */\n      pop\n      swap1\n      pop\n        /* \"contracts/Lesson 4/FundMe.sol\":1276:1287  callSuccess */\n      dup1\n        /* \"contracts/Lesson 4/FundMe.sol\":1268:1303  require(callSuccess, \"Call failed\") */\n      tag_98\n      jumpi\n      mload(0x40)\n      0x08c379a000000000000000000000000000000000000000000000000000000000\n      dup2\n      mstore\n      0x04\n      add\n      tag_99\n      swap1\n      tag_100\n      jump\t// in\n    tag_99:\n      mload(0x40)\n      dup1\n      swap2\n      sub\n      swap1\n      revert\n    tag_98:\n        /* \"contracts/Lesson 4/FundMe.sol\":914:1311  { ... */\n      pop\n        /* \"contracts/Lesson 4/FundMe.sol\":877:1311  function withdraw() public onlyOwner { ... */\n      jump\t// out\n        /* \"contracts/Lesson 4/FundMe.sol\":233:266  uint256 public MINIMUM_USD = 5e18 */\n    tag_23:\n      sload(0x00)\n      dup2\n      jump\t// out\n        /* \"contracts/Lesson 4/FundMe.sol\":275:303  string[] public fundersNames */\n    tag_33:\n      0x01\n      dup2\n      dup2\n      sload\n      dup2\n      lt\n      tag_101\n      jumpi\n      0x00\n      dup1\n      revert\n    tag_101:\n      swap1\n      0x00\n      mstore\n      keccak256(0x00, 0x20)\n      add\n      0x00\n      swap2\n      pop\n      swap1\n      pop\n      dup1\n      sload\n      tag_103\n      swap1\n      tag_78\n      jump\t// in\n    tag_103:\n      dup1\n      0x1f\n      add\n      0x20\n      dup1\n      swap2\n      div\n      mul\n      0x20\n      add\n      mload(0x40)\n      swap1\n      dup2\n      add\n      0x40\n      mstore\n      dup1\n      swap3\n      swap2\n      swap1\n      dup2\n      dup2\n      mstore\n      0x20\n      add\n      dup3\n      dup1\n      sload\n      tag_104\n      swap1\n      tag_78\n      jump\t// in\n    tag_104:\n      dup1\n      iszero\n      tag_105\n      jumpi\n      dup1\n      0x1f\n      lt\n      tag_106\n      jumpi\n      0x0100\n      dup1\n      dup4\n      sload\n      div\n      mul\n      dup4\n      mstore\n      swap2\n      0x20\n      add\n      swap2\n      jump(tag_105)\n    tag_106:\n      dup3\n      add\n      swap2\n      swap1\n      0x00\n      mstore\n      keccak256(0x00, 0x20)\n      swap1\n    tag_107:\n      dup2\n      sload\n      dup2\n      mstore\n      swap1\n      0x01\n      add\n      swap1\n      0x20\n      add\n      dup1\n      dup4\n      gt\n      tag_107\n      jumpi\n      dup3\n      swap1\n      sub\n      0x1f\n      and\n      dup3\n      add\n      swap2\n    tag_105:\n      pop\n      pop\n      pop\n      pop\n      pop\n      dup2\n      jump\t// out\n        /* \"contracts/Lesson 4/FundMe.sol\":744:869  function fundUserAmount(string memory _name) public view returns(uint256) {... */\n    tag_39:\n        /* \"contracts/Lesson 4/FundMe.sol\":809:816  uint256 */\n      0x00\n        /* \"contracts/Lesson 4/FundMe.sol\":836:843  funders */\n      0x02\n        /* \"contracts/Lesson 4/FundMe.sol\":844:849  _name */\n      dup3\n        /* \"contracts/Lesson 4/FundMe.sol\":836:850  funders[_name] */\n      mload(0x40)\n      tag_109\n      swap2\n      swap1\n      tag_63\n      jump\t// in\n    tag_109:\n      swap1\n      dup2\n      mstore\n      0x20\n      add\n      mload(0x40)\n      dup1\n      swap2\n      sub\n      swap1\n      keccak256\n        /* \"contracts/Lesson 4/FundMe.sol\":836:861  funders[_name].fundAmount */\n      0x01\n      add\n      sload\n        /* \"contracts/Lesson 4/FundMe.sol\":829:861  return funders[_name].fundAmount */\n      swap1\n      pop\n        /* \"contracts/Lesson 4/FundMe.sol\":744:869  function fundUserAmount(string memory _name) public view returns(uint256) {... */\n      swap2\n      swap1\n      pop\n      jump\t// out\n        /* \"contracts/Lesson 4/FundMe.sol\":403:443  mapping(string => Funder) public funders */\n    tag_44:\n      0x02\n      dup2\n      dup1\n      mload\n      0x20\n      dup2\n      add\n      dup3\n      add\n      dup1\n      mload\n      dup5\n      dup3\n      mstore\n      0x20\n      dup4\n      add\n      0x20\n      dup6\n      add\n      keccak256\n      dup2\n      dup4\n      mstore\n      dup1\n      swap6\n      pop\n      pop\n      pop\n      pop\n      pop\n      pop\n      0x00\n      swap2\n      pop\n      swap1\n      pop\n      dup1\n      0x00\n      add\n      0x00\n      swap1\n      sload\n      swap1\n      0x0100\n      exp\n      swap1\n      div\n      0xffffffffffffffffffffffffffffffffffffffff\n      and\n      swap1\n      dup1\n      0x01\n      add\n      sload\n      swap1\n      pop\n      dup3\n      jump\t// out\n        /* \"contracts/Lesson 4/FundMe.sol\":452:474  address public i_owner */\n    tag_49:\n      0x03\n      0x00\n      swap1\n      sload\n      swap1\n      0x0100\n      exp\n      swap1\n      div\n      0xffffffffffffffffffffffffffffffffffffffff\n      and\n      dup2\n      jump\t// out\n        /* \"contracts/Lesson 4/PriceConverter.sol\":935:1157  function getConversionRate(uint256 ethAmount) internal view returns(uint256) {... */\n    tag_54:\n        /* \"contracts/Lesson 4/PriceConverter.sol\":1003:1010  uint256 */\n      0x00\n        /* \"contracts/Lesson 4/PriceConverter.sol\":1023:1039  uint256 ethPrice */\n      dup1\n        /* \"contracts/Lesson 4/PriceConverter.sol\":1042:1052  getPrice() */\n      tag_111\n        /* \"contracts/Lesson 4/PriceConverter.sol\":1042:1050  getPrice */\n      tag_112\n        /* \"contracts/Lesson 4/PriceConverter.sol\":1042:1052  getPrice() */\n      jump\t// in\n    tag_111:\n        /* \"contracts/Lesson 4/PriceConverter.sol\":1023:1052  uint256 ethPrice = getPrice() */\n      swap1\n      pop\n        /* \"contracts/Lesson 4/PriceConverter.sol\":1063:1085  uint256 ethAmountInUsd */\n      0x00\n        /* \"contracts/Lesson 4/PriceConverter.sol\":1113:1117  1e18 */\n      0x0de0b6b3a7640000\n        /* \"contracts/Lesson 4/PriceConverter.sol\":1100:1109  ethAmount */\n      dup5\n        /* \"contracts/Lesson 4/PriceConverter.sol\":1089:1097  ethPrice */\n      dup4\n        /* \"contracts/Lesson 4/PriceConverter.sol\":1089:1109  ethPrice * ethAmount */\n      tag_113\n      swap2\n      swap1\n      tag_114\n      jump\t// in\n    tag_113:\n        /* \"contracts/Lesson 4/PriceConverter.sol\":1088:1117  (ethPrice * ethAmount) / 1e18 */\n      tag_115\n      swap2\n      swap1\n      tag_116\n      jump\t// in\n    tag_115:\n        /* \"contracts/Lesson 4/PriceConverter.sol\":1063:1117  uint256 ethAmountInUsd = (ethPrice * ethAmount) / 1e18 */\n      swap1\n      pop\n        /* \"contracts/Lesson 4/PriceConverter.sol\":1135:1149  ethAmountInUsd */\n      dup1\n        /* \"contracts/Lesson 4/PriceConverter.sol\":1128:1149  return ethAmountInUsd */\n      swap3\n      pop\n      pop\n      pop\n        /* \"contracts/Lesson 4/PriceConverter.sol\":935:1157  function getConversionRate(uint256 ethAmount) internal view returns(uint256) {... */\n      swap2\n      swap1\n      pop\n      jump\t// out\n        /* \"contracts/Lesson 4/PriceConverter.sol\":341:927  function getPrice() internal view returns (uint256) {... */\n    tag_112:\n        /* \"contracts/Lesson 4/PriceConverter.sol\":384:391  uint256 */\n      0x00\n        /* \"contracts/Lesson 4/PriceConverter.sol\":569:600  AggregatorV3Interface priceFeed */\n      dup1\n        /* \"contracts/Lesson 4/PriceConverter.sol\":625:667  0x694AA1769357215DE4FAC081bf1f309aDC325306 */\n      0x694aa1769357215de4fac081bf1f309adc325306\n        /* \"contracts/Lesson 4/PriceConverter.sol\":569:668  AggregatorV3Interface priceFeed = AggregatorV3Interface(0x694AA1769357215DE4FAC081bf1f309aDC325306) */\n      swap1\n      pop\n        /* \"contracts/Lesson 4/PriceConverter.sol\":682:694  int256 price */\n      0x00\n        /* \"contracts/Lesson 4/PriceConverter.sol\":707:716  priceFeed */\n      dup2\n        /* \"contracts/Lesson 4/PriceConverter.sol\":707:732  priceFeed.latestRoundData */\n      0xffffffffffffffffffffffffffffffffffffffff\n      and\n      0xfeaf968c\n        /* \"contracts/Lesson 4/PriceConverter.sol\":707:734  priceFeed.latestRoundData() */\n      mload(0x40)\n      dup2\n      0xffffffff\n      and\n      0xe0\n      shl\n      dup2\n      mstore\n      0x04\n      add\n      0xa0\n      mload(0x40)\n      dup1\n      dup4\n      sub\n      dup2\n      dup7\n      gas\n      staticcall\n      iszero\n      dup1\n      iszero\n      tag_119\n      jumpi\n      returndatasize\n      0x00\n      dup1\n      returndatacopy\n      revert(0x00, returndatasize)\n    tag_119:\n      pop\n      pop\n      pop\n      pop\n      mload(0x40)\n      returndatasize\n      not(0x1f)\n      0x1f\n      dup3\n      add\n      and\n      dup3\n      add\n      dup1\n      0x40\n      mstore\n      pop\n      dup2\n      add\n      swap1\n      tag_120\n      swap2\n      swap1\n      tag_121\n      jump\t// in\n    tag_120:\n        /* \"contracts/Lesson 4/PriceConverter.sol\":679:734  (, int256 price,  ,  ,  ) = priceFeed.latestRoundData() */\n      pop\n      pop\n      pop\n      swap2\n      pop\n      pop\n        /* \"contracts/Lesson 4/PriceConverter.sol\":914:918  1e10 */\n      0x02540be400\n        /* \"contracts/Lesson 4/PriceConverter.sol\":906:911  price */\n      dup2\n        /* \"contracts/Lesson 4/PriceConverter.sol\":906:918  price * 1e10 */\n      tag_122\n      swap2\n      swap1\n      tag_123\n      jump\t// in\n    tag_122:\n        /* \"contracts/Lesson 4/PriceConverter.sol\":891:919  return uint256(price * 1e10) */\n      swap3\n      pop\n      pop\n      pop\n        /* \"contracts/Lesson 4/PriceConverter.sol\":341:927  function getPrice() internal view returns (uint256) {... */\n      swap1\n      jump\t// out\n    tag_92:\n      dup3\n      dup1\n      sload\n      dup3\n      dup3\n      sstore\n      swap1\n      0x00\n      mstore\n      keccak256(0x00, 0x20)\n      swap1\n      dup2\n      add\n      swap3\n      dup3\n      iszero\n      tag_124\n      jumpi\n      swap2\n      0x20\n      mul\n      dup3\n      add\n    tag_125:\n      dup3\n      dup2\n      gt\n      iszero\n      tag_126\n      jumpi\n      dup3\n      mload\n      dup3\n      swap1\n      dup2\n      tag_127\n      swap2\n      swap1\n      tag_61\n      jump\t// in\n    tag_127:\n      pop\n      swap2\n      0x20\n      add\n      swap2\n      swap1\n      0x01\n      add\n      swap1\n      jump(tag_125)\n    tag_126:\n    tag_124:\n      pop\n      swap1\n      pop\n      tag_128\n      swap2\n      swap1\n      tag_129\n      jump\t// in\n    tag_128:\n      pop\n      swap1\n      jump\t// out\n    tag_129:\n    tag_130:\n      dup1\n      dup3\n      gt\n      iszero\n      tag_131\n      jumpi\n      0x00\n      dup2\n      dup2\n      tag_132\n      swap2\n      swap1\n      tag_133\n      jump\t// in\n    tag_132:\n      pop\n      0x01\n      add\n      jump(tag_130)\n    tag_131:\n      pop\n      swap1\n      jump\t// out\n    tag_133:\n      pop\n      dup1\n      sload\n      tag_134\n      swap1\n      tag_78\n      jump\t// in\n    tag_134:\n      0x00\n      dup3\n      sstore\n      dup1\n      0x1f\n      lt\n      tag_136\n      jumpi\n      pop\n      jump(tag_135)\n    tag_136:\n      0x1f\n      add\n      0x20\n      swap1\n      div\n      swap1\n      0x00\n      mstore\n      keccak256(0x00, 0x20)\n      swap1\n      dup2\n      add\n      swap1\n      tag_137\n      swap2\n      swap1\n      tag_138\n      jump\t// in\n    tag_137:\n    tag_135:\n      pop\n      jump\t// out\n    tag_138:\n    tag_139:\n      dup1\n      dup3\n      gt\n      iszero\n      tag_140\n      jumpi\n      0x00\n      dup2\n      0x00\n      swap1\n      sstore\n      pop\n      0x01\n      add\n      jump(tag_139)\n    tag_140:\n      pop\n      swap1\n      jump\t// out\n        /* \"#utility.yul\":7:84   */\n    tag_141:\n        /* \"#utility.yul\":44:51   */\n      0x00\n        /* \"#utility.yul\":73:78   */\n      dup2\n        /* \"#utility.yul\":62:78   */\n      swap1\n      pop\n        /* \"#utility.yul\":7:84   */\n      swap2\n      swap1\n      pop\n      jump\t// out\n        /* \"#utility.yul\":90:208   */\n    tag_142:\n        /* \"#utility.yul\":177:201   */\n      tag_201\n        /* \"#utility.yul\":195:200   */\n      dup2\n        /* \"#utility.yul\":177:201   */\n      tag_141\n      jump\t// in\n    tag_201:\n        /* \"#utility.yul\":172:175   */\n      dup3\n        /* \"#utility.yul\":165:202   */\n      mstore\n        /* \"#utility.yul\":90:208   */\n      pop\n      pop\n      jump\t// out\n        /* \"#utility.yul\":214:436   */\n    tag_25:\n        /* \"#utility.yul\":307:311   */\n      0x00\n        /* \"#utility.yul\":345:347   */\n      0x20\n        /* \"#utility.yul\":334:343   */\n      dup3\n        /* \"#utility.yul\":330:348   */\n      add\n        /* \"#utility.yul\":322:348   */\n      swap1\n      pop\n        /* \"#utility.yul\":358:429   */\n      tag_203\n        /* \"#utility.yul\":426:427   */\n      0x00\n        /* \"#utility.yul\":415:424   */\n      dup4\n        /* \"#utility.yul\":411:428   */\n      add\n        /* \"#utility.yul\":402:408   */\n      dup5\n        /* \"#utility.yul\":358:429   */\n      tag_142\n      jump\t// in\n    tag_203:\n        /* \"#utility.yul\":214:436   */\n      swap3\n      swap2\n      pop\n      pop\n      jump\t// out\n        /* \"#utility.yul\":442:517   */\n    tag_143:\n        /* \"#utility.yul\":475:481   */\n      0x00\n        /* \"#utility.yul\":508:510   */\n      0x40\n        /* \"#utility.yul\":502:511   */\n      mload\n        /* \"#utility.yul\":492:511   */\n      swap1\n      pop\n        /* \"#utility.yul\":442:517   */\n      swap1\n      jump\t// out\n        /* \"#utility.yul\":523:640   */\n    tag_144:\n        /* \"#utility.yul\":632:633   */\n      0x00\n        /* \"#utility.yul\":629:630   */\n      dup1\n        /* \"#utility.yul\":622:634   */\n      revert\n        /* \"#utility.yul\":646:763   */\n    tag_145:\n        /* \"#utility.yul\":755:756   */\n      0x00\n        /* \"#utility.yul\":752:753   */\n      dup1\n        /* \"#utility.yul\":745:757   */\n      revert\n        /* \"#utility.yul\":769:886   */\n    tag_146:\n        /* \"#utility.yul\":878:879   */\n      0x00\n        /* \"#utility.yul\":875:876   */\n      dup1\n        /* \"#utility.yul\":868:880   */\n      revert\n        /* \"#utility.yul\":892:1009   */\n    tag_147:\n        /* \"#utility.yul\":1001:1002   */\n      0x00\n        /* \"#utility.yul\":998:999   */\n      dup1\n        /* \"#utility.yul\":991:1003   */\n      revert\n        /* \"#utility.yul\":1015:1117   */\n    tag_148:\n        /* \"#utility.yul\":1056:1062   */\n      0x00\n        /* \"#utility.yul\":1107:1109   */\n      0x1f\n        /* \"#utility.yul\":1103:1110   */\n      not\n        /* \"#utility.yul\":1098:1100   */\n      0x1f\n        /* \"#utility.yul\":1091:1096   */\n      dup4\n        /* \"#utility.yul\":1087:1101   */\n      add\n        /* \"#utility.yul\":1083:1111   */\n      and\n        /* \"#utility.yul\":1073:1111   */\n      swap1\n      pop\n        /* \"#utility.yul\":1015:1117   */\n      swap2\n      swap1\n      pop\n      jump\t// out\n        /* \"#utility.yul\":1123:1303   */\n    tag_88:\n        /* \"#utility.yul\":1171:1248   */\n      0x4e487b7100000000000000000000000000000000000000000000000000000000\n        /* \"#utility.yul\":1168:1169   */\n      0x00\n        /* \"#utility.yul\":1161:1249   */\n      mstore\n        /* \"#utility.yul\":1268:1272   */\n      0x41\n        /* \"#utility.yul\":1265:1266   */\n      0x04\n        /* \"#utility.yul\":1258:1273   */\n      mstore\n        /* \"#utility.yul\":1292:1296   */\n      0x24\n        /* \"#utility.yul\":1289:1290   */\n      0x00\n        /* \"#utility.yul\":1282:1297   */\n      revert\n        /* \"#utility.yul\":1309:1590   */\n    tag_149:\n        /* \"#utility.yul\":1392:1419   */\n      tag_212\n        /* \"#utility.yul\":1414:1418   */\n      dup3\n        /* \"#utility.yul\":1392:1419   */\n      tag_148\n      jump\t// in\n    tag_212:\n        /* \"#utility.yul\":1384:1390   */\n      dup2\n        /* \"#utility.yul\":1380:1420   */\n      add\n        /* \"#utility.yul\":1522:1528   */\n      dup2\n        /* \"#utility.yul\":1510:1520   */\n      dup2\n        /* \"#utility.yul\":1507:1529   */\n      lt\n        /* \"#utility.yul\":1486:1504   */\n      0xffffffffffffffff\n        /* \"#utility.yul\":1474:1484   */\n      dup3\n        /* \"#utility.yul\":1471:1505   */\n      gt\n        /* \"#utility.yul\":1468:1530   */\n      or\n        /* \"#utility.yul\":1465:1553   */\n      iszero\n      tag_213\n      jumpi\n        /* \"#utility.yul\":1533:1551   */\n      tag_214\n      tag_88\n      jump\t// in\n    tag_214:\n        /* \"#utility.yul\":1465:1553   */\n    tag_213:\n        /* \"#utility.yul\":1573:1583   */\n      dup1\n        /* \"#utility.yul\":1569:1571   */\n      0x40\n        /* \"#utility.yul\":1562:1584   */\n      mstore\n        /* \"#utility.yul\":1352:1590   */\n      pop\n        /* \"#utility.yul\":1309:1590   */\n      pop\n      pop\n      jump\t// out\n        /* \"#utility.yul\":1596:1725   */\n    tag_150:\n        /* \"#utility.yul\":1630:1636   */\n      0x00\n        /* \"#utility.yul\":1657:1677   */\n      tag_216\n      tag_143\n      jump\t// in\n    tag_216:\n        /* \"#utility.yul\":1647:1677   */\n      swap1\n      pop\n        /* \"#utility.yul\":1686:1719   */\n      tag_217\n        /* \"#utility.yul\":1714:1718   */\n      dup3\n        /* \"#utility.yul\":1706:1712   */\n      dup3\n        /* \"#utility.yul\":1686:1719   */\n      tag_149\n      jump\t// in\n    tag_217:\n        /* \"#utility.yul\":1596:1725   */\n      swap2\n      swap1\n      pop\n      jump\t// out\n        /* \"#utility.yul\":1731:2039   */\n    tag_151:\n        /* \"#utility.yul\":1793:1797   */\n      0x00\n        /* \"#utility.yul\":1883:1901   */\n      0xffffffffffffffff\n        /* \"#utility.yul\":1875:1881   */\n      dup3\n        /* \"#utility.yul\":1872:1902   */\n      gt\n        /* \"#utility.yul\":1869:1925   */\n      iszero\n      tag_219\n      jumpi\n        /* \"#utility.yul\":1905:1923   */\n      tag_220\n      tag_88\n      jump\t// in\n    tag_220:\n        /* \"#utility.yul\":1869:1925   */\n    tag_219:\n        /* \"#utility.yul\":1943:1972   */\n      tag_221\n        /* \"#utility.yul\":1965:1971   */\n      dup3\n        /* \"#utility.yul\":1943:1972   */\n      tag_148\n      jump\t// in\n    tag_221:\n        /* \"#utility.yul\":1935:1972   */\n      swap1\n      pop\n        /* \"#utility.yul\":2027:2031   */\n      0x20\n        /* \"#utility.yul\":2021:2025   */\n      dup2\n        /* \"#utility.yul\":2017:2032   */\n      add\n        /* \"#utility.yul\":2009:2032   */\n      swap1\n      pop\n        /* \"#utility.yul\":1731:2039   */\n      swap2\n      swap1\n      pop\n      jump\t// out\n        /* \"#utility.yul\":2045:2191   */\n    tag_152:\n        /* \"#utility.yul\":2142:2148   */\n      dup3\n        /* \"#utility.yul\":2137:2140   */\n      dup2\n        /* \"#utility.yul\":2132:2135   */\n      dup4\n        /* \"#utility.yul\":2119:2149   */\n      calldatacopy\n        /* \"#utility.yul\":2183:2184   */\n      0x00\n        /* \"#utility.yul\":2174:2180   */\n      dup4\n        /* \"#utility.yul\":2169:2172   */\n      dup4\n        /* \"#utility.yul\":2165:2181   */\n      add\n        /* \"#utility.yul\":2158:2185   */\n      mstore\n        /* \"#utility.yul\":2045:2191   */\n      pop\n      pop\n      pop\n      jump\t// out\n        /* \"#utility.yul\":2197:2622   */\n    tag_153:\n        /* \"#utility.yul\":2275:2280   */\n      0x00\n        /* \"#utility.yul\":2300:2366   */\n      tag_224\n        /* \"#utility.yul\":2316:2365   */\n      tag_225\n        /* \"#utility.yul\":2358:2364   */\n      dup5\n        /* \"#utility.yul\":2316:2365   */\n      tag_151\n      jump\t// in\n    tag_225:\n        /* \"#utility.yul\":2300:2366   */\n      tag_150\n      jump\t// in\n    tag_224:\n        /* \"#utility.yul\":2291:2366   */\n      swap1\n      pop\n        /* \"#utility.yul\":2389:2395   */\n      dup3\n        /* \"#utility.yul\":2382:2387   */\n      dup2\n        /* \"#utility.yul\":2375:2396   */\n      mstore\n        /* \"#utility.yul\":2427:2431   */\n      0x20\n        /* \"#utility.yul\":2420:2425   */\n      dup2\n        /* \"#utility.yul\":2416:2432   */\n      add\n        /* \"#utility.yul\":2465:2468   */\n      dup5\n        /* \"#utility.yul\":2456:2462   */\n      dup5\n        /* \"#utility.yul\":2451:2454   */\n      dup5\n        /* \"#utility.yul\":2447:2463   */\n      add\n        /* \"#utility.yul\":2444:2469   */\n      gt\n        /* \"#utility.yul\":2441:2553   */\n      iszero\n      tag_226\n      jumpi\n        /* \"#utility.yul\":2472:2551   */\n      tag_227\n      tag_147\n      jump\t// in\n    tag_227:\n        /* \"#utility.yul\":2441:2553   */\n    tag_226:\n        /* \"#utility.yul\":2562:2616   */\n      tag_228\n        /* \"#utility.yul\":2609:2615   */\n      dup5\n        /* \"#utility.yul\":2604:2607   */\n      dup3\n        /* \"#utility.yul\":2599:2602   */\n      dup6\n        /* \"#utility.yul\":2562:2616   */\n      tag_152\n      jump\t// in\n    tag_228:\n        /* \"#utility.yul\":2281:2622   */\n      pop\n        /* \"#utility.yul\":2197:2622   */\n      swap4\n      swap3\n      pop\n      pop\n      pop\n      jump\t// out\n        /* \"#utility.yul\":2642:2982   */\n    tag_154:\n        /* \"#utility.yul\":2698:2703   */\n      0x00\n        /* \"#utility.yul\":2747:2750   */\n      dup3\n        /* \"#utility.yul\":2740:2744   */\n      0x1f\n        /* \"#utility.yul\":2732:2738   */\n      dup4\n        /* \"#utility.yul\":2728:2745   */\n      add\n        /* \"#utility.yul\":2724:2751   */\n      slt\n        /* \"#utility.yul\":2714:2836   */\n      tag_230\n      jumpi\n        /* \"#utility.yul\":2755:2834   */\n      tag_231\n      tag_146\n      jump\t// in\n    tag_231:\n        /* \"#utility.yul\":2714:2836   */\n    tag_230:\n        /* \"#utility.yul\":2872:2878   */\n      dup2\n        /* \"#utility.yul\":2859:2879   */\n      calldataload\n        /* \"#utility.yul\":2897:2976   */\n      tag_232\n        /* \"#utility.yul\":2972:2975   */\n      dup5\n        /* \"#utility.yul\":2964:2970   */\n      dup3\n        /* \"#utility.yul\":2957:2961   */\n      0x20\n        /* \"#utility.yul\":2949:2955   */\n      dup7\n        /* \"#utility.yul\":2945:2962   */\n      add\n        /* \"#utility.yul\":2897:2976   */\n      tag_153\n      jump\t// in\n    tag_232:\n        /* \"#utility.yul\":2888:2976   */\n      swap2\n      pop\n        /* \"#utility.yul\":2704:2982   */\n      pop\n        /* \"#utility.yul\":2642:2982   */\n      swap3\n      swap2\n      pop\n      pop\n      jump\t// out\n        /* \"#utility.yul\":2988:3497   */\n    tag_28:\n        /* \"#utility.yul\":3057:3063   */\n      0x00\n        /* \"#utility.yul\":3106:3108   */\n      0x20\n        /* \"#utility.yul\":3094:3103   */\n      dup3\n        /* \"#utility.yul\":3085:3092   */\n      dup5\n        /* \"#utility.yul\":3081:3104   */\n      sub\n        /* \"#utility.yul\":3077:3109   */\n      slt\n        /* \"#utility.yul\":3074:3193   */\n      iszero\n      tag_234\n      jumpi\n        /* \"#utility.yul\":3112:3191   */\n      tag_235\n      tag_144\n      jump\t// in\n    tag_235:\n        /* \"#utility.yul\":3074:3193   */\n    tag_234:\n        /* \"#utility.yul\":3260:3261   */\n      0x00\n        /* \"#utility.yul\":3249:3258   */\n      dup3\n        /* \"#utility.yul\":3245:3262   */\n      add\n        /* \"#utility.yul\":3232:3263   */\n      calldataload\n        /* \"#utility.yul\":3290:3308   */\n      0xffffffffffffffff\n        /* \"#utility.yul\":3282:3288   */\n      dup2\n        /* \"#utility.yul\":3279:3309   */\n      gt\n        /* \"#utility.yul\":3276:3393   */\n      iszero\n      tag_236\n      jumpi\n        /* \"#utility.yul\":3312:3391   */\n      tag_237\n      tag_145\n      jump\t// in\n    tag_237:\n        /* \"#utility.yul\":3276:3393   */\n    tag_236:\n        /* \"#utility.yul\":3417:3480   */\n      tag_238\n        /* \"#utility.yul\":3472:3479   */\n      dup5\n        /* \"#utility.yul\":3463:3469   */\n      dup3\n        /* \"#utility.yul\":3452:3461   */\n      dup6\n        /* \"#utility.yul\":3448:3470   */\n      add\n        /* \"#utility.yul\":3417:3480   */\n      tag_154\n      jump\t// in\n    tag_238:\n        /* \"#utility.yul\":3407:3480   */\n      swap2\n      pop\n        /* \"#utility.yul\":3203:3490   */\n      pop\n        /* \"#utility.yul\":2988:3497   */\n      swap3\n      swap2\n      pop\n      pop\n      jump\t// out\n        /* \"#utility.yul\":3503:3625   */\n    tag_155:\n        /* \"#utility.yul\":3576:3600   */\n      tag_240\n        /* \"#utility.yul\":3594:3599   */\n      dup2\n        /* \"#utility.yul\":3576:3600   */\n      tag_141\n      jump\t// in\n    tag_240:\n        /* \"#utility.yul\":3569:3574   */\n      dup2\n        /* \"#utility.yul\":3566:3601   */\n      eq\n        /* \"#utility.yul\":3556:3619   */\n      tag_241\n      jumpi\n        /* \"#utility.yul\":3615:3616   */\n      0x00\n        /* \"#utility.yul\":3612:3613   */\n      dup1\n        /* \"#utility.yul\":3605:3617   */\n      revert\n        /* \"#utility.yul\":3556:3619   */\n    tag_241:\n        /* \"#utility.yul\":3503:3625   */\n      pop\n      jump\t// out\n        /* \"#utility.yul\":3631:3770   */\n    tag_156:\n        /* \"#utility.yul\":3677:3682   */\n      0x00\n        /* \"#utility.yul\":3715:3721   */\n      dup2\n        /* \"#utility.yul\":3702:3722   */\n      calldataload\n        /* \"#utility.yul\":3693:3722   */\n      swap1\n      pop\n        /* \"#utility.yul\":3731:3764   */\n      tag_243\n        /* \"#utility.yul\":3758:3763   */\n      dup2\n        /* \"#utility.yul\":3731:3764   */\n      tag_155\n      jump\t// in\n    tag_243:\n        /* \"#utility.yul\":3631:3770   */\n      swap3\n      swap2\n      pop\n      pop\n      jump\t// out\n        /* \"#utility.yul\":3776:4105   */\n    tag_32:\n        /* \"#utility.yul\":3835:3841   */\n      0x00\n        /* \"#utility.yul\":3884:3886   */\n      0x20\n        /* \"#utility.yul\":3872:3881   */\n      dup3\n        /* \"#utility.yul\":3863:3870   */\n      dup5\n        /* \"#utility.yul\":3859:3882   */\n      sub\n        /* \"#utility.yul\":3855:3887   */\n      slt\n        /* \"#utility.yul\":3852:3971   */\n      iszero\n      tag_245\n      jumpi\n        /* \"#utility.yul\":3890:3969   */\n      tag_246\n      tag_144\n      jump\t// in\n    tag_246:\n        /* \"#utility.yul\":3852:3971   */\n    tag_245:\n        /* \"#utility.yul\":4010:4011   */\n      0x00\n        /* \"#utility.yul\":4035:4088   */\n      tag_247\n        /* \"#utility.yul\":4080:4087   */\n      dup5\n        /* \"#utility.yul\":4071:4077   */\n      dup3\n        /* \"#utility.yul\":4060:4069   */\n      dup6\n        /* \"#utility.yul\":4056:4078   */\n      add\n        /* \"#utility.yul\":4035:4088   */\n      tag_156\n      jump\t// in\n    tag_247:\n        /* \"#utility.yul\":4025:4088   */\n      swap2\n      pop\n        /* \"#utility.yul\":3981:4098   */\n      pop\n        /* \"#utility.yul\":3776:4105   */\n      swap3\n      swap2\n      pop\n      pop\n      jump\t// out\n        /* \"#utility.yul\":4111:4210   */\n    tag_157:\n        /* \"#utility.yul\":4163:4169   */\n      0x00\n        /* \"#utility.yul\":4197:4202   */\n      dup2\n        /* \"#utility.yul\":4191:4203   */\n      mload\n        /* \"#utility.yul\":4181:4203   */\n      swap1\n      pop\n        /* \"#utility.yul\":4111:4210   */\n      swap2\n      swap1\n      pop\n      jump\t// out\n        /* \"#utility.yul\":4216:4385   */\n    tag_158:\n        /* \"#utility.yul\":4300:4311   */\n      0x00\n        /* \"#utility.yul\":4334:4340   */\n      dup3\n        /* \"#utility.yul\":4329:4332   */\n      dup3\n        /* \"#utility.yul\":4322:4341   */\n      mstore\n        /* \"#utility.yul\":4374:4378   */\n      0x20\n        /* \"#utility.yul\":4369:4372   */\n      dup3\n        /* \"#utility.yul\":4365:4379   */\n      add\n        /* \"#utility.yul\":4350:4379   */\n      swap1\n      pop\n        /* \"#utility.yul\":4216:4385   */\n      swap3\n      swap2\n      pop\n      pop\n      jump\t// out\n        /* \"#utility.yul\":4391:4637   */\n    tag_159:\n        /* \"#utility.yul\":4472:4473   */\n      0x00\n        /* \"#utility.yul\":4482:4595   */\n    tag_251:\n        /* \"#utility.yul\":4496:4502   */\n      dup4\n        /* \"#utility.yul\":4493:4494   */\n      dup2\n        /* \"#utility.yul\":4490:4503   */\n      lt\n        /* \"#utility.yul\":4482:4595   */\n      iszero\n      tag_253\n      jumpi\n        /* \"#utility.yul\":4581:4582   */\n      dup1\n        /* \"#utility.yul\":4576:4579   */\n      dup3\n        /* \"#utility.yul\":4572:4583   */\n      add\n        /* \"#utility.yul\":4566:4584   */\n      mload\n        /* \"#utility.yul\":4562:4563   */\n      dup2\n        /* \"#utility.yul\":4557:4560   */\n      dup5\n        /* \"#utility.yul\":4553:4564   */\n      add\n        /* \"#utility.yul\":4546:4585   */\n      mstore\n        /* \"#utility.yul\":4518:4520   */\n      0x20\n        /* \"#utility.yul\":4515:4516   */\n      dup2\n        /* \"#utility.yul\":4511:4521   */\n      add\n        /* \"#utility.yul\":4506:4521   */\n      swap1\n      pop\n        /* \"#utility.yul\":4482:4595   */\n      jump(tag_251)\n    tag_253:\n        /* \"#utility.yul\":4629:4630   */\n      0x00\n        /* \"#utility.yul\":4620:4626   */\n      dup5\n        /* \"#utility.yul\":4615:4618   */\n      dup5\n        /* \"#utility.yul\":4611:4627   */\n      add\n        /* \"#utility.yul\":4604:4631   */\n      mstore\n        /* \"#utility.yul\":4453:4637   */\n      pop\n        /* \"#utility.yul\":4391:4637   */\n      pop\n      pop\n      pop\n      jump\t// out\n        /* \"#utility.yul\":4643:5020   */\n    tag_160:\n        /* \"#utility.yul\":4731:4734   */\n      0x00\n        /* \"#utility.yul\":4759:4798   */\n      tag_255\n        /* \"#utility.yul\":4792:4797   */\n      dup3\n        /* \"#utility.yul\":4759:4798   */\n      tag_157\n      jump\t// in\n    tag_255:\n        /* \"#utility.yul\":4814:4885   */\n      tag_256\n        /* \"#utility.yul\":4878:4884   */\n      dup2\n        /* \"#utility.yul\":4873:4876   */\n      dup6\n        /* \"#utility.yul\":4814:4885   */\n      tag_158\n      jump\t// in\n    tag_256:\n        /* \"#utility.yul\":4807:4885   */\n      swap4\n      pop\n        /* \"#utility.yul\":4894:4959   */\n      tag_257\n        /* \"#utility.yul\":4952:4958   */\n      dup2\n        /* \"#utility.yul\":4947:4950   */\n      dup6\n        /* \"#utility.yul\":4940:4944   */\n      0x20\n        /* \"#utility.yul\":4933:4938   */\n      dup7\n        /* \"#utility.yul\":4929:4945   */\n      add\n        /* \"#utility.yul\":4894:4959   */\n      tag_159\n      jump\t// in\n    tag_257:\n        /* \"#utility.yul\":4984:5013   */\n      tag_258\n        /* \"#utility.yul\":5006:5012   */\n      dup2\n        /* \"#utility.yul\":4984:5013   */\n      tag_148\n      jump\t// in\n    tag_258:\n        /* \"#utility.yul\":4979:4982   */\n      dup5\n        /* \"#utility.yul\":4975:5014   */\n      add\n        /* \"#utility.yul\":4968:5014   */\n      swap2\n      pop\n        /* \"#utility.yul\":4735:5020   */\n      pop\n        /* \"#utility.yul\":4643:5020   */\n      swap3\n      swap2\n      pop\n      pop\n      jump\t// out\n        /* \"#utility.yul\":5026:5339   */\n    tag_35:\n        /* \"#utility.yul\":5139:5143   */\n      0x00\n        /* \"#utility.yul\":5177:5179   */\n      0x20\n        /* \"#utility.yul\":5166:5175   */\n      dup3\n        /* \"#utility.yul\":5162:5180   */\n      add\n        /* \"#utility.yul\":5154:5180   */\n      swap1\n      pop\n        /* \"#utility.yul\":5226:5235   */\n      dup2\n        /* \"#utility.yul\":5220:5224   */\n      dup2\n        /* \"#utility.yul\":5216:5236   */\n      sub\n        /* \"#utility.yul\":5212:5213   */\n      0x00\n        /* \"#utility.yul\":5201:5210   */\n      dup4\n        /* \"#utility.yul\":5197:5214   */\n      add\n        /* \"#utility.yul\":5190:5237   */\n      mstore\n        /* \"#utility.yul\":5254:5332   */\n      tag_260\n        /* \"#utility.yul\":5327:5331   */\n      dup2\n        /* \"#utility.yul\":5318:5324   */\n      dup5\n        /* \"#utility.yul\":5254:5332   */\n      tag_160\n      jump\t// in\n    tag_260:\n        /* \"#utility.yul\":5246:5332   */\n      swap1\n      pop\n        /* \"#utility.yul\":5026:5339   */\n      swap3\n      swap2\n      pop\n      pop\n      jump\t// out\n        /* \"#utility.yul\":5345:5471   */\n    tag_161:\n        /* \"#utility.yul\":5382:5389   */\n      0x00\n        /* \"#utility.yul\":5422:5464   */\n      0xffffffffffffffffffffffffffffffffffffffff\n        /* \"#utility.yul\":5415:5420   */\n      dup3\n        /* \"#utility.yul\":5411:5465   */\n      and\n        /* \"#utility.yul\":5400:5465   */\n      swap1\n      pop\n        /* \"#utility.yul\":5345:5471   */\n      swap2\n      swap1\n      pop\n      jump\t// out\n        /* \"#utility.yul\":5477:5573   */\n    tag_162:\n        /* \"#utility.yul\":5514:5521   */\n      0x00\n        /* \"#utility.yul\":5543:5567   */\n      tag_263\n        /* \"#utility.yul\":5561:5566   */\n      dup3\n        /* \"#utility.yul\":5543:5567   */\n      tag_161\n      jump\t// in\n    tag_263:\n        /* \"#utility.yul\":5532:5567   */\n      swap1\n      pop\n        /* \"#utility.yul\":5477:5573   */\n      swap2\n      swap1\n      pop\n      jump\t// out\n        /* \"#utility.yul\":5579:5697   */\n    tag_163:\n        /* \"#utility.yul\":5666:5690   */\n      tag_265\n        /* \"#utility.yul\":5684:5689   */\n      dup2\n        /* \"#utility.yul\":5666:5690   */\n      tag_162\n      jump\t// in\n    tag_265:\n        /* \"#utility.yul\":5661:5664   */\n      dup3\n        /* \"#utility.yul\":5654:5691   */\n      mstore\n        /* \"#utility.yul\":5579:5697   */\n      pop\n      pop\n      jump\t// out\n        /* \"#utility.yul\":5703:6035   */\n    tag_46:\n        /* \"#utility.yul\":5824:5828   */\n      0x00\n        /* \"#utility.yul\":5862:5864   */\n      0x40\n        /* \"#utility.yul\":5851:5860   */\n      dup3\n        /* \"#utility.yul\":5847:5865   */\n      add\n        /* \"#utility.yul\":5839:5865   */\n      swap1\n      pop\n        /* \"#utility.yul\":5875:5946   */\n      tag_267\n        /* \"#utility.yul\":5943:5944   */\n      0x00\n        /* \"#utility.yul\":5932:5941   */\n      dup4\n        /* \"#utility.yul\":5928:5945   */\n      add\n        /* \"#utility.yul\":5919:5925   */\n      dup6\n        /* \"#utility.yul\":5875:5946   */\n      tag_163\n      jump\t// in\n    tag_267:\n        /* \"#utility.yul\":5956:6028   */\n      tag_268\n        /* \"#utility.yul\":6024:6026   */\n      0x20\n        /* \"#utility.yul\":6013:6022   */\n      dup4\n        /* \"#utility.yul\":6009:6027   */\n      add\n        /* \"#utility.yul\":6000:6006   */\n      dup5\n        /* \"#utility.yul\":5956:6028   */\n      tag_142\n      jump\t// in\n    tag_268:\n        /* \"#utility.yul\":5703:6035   */\n      swap4\n      swap3\n      pop\n      pop\n      pop\n      jump\t// out\n        /* \"#utility.yul\":6041:6263   */\n    tag_51:\n        /* \"#utility.yul\":6134:6138   */\n      0x00\n        /* \"#utility.yul\":6172:6174   */\n      0x20\n        /* \"#utility.yul\":6161:6170   */\n      dup3\n        /* \"#utility.yul\":6157:6175   */\n      add\n        /* \"#utility.yul\":6149:6175   */\n      swap1\n      pop\n        /* \"#utility.yul\":6185:6256   */\n      tag_270\n        /* \"#utility.yul\":6253:6254   */\n      0x00\n        /* \"#utility.yul\":6242:6251   */\n      dup4\n        /* \"#utility.yul\":6238:6255   */\n      add\n        /* \"#utility.yul\":6229:6235   */\n      dup5\n        /* \"#utility.yul\":6185:6256   */\n      tag_163\n      jump\t// in\n    tag_270:\n        /* \"#utility.yul\":6041:6263   */\n      swap3\n      swap2\n      pop\n      pop\n      jump\t// out\n        /* \"#utility.yul\":6269:6441   */\n    tag_164:\n        /* \"#utility.yul\":6409:6433   */\n      0x6469646e27742073656e6420656e6f7567682045544800000000000000000000\n        /* \"#utility.yul\":6405:6406   */\n      0x00\n        /* \"#utility.yul\":6397:6403   */\n      dup3\n        /* \"#utility.yul\":6393:6407   */\n      add\n        /* \"#utility.yul\":6386:6434   */\n      mstore\n        /* \"#utility.yul\":6269:6441   */\n      pop\n      jump\t// out\n        /* \"#utility.yul\":6447:6813   */\n    tag_165:\n        /* \"#utility.yul\":6589:6592   */\n      0x00\n        /* \"#utility.yul\":6610:6677   */\n      tag_273\n        /* \"#utility.yul\":6674:6676   */\n      0x16\n        /* \"#utility.yul\":6669:6672   */\n      dup4\n        /* \"#utility.yul\":6610:6677   */\n      tag_158\n      jump\t// in\n    tag_273:\n        /* \"#utility.yul\":6603:6677   */\n      swap2\n      pop\n        /* \"#utility.yul\":6686:6779   */\n      tag_274\n        /* \"#utility.yul\":6775:6778   */\n      dup3\n        /* \"#utility.yul\":6686:6779   */\n      tag_164\n      jump\t// in\n    tag_274:\n        /* \"#utility.yul\":6804:6806   */\n      0x20\n        /* \"#utility.yul\":6799:6802   */\n      dup3\n        /* \"#utility.yul\":6795:6807   */\n      add\n        /* \"#utility.yul\":6788:6807   */\n      swap1\n      pop\n        /* \"#utility.yul\":6447:6813   */\n      swap2\n      swap1\n      pop\n      jump\t// out\n        /* \"#utility.yul\":6819:7238   */\n    tag_57:\n        /* \"#utility.yul\":6985:6989   */\n      0x00\n        /* \"#utility.yul\":7023:7025   */\n      0x20\n        /* \"#utility.yul\":7012:7021   */\n      dup3\n        /* \"#utility.yul\":7008:7026   */\n      add\n        /* \"#utility.yul\":7000:7026   */\n      swap1\n      pop\n        /* \"#utility.yul\":7072:7081   */\n      dup2\n        /* \"#utility.yul\":7066:7070   */\n      dup2\n        /* \"#utility.yul\":7062:7082   */\n      sub\n        /* \"#utility.yul\":7058:7059   */\n      0x00\n        /* \"#utility.yul\":7047:7056   */\n      dup4\n        /* \"#utility.yul\":7043:7060   */\n      add\n        /* \"#utility.yul\":7036:7083   */\n      mstore\n        /* \"#utility.yul\":7100:7231   */\n      tag_276\n        /* \"#utility.yul\":7226:7230   */\n      dup2\n        /* \"#utility.yul\":7100:7231   */\n      tag_165\n      jump\t// in\n    tag_276:\n        /* \"#utility.yul\":7092:7231   */\n      swap1\n      pop\n        /* \"#utility.yul\":6819:7238   */\n      swap2\n      swap1\n      pop\n      jump\t// out\n        /* \"#utility.yul\":7244:7424   */\n    tag_166:\n        /* \"#utility.yul\":7292:7369   */\n      0x4e487b7100000000000000000000000000000000000000000000000000000000\n        /* \"#utility.yul\":7289:7290   */\n      0x00\n        /* \"#utility.yul\":7282:7370   */\n      mstore\n        /* \"#utility.yul\":7389:7393   */\n      0x22\n        /* \"#utility.yul\":7386:7387   */\n      0x04\n        /* \"#utility.yul\":7379:7394   */\n      mstore\n        /* \"#utility.yul\":7413:7417   */\n      0x24\n        /* \"#utility.yul\":7410:7411   */\n      0x00\n        /* \"#utility.yul\":7403:7418   */\n      revert\n        /* \"#utility.yul\":7430:7750   */\n    tag_78:\n        /* \"#utility.yul\":7474:7480   */\n      0x00\n        /* \"#utility.yul\":7511:7512   */\n      0x02\n        /* \"#utility.yul\":7505:7509   */\n      dup3\n        /* \"#utility.yul\":7501:7513   */\n      div\n        /* \"#utility.yul\":7491:7513   */\n      swap1\n      pop\n        /* \"#utility.yul\":7558:7559   */\n      0x01\n        /* \"#utility.yul\":7552:7556   */\n      dup3\n        /* \"#utility.yul\":7548:7560   */\n      and\n        /* \"#utility.yul\":7579:7597   */\n      dup1\n        /* \"#utility.yul\":7569:7650   */\n      tag_279\n      jumpi\n        /* \"#utility.yul\":7635:7639   */\n      0x7f\n        /* \"#utility.yul\":7627:7633   */\n      dup3\n        /* \"#utility.yul\":7623:7640   */\n      and\n        /* \"#utility.yul\":7613:7640   */\n      swap2\n      pop\n        /* \"#utility.yul\":7569:7650   */\n    tag_279:\n        /* \"#utility.yul\":7697:7699   */\n      0x20\n        /* \"#utility.yul\":7689:7695   */\n      dup3\n        /* \"#utility.yul\":7686:7700   */\n      lt\n        /* \"#utility.yul\":7666:7684   */\n      dup2\n        /* \"#utility.yul\":7663:7701   */\n      sub\n        /* \"#utility.yul\":7660:7744   */\n      tag_280\n      jumpi\n        /* \"#utility.yul\":7716:7734   */\n      tag_281\n      tag_166\n      jump\t// in\n    tag_281:\n        /* \"#utility.yul\":7660:7744   */\n    tag_280:\n        /* \"#utility.yul\":7481:7750   */\n      pop\n        /* \"#utility.yul\":7430:7750   */\n      swap2\n      swap1\n      pop\n      jump\t// out\n        /* \"#utility.yul\":7756:7897   */\n    tag_167:\n        /* \"#utility.yul\":7805:7809   */\n      0x00\n        /* \"#utility.yul\":7828:7831   */\n      dup2\n        /* \"#utility.yul\":7820:7831   */\n      swap1\n      pop\n        /* \"#utility.yul\":7851:7854   */\n      dup2\n        /* \"#utility.yul\":7848:7849   */\n      0x00\n        /* \"#utility.yul\":7841:7855   */\n      mstore\n        /* \"#utility.yul\":7885:7889   */\n      0x20\n        /* \"#utility.yul\":7882:7883   */\n      0x00\n        /* \"#utility.yul\":7872:7890   */\n      keccak256\n        /* \"#utility.yul\":7864:7890   */\n      swap1\n      pop\n        /* \"#utility.yul\":7756:7897   */\n      swap2\n      swap1\n      pop\n      jump\t// out\n        /* \"#utility.yul\":7903:7996   */\n    tag_168:\n        /* \"#utility.yul\":7940:7946   */\n      0x00\n        /* \"#utility.yul\":7987:7989   */\n      0x20\n        /* \"#utility.yul\":7982:7984   */\n      0x1f\n        /* \"#utility.yul\":7975:7980   */\n      dup4\n        /* \"#utility.yul\":7971:7985   */\n      add\n        /* \"#utility.yul\":7967:7990   */\n      div\n        /* \"#utility.yul\":7957:7990   */\n      swap1\n      pop\n        /* \"#utility.yul\":7903:7996   */\n      swap2\n      swap1\n      pop\n      jump\t// out\n        /* \"#utility.yul\":8002:8109   */\n    tag_169:\n        /* \"#utility.yul\":8046:8054   */\n      0x00\n        /* \"#utility.yul\":8096:8101   */\n      dup3\n        /* \"#utility.yul\":8090:8094   */\n      dup3\n        /* \"#utility.yul\":8086:8102   */\n      shl\n        /* \"#utility.yul\":8065:8102   */\n      swap1\n      pop\n        /* \"#utility.yul\":8002:8109   */\n      swap3\n      swap2\n      pop\n      pop\n      jump\t// out\n        /* \"#utility.yul\":8115:8508   */\n    tag_170:\n        /* \"#utility.yul\":8184:8190   */\n      0x00\n        /* \"#utility.yul\":8234:8235   */\n      0x08\n        /* \"#utility.yul\":8222:8232   */\n      dup4\n        /* \"#utility.yul\":8218:8236   */\n      mul\n        /* \"#utility.yul\":8257:8354   */\n      tag_286\n        /* \"#utility.yul\":8287:8353   */\n      0xffffffffffffffffffffffffffffffffffffffffffffffffffffffffffffffff\n        /* \"#utility.yul\":8276:8285   */\n      dup3\n        /* \"#utility.yul\":8257:8354   */\n      tag_169\n      jump\t// in\n    tag_286:\n        /* \"#utility.yul\":8375:8414   */\n      tag_287\n        /* \"#utility.yul\":8405:8413   */\n      dup7\n        /* \"#utility.yul\":8394:8403   */\n      dup4\n        /* \"#utility.yul\":8375:8414   */\n      tag_169\n      jump\t// in\n    tag_287:\n        /* \"#utility.yul\":8363:8414   */\n      swap6\n      pop\n        /* \"#utility.yul\":8447:8451   */\n      dup1\n        /* \"#utility.yul\":8443:8452   */\n      not\n        /* \"#utility.yul\":8436:8441   */\n      dup5\n        /* \"#utility.yul\":8432:8453   */\n      and\n        /* \"#utility.yul\":8423:8453   */\n      swap4\n      pop\n        /* \"#utility.yul\":8496:8500   */\n      dup1\n        /* \"#utility.yul\":8486:8494   */\n      dup7\n        /* \"#utility.yul\":8482:8501   */\n      and\n        /* \"#utility.yul\":8475:8480   */\n      dup5\n        /* \"#utility.yul\":8472:8502   */\n      or\n        /* \"#utility.yul\":8462:8502   */\n      swap3\n      pop\n        /* \"#utility.yul\":8191:8508   */\n      pop\n      pop\n        /* \"#utility.yul\":8115:8508   */\n      swap4\n      swap3\n      pop\n      pop\n      pop\n      jump\t// out\n        /* \"#utility.yul\":8514:8574   */\n    tag_171:\n        /* \"#utility.yul\":8542:8545   */\n      0x00\n        /* \"#utility.yul\":8563:8568   */\n      dup2\n        /* \"#utility.yul\":8556:8568   */\n      swap1\n      pop\n        /* \"#utility.yul\":8514:8574   */\n      swap2\n      swap1\n      pop\n      jump\t// out\n        /* \"#utility.yul\":8580:8722   */\n    tag_172:\n        /* \"#utility.yul\":8630:8639   */\n      0x00\n        /* \"#utility.yul\":8663:8716   */\n      tag_290\n        /* \"#utility.yul\":8681:8715   */\n      tag_291\n        /* \"#utility.yul\":8690:8714   */\n      tag_292\n        /* \"#utility.yul\":8708:8713   */\n      dup5\n        /* \"#utility.yul\":8690:8714   */\n      tag_141\n      jump\t// in\n    tag_292:\n        /* \"#utility.yul\":8681:8715   */\n      tag_171\n      jump\t// in\n    tag_291:\n        /* \"#utility.yul\":8663:8716   */\n      tag_141\n      jump\t// in\n    tag_290:\n        /* \"#utility.yul\":8650:8716   */\n      swap1\n      pop\n        /* \"#utility.yul\":8580:8722   */\n      swap2\n      swap1\n      pop\n      jump\t// out\n        /* \"#utility.yul\":8728:8803   */\n    tag_173:\n        /* \"#utility.yul\":8771:8774   */\n      0x00\n        /* \"#utility.yul\":8792:8797   */\n      dup2\n        /* \"#utility.yul\":8785:8797   */\n      swap1\n      pop\n        /* \"#utility.yul\":8728:8803   */\n      swap2\n      swap1\n      pop\n      jump\t// out\n        /* \"#utility.yul\":8809:9078   */\n    tag_174:\n        /* \"#utility.yul\":8919:8958   */\n      tag_295\n        /* \"#utility.yul\":8950:8957   */\n      dup4\n        /* \"#utility.yul\":8919:8958   */\n      tag_172\n      jump\t// in\n    tag_295:\n        /* \"#utility.yul\":8980:9071   */\n      tag_296\n        /* \"#utility.yul\":9029:9070   */\n      tag_297\n        /* \"#utility.yul\":9053:9069   */\n      dup3\n        /* \"#utility.yul\":9029:9070   */\n      tag_173\n      jump\t// in\n    tag_297:\n        /* \"#utility.yul\":9021:9027   */\n      dup5\n        /* \"#utility.yul\":9014:9018   */\n      dup5\n        /* \"#utility.yul\":9008:9019   */\n      sload\n        /* \"#utility.yul\":8980:9071   */\n      tag_170\n      jump\t// in\n    tag_296:\n        /* \"#utility.yul\":8974:8978   */\n      dup3\n        /* \"#utility.yul\":8967:9072   */\n      sstore\n        /* \"#utility.yul\":8885:9078   */\n      pop\n        /* \"#utility.yul\":8809:9078   */\n      pop\n      pop\n      pop\n      jump\t// out\n        /* \"#utility.yul\":9084:9157   */\n    tag_175:\n        /* \"#utility.yul\":9129:9132   */\n      0x00\n        /* \"#utility.yul\":9084:9157   */\n      swap1\n      jump\t// out\n        /* \"#utility.yul\":9163:9352   */\n    tag_176:\n        /* \"#utility.yul\":9240:9272   */\n      tag_300\n      tag_175\n      jump\t// in\n    tag_300:\n        /* \"#utility.yul\":9281:9346   */\n      tag_301\n        /* \"#utility.yul\":9339:9345   */\n      dup2\n        /* \"#utility.yul\":9331:9337   */\n      dup5\n        /* \"#utility.yul\":9325:9329   */\n      dup5\n        /* \"#utility.yul\":9281:9346   */\n      tag_174\n      jump\t// in\n    tag_301:\n        /* \"#utility.yul\":9216:9352   */\n      pop\n        /* \"#utility.yul\":9163:9352   */\n      pop\n      pop\n      jump\t// out\n        /* \"#utility.yul\":9358:9544   */\n    tag_177:\n        /* \"#utility.yul\":9418:9538   */\n    tag_303:\n        /* \"#utility.yul\":9435:9438   */\n      dup2\n        /* \"#utility.yul\":9428:9433   */\n      dup2\n        /* \"#utility.yul\":9425:9439   */\n      lt\n        /* \"#utility.yul\":9418:9538   */\n      iszero\n      tag_305\n      jumpi\n        /* \"#utility.yul\":9489:9528   */\n      tag_306\n        /* \"#utility.yul\":9526:9527   */\n      0x00\n        /* \"#utility.yul\":9519:9524   */\n      dup3\n        /* \"#utility.yul\":9489:9528   */\n      tag_176\n      jump\t// in\n    tag_306:\n        /* \"#utility.yul\":9462:9463   */\n      0x01\n        /* \"#utility.yul\":9455:9460   */\n      dup2\n        /* \"#utility.yul\":9451:9464   */\n      add\n        /* \"#utility.yul\":9442:9464   */\n      swap1\n      pop\n        /* \"#utility.yul\":9418:9538   */\n      jump(tag_303)\n    tag_305:\n        /* \"#utility.yul\":9358:9544   */\n      pop\n      pop\n      jump\t// out\n        /* \"#utility.yul\":9550:10093   */\n    tag_178:\n        /* \"#utility.yul\":9651:9653   */\n      0x1f\n        /* \"#utility.yul\":9646:9649   */\n      dup3\n        /* \"#utility.yul\":9643:9654   */\n      gt\n        /* \"#utility.yul\":9640:10086   */\n      iszero\n      tag_308\n      jumpi\n        /* \"#utility.yul\":9685:9723   */\n      tag_309\n        /* \"#utility.yul\":9717:9722   */\n      dup2\n        /* \"#utility.yul\":9685:9723   */\n      tag_167\n      jump\t// in\n    tag_309:\n        /* \"#utility.yul\":9769:9798   */\n      tag_310\n        /* \"#utility.yul\":9787:9797   */\n      dup5\n        /* \"#utility.yul\":9769:9798   */\n      tag_168\n      jump\t// in\n    tag_310:\n        /* \"#utility.yul\":9759:9767   */\n      dup2\n        /* \"#utility.yul\":9755:9799   */\n      add\n        /* \"#utility.yul\":9952:9954   */\n      0x20\n        /* \"#utility.yul\":9940:9950   */\n      dup6\n        /* \"#utility.yul\":9937:9955   */\n      lt\n        /* \"#utility.yul\":9934:9983   */\n      iszero\n      tag_311\n      jumpi\n        /* \"#utility.yul\":9973:9981   */\n      dup2\n        /* \"#utility.yul\":9958:9981   */\n      swap1\n      pop\n        /* \"#utility.yul\":9934:9983   */\n    tag_311:\n        /* \"#utility.yul\":9996:10076   */\n      tag_312\n        /* \"#utility.yul\":10052:10074   */\n      tag_313\n        /* \"#utility.yul\":10070:10073   */\n      dup6\n        /* \"#utility.yul\":10052:10074   */\n      tag_168\n      jump\t// in\n    tag_313:\n        /* \"#utility.yul\":10042:10050   */\n      dup4\n        /* \"#utility.yul\":10038:10075   */\n      add\n        /* \"#utility.yul\":10025:10036   */\n      dup3\n        /* \"#utility.yul\":9996:10076   */\n      tag_177\n      jump\t// in\n    tag_312:\n        /* \"#utility.yul\":9655:10086   */\n      pop\n      pop\n        /* \"#utility.yul\":9640:10086   */\n    tag_308:\n        /* \"#utility.yul\":9550:10093   */\n      pop\n      pop\n      pop\n      jump\t// out\n        /* \"#utility.yul\":10099:10216   */\n    tag_179:\n        /* \"#utility.yul\":10153:10161   */\n      0x00\n        /* \"#utility.yul\":10203:10208   */\n      dup3\n        /* \"#utility.yul\":10197:10201   */\n      dup3\n        /* \"#utility.yul\":10193:10209   */\n      shr\n        /* \"#utility.yul\":10172:10209   */\n      swap1\n      pop\n        /* \"#utility.yul\":10099:10216   */\n      swap3\n      swap2\n      pop\n      pop\n      jump\t// out\n        /* \"#utility.yul\":10222:10391   */\n    tag_180:\n        /* \"#utility.yul\":10266:10272   */\n      0x00\n        /* \"#utility.yul\":10299:10350   */\n      tag_316\n        /* \"#utility.yul\":10347:10348   */\n      0x00\n        /* \"#utility.yul\":10343:10349   */\n      not\n        /* \"#utility.yul\":10335:10340   */\n      dup5\n        /* \"#utility.yul\":10332:10333   */\n      0x08\n        /* \"#utility.yul\":10328:10341   */\n      mul\n        /* \"#utility.yul\":10299:10350   */\n      tag_179\n      jump\t// in\n    tag_316:\n        /* \"#utility.yul\":10295:10351   */\n      not\n        /* \"#utility.yul\":10380:10384   */\n      dup1\n        /* \"#utility.yul\":10374:10378   */\n      dup4\n        /* \"#utility.yul\":10370:10385   */\n      and\n        /* \"#utility.yul\":10360:10385   */\n      swap2\n      pop\n        /* \"#utility.yul\":10273:10391   */\n      pop\n        /* \"#utility.yul\":10222:10391   */\n      swap3\n      swap2\n      pop\n      pop\n      jump\t// out\n        /* \"#utility.yul\":10396:10691   */\n    tag_181:\n        /* \"#utility.yul\":10472:10476   */\n      0x00\n        /* \"#utility.yul\":10618:10647   */\n      tag_318\n        /* \"#utility.yul\":10643:10646   */\n      dup4\n        /* \"#utility.yul\":10637:10641   */\n      dup4\n        /* \"#utility.yul\":10618:10647   */\n      tag_180\n      jump\t// in\n    tag_318:\n        /* \"#utility.yul\":10610:10647   */\n      swap2\n      pop\n        /* \"#utility.yul\":10680:10683   */\n      dup3\n        /* \"#utility.yul\":10677:10678   */\n      0x02\n        /* \"#utility.yul\":10673:10684   */\n      mul\n        /* \"#utility.yul\":10667:10671   */\n      dup3\n        /* \"#utility.yul\":10664:10685   */\n      or\n        /* \"#utility.yul\":10656:10685   */\n      swap1\n      pop\n        /* \"#utility.yul\":10396:10691   */\n      swap3\n      swap2\n      pop\n      pop\n      jump\t// out\n        /* \"#utility.yul\":10696:12091   */\n    tag_61:\n        /* \"#utility.yul\":10813:10850   */\n      tag_320\n        /* \"#utility.yul\":10846:10849   */\n      dup3\n        /* \"#utility.yul\":10813:10850   */\n      tag_157\n      jump\t// in\n    tag_320:\n        /* \"#utility.yul\":10915:10933   */\n      0xffffffffffffffff\n        /* \"#utility.yul\":10907:10913   */\n      dup2\n        /* \"#utility.yul\":10904:10934   */\n      gt\n        /* \"#utility.yul\":10901:10957   */\n      iszero\n      tag_321\n      jumpi\n        /* \"#utility.yul\":10937:10955   */\n      tag_322\n      tag_88\n      jump\t// in\n    tag_322:\n        /* \"#utility.yul\":10901:10957   */\n    tag_321:\n        /* \"#utility.yul\":10981:11019   */\n      tag_323\n        /* \"#utility.yul\":11013:11017   */\n      dup3\n        /* \"#utility.yul\":11007:11018   */\n      sload\n        /* \"#utility.yul\":10981:11019   */\n      tag_78\n      jump\t// in\n    tag_323:\n        /* \"#utility.yul\":11066:11133   */\n      tag_324\n        /* \"#utility.yul\":11126:11132   */\n      dup3\n        /* \"#utility.yul\":11118:11124   */\n      dup3\n        /* \"#utility.yul\":11112:11116   */\n      dup6\n        /* \"#utility.yul\":11066:11133   */\n      tag_178\n      jump\t// in\n    tag_324:\n        /* \"#utility.yul\":11160:11161   */\n      0x00\n        /* \"#utility.yul\":11184:11188   */\n      0x20\n        /* \"#utility.yul\":11171:11188   */\n      swap1\n      pop\n        /* \"#utility.yul\":11216:11218   */\n      0x1f\n        /* \"#utility.yul\":11208:11214   */\n      dup4\n        /* \"#utility.yul\":11205:11219   */\n      gt\n        /* \"#utility.yul\":11233:11234   */\n      0x01\n        /* \"#utility.yul\":11228:11846   */\n      dup2\n      eq\n      tag_326\n      jumpi\n        /* \"#utility.yul\":11890:11891   */\n      0x00\n        /* \"#utility.yul\":11907:11913   */\n      dup5\n        /* \"#utility.yul\":11904:11981   */\n      iszero\n      tag_327\n      jumpi\n        /* \"#utility.yul\":11956:11965   */\n      dup3\n        /* \"#utility.yul\":11951:11954   */\n      dup8\n        /* \"#utility.yul\":11947:11966   */\n      add\n        /* \"#utility.yul\":11941:11967   */\n      mload\n        /* \"#utility.yul\":11932:11967   */\n      swap1\n      pop\n        /* \"#utility.yul\":11904:11981   */\n    tag_327:\n        /* \"#utility.yul\":12007:12074   */\n      tag_328\n        /* \"#utility.yul\":12067:12073   */\n      dup6\n        /* \"#utility.yul\":12060:12065   */\n      dup3\n        /* \"#utility.yul\":12007:12074   */\n      tag_181\n      jump\t// in\n    tag_328:\n        /* \"#utility.yul\":12001:12005   */\n      dup7\n        /* \"#utility.yul\":11994:12075   */\n      sstore\n        /* \"#utility.yul\":11863:12085   */\n      pop\n        /* \"#utility.yul\":11198:12085   */\n      jump(tag_325)\n        /* \"#utility.yul\":11228:11846   */\n    tag_326:\n        /* \"#utility.yul\":11280:11284   */\n      0x1f\n        /* \"#utility.yul\":11276:11285   */\n      not\n        /* \"#utility.yul\":11268:11274   */\n      dup5\n        /* \"#utility.yul\":11264:11286   */\n      and\n        /* \"#utility.yul\":11314:11351   */\n      tag_329\n        /* \"#utility.yul\":11346:11350   */\n      dup7\n        /* \"#utility.yul\":11314:11351   */\n      tag_167\n      jump\t// in\n    tag_329:\n        /* \"#utility.yul\":11373:11374   */\n      0x00\n        /* \"#utility.yul\":11387:11595   */\n    tag_330:\n        /* \"#utility.yul\":11401:11408   */\n      dup3\n        /* \"#utility.yul\":11398:11399   */\n      dup2\n        /* \"#utility.yul\":11395:11409   */\n      lt\n        /* \"#utility.yul\":11387:11595   */\n      iszero\n      tag_332\n      jumpi\n        /* \"#utility.yul\":11480:11489   */\n      dup5\n        /* \"#utility.yul\":11475:11478   */\n      dup10\n        /* \"#utility.yul\":11471:11490   */\n      add\n        /* \"#utility.yul\":11465:11491   */\n      mload\n        /* \"#utility.yul\":11457:11463   */\n      dup3\n        /* \"#utility.yul\":11450:11492   */\n      sstore\n        /* \"#utility.yul\":11531:11532   */\n      0x01\n        /* \"#utility.yul\":11523:11529   */\n      dup3\n        /* \"#utility.yul\":11519:11533   */\n      add\n        /* \"#utility.yul\":11509:11533   */\n      swap2\n      pop\n        /* \"#utility.yul\":11578:11580   */\n      0x20\n        /* \"#utility.yul\":11567:11576   */\n      dup6\n        /* \"#utility.yul\":11563:11581   */\n      add\n        /* \"#utility.yul\":11550:11581   */\n      swap5\n      pop\n        /* \"#utility.yul\":11424:11428   */\n      0x20\n        /* \"#utility.yul\":11421:11422   */\n      dup2\n        /* \"#utility.yul\":11417:11429   */\n      add\n        /* \"#utility.yul\":11412:11429   */\n      swap1\n      pop\n        /* \"#utility.yul\":11387:11595   */\n      jump(tag_330)\n    tag_332:\n        /* \"#utility.yul\":11623:11629   */\n      dup7\n        /* \"#utility.yul\":11614:11621   */\n      dup4\n        /* \"#utility.yul\":11611:11630   */\n      lt\n        /* \"#utility.yul\":11608:11787   */\n      iszero\n      tag_333\n      jumpi\n        /* \"#utility.yul\":11681:11690   */\n      dup5\n        /* \"#utility.yul\":11676:11679   */\n      dup10\n        /* \"#utility.yul\":11672:11691   */\n      add\n        /* \"#utility.yul\":11666:11692   */\n      mload\n        /* \"#utility.yul\":11724:11772   */\n      tag_334\n        /* \"#utility.yul\":11766:11770   */\n      0x1f\n        /* \"#utility.yul\":11758:11764   */\n      dup10\n        /* \"#utility.yul\":11754:11771   */\n      and\n        /* \"#utility.yul\":11743:11752   */\n      dup3\n        /* \"#utility.yul\":11724:11772   */\n      tag_180\n      jump\t// in\n    tag_334:\n        /* \"#utility.yul\":11716:11722   */\n      dup4\n        /* \"#utility.yul\":11709:11773   */\n      sstore\n        /* \"#utility.yul\":11631:11787   */\n      pop\n        /* \"#utility.yul\":11608:11787   */\n    tag_333:\n        /* \"#utility.yul\":11833:11834   */\n      0x01\n        /* \"#utility.yul\":11829:11830   */\n      0x02\n        /* \"#utility.yul\":11821:11827   */\n      dup9\n        /* \"#utility.yul\":11817:11831   */\n      mul\n        /* \"#utility.yul\":11813:11835   */\n      add\n        /* \"#utility.yul\":11807:11811   */\n      dup9\n        /* \"#utility.yul\":11800:11836   */\n      sstore\n        /* \"#utility.yul\":11235:11846   */\n      pop\n      pop\n      pop\n        /* \"#utility.yul\":11198:12085   */\n    tag_325:\n      pop\n        /* \"#utility.yul\":10788:12091   */\n      pop\n      pop\n      pop\n        /* \"#utility.yul\":10696:12091   */\n      pop\n      pop\n      jump\t// out\n        /* \"#utility.yul\":12097:12245   */\n    tag_182:\n        /* \"#utility.yul\":12199:12210   */\n      0x00\n        /* \"#utility.yul\":12236:12239   */\n      dup2\n        /* \"#utility.yul\":12221:12239   */\n      swap1\n      pop\n        /* \"#utility.yul\":12097:12245   */\n      swap3\n      swap2\n      pop\n      pop\n      jump\t// out\n        /* \"#utility.yul\":12251:12641   */\n    tag_183:\n        /* \"#utility.yul\":12357:12360   */\n      0x00\n        /* \"#utility.yul\":12385:12424   */\n      tag_337\n        /* \"#utility.yul\":12418:12423   */\n      dup3\n        /* \"#utility.yul\":12385:12424   */\n      tag_157\n      jump\t// in\n    tag_337:\n        /* \"#utility.yul\":12440:12529   */\n      tag_338\n        /* \"#utility.yul\":12522:12528   */\n      dup2\n        /* \"#utility.yul\":12517:12520   */\n      dup6\n        /* \"#utility.yul\":12440:12529   */\n      tag_182\n      jump\t// in\n    tag_338:\n        /* \"#utility.yul\":12433:12529   */\n      swap4\n      pop\n        /* \"#utility.yul\":12538:12603   */\n      tag_339\n        /* \"#utility.yul\":12596:12602   */\n      dup2\n        /* \"#utility.yul\":12591:12594   */\n      dup6\n        /* \"#utility.yul\":12584:12588   */\n      0x20\n        /* \"#utility.yul\":12577:12582   */\n      dup7\n        /* \"#utility.yul\":12573:12589   */\n      add\n        /* \"#utility.yul\":12538:12603   */\n      tag_159\n      jump\t// in\n    tag_339:\n        /* \"#utility.yul\":12628:12634   */\n      dup1\n        /* \"#utility.yul\":12623:12626   */\n      dup5\n        /* \"#utility.yul\":12619:12635   */\n      add\n        /* \"#utility.yul\":12612:12635   */\n      swap2\n      pop\n        /* \"#utility.yul\":12361:12641   */\n      pop\n        /* \"#utility.yul\":12251:12641   */\n      swap3\n      swap2\n      pop\n      pop\n      jump\t// out\n        /* \"#utility.yul\":12647:12922   */\n    tag_63:\n        /* \"#utility.yul\":12779:12782   */\n      0x00\n        /* \"#utility.yul\":12801:12896   */\n      tag_341\n        /* \"#utility.yul\":12892:12895   */\n      dup3\n        /* \"#utility.yul\":12883:12889   */\n      dup5\n        /* \"#utility.yul\":12801:12896   */\n      tag_183\n      jump\t// in\n    tag_341:\n        /* \"#utility.yul\":12794:12896   */\n      swap2\n      pop\n        /* \"#utility.yul\":12913:12916   */\n      dup2\n        /* \"#utility.yul\":12906:12916   */\n      swap1\n      pop\n        /* \"#utility.yul\":12647:12922   */\n      swap3\n      swap2\n      pop\n      pop\n      jump\t// out\n        /* \"#utility.yul\":12928:13108   */\n    tag_184:\n        /* \"#utility.yul\":12976:13053   */\n      0x4e487b7100000000000000000000000000000000000000000000000000000000\n        /* \"#utility.yul\":12973:12974   */\n      0x00\n        /* \"#utility.yul\":12966:13054   */\n      mstore\n        /* \"#utility.yul\":13073:13077   */\n      0x11\n        /* \"#utility.yul\":13070:13071   */\n      0x04\n        /* \"#utility.yul\":13063:13078   */\n      mstore\n        /* \"#utility.yul\":13097:13101   */\n      0x24\n        /* \"#utility.yul\":13094:13095   */\n      0x00\n        /* \"#utility.yul\":13087:13102   */\n      revert\n        /* \"#utility.yul\":13114:13305   */\n    tag_65:\n        /* \"#utility.yul\":13154:13157   */\n      0x00\n        /* \"#utility.yul\":13173:13193   */\n      tag_344\n        /* \"#utility.yul\":13191:13192   */\n      dup3\n        /* \"#utility.yul\":13173:13193   */\n      tag_141\n      jump\t// in\n    tag_344:\n        /* \"#utility.yul\":13168:13193   */\n      swap2\n      pop\n        /* \"#utility.yul\":13207:13227   */\n      tag_345\n        /* \"#utility.yul\":13225:13226   */\n      dup4\n        /* \"#utility.yul\":13207:13227   */\n      tag_141\n      jump\t// in\n    tag_345:\n        /* \"#utility.yul\":13202:13227   */\n      swap3\n      pop\n        /* \"#utility.yul\":13250:13251   */\n      dup3\n        /* \"#utility.yul\":13247:13248   */\n      dup3\n        /* \"#utility.yul\":13243:13252   */\n      add\n        /* \"#utility.yul\":13236:13252   */\n      swap1\n      pop\n        /* \"#utility.yul\":13271:13274   */\n      dup1\n        /* \"#utility.yul\":13268:13269   */\n      dup3\n        /* \"#utility.yul\":13265:13275   */\n      gt\n        /* \"#utility.yul\":13262:13298   */\n      iszero\n      tag_346\n      jumpi\n        /* \"#utility.yul\":13278:13296   */\n      tag_347\n      tag_184\n      jump\t// in\n    tag_347:\n        /* \"#utility.yul\":13262:13298   */\n    tag_346:\n        /* \"#utility.yul\":13114:13305   */\n      swap3\n      swap2\n      pop\n      pop\n      jump\t// out\n        /* \"#utility.yul\":13311:13491   */\n    tag_75:\n        /* \"#utility.yul\":13359:13436   */\n      0x4e487b7100000000000000000000000000000000000000000000000000000000\n        /* \"#utility.yul\":13356:13357   */\n      0x00\n        /* \"#utility.yul\":13349:13437   */\n      mstore\n        /* \"#utility.yul\":13456:13460   */\n      0x32\n        /* \"#utility.yul\":13453:13454   */\n      0x04\n        /* \"#utility.yul\":13446:13461   */\n      mstore\n        /* \"#utility.yul\":13480:13484   */\n      0x24\n        /* \"#utility.yul\":13477:13478   */\n      0x00\n        /* \"#utility.yul\":13470:13485   */\n      revert\n        /* \"#utility.yul\":13497:13730   */\n    tag_85:\n        /* \"#utility.yul\":13536:13539   */\n      0x00\n        /* \"#utility.yul\":13559:13583   */\n      tag_350\n        /* \"#utility.yul\":13577:13582   */\n      dup3\n        /* \"#utility.yul\":13559:13583   */\n      tag_141\n      jump\t// in\n    tag_350:\n        /* \"#utility.yul\":13550:13583   */\n      swap2\n      pop\n        /* \"#utility.yul\":13605:13671   */\n      0xffffffffffffffffffffffffffffffffffffffffffffffffffffffffffffffff\n        /* \"#utility.yul\":13598:13603   */\n      dup3\n        /* \"#utility.yul\":13595:13672   */\n      sub\n        /* \"#utility.yul\":13592:13695   */\n      tag_351\n      jumpi\n        /* \"#utility.yul\":13675:13693   */\n      tag_352\n      tag_184\n      jump\t// in\n    tag_352:\n        /* \"#utility.yul\":13592:13695   */\n    tag_351:\n        /* \"#utility.yul\":13722:13723   */\n      0x01\n        /* \"#utility.yul\":13715:13720   */\n      dup3\n        /* \"#utility.yul\":13711:13724   */\n      add\n        /* \"#utility.yul\":13704:13724   */\n      swap1\n      pop\n        /* \"#utility.yul\":13497:13730   */\n      swap2\n      swap1\n      pop\n      jump\t// out\n        /* \"#utility.yul\":13736:13883   */\n    tag_185:\n        /* \"#utility.yul\":13837:13848   */\n      0x00\n        /* \"#utility.yul\":13874:13877   */\n      dup2\n        /* \"#utility.yul\":13859:13877   */\n      swap1\n      pop\n        /* \"#utility.yul\":13736:13883   */\n      swap3\n      swap2\n      pop\n      pop\n      jump\t// out\n        /* \"#utility.yul\":13889:14003   */\n    tag_186:\n      pop\n      jump\t// out\n        /* \"#utility.yul\":14009:14407   */\n    tag_187:\n        /* \"#utility.yul\":14168:14171   */\n      0x00\n        /* \"#utility.yul\":14189:14272   */\n      tag_356\n        /* \"#utility.yul\":14270:14271   */\n      0x00\n        /* \"#utility.yul\":14265:14268   */\n      dup4\n        /* \"#utility.yul\":14189:14272   */\n      tag_185\n      jump\t// in\n    tag_356:\n        /* \"#utility.yul\":14182:14272   */\n      swap2\n      pop\n        /* \"#utility.yul\":14281:14374   */\n      tag_357\n        /* \"#utility.yul\":14370:14373   */\n      dup3\n        /* \"#utility.yul\":14281:14374   */\n      tag_186\n      jump\t// in\n    tag_357:\n        /* \"#utility.yul\":14399:14400   */\n      0x00\n        /* \"#utility.yul\":14394:14397   */\n      dup3\n        /* \"#utility.yul\":14390:14401   */\n      add\n        /* \"#utility.yul\":14383:14401   */\n      swap1\n      pop\n        /* \"#utility.yul\":14009:14407   */\n      swap2\n      swap1\n      pop\n      jump\t// out\n        /* \"#utility.yul\":14413:14792   */\n    tag_94:\n        /* \"#utility.yul\":14597:14600   */\n      0x00\n        /* \"#utility.yul\":14619:14766   */\n      tag_359\n        /* \"#utility.yul\":14762:14765   */\n      dup3\n        /* \"#utility.yul\":14619:14766   */\n      tag_187\n      jump\t// in\n    tag_359:\n        /* \"#utility.yul\":14612:14766   */\n      swap2\n      pop\n        /* \"#utility.yul\":14783:14786   */\n      dup2\n        /* \"#utility.yul\":14776:14786   */\n      swap1\n      pop\n        /* \"#utility.yul\":14413:14792   */\n      swap2\n      swap1\n      pop\n      jump\t// out\n        /* \"#utility.yul\":14798:14959   */\n    tag_188:\n        /* \"#utility.yul\":14938:14951   */\n      0x43616c6c206661696c6564000000000000000000000000000000000000000000\n        /* \"#utility.yul\":14934:14935   */\n      0x00\n        /* \"#utility.yul\":14926:14932   */\n      dup3\n        /* \"#utility.yul\":14922:14936   */\n      add\n        /* \"#utility.yul\":14915:14952   */\n      mstore\n        /* \"#utility.yul\":14798:14959   */\n      pop\n      jump\t// out\n        /* \"#utility.yul\":14965:15331   */\n    tag_189:\n        /* \"#utility.yul\":15107:15110   */\n      0x00\n        /* \"#utility.yul\":15128:15195   */\n      tag_362\n        /* \"#utility.yul\":15192:15194   */\n      0x0b\n        /* \"#utility.yul\":15187:15190   */\n      dup4\n        /* \"#utility.yul\":15128:15195   */\n      tag_158\n      jump\t// in\n    tag_362:\n        /* \"#utility.yul\":15121:15195   */\n      swap2\n      pop\n        /* \"#utility.yul\":15204:15297   */\n      tag_363\n        /* \"#utility.yul\":15293:15296   */\n      dup3\n        /* \"#utility.yul\":15204:15297   */\n      tag_188\n      jump\t// in\n    tag_363:\n        /* \"#utility.yul\":15322:15324   */\n      0x20\n        /* \"#utility.yul\":15317:15320   */\n      dup3\n        /* \"#utility.yul\":15313:15325   */\n      add\n        /* \"#utility.yul\":15306:15325   */\n      swap1\n      pop\n        /* \"#utility.yul\":14965:15331   */\n      swap2\n      swap1\n      pop\n      jump\t// out\n        /* \"#utility.yul\":15337:15756   */\n    tag_100:\n        /* \"#utility.yul\":15503:15507   */\n      0x00\n        /* \"#utility.yul\":15541:15543   */\n      0x20\n        /* \"#utility.yul\":15530:15539   */\n      dup3\n        /* \"#utility.yul\":15526:15544   */\n      add\n        /* \"#utility.yul\":15518:15544   */\n      swap1\n      pop\n        /* \"#utility.yul\":15590:15599   */\n      dup2\n        /* \"#utility.yul\":15584:15588   */\n      dup2\n        /* \"#utility.yul\":15580:15600   */\n      sub\n        /* \"#utility.yul\":15576:15577   */\n      0x00\n        /* \"#utility.yul\":15565:15574   */\n      dup4\n        /* \"#utility.yul\":15561:15578   */\n      add\n        /* \"#utility.yul\":15554:15601   */\n      mstore\n        /* \"#utility.yul\":15618:15749   */\n      tag_365\n        /* \"#utility.yul\":15744:15748   */\n      dup2\n        /* \"#utility.yul\":15618:15749   */\n      tag_189\n      jump\t// in\n    tag_365:\n        /* \"#utility.yul\":15610:15749   */\n      swap1\n      pop\n        /* \"#utility.yul\":15337:15756   */\n      swap2\n      swap1\n      pop\n      jump\t// out\n        /* \"#utility.yul\":15762:16172   */\n    tag_114:\n        /* \"#utility.yul\":15802:15809   */\n      0x00\n        /* \"#utility.yul\":15825:15845   */\n      tag_367\n        /* \"#utility.yul\":15843:15844   */\n      dup3\n        /* \"#utility.yul\":15825:15845   */\n      tag_141\n      jump\t// in\n    tag_367:\n        /* \"#utility.yul\":15820:15845   */\n      swap2\n      pop\n        /* \"#utility.yul\":15859:15879   */\n      tag_368\n        /* \"#utility.yul\":15877:15878   */\n      dup4\n        /* \"#utility.yul\":15859:15879   */\n      tag_141\n      jump\t// in\n    tag_368:\n        /* \"#utility.yul\":15854:15879   */\n      swap3\n      pop\n        /* \"#utility.yul\":15914:15915   */\n      dup3\n        /* \"#utility.yul\":15911:15912   */\n      dup3\n        /* \"#utility.yul\":15907:15916   */\n      mul\n        /* \"#utility.yul\":15936:15966   */\n      tag_369\n        /* \"#utility.yul\":15954:15965   */\n      dup2\n        /* \"#utility.yul\":15936:15966   */\n      tag_141\n      jump\t// in\n    tag_369:\n        /* \"#utility.yul\":15925:15966   */\n      swap2\n      pop\n        /* \"#utility.yul\":16115:16116   */\n      dup3\n        /* \"#utility.yul\":16106:16113   */\n      dup3\n        /* \"#utility.yul\":16102:16117   */\n      div\n        /* \"#utility.yul\":16099:16100   */\n      dup5\n        /* \"#utility.yul\":16096:16118   */\n      eq\n        /* \"#utility.yul\":16076:16077   */\n      dup4\n        /* \"#utility.yul\":16069:16078   */\n      iszero\n        /* \"#utility.yul\":16049:16132   */\n      or\n        /* \"#utility.yul\":16026:16165   */\n      tag_370\n      jumpi\n        /* \"#utility.yul\":16145:16163   */\n      tag_371\n      tag_184\n      jump\t// in\n    tag_371:\n        /* \"#utility.yul\":16026:16165   */\n    tag_370:\n        /* \"#utility.yul\":15810:16172   */\n      pop\n        /* \"#utility.yul\":15762:16172   */\n      swap3\n      swap2\n      pop\n      pop\n      jump\t// out\n        /* \"#utility.yul\":16178:16358   */\n    tag_190:\n        /* \"#utility.yul\":16226:16303   */\n      0x4e487b7100000000000000000000000000000000000000000000000000000000\n        /* \"#utility.yul\":16223:16224   */\n      0x00\n        /* \"#utility.yul\":16216:16304   */\n      mstore\n        /* \"#utility.yul\":16323:16327   */\n      0x12\n        /* \"#utility.yul\":16320:16321   */\n      0x04\n        /* \"#utility.yul\":16313:16328   */\n      mstore\n        /* \"#utility.yul\":16347:16351   */\n      0x24\n        /* \"#utility.yul\":16344:16345   */\n      0x00\n        /* \"#utility.yul\":16337:16352   */\n      revert\n        /* \"#utility.yul\":16364:16549   */\n    tag_116:\n        /* \"#utility.yul\":16404:16405   */\n      0x00\n        /* \"#utility.yul\":16421:16441   */\n      tag_374\n        /* \"#utility.yul\":16439:16440   */\n      dup3\n        /* \"#utility.yul\":16421:16441   */\n      tag_141\n      jump\t// in\n    tag_374:\n        /* \"#utility.yul\":16416:16441   */\n      swap2\n      pop\n        /* \"#utility.yul\":16455:16475   */\n      tag_375\n        /* \"#utility.yul\":16473:16474   */\n      dup4\n        /* \"#utility.yul\":16455:16475   */\n      tag_141\n      jump\t// in\n    tag_375:\n        /* \"#utility.yul\":16450:16475   */\n      swap3\n      pop\n        /* \"#utility.yul\":16494:16495   */\n      dup3\n        /* \"#utility.yul\":16484:16519   */\n      tag_376\n      jumpi\n        /* \"#utility.yul\":16499:16517   */\n      tag_377\n      tag_190\n      jump\t// in\n    tag_377:\n        /* \"#utility.yul\":16484:16519   */\n    tag_376:\n        /* \"#utility.yul\":16541:16542   */\n      dup3\n        /* \"#utility.yul\":16538:16539   */\n      dup3\n        /* \"#utility.yul\":16534:16543   */\n      div\n        /* \"#utility.yul\":16529:16543   */\n      swap1\n      pop\n        /* \"#utility.yul\":16364:16549   */\n      swap3\n      swap2\n      pop\n      pop\n      jump\t// out\n        /* \"#utility.yul\":16555:16660   */\n    tag_191:\n        /* \"#utility.yul\":16591:16598   */\n      0x00\n        /* \"#utility.yul\":16631:16653   */\n      0xffffffffffffffffffff\n        /* \"#utility.yul\":16624:16629   */\n      dup3\n        /* \"#utility.yul\":16620:16654   */\n      and\n        /* \"#utility.yul\":16609:16654   */\n      swap1\n      pop\n        /* \"#utility.yul\":16555:16660   */\n      swap2\n      swap1\n      pop\n      jump\t// out\n        /* \"#utility.yul\":16666:16786   */\n    tag_192:\n        /* \"#utility.yul\":16738:16761   */\n      tag_380\n        /* \"#utility.yul\":16755:16760   */\n      dup2\n        /* \"#utility.yul\":16738:16761   */\n      tag_191\n      jump\t// in\n    tag_380:\n        /* \"#utility.yul\":16731:16736   */\n      dup2\n        /* \"#utility.yul\":16728:16762   */\n      eq\n        /* \"#utility.yul\":16718:16780   */\n      tag_381\n      jumpi\n        /* \"#utility.yul\":16776:16777   */\n      0x00\n        /* \"#utility.yul\":16773:16774   */\n      dup1\n        /* \"#utility.yul\":16766:16778   */\n      revert\n        /* \"#utility.yul\":16718:16780   */\n    tag_381:\n        /* \"#utility.yul\":16666:16786   */\n      pop\n      jump\t// out\n        /* \"#utility.yul\":16792:16933   */\n    tag_193:\n        /* \"#utility.yul\":16848:16853   */\n      0x00\n        /* \"#utility.yul\":16879:16885   */\n      dup2\n        /* \"#utility.yul\":16873:16886   */\n      mload\n        /* \"#utility.yul\":16864:16886   */\n      swap1\n      pop\n        /* \"#utility.yul\":16895:16927   */\n      tag_383\n        /* \"#utility.yul\":16921:16926   */\n      dup2\n        /* \"#utility.yul\":16895:16927   */\n      tag_192\n      jump\t// in\n    tag_383:\n        /* \"#utility.yul\":16792:16933   */\n      swap3\n      swap2\n      pop\n      pop\n      jump\t// out\n        /* \"#utility.yul\":16939:17015   */\n    tag_194:\n        /* \"#utility.yul\":16975:16982   */\n      0x00\n        /* \"#utility.yul\":17004:17009   */\n      dup2\n        /* \"#utility.yul\":16993:17009   */\n      swap1\n      pop\n        /* \"#utility.yul\":16939:17015   */\n      swap2\n      swap1\n      pop\n      jump\t// out\n        /* \"#utility.yul\":17021:17141   */\n    tag_195:\n        /* \"#utility.yul\":17093:17116   */\n      tag_386\n        /* \"#utility.yul\":17110:17115   */\n      dup2\n        /* \"#utility.yul\":17093:17116   */\n      tag_194\n      jump\t// in\n    tag_386:\n        /* \"#utility.yul\":17086:17091   */\n      dup2\n        /* \"#utility.yul\":17083:17117   */\n      eq\n        /* \"#utility.yul\":17073:17135   */\n      tag_387\n      jumpi\n        /* \"#utility.yul\":17131:17132   */\n      0x00\n        /* \"#utility.yul\":17128:17129   */\n      dup1\n        /* \"#utility.yul\":17121:17133   */\n      revert\n        /* \"#utility.yul\":17073:17135   */\n    tag_387:\n        /* \"#utility.yul\":17021:17141   */\n      pop\n      jump\t// out\n        /* \"#utility.yul\":17147:17288   */\n    tag_196:\n        /* \"#utility.yul\":17203:17208   */\n      0x00\n        /* \"#utility.yul\":17234:17240   */\n      dup2\n        /* \"#utility.yul\":17228:17241   */\n      mload\n        /* \"#utility.yul\":17219:17241   */\n      swap1\n      pop\n        /* \"#utility.yul\":17250:17282   */\n      tag_389\n        /* \"#utility.yul\":17276:17281   */\n      dup2\n        /* \"#utility.yul\":17250:17282   */\n      tag_195\n      jump\t// in\n    tag_389:\n        /* \"#utility.yul\":17147:17288   */\n      swap3\n      swap2\n      pop\n      pop\n      jump\t// out\n        /* \"#utility.yul\":17294:17437   */\n    tag_197:\n        /* \"#utility.yul\":17351:17356   */\n      0x00\n        /* \"#utility.yul\":17382:17388   */\n      dup2\n        /* \"#utility.yul\":17376:17389   */\n      mload\n        /* \"#utility.yul\":17367:17389   */\n      swap1\n      pop\n        /* \"#utility.yul\":17398:17431   */\n      tag_391\n        /* \"#utility.yul\":17425:17430   */\n      dup2\n        /* \"#utility.yul\":17398:17431   */\n      tag_155\n      jump\t// in\n    tag_391:\n        /* \"#utility.yul\":17294:17437   */\n      swap3\n      swap2\n      pop\n      pop\n      jump\t// out\n        /* \"#utility.yul\":17443:18414   */\n    tag_121:\n        /* \"#utility.yul\":17546:17552   */\n      0x00\n        /* \"#utility.yul\":17554:17560   */\n      dup1\n        /* \"#utility.yul\":17562:17568   */\n      0x00\n        /* \"#utility.yul\":17570:17576   */\n      dup1\n        /* \"#utility.yul\":17578:17584   */\n      0x00\n        /* \"#utility.yul\":17627:17630   */\n      0xa0\n        /* \"#utility.yul\":17615:17624   */\n      dup7\n        /* \"#utility.yul\":17606:17613   */\n      dup9\n        /* \"#utility.yul\":17602:17625   */\n      sub\n        /* \"#utility.yul\":17598:17631   */\n      slt\n        /* \"#utility.yul\":17595:17715   */\n      iszero\n      tag_393\n      jumpi\n        /* \"#utility.yul\":17634:17713   */\n      tag_394\n      tag_144\n      jump\t// in\n    tag_394:\n        /* \"#utility.yul\":17595:17715   */\n    tag_393:\n        /* \"#utility.yul\":17754:17755   */\n      0x00\n        /* \"#utility.yul\":17779:17842   */\n      tag_395\n        /* \"#utility.yul\":17834:17841   */\n      dup9\n        /* \"#utility.yul\":17825:17831   */\n      dup3\n        /* \"#utility.yul\":17814:17823   */\n      dup10\n        /* \"#utility.yul\":17810:17832   */\n      add\n        /* \"#utility.yul\":17779:17842   */\n      tag_193\n      jump\t// in\n    tag_395:\n        /* \"#utility.yul\":17769:17842   */\n      swap6\n      pop\n        /* \"#utility.yul\":17725:17852   */\n      pop\n        /* \"#utility.yul\":17891:17893   */\n      0x20\n        /* \"#utility.yul\":17917:17980   */\n      tag_396\n        /* \"#utility.yul\":17972:17979   */\n      dup9\n        /* \"#utility.yul\":17963:17969   */\n      dup3\n        /* \"#utility.yul\":17952:17961   */\n      dup10\n        /* \"#utility.yul\":17948:17970   */\n      add\n        /* \"#utility.yul\":17917:17980   */\n      tag_196\n      jump\t// in\n    tag_396:\n        /* \"#utility.yul\":17907:17980   */\n      swap5\n      pop\n        /* \"#utility.yul\":17862:17990   */\n      pop\n        /* \"#utility.yul\":18029:18031   */\n      0x40\n        /* \"#utility.yul\":18055:18119   */\n      tag_397\n        /* \"#utility.yul\":18111:18118   */\n      dup9\n        /* \"#utility.yul\":18102:18108   */\n      dup3\n        /* \"#utility.yul\":18091:18100   */\n      dup10\n        /* \"#utility.yul\":18087:18109   */\n      add\n        /* \"#utility.yul\":18055:18119   */\n      tag_197\n      jump\t// in\n    tag_397:\n        /* \"#utility.yul\":18045:18119   */\n      swap4\n      pop\n        /* \"#utility.yul\":18000:18129   */\n      pop\n        /* \"#utility.yul\":18168:18170   */\n      0x60\n        /* \"#utility.yul\":18194:18258   */\n      tag_398\n        /* \"#utility.yul\":18250:18257   */\n      dup9\n        /* \"#utility.yul\":18241:18247   */\n      dup3\n        /* \"#utility.yul\":18230:18239   */\n      dup10\n        /* \"#utility.yul\":18226:18248   */\n      add\n        /* \"#utility.yul\":18194:18258   */\n      tag_197\n      jump\t// in\n    tag_398:\n        /* \"#utility.yul\":18184:18258   */\n      swap3\n      pop\n        /* \"#utility.yul\":18139:18268   */\n      pop\n        /* \"#utility.yul\":18307:18310   */\n      0x80\n        /* \"#utility.yul\":18334:18397   */\n      tag_399\n        /* \"#utility.yul\":18389:18396   */\n      dup9\n        /* \"#utility.yul\":18380:18386   */\n      dup3\n        /* \"#utility.yul\":18369:18378   */\n      dup10\n        /* \"#utility.yul\":18365:18387   */\n      add\n        /* \"#utility.yul\":18334:18397   */\n      tag_193\n      jump\t// in\n    tag_399:\n        /* \"#utility.yul\":18324:18397   */\n      swap2\n      pop\n        /* \"#utility.yul\":18278:18407   */\n      pop\n        /* \"#utility.yul\":17443:18414   */\n      swap3\n      swap6\n      pop\n      swap3\n      swap6\n      swap1\n      swap4\n      pop\n      jump\t// out\n        /* \"#utility.yul\":18420:18976   */\n    tag_123:\n        /* \"#utility.yul\":18459:18466   */\n      0x00\n        /* \"#utility.yul\":18482:18501   */\n      tag_401\n        /* \"#utility.yul\":18499:18500   */\n      dup3\n        /* \"#utility.yul\":18482:18501   */\n      tag_194\n      jump\t// in\n    tag_401:\n        /* \"#utility.yul\":18477:18501   */\n      swap2\n      pop\n        /* \"#utility.yul\":18515:18534   */\n      tag_402\n        /* \"#utility.yul\":18532:18533   */\n      dup4\n        /* \"#utility.yul\":18515:18534   */\n      tag_194\n      jump\t// in\n    tag_402:\n        /* \"#utility.yul\":18510:18534   */\n      swap3\n      pop\n        /* \"#utility.yul\":18569:18570   */\n      dup3\n        /* \"#utility.yul\":18566:18567   */\n      dup3\n        /* \"#utility.yul\":18562:18571   */\n      mul\n        /* \"#utility.yul\":18591:18620   */\n      tag_403\n        /* \"#utility.yul\":18608:18619   */\n      dup2\n        /* \"#utility.yul\":18591:18620   */\n      tag_194\n      jump\t// in\n    tag_403:\n        /* \"#utility.yul\":18580:18620   */\n      swap2\n      pop\n        /* \"#utility.yul\":18678:18744   */\n      0x8000000000000000000000000000000000000000000000000000000000000000\n        /* \"#utility.yul\":18675:18676   */\n      dup5\n        /* \"#utility.yul\":18672:18745   */\n      eq\n        /* \"#utility.yul\":18668:18669   */\n      0x00\n        /* \"#utility.yul\":18665:18666   */\n      dup5\n        /* \"#utility.yul\":18661:18670   */\n      slt\n        /* \"#utility.yul\":18657:18746   */\n      and\n        /* \"#utility.yul\":18654:18769   */\n      iszero\n      tag_404\n      jumpi\n        /* \"#utility.yul\":18749:18767   */\n      tag_405\n      tag_184\n      jump\t// in\n    tag_405:\n        /* \"#utility.yul\":18654:18769   */\n    tag_404:\n        /* \"#utility.yul\":18919:18920   */\n      dup3\n        /* \"#utility.yul\":18910:18917   */\n      dup3\n        /* \"#utility.yul\":18905:18921   */\n      sdiv\n        /* \"#utility.yul\":18902:18903   */\n      dup5\n        /* \"#utility.yul\":18899:18922   */\n      eq\n        /* \"#utility.yul\":18879:18880   */\n      dup4\n        /* \"#utility.yul\":18872:18881   */\n      iszero\n        /* \"#utility.yul\":18852:18936   */\n      or\n        /* \"#utility.yul\":18829:18969   */\n      tag_406\n      jumpi\n        /* \"#utility.yul\":18949:18967   */\n      tag_407\n      tag_184\n      jump\t// in\n    tag_407:\n        /* \"#utility.yul\":18829:18969   */\n    tag_406:\n        /* \"#utility.yul\":18467:18976   */\n      pop\n        /* \"#utility.yul\":18420:18976   */\n      swap3\n      swap2\n      pop\n      pop\n      jump\t// out\n\n    auxdata: 0xa2646970667358221220281eaf33da58e4e4005a0cf4cb5da07c9725711228c84ca1439742a403aef3b264736f6c63430008130033\n}\n",
				"bytecode": {
					"linkReferences": {},
					"object": "6080604052674563918244f4000060005534801561001c57600080fd5b5033600360006101000a81548173ffffffffffffffffffffffffffffffffffffffff021916908373ffffffffffffffffffffffffffffffffffffffff16021790555061140b8061006d6000396000f3fe6080604052600436106100745760003560e01c8063a5b5b1771161004e578063a5b5b17714610157578063c111cc8714610194578063c4ab6b03146101d1578063dba6335f1461020f576100b9565b80633ccfd60b146100f95780636b69a5921461011057806373451f651461013b576100b9565b366100b9576100b76040518060400160405280600f81526020017f45787465726e616c20536f75726365000000000000000000000000000000000081525061023a565b005b6100f76040518060400160405280600f81526020017f45787465726e616c20536f75726365000000000000000000000000000000000081525061023a565b005b34801561010557600080fd5b5061010e610388565b005b34801561011c57600080fd5b5061012561061a565b604051610132919061094d565b60405180910390f35b61015560048036038101906101509190610ac2565b61023a565b005b34801561016357600080fd5b5061017e60048036038101906101799190610b37565b610620565b60405161018b9190610be3565b60405180910390f35b3480156101a057600080fd5b506101bb60048036038101906101b69190610ac2565b6106cc565b6040516101c8919061094d565b60405180910390f35b3480156101dd57600080fd5b506101f860048036038101906101f39190610ac2565b6106f7565b604051610206929190610c46565b60405180910390f35b34801561021b57600080fd5b50610224610751565b6040516102319190610c6f565b60405180910390f35b60005461024634610777565b1015610287576040517f08c379a000000000000000000000000000000000000000000000000000000000815260040161027e90610cd6565b60405180910390fd5b6001819080600181540180825580915050600190039060005260206000200160009091909190915090816102bb9190610f02565b5060405180604001604052803373ffffffffffffffffffffffffffffffffffffffff168152602001346002846040516102f49190611010565b9081526020016040518091039020600101546103109190611056565b8152506002826040516103239190611010565b908152602001604051809103902060008201518160000160006101000a81548173ffffffffffffffffffffffffffffffffffffffff021916908373ffffffffffffffffffffffffffffffffffffffff1602179055506020820151816001015590505050565b600360009054906101000a900473ffffffffffffffffffffffffffffffffffffffff1673ffffffffffffffffffffffffffffffffffffffff163373ffffffffffffffffffffffffffffffffffffffff161461040f576040517f30cd747100000000000000000000000000000000000000000000000000000000815260040160405180910390fd5b60005b600180549050811015610505576000600182815481106104355761043461108a565b5b90600052602060002001805461044a90610d25565b80601f016020809104026020016040519081016040528092919081815260200182805461047690610d25565b80156104c35780601f10610498576101008083540402835291602001916104c3565b820191906000526020600020905b8154815290600101906020018083116104a657829003601f168201915b5050505050905060006002826040516104dc9190611010565b9081526020016040518091039020600101819055505080806104fd906110b9565b915050610412565b50600067ffffffffffffffff81111561052157610520610997565b5b60405190808252806020026020018201604052801561055457816020015b606081526020019060019003908161053f5790505b506001908051906020019061056a92919061085a565b5060003373ffffffffffffffffffffffffffffffffffffffff164760405161059190611132565b60006040518083038185875af1925050503d80600081146105ce576040519150601f19603f3d011682016040523d82523d6000602084013e6105d3565b606091505b5050905080610617576040517f08c379a000000000000000000000000000000000000000000000000000000000815260040161060e90611193565b60405180910390fd5b50565b60005481565b6001818154811061063057600080fd5b90600052602060002001600091509050805461064b90610d25565b80601f016020809104026020016040519081016040528092919081815260200182805461067790610d25565b80156106c45780601f10610699576101008083540402835291602001916106c4565b820191906000526020600020905b8154815290600101906020018083116106a757829003601f168201915b505050505081565b60006002826040516106de9190611010565b9081526020016040518091039020600101549050919050565b6002818051602081018201805184825260208301602085012081835280955050505050506000915090508060000160009054906101000a900473ffffffffffffffffffffffffffffffffffffffff16908060010154905082565b600360009054906101000a900473ffffffffffffffffffffffffffffffffffffffff1681565b6000806107826107b1565b90506000670de0b6b3a7640000848361079b91906111b3565b6107a59190611224565b90508092505050919050565b60008073694aa1769357215de4fac081bf1f309adc325306905060008173ffffffffffffffffffffffffffffffffffffffff1663feaf968c6040518163ffffffff1660e01b815260040160a060405180830381865afa158015610818573d6000803e3d6000fd5b505050506040513d601f19601f8201168201806040525081019061083c91906112e2565b5050509150506402540be40081610853919061135d565b9250505090565b8280548282559060005260206000209081019282156108a2579160200282015b828111156108a15782518290816108919190610f02565b509160200191906001019061087a565b5b5090506108af91906108b3565b5090565b5b808211156108d357600081816108ca91906108d7565b506001016108b4565b5090565b5080546108e390610d25565b6000825580601f106108f55750610914565b601f0160209004906000526020600020908101906109139190610917565b5b50565b5b80821115610930576000816000905550600101610918565b5090565b6000819050919050565b61094781610934565b82525050565b6000602082019050610962600083018461093e565b92915050565b6000604051905090565b600080fd5b600080fd5b600080fd5b600080fd5b6000601f19601f8301169050919050565b7f4e487b7100000000000000000000000000000000000000000000000000000000600052604160045260246000fd5b6109cf82610986565b810181811067ffffffffffffffff821117156109ee576109ed610997565b5b80604052505050565b6000610a01610968565b9050610a0d82826109c6565b919050565b600067ffffffffffffffff821115610a2d57610a2c610997565b5b610a3682610986565b9050602081019050919050565b82818337600083830152505050565b6000610a65610a6084610a12565b6109f7565b905082815260208101848484011115610a8157610a80610981565b5b610a8c848285610a43565b509392505050565b600082601f830112610aa957610aa861097c565b5b8135610ab9848260208601610a52565b91505092915050565b600060208284031215610ad857610ad7610972565b5b600082013567ffffffffffffffff811115610af657610af5610977565b5b610b0284828501610a94565b91505092915050565b610b1481610934565b8114610b1f57600080fd5b50565b600081359050610b3181610b0b565b92915050565b600060208284031215610b4d57610b4c610972565b5b6000610b5b84828501610b22565b91505092915050565b600081519050919050565b600082825260208201905092915050565b60005b83811015610b9e578082015181840152602081019050610b83565b60008484015250505050565b6000610bb582610b64565b610bbf8185610b6f565b9350610bcf818560208601610b80565b610bd881610986565b840191505092915050565b60006020820190508181036000830152610bfd8184610baa565b905092915050565b600073ffffffffffffffffffffffffffffffffffffffff82169050919050565b6000610c3082610c05565b9050919050565b610c4081610c25565b82525050565b6000604082019050610c5b6000830185610c37565b610c68602083018461093e565b9392505050565b6000602082019050610c846000830184610c37565b92915050565b7f6469646e27742073656e6420656e6f7567682045544800000000000000000000600082015250565b6000610cc0601683610b6f565b9150610ccb82610c8a565b602082019050919050565b60006020820190508181036000830152610cef81610cb3565b9050919050565b7f4e487b7100000000000000000000000000000000000000000000000000000000600052602260045260246000fd5b60006002820490506001821680610d3d57607f821691505b602082108103610d5057610d4f610cf6565b5b50919050565b60008190508160005260206000209050919050565b60006020601f8301049050919050565b600082821b905092915050565b600060088302610db87fffffffffffffffffffffffffffffffffffffffffffffffffffffffffffffffff82610d7b565b610dc28683610d7b565b95508019841693508086168417925050509392505050565b6000819050919050565b6000610dff610dfa610df584610934565b610dda565b610934565b9050919050565b6000819050919050565b610e1983610de4565b610e2d610e2582610e06565b848454610d88565b825550505050565b600090565b610e42610e35565b610e4d818484610e10565b505050565b5b81811015610e7157610e66600082610e3a565b600181019050610e53565b5050565b601f821115610eb657610e8781610d56565b610e9084610d6b565b81016020851015610e9f578190505b610eb3610eab85610d6b565b830182610e52565b50505b505050565b600082821c905092915050565b6000610ed960001984600802610ebb565b1980831691505092915050565b6000610ef28383610ec8565b9150826002028217905092915050565b610f0b82610b64565b67ffffffffffffffff811115610f2457610f23610997565b5b610f2e8254610d25565b610f39828285610e75565b600060209050601f831160018114610f6c5760008415610f5a578287015190505b610f648582610ee6565b865550610fcc565b601f198416610f7a86610d56565b60005b82811015610fa257848901518255600182019150602085019450602081019050610f7d565b86831015610fbf5784890151610fbb601f891682610ec8565b8355505b6001600288020188555050505b505050505050565b600081905092915050565b6000610fea82610b64565b610ff48185610fd4565b9350611004818560208601610b80565b80840191505092915050565b600061101c8284610fdf565b915081905092915050565b7f4e487b7100000000000000000000000000000000000000000000000000000000600052601160045260246000fd5b600061106182610934565b915061106c83610934565b925082820190508082111561108457611083611027565b5b92915050565b7f4e487b7100000000000000000000000000000000000000000000000000000000600052603260045260246000fd5b60006110c482610934565b91507fffffffffffffffffffffffffffffffffffffffffffffffffffffffffffffffff82036110f6576110f5611027565b5b600182019050919050565b600081905092915050565b50565b600061111c600083611101565b91506111278261110c565b600082019050919050565b600061113d8261110f565b9150819050919050565b7f43616c6c206661696c6564000000000000000000000000000000000000000000600082015250565b600061117d600b83610b6f565b915061118882611147565b602082019050919050565b600060208201905081810360008301526111ac81611170565b9050919050565b60006111be82610934565b91506111c983610934565b92508282026111d781610934565b915082820484148315176111ee576111ed611027565b5b5092915050565b7f4e487b7100000000000000000000000000000000000000000000000000000000600052601260045260246000fd5b600061122f82610934565b915061123a83610934565b92508261124a576112496111f5565b5b828204905092915050565b600069ffffffffffffffffffff82169050919050565b61127481611255565b811461127f57600080fd5b50565b6000815190506112918161126b565b92915050565b6000819050919050565b6112aa81611297565b81146112b557600080fd5b50565b6000815190506112c7816112a1565b92915050565b6000815190506112dc81610b0b565b92915050565b600080600080600060a086880312156112fe576112fd610972565b5b600061130c88828901611282565b955050602061131d888289016112b8565b945050604061132e888289016112cd565b935050606061133f888289016112cd565b925050608061135088828901611282565b9150509295509295909350565b600061136882611297565b915061137383611297565b925082820261138181611297565b91507f800000000000000000000000000000000000000000000000000000000000000084146000841216156113b9576113b8611027565b5b82820584148315176113ce576113cd611027565b5b509291505056fea2646970667358221220281eaf33da58e4e4005a0cf4cb5da07c9725711228c84ca1439742a403aef3b264736f6c63430008130033",
					"opcodes": "PUSH1 0x80 PUSH1 0x40 MSTORE PUSH8 0x4563918244F40000 PUSH1 0x0 SSTORE CALLVALUE DUP1 ISZERO PUSH2 0x1C JUMPI PUSH1 0x0 DUP1 REVERT JUMPDEST POP CALLER PUSH1 0x3 PUSH1 0x0 PUSH2 0x100 EXP DUP2 SLOAD DUP2 PUSH20 0xFFFFFFFFFFFFFFFFFFFFFFFFFFFFFFFFFFFFFFFF MUL NOT AND SWAP1 DUP4 PUSH20 0xFFFFFFFFFFFFFFFFFFFFFFFFFFFFFFFFFFFFFFFF AND MUL OR SWAP1 SSTORE POP PUSH2 0x140B DUP1 PUSH2 0x6D PUSH1 0x0 CODECOPY PUSH1 0x0 RETURN INVALID PUSH1 0x80 PUSH1 0x40 MSTORE PUSH1 0x4 CALLDATASIZE LT PUSH2 0x74 JUMPI PUSH1 0x0 CALLDATALOAD PUSH1 0xE0 SHR DUP1 PUSH4 0xA5B5B177 GT PUSH2 0x4E JUMPI DUP1 PUSH4 0xA5B5B177 EQ PUSH2 0x157 JUMPI DUP1 PUSH4 0xC111CC87 EQ PUSH2 0x194 JUMPI DUP1 PUSH4 0xC4AB6B03 EQ PUSH2 0x1D1 JUMPI DUP1 PUSH4 0xDBA6335F EQ PUSH2 0x20F JUMPI PUSH2 0xB9 JUMP JUMPDEST DUP1 PUSH4 0x3CCFD60B EQ PUSH2 0xF9 JUMPI DUP1 PUSH4 0x6B69A592 EQ PUSH2 0x110 JUMPI DUP1 PUSH4 0x73451F65 EQ PUSH2 0x13B JUMPI PUSH2 0xB9 JUMP JUMPDEST CALLDATASIZE PUSH2 0xB9 JUMPI PUSH2 0xB7 PUSH1 0x40 MLOAD DUP1 PUSH1 0x40 ADD PUSH1 0x40 MSTORE DUP1 PUSH1 0xF DUP2 MSTORE PUSH1 0x20 ADD PUSH32 0x45787465726E616C20536F757263650000000000000000000000000000000000 DUP2 MSTORE POP PUSH2 0x23A JUMP JUMPDEST STOP JUMPDEST PUSH2 0xF7 PUSH1 0x40 MLOAD DUP1 PUSH1 0x40 ADD PUSH1 0x40 MSTORE DUP1 PUSH1 0xF DUP2 MSTORE PUSH1 0x20 ADD PUSH32 0x45787465726E616C20536F757263650000000000000000000000000000000000 DUP2 MSTORE POP PUSH2 0x23A JUMP JUMPDEST STOP JUMPDEST CALLVALUE DUP1 ISZERO PUSH2 0x105 JUMPI PUSH1 0x0 DUP1 REVERT JUMPDEST POP PUSH2 0x10E PUSH2 0x388 JUMP JUMPDEST STOP JUMPDEST CALLVALUE DUP1 ISZERO PUSH2 0x11C JUMPI PUSH1 0x0 DUP1 REVERT JUMPDEST POP PUSH2 0x125 PUSH2 0x61A JUMP JUMPDEST PUSH1 0x40 MLOAD PUSH2 0x132 SWAP2 SWAP1 PUSH2 0x94D JUMP JUMPDEST PUSH1 0x40 MLOAD DUP1 SWAP2 SUB SWAP1 RETURN JUMPDEST PUSH2 0x155 PUSH1 0x4 DUP1 CALLDATASIZE SUB DUP2 ADD SWAP1 PUSH2 0x150 SWAP2 SWAP1 PUSH2 0xAC2 JUMP JUMPDEST PUSH2 0x23A JUMP JUMPDEST STOP JUMPDEST CALLVALUE DUP1 ISZERO PUSH2 0x163 JUMPI PUSH1 0x0 DUP1 REVERT JUMPDEST POP PUSH2 0x17E PUSH1 0x4 DUP1 CALLDATASIZE SUB DUP2 ADD SWAP1 PUSH2 0x179 SWAP2 SWAP1 PUSH2 0xB37 JUMP JUMPDEST PUSH2 0x620 JUMP JUMPDEST PUSH1 0x40 MLOAD PUSH2 0x18B SWAP2 SWAP1 PUSH2 0xBE3 JUMP JUMPDEST PUSH1 0x40 MLOAD DUP1 SWAP2 SUB SWAP1 RETURN JUMPDEST CALLVALUE DUP1 ISZERO PUSH2 0x1A0 JUMPI PUSH1 0x0 DUP1 REVERT JUMPDEST POP PUSH2 0x1BB PUSH1 0x4 DUP1 CALLDATASIZE SUB DUP2 ADD SWAP1 PUSH2 0x1B6 SWAP2 SWAP1 PUSH2 0xAC2 JUMP JUMPDEST PUSH2 0x6CC JUMP JUMPDEST PUSH1 0x40 MLOAD PUSH2 0x1C8 SWAP2 SWAP1 PUSH2 0x94D JUMP JUMPDEST PUSH1 0x40 MLOAD DUP1 SWAP2 SUB SWAP1 RETURN JUMPDEST CALLVALUE DUP1 ISZERO PUSH2 0x1DD JUMPI PUSH1 0x0 DUP1 REVERT JUMPDEST POP PUSH2 0x1F8 PUSH1 0x4 DUP1 CALLDATASIZE SUB DUP2 ADD SWAP1 PUSH2 0x1F3 SWAP2 SWAP1 PUSH2 0xAC2 JUMP JUMPDEST PUSH2 0x6F7 JUMP JUMPDEST PUSH1 0x40 MLOAD PUSH2 0x206 SWAP3 SWAP2 SWAP1 PUSH2 0xC46 JUMP JUMPDEST PUSH1 0x40 MLOAD DUP1 SWAP2 SUB SWAP1 RETURN JUMPDEST CALLVALUE DUP1 ISZERO PUSH2 0x21B JUMPI PUSH1 0x0 DUP1 REVERT JUMPDEST POP PUSH2 0x224 PUSH2 0x751 JUMP JUMPDEST PUSH1 0x40 MLOAD PUSH2 0x231 SWAP2 SWAP1 PUSH2 0xC6F JUMP JUMPDEST PUSH1 0x40 MLOAD DUP1 SWAP2 SUB SWAP1 RETURN JUMPDEST PUSH1 0x0 SLOAD PUSH2 0x246 CALLVALUE PUSH2 0x777 JUMP JUMPDEST LT ISZERO PUSH2 0x287 JUMPI PUSH1 0x40 MLOAD PUSH32 0x8C379A000000000000000000000000000000000000000000000000000000000 DUP2 MSTORE PUSH1 0x4 ADD PUSH2 0x27E SWAP1 PUSH2 0xCD6 JUMP JUMPDEST PUSH1 0x40 MLOAD DUP1 SWAP2 SUB SWAP1 REVERT JUMPDEST PUSH1 0x1 DUP2 SWAP1 DUP1 PUSH1 0x1 DUP2 SLOAD ADD DUP1 DUP3 SSTORE DUP1 SWAP2 POP POP PUSH1 0x1 SWAP1 SUB SWAP1 PUSH1 0x0 MSTORE PUSH1 0x20 PUSH1 0x0 KECCAK256 ADD PUSH1 0x0 SWAP1 SWAP2 SWAP1 SWAP2 SWAP1 SWAP2 POP SWAP1 DUP2 PUSH2 0x2BB SWAP2 SWAP1 PUSH2 0xF02 JUMP JUMPDEST POP PUSH1 0x40 MLOAD DUP1 PUSH1 0x40 ADD PUSH1 0x40 MSTORE DUP1 CALLER PUSH20 0xFFFFFFFFFFFFFFFFFFFFFFFFFFFFFFFFFFFFFFFF AND DUP2 MSTORE PUSH1 0x20 ADD CALLVALUE PUSH1 0x2 DUP5 PUSH1 0x40 MLOAD PUSH2 0x2F4 SWAP2 SWAP1 PUSH2 0x1010 JUMP JUMPDEST SWAP1 DUP2 MSTORE PUSH1 0x20 ADD PUSH1 0x40 MLOAD DUP1 SWAP2 SUB SWAP1 KECCAK256 PUSH1 0x1 ADD SLOAD PUSH2 0x310 SWAP2 SWAP1 PUSH2 0x1056 JUMP JUMPDEST DUP2 MSTORE POP PUSH1 0x2 DUP3 PUSH1 0x40 MLOAD PUSH2 0x323 SWAP2 SWAP1 PUSH2 0x1010 JUMP JUMPDEST SWAP1 DUP2 MSTORE PUSH1 0x20 ADD PUSH1 0x40 MLOAD DUP1 SWAP2 SUB SWAP1 KECCAK256 PUSH1 0x0 DUP3 ADD MLOAD DUP2 PUSH1 0x0 ADD PUSH1 0x0 PUSH2 0x100 EXP DUP2 SLOAD DUP2 PUSH20 0xFFFFFFFFFFFFFFFFFFFFFFFFFFFFFFFFFFFFFFFF MUL NOT AND SWAP1 DUP4 PUSH20 0xFFFFFFFFFFFFFFFFFFFFFFFFFFFFFFFFFFFFFFFF AND MUL OR SWAP1 SSTORE POP PUSH1 0x20 DUP3 ADD MLOAD DUP2 PUSH1 0x1 ADD SSTORE SWAP1 POP POP POP JUMP JUMPDEST PUSH1 0x3 PUSH1 0x0 SWAP1 SLOAD SWAP1 PUSH2 0x100 EXP SWAP1 DIV PUSH20 0xFFFFFFFFFFFFFFFFFFFFFFFFFFFFFFFFFFFFFFFF AND PUSH20 0xFFFFFFFFFFFFFFFFFFFFFFFFFFFFFFFFFFFFFFFF AND CALLER PUSH20 0xFFFFFFFFFFFFFFFFFFFFFFFFFFFFFFFFFFFFFFFF AND EQ PUSH2 0x40F JUMPI PUSH1 0x40 MLOAD PUSH32 0x30CD747100000000000000000000000000000000000000000000000000000000 DUP2 MSTORE PUSH1 0x4 ADD PUSH1 0x40 MLOAD DUP1 SWAP2 SUB SWAP1 REVERT JUMPDEST PUSH1 0x0 JUMPDEST PUSH1 0x1 DUP1 SLOAD SWAP1 POP DUP2 LT ISZERO PUSH2 0x505 JUMPI PUSH1 0x0 PUSH1 0x1 DUP3 DUP2 SLOAD DUP2 LT PUSH2 0x435 JUMPI PUSH2 0x434 PUSH2 0x108A JUMP JUMPDEST JUMPDEST SWAP1 PUSH1 0x0 MSTORE PUSH1 0x20 PUSH1 0x0 KECCAK256 ADD DUP1 SLOAD PUSH2 0x44A SWAP1 PUSH2 0xD25 JUMP JUMPDEST DUP1 PUSH1 0x1F ADD PUSH1 0x20 DUP1 SWAP2 DIV MUL PUSH1 0x20 ADD PUSH1 0x40 MLOAD SWAP1 DUP2 ADD PUSH1 0x40 MSTORE DUP1 SWAP3 SWAP2 SWAP1 DUP2 DUP2 MSTORE PUSH1 0x20 ADD DUP3 DUP1 SLOAD PUSH2 0x476 SWAP1 PUSH2 0xD25 JUMP JUMPDEST DUP1 ISZERO PUSH2 0x4C3 JUMPI DUP1 PUSH1 0x1F LT PUSH2 0x498 JUMPI PUSH2 0x100 DUP1 DUP4 SLOAD DIV MUL DUP4 MSTORE SWAP2 PUSH1 0x20 ADD SWAP2 PUSH2 0x4C3 JUMP JUMPDEST DUP3 ADD SWAP2 SWAP1 PUSH1 0x0 MSTORE PUSH1 0x20 PUSH1 0x0 KECCAK256 SWAP1 JUMPDEST DUP2 SLOAD DUP2 MSTORE SWAP1 PUSH1 0x1 ADD SWAP1 PUSH1 0x20 ADD DUP1 DUP4 GT PUSH2 0x4A6 JUMPI DUP3 SWAP1 SUB PUSH1 0x1F AND DUP3 ADD SWAP2 JUMPDEST POP POP POP POP POP SWAP1 POP PUSH1 0x0 PUSH1 0x2 DUP3 PUSH1 0x40 MLOAD PUSH2 0x4DC SWAP2 SWAP1 PUSH2 0x1010 JUMP JUMPDEST SWAP1 DUP2 MSTORE PUSH1 0x20 ADD PUSH1 0x40 MLOAD DUP1 SWAP2 SUB SWAP1 KECCAK256 PUSH1 0x1 ADD DUP2 SWAP1 SSTORE POP POP DUP1 DUP1 PUSH2 0x4FD SWAP1 PUSH2 0x10B9 JUMP JUMPDEST SWAP2 POP POP PUSH2 0x412 JUMP JUMPDEST POP PUSH1 0x0 PUSH8 0xFFFFFFFFFFFFFFFF DUP2 GT ISZERO PUSH2 0x521 JUMPI PUSH2 0x520 PUSH2 0x997 JUMP JUMPDEST JUMPDEST PUSH1 0x40 MLOAD SWAP1 DUP1 DUP3 MSTORE DUP1 PUSH1 0x20 MUL PUSH1 0x20 ADD DUP3 ADD PUSH1 0x40 MSTORE DUP1 ISZERO PUSH2 0x554 JUMPI DUP2 PUSH1 0x20 ADD JUMPDEST PUSH1 0x60 DUP2 MSTORE PUSH1 0x20 ADD SWAP1 PUSH1 0x1 SWAP1 SUB SWAP1 DUP2 PUSH2 0x53F JUMPI SWAP1 POP JUMPDEST POP PUSH1 0x1 SWAP1 DUP1 MLOAD SWAP1 PUSH1 0x20 ADD SWAP1 PUSH2 0x56A SWAP3 SWAP2 SWAP1 PUSH2 0x85A JUMP JUMPDEST POP PUSH1 0x0 CALLER PUSH20 0xFFFFFFFFFFFFFFFFFFFFFFFFFFFFFFFFFFFFFFFF AND SELFBALANCE PUSH1 0x40 MLOAD PUSH2 0x591 SWAP1 PUSH2 0x1132 JUMP JUMPDEST PUSH1 0x0 PUSH1 0x40 MLOAD DUP1 DUP4 SUB DUP2 DUP6 DUP8 GAS CALL SWAP3 POP POP POP RETURNDATASIZE DUP1 PUSH1 0x0 DUP2 EQ PUSH2 0x5CE JUMPI PUSH1 0x40 MLOAD SWAP2 POP PUSH1 0x1F NOT PUSH1 0x3F RETURNDATASIZE ADD AND DUP3 ADD PUSH1 0x40 MSTORE RETURNDATASIZE DUP3 MSTORE RETURNDATASIZE PUSH1 0x0 PUSH1 0x20 DUP5 ADD RETURNDATACOPY PUSH2 0x5D3 JUMP JUMPDEST PUSH1 0x60 SWAP2 POP JUMPDEST POP POP SWAP1 POP DUP1 PUSH2 0x617 JUMPI PUSH1 0x40 MLOAD PUSH32 0x8C379A000000000000000000000000000000000000000000000000000000000 DUP2 MSTORE PUSH1 0x4 ADD PUSH2 0x60E SWAP1 PUSH2 0x1193 JUMP JUMPDEST PUSH1 0x40 MLOAD DUP1 SWAP2 SUB SWAP1 REVERT JUMPDEST POP JUMP JUMPDEST PUSH1 0x0 SLOAD DUP2 JUMP JUMPDEST PUSH1 0x1 DUP2 DUP2 SLOAD DUP2 LT PUSH2 0x630 JUMPI PUSH1 0x0 DUP1 REVERT JUMPDEST SWAP1 PUSH1 0x0 MSTORE PUSH1 0x20 PUSH1 0x0 KECCAK256 ADD PUSH1 0x0 SWAP2 POP SWAP1 POP DUP1 SLOAD PUSH2 0x64B SWAP1 PUSH2 0xD25 JUMP JUMPDEST DUP1 PUSH1 0x1F ADD PUSH1 0x20 DUP1 SWAP2 DIV MUL PUSH1 0x20 ADD PUSH1 0x40 MLOAD SWAP1 DUP2 ADD PUSH1 0x40 MSTORE DUP1 SWAP3 SWAP2 SWAP1 DUP2 DUP2 MSTORE PUSH1 0x20 ADD DUP3 DUP1 SLOAD PUSH2 0x677 SWAP1 PUSH2 0xD25 JUMP JUMPDEST DUP1 ISZERO PUSH2 0x6C4 JUMPI DUP1 PUSH1 0x1F LT PUSH2 0x699 JUMPI PUSH2 0x100 DUP1 DUP4 SLOAD DIV MUL DUP4 MSTORE SWAP2 PUSH1 0x20 ADD SWAP2 PUSH2 0x6C4 JUMP JUMPDEST DUP3 ADD SWAP2 SWAP1 PUSH1 0x0 MSTORE PUSH1 0x20 PUSH1 0x0 KECCAK256 SWAP1 JUMPDEST DUP2 SLOAD DUP2 MSTORE SWAP1 PUSH1 0x1 ADD SWAP1 PUSH1 0x20 ADD DUP1 DUP4 GT PUSH2 0x6A7 JUMPI DUP3 SWAP1 SUB PUSH1 0x1F AND DUP3 ADD SWAP2 JUMPDEST POP POP POP POP POP DUP2 JUMP JUMPDEST PUSH1 0x0 PUSH1 0x2 DUP3 PUSH1 0x40 MLOAD PUSH2 0x6DE SWAP2 SWAP1 PUSH2 0x1010 JUMP JUMPDEST SWAP1 DUP2 MSTORE PUSH1 0x20 ADD PUSH1 0x40 MLOAD DUP1 SWAP2 SUB SWAP1 KECCAK256 PUSH1 0x1 ADD SLOAD SWAP1 POP SWAP2 SWAP1 POP JUMP JUMPDEST PUSH1 0x2 DUP2 DUP1 MLOAD PUSH1 0x20 DUP2 ADD DUP3 ADD DUP1 MLOAD DUP5 DUP3 MSTORE PUSH1 0x20 DUP4 ADD PUSH1 0x20 DUP6 ADD KECCAK256 DUP2 DUP4 MSTORE DUP1 SWAP6 POP POP POP POP POP POP PUSH1 0x0 SWAP2 POP SWAP1 POP DUP1 PUSH1 0x0 ADD PUSH1 0x0 SWAP1 SLOAD SWAP1 PUSH2 0x100 EXP SWAP1 DIV PUSH20 0xFFFFFFFFFFFFFFFFFFFFFFFFFFFFFFFFFFFFFFFF AND SWAP1 DUP1 PUSH1 0x1 ADD SLOAD SWAP1 POP DUP3 JUMP JUMPDEST PUSH1 0x3 PUSH1 0x0 SWAP1 SLOAD SWAP1 PUSH2 0x100 EXP SWAP1 DIV PUSH20 0xFFFFFFFFFFFFFFFFFFFFFFFFFFFFFFFFFFFFFFFF AND DUP2 JUMP JUMPDEST PUSH1 0x0 DUP1 PUSH2 0x782 PUSH2 0x7B1 JUMP JUMPDEST SWAP1 POP PUSH1 0x0 PUSH8 0xDE0B6B3A7640000 DUP5 DUP4 PUSH2 0x79B SWAP2 SWAP1 PUSH2 0x11B3 JUMP JUMPDEST PUSH2 0x7A5 SWAP2 SWAP1 PUSH2 0x1224 JUMP JUMPDEST SWAP1 POP DUP1 SWAP3 POP POP POP SWAP2 SWAP1 POP JUMP JUMPDEST PUSH1 0x0 DUP1 PUSH20 0x694AA1769357215DE4FAC081BF1F309ADC325306 SWAP1 POP PUSH1 0x0 DUP2 PUSH20 0xFFFFFFFFFFFFFFFFFFFFFFFFFFFFFFFFFFFFFFFF AND PUSH4 0xFEAF968C PUSH1 0x40 MLOAD DUP2 PUSH4 0xFFFFFFFF AND PUSH1 0xE0 SHL DUP2 MSTORE PUSH1 0x4 ADD PUSH1 0xA0 PUSH1 0x40 MLOAD DUP1 DUP4 SUB DUP2 DUP7 GAS STATICCALL ISZERO DUP1 ISZERO PUSH2 0x818 JUMPI RETURNDATASIZE PUSH1 0x0 DUP1 RETURNDATACOPY RETURNDATASIZE PUSH1 0x0 REVERT JUMPDEST POP POP POP POP PUSH1 0x40 MLOAD RETURNDATASIZE PUSH1 0x1F NOT PUSH1 0x1F DUP3 ADD AND DUP3 ADD DUP1 PUSH1 0x40 MSTORE POP DUP2 ADD SWAP1 PUSH2 0x83C SWAP2 SWAP1 PUSH2 0x12E2 JUMP JUMPDEST POP POP POP SWAP2 POP POP PUSH5 0x2540BE400 DUP2 PUSH2 0x853 SWAP2 SWAP1 PUSH2 0x135D JUMP JUMPDEST SWAP3 POP POP POP SWAP1 JUMP JUMPDEST DUP3 DUP1 SLOAD DUP3 DUP3 SSTORE SWAP1 PUSH1 0x0 MSTORE PUSH1 0x20 PUSH1 0x0 KECCAK256 SWAP1 DUP2 ADD SWAP3 DUP3 ISZERO PUSH2 0x8A2 JUMPI SWAP2 PUSH1 0x20 MUL DUP3 ADD JUMPDEST DUP3 DUP2 GT ISZERO PUSH2 0x8A1 JUMPI DUP3 MLOAD DUP3 SWAP1 DUP2 PUSH2 0x891 SWAP2 SWAP1 PUSH2 0xF02 JUMP JUMPDEST POP SWAP2 PUSH1 0x20 ADD SWAP2 SWAP1 PUSH1 0x1 ADD SWAP1 PUSH2 0x87A JUMP JUMPDEST JUMPDEST POP SWAP1 POP PUSH2 0x8AF SWAP2 SWAP1 PUSH2 0x8B3 JUMP JUMPDEST POP SWAP1 JUMP JUMPDEST JUMPDEST DUP1 DUP3 GT ISZERO PUSH2 0x8D3 JUMPI PUSH1 0x0 DUP2 DUP2 PUSH2 0x8CA SWAP2 SWAP1 PUSH2 0x8D7 JUMP JUMPDEST POP PUSH1 0x1 ADD PUSH2 0x8B4 JUMP JUMPDEST POP SWAP1 JUMP JUMPDEST POP DUP1 SLOAD PUSH2 0x8E3 SWAP1 PUSH2 0xD25 JUMP JUMPDEST PUSH1 0x0 DUP3 SSTORE DUP1 PUSH1 0x1F LT PUSH2 0x8F5 JUMPI POP PUSH2 0x914 JUMP JUMPDEST PUSH1 0x1F ADD PUSH1 0x20 SWAP1 DIV SWAP1 PUSH1 0x0 MSTORE PUSH1 0x20 PUSH1 0x0 KECCAK256 SWAP1 DUP2 ADD SWAP1 PUSH2 0x913 SWAP2 SWAP1 PUSH2 0x917 JUMP JUMPDEST JUMPDEST POP JUMP JUMPDEST JUMPDEST DUP1 DUP3 GT ISZERO PUSH2 0x930 JUMPI PUSH1 0x0 DUP2 PUSH1 0x0 SWAP1 SSTORE POP PUSH1 0x1 ADD PUSH2 0x918 JUMP JUMPDEST POP SWAP1 JUMP JUMPDEST PUSH1 0x0 DUP2 SWAP1 POP SWAP2 SWAP1 POP JUMP JUMPDEST PUSH2 0x947 DUP2 PUSH2 0x934 JUMP JUMPDEST DUP3 MSTORE POP POP JUMP JUMPDEST PUSH1 0x0 PUSH1 0x20 DUP3 ADD SWAP1 POP PUSH2 0x962 PUSH1 0x0 DUP4 ADD DUP5 PUSH2 0x93E JUMP JUMPDEST SWAP3 SWAP2 POP POP JUMP JUMPDEST PUSH1 0x0 PUSH1 0x40 MLOAD SWAP1 POP SWAP1 JUMP JUMPDEST PUSH1 0x0 DUP1 REVERT JUMPDEST PUSH1 0x0 DUP1 REVERT JUMPDEST PUSH1 0x0 DUP1 REVERT JUMPDEST PUSH1 0x0 DUP1 REVERT JUMPDEST PUSH1 0x0 PUSH1 0x1F NOT PUSH1 0x1F DUP4 ADD AND SWAP1 POP SWAP2 SWAP1 POP JUMP JUMPDEST PUSH32 0x4E487B7100000000000000000000000000000000000000000000000000000000 PUSH1 0x0 MSTORE PUSH1 0x41 PUSH1 0x4 MSTORE PUSH1 0x24 PUSH1 0x0 REVERT JUMPDEST PUSH2 0x9CF DUP3 PUSH2 0x986 JUMP JUMPDEST DUP2 ADD DUP2 DUP2 LT PUSH8 0xFFFFFFFFFFFFFFFF DUP3 GT OR ISZERO PUSH2 0x9EE JUMPI PUSH2 0x9ED PUSH2 0x997 JUMP JUMPDEST JUMPDEST DUP1 PUSH1 0x40 MSTORE POP POP POP JUMP JUMPDEST PUSH1 0x0 PUSH2 0xA01 PUSH2 0x968 JUMP JUMPDEST SWAP1 POP PUSH2 0xA0D DUP3 DUP3 PUSH2 0x9C6 JUMP JUMPDEST SWAP2 SWAP1 POP JUMP JUMPDEST PUSH1 0x0 PUSH8 0xFFFFFFFFFFFFFFFF DUP3 GT ISZERO PUSH2 0xA2D JUMPI PUSH2 0xA2C PUSH2 0x997 JUMP JUMPDEST JUMPDEST PUSH2 0xA36 DUP3 PUSH2 0x986 JUMP JUMPDEST SWAP1 POP PUSH1 0x20 DUP2 ADD SWAP1 POP SWAP2 SWAP1 POP JUMP JUMPDEST DUP3 DUP2 DUP4 CALLDATACOPY PUSH1 0x0 DUP4 DUP4 ADD MSTORE POP POP POP JUMP JUMPDEST PUSH1 0x0 PUSH2 0xA65 PUSH2 0xA60 DUP5 PUSH2 0xA12 JUMP JUMPDEST PUSH2 0x9F7 JUMP JUMPDEST SWAP1 POP DUP3 DUP2 MSTORE PUSH1 0x20 DUP2 ADD DUP5 DUP5 DUP5 ADD GT ISZERO PUSH2 0xA81 JUMPI PUSH2 0xA80 PUSH2 0x981 JUMP JUMPDEST JUMPDEST PUSH2 0xA8C DUP5 DUP3 DUP6 PUSH2 0xA43 JUMP JUMPDEST POP SWAP4 SWAP3 POP POP POP JUMP JUMPDEST PUSH1 0x0 DUP3 PUSH1 0x1F DUP4 ADD SLT PUSH2 0xAA9 JUMPI PUSH2 0xAA8 PUSH2 0x97C JUMP JUMPDEST JUMPDEST DUP2 CALLDATALOAD PUSH2 0xAB9 DUP5 DUP3 PUSH1 0x20 DUP7 ADD PUSH2 0xA52 JUMP JUMPDEST SWAP2 POP POP SWAP3 SWAP2 POP POP JUMP JUMPDEST PUSH1 0x0 PUSH1 0x20 DUP3 DUP5 SUB SLT ISZERO PUSH2 0xAD8 JUMPI PUSH2 0xAD7 PUSH2 0x972 JUMP JUMPDEST JUMPDEST PUSH1 0x0 DUP3 ADD CALLDATALOAD PUSH8 0xFFFFFFFFFFFFFFFF DUP2 GT ISZERO PUSH2 0xAF6 JUMPI PUSH2 0xAF5 PUSH2 0x977 JUMP JUMPDEST JUMPDEST PUSH2 0xB02 DUP5 DUP3 DUP6 ADD PUSH2 0xA94 JUMP JUMPDEST SWAP2 POP POP SWAP3 SWAP2 POP POP JUMP JUMPDEST PUSH2 0xB14 DUP2 PUSH2 0x934 JUMP JUMPDEST DUP2 EQ PUSH2 0xB1F JUMPI PUSH1 0x0 DUP1 REVERT JUMPDEST POP JUMP JUMPDEST PUSH1 0x0 DUP2 CALLDATALOAD SWAP1 POP PUSH2 0xB31 DUP2 PUSH2 0xB0B JUMP JUMPDEST SWAP3 SWAP2 POP POP JUMP JUMPDEST PUSH1 0x0 PUSH1 0x20 DUP3 DUP5 SUB SLT ISZERO PUSH2 0xB4D JUMPI PUSH2 0xB4C PUSH2 0x972 JUMP JUMPDEST JUMPDEST PUSH1 0x0 PUSH2 0xB5B DUP5 DUP3 DUP6 ADD PUSH2 0xB22 JUMP JUMPDEST SWAP2 POP POP SWAP3 SWAP2 POP POP JUMP JUMPDEST PUSH1 0x0 DUP2 MLOAD SWAP1 POP SWAP2 SWAP1 POP JUMP JUMPDEST PUSH1 0x0 DUP3 DUP3 MSTORE PUSH1 0x20 DUP3 ADD SWAP1 POP SWAP3 SWAP2 POP POP JUMP JUMPDEST PUSH1 0x0 JUMPDEST DUP4 DUP2 LT ISZERO PUSH2 0xB9E JUMPI DUP1 DUP3 ADD MLOAD DUP2 DUP5 ADD MSTORE PUSH1 0x20 DUP2 ADD SWAP1 POP PUSH2 0xB83 JUMP JUMPDEST PUSH1 0x0 DUP5 DUP5 ADD MSTORE POP POP POP POP JUMP JUMPDEST PUSH1 0x0 PUSH2 0xBB5 DUP3 PUSH2 0xB64 JUMP JUMPDEST PUSH2 0xBBF DUP2 DUP6 PUSH2 0xB6F JUMP JUMPDEST SWAP4 POP PUSH2 0xBCF DUP2 DUP6 PUSH1 0x20 DUP7 ADD PUSH2 0xB80 JUMP JUMPDEST PUSH2 0xBD8 DUP2 PUSH2 0x986 JUMP JUMPDEST DUP5 ADD SWAP2 POP POP SWAP3 SWAP2 POP POP JUMP JUMPDEST PUSH1 0x0 PUSH1 0x20 DUP3 ADD SWAP1 POP DUP2 DUP2 SUB PUSH1 0x0 DUP4 ADD MSTORE PUSH2 0xBFD DUP2 DUP5 PUSH2 0xBAA JUMP JUMPDEST SWAP1 POP SWAP3 SWAP2 POP POP JUMP JUMPDEST PUSH1 0x0 PUSH20 0xFFFFFFFFFFFFFFFFFFFFFFFFFFFFFFFFFFFFFFFF DUP3 AND SWAP1 POP SWAP2 SWAP1 POP JUMP JUMPDEST PUSH1 0x0 PUSH2 0xC30 DUP3 PUSH2 0xC05 JUMP JUMPDEST SWAP1 POP SWAP2 SWAP1 POP JUMP JUMPDEST PUSH2 0xC40 DUP2 PUSH2 0xC25 JUMP JUMPDEST DUP3 MSTORE POP POP JUMP JUMPDEST PUSH1 0x0 PUSH1 0x40 DUP3 ADD SWAP1 POP PUSH2 0xC5B PUSH1 0x0 DUP4 ADD DUP6 PUSH2 0xC37 JUMP JUMPDEST PUSH2 0xC68 PUSH1 0x20 DUP4 ADD DUP5 PUSH2 0x93E JUMP JUMPDEST SWAP4 SWAP3 POP POP POP JUMP JUMPDEST PUSH1 0x0 PUSH1 0x20 DUP3 ADD SWAP1 POP PUSH2 0xC84 PUSH1 0x0 DUP4 ADD DUP5 PUSH2 0xC37 JUMP JUMPDEST SWAP3 SWAP2 POP POP JUMP JUMPDEST PUSH32 0x6469646E27742073656E6420656E6F7567682045544800000000000000000000 PUSH1 0x0 DUP3 ADD MSTORE POP JUMP JUMPDEST PUSH1 0x0 PUSH2 0xCC0 PUSH1 0x16 DUP4 PUSH2 0xB6F JUMP JUMPDEST SWAP2 POP PUSH2 0xCCB DUP3 PUSH2 0xC8A JUMP JUMPDEST PUSH1 0x20 DUP3 ADD SWAP1 POP SWAP2 SWAP1 POP JUMP JUMPDEST PUSH1 0x0 PUSH1 0x20 DUP3 ADD SWAP1 POP DUP2 DUP2 SUB PUSH1 0x0 DUP4 ADD MSTORE PUSH2 0xCEF DUP2 PUSH2 0xCB3 JUMP JUMPDEST SWAP1 POP SWAP2 SWAP1 POP JUMP JUMPDEST PUSH32 0x4E487B7100000000000000000000000000000000000000000000000000000000 PUSH1 0x0 MSTORE PUSH1 0x22 PUSH1 0x4 MSTORE PUSH1 0x24 PUSH1 0x0 REVERT JUMPDEST PUSH1 0x0 PUSH1 0x2 DUP3 DIV SWAP1 POP PUSH1 0x1 DUP3 AND DUP1 PUSH2 0xD3D JUMPI PUSH1 0x7F DUP3 AND SWAP2 POP JUMPDEST PUSH1 0x20 DUP3 LT DUP2 SUB PUSH2 0xD50 JUMPI PUSH2 0xD4F PUSH2 0xCF6 JUMP JUMPDEST JUMPDEST POP SWAP2 SWAP1 POP JUMP JUMPDEST PUSH1 0x0 DUP2 SWAP1 POP DUP2 PUSH1 0x0 MSTORE PUSH1 0x20 PUSH1 0x0 KECCAK256 SWAP1 POP SWAP2 SWAP1 POP JUMP JUMPDEST PUSH1 0x0 PUSH1 0x20 PUSH1 0x1F DUP4 ADD DIV SWAP1 POP SWAP2 SWAP1 POP JUMP JUMPDEST PUSH1 0x0 DUP3 DUP3 SHL SWAP1 POP SWAP3 SWAP2 POP POP JUMP JUMPDEST PUSH1 0x0 PUSH1 0x8 DUP4 MUL PUSH2 0xDB8 PUSH32 0xFFFFFFFFFFFFFFFFFFFFFFFFFFFFFFFFFFFFFFFFFFFFFFFFFFFFFFFFFFFFFFFF DUP3 PUSH2 0xD7B JUMP JUMPDEST PUSH2 0xDC2 DUP7 DUP4 PUSH2 0xD7B JUMP JUMPDEST SWAP6 POP DUP1 NOT DUP5 AND SWAP4 POP DUP1 DUP7 AND DUP5 OR SWAP3 POP POP POP SWAP4 SWAP3 POP POP POP JUMP JUMPDEST PUSH1 0x0 DUP2 SWAP1 POP SWAP2 SWAP1 POP JUMP JUMPDEST PUSH1 0x0 PUSH2 0xDFF PUSH2 0xDFA PUSH2 0xDF5 DUP5 PUSH2 0x934 JUMP JUMPDEST PUSH2 0xDDA JUMP JUMPDEST PUSH2 0x934 JUMP JUMPDEST SWAP1 POP SWAP2 SWAP1 POP JUMP JUMPDEST PUSH1 0x0 DUP2 SWAP1 POP SWAP2 SWAP1 POP JUMP JUMPDEST PUSH2 0xE19 DUP4 PUSH2 0xDE4 JUMP JUMPDEST PUSH2 0xE2D PUSH2 0xE25 DUP3 PUSH2 0xE06 JUMP JUMPDEST DUP5 DUP5 SLOAD PUSH2 0xD88 JUMP JUMPDEST DUP3 SSTORE POP POP POP POP JUMP JUMPDEST PUSH1 0x0 SWAP1 JUMP JUMPDEST PUSH2 0xE42 PUSH2 0xE35 JUMP JUMPDEST PUSH2 0xE4D DUP2 DUP5 DUP5 PUSH2 0xE10 JUMP JUMPDEST POP POP POP JUMP JUMPDEST JUMPDEST DUP2 DUP2 LT ISZERO PUSH2 0xE71 JUMPI PUSH2 0xE66 PUSH1 0x0 DUP3 PUSH2 0xE3A JUMP JUMPDEST PUSH1 0x1 DUP2 ADD SWAP1 POP PUSH2 0xE53 JUMP JUMPDEST POP POP JUMP JUMPDEST PUSH1 0x1F DUP3 GT ISZERO PUSH2 0xEB6 JUMPI PUSH2 0xE87 DUP2 PUSH2 0xD56 JUMP JUMPDEST PUSH2 0xE90 DUP5 PUSH2 0xD6B JUMP JUMPDEST DUP2 ADD PUSH1 0x20 DUP6 LT ISZERO PUSH2 0xE9F JUMPI DUP2 SWAP1 POP JUMPDEST PUSH2 0xEB3 PUSH2 0xEAB DUP6 PUSH2 0xD6B JUMP JUMPDEST DUP4 ADD DUP3 PUSH2 0xE52 JUMP JUMPDEST POP POP JUMPDEST POP POP POP JUMP JUMPDEST PUSH1 0x0 DUP3 DUP3 SHR SWAP1 POP SWAP3 SWAP2 POP POP JUMP JUMPDEST PUSH1 0x0 PUSH2 0xED9 PUSH1 0x0 NOT DUP5 PUSH1 0x8 MUL PUSH2 0xEBB JUMP JUMPDEST NOT DUP1 DUP4 AND SWAP2 POP POP SWAP3 SWAP2 POP POP JUMP JUMPDEST PUSH1 0x0 PUSH2 0xEF2 DUP4 DUP4 PUSH2 0xEC8 JUMP JUMPDEST SWAP2 POP DUP3 PUSH1 0x2 MUL DUP3 OR SWAP1 POP SWAP3 SWAP2 POP POP JUMP JUMPDEST PUSH2 0xF0B DUP3 PUSH2 0xB64 JUMP JUMPDEST PUSH8 0xFFFFFFFFFFFFFFFF DUP2 GT ISZERO PUSH2 0xF24 JUMPI PUSH2 0xF23 PUSH2 0x997 JUMP JUMPDEST JUMPDEST PUSH2 0xF2E DUP3 SLOAD PUSH2 0xD25 JUMP JUMPDEST PUSH2 0xF39 DUP3 DUP3 DUP6 PUSH2 0xE75 JUMP JUMPDEST PUSH1 0x0 PUSH1 0x20 SWAP1 POP PUSH1 0x1F DUP4 GT PUSH1 0x1 DUP2 EQ PUSH2 0xF6C JUMPI PUSH1 0x0 DUP5 ISZERO PUSH2 0xF5A JUMPI DUP3 DUP8 ADD MLOAD SWAP1 POP JUMPDEST PUSH2 0xF64 DUP6 DUP3 PUSH2 0xEE6 JUMP JUMPDEST DUP7 SSTORE POP PUSH2 0xFCC JUMP JUMPDEST PUSH1 0x1F NOT DUP5 AND PUSH2 0xF7A DUP7 PUSH2 0xD56 JUMP JUMPDEST PUSH1 0x0 JUMPDEST DUP3 DUP2 LT ISZERO PUSH2 0xFA2 JUMPI DUP5 DUP10 ADD MLOAD DUP3 SSTORE PUSH1 0x1 DUP3 ADD SWAP2 POP PUSH1 0x20 DUP6 ADD SWAP5 POP PUSH1 0x20 DUP2 ADD SWAP1 POP PUSH2 0xF7D JUMP JUMPDEST DUP7 DUP4 LT ISZERO PUSH2 0xFBF JUMPI DUP5 DUP10 ADD MLOAD PUSH2 0xFBB PUSH1 0x1F DUP10 AND DUP3 PUSH2 0xEC8 JUMP JUMPDEST DUP4 SSTORE POP JUMPDEST PUSH1 0x1 PUSH1 0x2 DUP9 MUL ADD DUP9 SSTORE POP POP POP JUMPDEST POP POP POP POP POP POP JUMP JUMPDEST PUSH1 0x0 DUP2 SWAP1 POP SWAP3 SWAP2 POP POP JUMP JUMPDEST PUSH1 0x0 PUSH2 0xFEA DUP3 PUSH2 0xB64 JUMP JUMPDEST PUSH2 0xFF4 DUP2 DUP6 PUSH2 0xFD4 JUMP JUMPDEST SWAP4 POP PUSH2 0x1004 DUP2 DUP6 PUSH1 0x20 DUP7 ADD PUSH2 0xB80 JUMP JUMPDEST DUP1 DUP5 ADD SWAP2 POP POP SWAP3 SWAP2 POP POP JUMP JUMPDEST PUSH1 0x0 PUSH2 0x101C DUP3 DUP5 PUSH2 0xFDF JUMP JUMPDEST SWAP2 POP DUP2 SWAP1 POP SWAP3 SWAP2 POP POP JUMP JUMPDEST PUSH32 0x4E487B7100000000000000000000000000000000000000000000000000000000 PUSH1 0x0 MSTORE PUSH1 0x11 PUSH1 0x4 MSTORE PUSH1 0x24 PUSH1 0x0 REVERT JUMPDEST PUSH1 0x0 PUSH2 0x1061 DUP3 PUSH2 0x934 JUMP JUMPDEST SWAP2 POP PUSH2 0x106C DUP4 PUSH2 0x934 JUMP JUMPDEST SWAP3 POP DUP3 DUP3 ADD SWAP1 POP DUP1 DUP3 GT ISZERO PUSH2 0x1084 JUMPI PUSH2 0x1083 PUSH2 0x1027 JUMP JUMPDEST JUMPDEST SWAP3 SWAP2 POP POP JUMP JUMPDEST PUSH32 0x4E487B7100000000000000000000000000000000000000000000000000000000 PUSH1 0x0 MSTORE PUSH1 0x32 PUSH1 0x4 MSTORE PUSH1 0x24 PUSH1 0x0 REVERT JUMPDEST PUSH1 0x0 PUSH2 0x10C4 DUP3 PUSH2 0x934 JUMP JUMPDEST SWAP2 POP PUSH32 0xFFFFFFFFFFFFFFFFFFFFFFFFFFFFFFFFFFFFFFFFFFFFFFFFFFFFFFFFFFFFFFFF DUP3 SUB PUSH2 0x10F6 JUMPI PUSH2 0x10F5 PUSH2 0x1027 JUMP JUMPDEST JUMPDEST PUSH1 0x1 DUP3 ADD SWAP1 POP SWAP2 SWAP1 POP JUMP JUMPDEST PUSH1 0x0 DUP2 SWAP1 POP SWAP3 SWAP2 POP POP JUMP JUMPDEST POP JUMP JUMPDEST PUSH1 0x0 PUSH2 0x111C PUSH1 0x0 DUP4 PUSH2 0x1101 JUMP JUMPDEST SWAP2 POP PUSH2 0x1127 DUP3 PUSH2 0x110C JUMP JUMPDEST PUSH1 0x0 DUP3 ADD SWAP1 POP SWAP2 SWAP1 POP JUMP JUMPDEST PUSH1 0x0 PUSH2 0x113D DUP3 PUSH2 0x110F JUMP JUMPDEST SWAP2 POP DUP2 SWAP1 POP SWAP2 SWAP1 POP JUMP JUMPDEST PUSH32 0x43616C6C206661696C6564000000000000000000000000000000000000000000 PUSH1 0x0 DUP3 ADD MSTORE POP JUMP JUMPDEST PUSH1 0x0 PUSH2 0x117D PUSH1 0xB DUP4 PUSH2 0xB6F JUMP JUMPDEST SWAP2 POP PUSH2 0x1188 DUP3 PUSH2 0x1147 JUMP JUMPDEST PUSH1 0x20 DUP3 ADD SWAP1 POP SWAP2 SWAP1 POP JUMP JUMPDEST PUSH1 0x0 PUSH1 0x20 DUP3 ADD SWAP1 POP DUP2 DUP2 SUB PUSH1 0x0 DUP4 ADD MSTORE PUSH2 0x11AC DUP2 PUSH2 0x1170 JUMP JUMPDEST SWAP1 POP SWAP2 SWAP1 POP JUMP JUMPDEST PUSH1 0x0 PUSH2 0x11BE DUP3 PUSH2 0x934 JUMP JUMPDEST SWAP2 POP PUSH2 0x11C9 DUP4 PUSH2 0x934 JUMP JUMPDEST SWAP3 POP DUP3 DUP3 MUL PUSH2 0x11D7 DUP2 PUSH2 0x934 JUMP JUMPDEST SWAP2 POP DUP3 DUP3 DIV DUP5 EQ DUP4 ISZERO OR PUSH2 0x11EE JUMPI PUSH2 0x11ED PUSH2 0x1027 JUMP JUMPDEST JUMPDEST POP SWAP3 SWAP2 POP POP JUMP JUMPDEST PUSH32 0x4E487B7100000000000000000000000000000000000000000000000000000000 PUSH1 0x0 MSTORE PUSH1 0x12 PUSH1 0x4 MSTORE PUSH1 0x24 PUSH1 0x0 REVERT JUMPDEST PUSH1 0x0 PUSH2 0x122F DUP3 PUSH2 0x934 JUMP JUMPDEST SWAP2 POP PUSH2 0x123A DUP4 PUSH2 0x934 JUMP JUMPDEST SWAP3 POP DUP3 PUSH2 0x124A JUMPI PUSH2 0x1249 PUSH2 0x11F5 JUMP JUMPDEST JUMPDEST DUP3 DUP3 DIV SWAP1 POP SWAP3 SWAP2 POP POP JUMP JUMPDEST PUSH1 0x0 PUSH10 0xFFFFFFFFFFFFFFFFFFFF DUP3 AND SWAP1 POP SWAP2 SWAP1 POP JUMP JUMPDEST PUSH2 0x1274 DUP2 PUSH2 0x1255 JUMP JUMPDEST DUP2 EQ PUSH2 0x127F JUMPI PUSH1 0x0 DUP1 REVERT JUMPDEST POP JUMP JUMPDEST PUSH1 0x0 DUP2 MLOAD SWAP1 POP PUSH2 0x1291 DUP2 PUSH2 0x126B JUMP JUMPDEST SWAP3 SWAP2 POP POP JUMP JUMPDEST PUSH1 0x0 DUP2 SWAP1 POP SWAP2 SWAP1 POP JUMP JUMPDEST PUSH2 0x12AA DUP2 PUSH2 0x1297 JUMP JUMPDEST DUP2 EQ PUSH2 0x12B5 JUMPI PUSH1 0x0 DUP1 REVERT JUMPDEST POP JUMP JUMPDEST PUSH1 0x0 DUP2 MLOAD SWAP1 POP PUSH2 0x12C7 DUP2 PUSH2 0x12A1 JUMP JUMPDEST SWAP3 SWAP2 POP POP JUMP JUMPDEST PUSH1 0x0 DUP2 MLOAD SWAP1 POP PUSH2 0x12DC DUP2 PUSH2 0xB0B JUMP JUMPDEST SWAP3 SWAP2 POP POP JUMP JUMPDEST PUSH1 0x0 DUP1 PUSH1 0x0 DUP1 PUSH1 0x0 PUSH1 0xA0 DUP7 DUP9 SUB SLT ISZERO PUSH2 0x12FE JUMPI PUSH2 0x12FD PUSH2 0x972 JUMP JUMPDEST JUMPDEST PUSH1 0x0 PUSH2 0x130C DUP9 DUP3 DUP10 ADD PUSH2 0x1282 JUMP JUMPDEST SWAP6 POP POP PUSH1 0x20 PUSH2 0x131D DUP9 DUP3 DUP10 ADD PUSH2 0x12B8 JUMP JUMPDEST SWAP5 POP POP PUSH1 0x40 PUSH2 0x132E DUP9 DUP3 DUP10 ADD PUSH2 0x12CD JUMP JUMPDEST SWAP4 POP POP PUSH1 0x60 PUSH2 0x133F DUP9 DUP3 DUP10 ADD PUSH2 0x12CD JUMP JUMPDEST SWAP3 POP POP PUSH1 0x80 PUSH2 0x1350 DUP9 DUP3 DUP10 ADD PUSH2 0x1282 JUMP JUMPDEST SWAP2 POP POP SWAP3 SWAP6 POP SWAP3 SWAP6 SWAP1 SWAP4 POP JUMP JUMPDEST PUSH1 0x0 PUSH2 0x1368 DUP3 PUSH2 0x1297 JUMP JUMPDEST SWAP2 POP PUSH2 0x1373 DUP4 PUSH2 0x1297 JUMP JUMPDEST SWAP3 POP DUP3 DUP3 MUL PUSH2 0x1381 DUP2 PUSH2 0x1297 JUMP JUMPDEST SWAP2 POP PUSH32 0x8000000000000000000000000000000000000000000000000000000000000000 DUP5 EQ PUSH1 0x0 DUP5 SLT AND ISZERO PUSH2 0x13B9 JUMPI PUSH2 0x13B8 PUSH2 0x1027 JUMP JUMPDEST JUMPDEST DUP3 DUP3 SDIV DUP5 EQ DUP4 ISZERO OR PUSH2 0x13CE JUMPI PUSH2 0x13CD PUSH2 0x1027 JUMP JUMPDEST JUMPDEST POP SWAP3 SWAP2 POP POP JUMP INVALID LOG2 PUSH5 0x6970667358 0x22 SLT KECCAK256 0x28 0x1E 0xAF CALLER 0xDA PC 0xE4 0xE4 STOP GAS 0xC DELEGATECALL 0xCB 0x5D LOG0 PUSH29 0x9725711228C84CA1439742A403AEF3B264736F6C634300081300330000 "
				},
				"gasEstimates": {
					"creation": {
						"codeDepositCost": "1026200",
						"executionCost": "47439",
						"totalCost": "1073639"
					},
					"external": {
						"": "infinite",
						"MINIMUM_USD()": "2452",
						"fund(string)": "infinite",
						"fundUserAmount(string)": "infinite",
						"funders(string)": "infinite",
						"fundersNames(uint256)": "infinite",
						"i_owner()": "2580",
						"withdraw()": "infinite"
					}
				},
				"methodIdentifiers": {
					"MINIMUM_USD()": "6b69a592",
					"fund(string)": "73451f65",
					"fundUserAmount(string)": "c111cc87",
					"funders(string)": "c4ab6b03",
					"fundersNames(uint256)": "a5b5b177",
					"i_owner()": "dba6335f",
					"withdraw()": "3ccfd60b"
				}
			},
			"storageLayout": {
				"storage": [
					{
						"astId": 57,
						"contract": "contracts/Lesson 4/FundMe.sol:FundMe",
						"label": "MINIMUM_USD",
						"offset": 0,
						"slot": "0",
						"type": "t_uint256"
					},
					{
						"astId": 60,
						"contract": "contracts/Lesson 4/FundMe.sol:FundMe",
						"label": "fundersNames",
						"offset": 0,
						"slot": "1",
						"type": "t_array(t_string_storage)dyn_storage"
					},
					{
						"astId": 70,
						"contract": "contracts/Lesson 4/FundMe.sol:FundMe",
						"label": "funders",
						"offset": 0,
						"slot": "2",
						"type": "t_mapping(t_string_memory_ptr,t_struct(Funder)65_storage)"
					},
					{
						"astId": 72,
						"contract": "contracts/Lesson 4/FundMe.sol:FundMe",
						"label": "i_owner",
						"offset": 0,
						"slot": "3",
						"type": "t_address"
					}
				],
				"types": {
					"t_address": {
						"encoding": "inplace",
						"label": "address",
						"numberOfBytes": "20"
					},
					"t_array(t_string_storage)dyn_storage": {
						"base": "t_string_storage",
						"encoding": "dynamic_array",
						"label": "string[]",
						"numberOfBytes": "32"
					},
					"t_mapping(t_string_memory_ptr,t_struct(Funder)65_storage)": {
						"encoding": "mapping",
						"key": "t_string_memory_ptr",
						"label": "mapping(string => struct FundMe.Funder)",
						"numberOfBytes": "32",
						"value": "t_struct(Funder)65_storage"
					},
					"t_string_memory_ptr": {
						"encoding": "bytes",
						"label": "string",
						"numberOfBytes": "32"
					},
					"t_string_storage": {
						"encoding": "bytes",
						"label": "string",
						"numberOfBytes": "32"
					},
					"t_struct(Funder)65_storage": {
						"encoding": "inplace",
						"label": "struct FundMe.Funder",
						"members": [
							{
								"astId": 62,
								"contract": "contracts/Lesson 4/FundMe.sol:FundMe",
								"label": "walletAddress",
								"offset": 0,
								"slot": "0",
								"type": "t_address"
							},
							{
								"astId": 64,
								"contract": "contracts/Lesson 4/FundMe.sol:FundMe",
								"label": "fundAmount",
								"offset": 0,
								"slot": "1",
								"type": "t_uint256"
							}
						],
						"numberOfBytes": "64"
					},
					"t_uint256": {
						"encoding": "inplace",
						"label": "uint256",
						"numberOfBytes": "32"
					}
				}
			},
			"userdoc": {
				"kind": "user",
				"methods": {},
				"version": 1
			}
		}
	}
}