{
	"contracts/Lesson 3/StorageFactory.sol": {
		"StorageFactory": {
			"abi": [
				{
					"inputs": [
						{
							"internalType": "string",
							"name": "_firstFamilyName",
							"type": "string"
						},
						{
							"internalType": "string",
							"name": "_secondFamilyName",
							"type": "string"
						}
					],
					"name": "betterFamilyFavoriteNumbersSum",
					"outputs": [
						{
							"internalType": "string",
							"name": "",
							"type": "string"
						}
					],
					"stateMutability": "view",
					"type": "function"
				},
				{
					"inputs": [
						{
							"internalType": "string",
							"name": "_firstPersonFirstName",
							"type": "string"
						},
						{
							"internalType": "string",
							"name": "_firstFamilyName",
							"type": "string"
						},
						{
							"internalType": "string",
							"name": "_secondPersonFirstName",
							"type": "string"
						},
						{
							"internalType": "string",
							"name": "_secondFamilyName",
							"type": "string"
						}
					],
					"name": "compareFavoriteNumbersAnyFamily",
					"outputs": [
						{
							"internalType": "string",
							"name": "",
							"type": "string"
						}
					],
					"stateMutability": "view",
					"type": "function"
				},
				{
					"inputs": [
						{
							"internalType": "string",
							"name": "_familyName",
							"type": "string"
						}
					],
					"name": "createFamilySimpleStorage",
					"outputs": [],
					"stateMutability": "nonpayable",
					"type": "function"
				},
				{
					"inputs": [],
					"name": "createMySimpleStorageContract",
					"outputs": [],
					"stateMutability": "nonpayable",
					"type": "function"
				},
				{
					"inputs": [],
					"name": "createSimpleStorageContract",
					"outputs": [],
					"stateMutability": "nonpayable",
					"type": "function"
				},
				{
					"inputs": [
						{
							"internalType": "string",
							"name": "_familyName",
							"type": "string"
						},
						{
							"internalType": "string",
							"name": "_firstName",
							"type": "string"
						},
						{
							"internalType": "string",
							"name": "_secondName",
							"type": "string"
						}
					],
					"name": "familyAddTwoFavoriteNumbers",
					"outputs": [
						{
							"internalType": "uint256",
							"name": "",
							"type": "uint256"
						}
					],
					"stateMutability": "view",
					"type": "function"
				},
				{
					"inputs": [
						{
							"internalType": "string",
							"name": "_familyName",
							"type": "string"
						}
					],
					"name": "familyFavoriteNumberSum",
					"outputs": [
						{
							"internalType": "uint256",
							"name": "",
							"type": "uint256"
						}
					],
					"stateMutability": "view",
					"type": "function"
				},
				{
					"inputs": [
						{
							"internalType": "string",
							"name": "_familyName",
							"type": "string"
						},
						{
							"internalType": "string",
							"name": "_personName",
							"type": "string"
						}
					],
					"name": "familyGetFavoriteNumber",
					"outputs": [
						{
							"internalType": "uint256",
							"name": "",
							"type": "uint256"
						}
					],
					"stateMutability": "view",
					"type": "function"
				},
				{
					"inputs": [
						{
							"internalType": "string",
							"name": "",
							"type": "string"
						}
					],
					"name": "familySimpleStorage",
					"outputs": [
						{
							"internalType": "contract MySimpleStorage",
							"name": "",
							"type": "address"
						}
					],
					"stateMutability": "view",
					"type": "function"
				},
				{
					"inputs": [
						{
							"internalType": "string",
							"name": "_familyName",
							"type": "string"
						},
						{
							"internalType": "uint256",
							"name": "_favoriteNumber",
							"type": "uint256"
						},
						{
							"internalType": "string",
							"name": "_personName",
							"type": "string"
						}
					],
					"name": "familyStore",
					"outputs": [],
					"stateMutability": "nonpayable",
					"type": "function"
				},
				{
					"inputs": [
						{
							"internalType": "uint256",
							"name": "",
							"type": "uint256"
						}
					],
					"name": "listOfMySimpleStorageContracts",
					"outputs": [
						{
							"internalType": "contract MySimpleStorage",
							"name": "",
							"type": "address"
						}
					],
					"stateMutability": "view",
					"type": "function"
				},
				{
					"inputs": [
						{
							"internalType": "uint256",
							"name": "",
							"type": "uint256"
						}
					],
					"name": "listOfSimpleStorageContracts",
					"outputs": [
						{
							"internalType": "contract SimpleStorage",
							"name": "",
							"type": "address"
						}
					],
					"stateMutability": "view",
					"type": "function"
				},
				{
					"inputs": [
						{
							"internalType": "uint256",
							"name": "_mySimpleStorageIndex",
							"type": "uint256"
						},
						{
							"internalType": "string",
							"name": "_firstName",
							"type": "string"
						},
						{
							"internalType": "string",
							"name": "_secondName",
							"type": "string"
						}
					],
					"name": "msfAddTwoFavoriteNumbers",
					"outputs": [
						{
							"internalType": "uint256",
							"name": "",
							"type": "uint256"
						}
					],
					"stateMutability": "view",
					"type": "function"
				},
				{
					"inputs": [
						{
							"internalType": "uint256",
							"name": "_mySimpleStorageIndex",
							"type": "uint256"
						},
						{
							"internalType": "string",
							"name": "_name",
							"type": "string"
						}
					],
					"name": "msfGetFavoriteNumber",
					"outputs": [
						{
							"internalType": "uint256",
							"name": "",
							"type": "uint256"
						}
					],
					"stateMutability": "view",
					"type": "function"
				},
				{
					"inputs": [
						{
							"internalType": "uint256",
							"name": "_mySimpleStorageIndex",
							"type": "uint256"
						},
						{
							"internalType": "uint256",
							"name": "_newFavoriteNumber",
							"type": "uint256"
						},
						{
							"internalType": "string",
							"name": "_newPersonName",
							"type": "string"
						}
					],
					"name": "msfStore",
					"outputs": [],
					"stateMutability": "nonpayable",
					"type": "function"
				},
				{
					"inputs": [
						{
							"internalType": "uint256",
							"name": "_simpleStorageIndex",
							"type": "uint256"
						}
					],
					"name": "sfGet",
					"outputs": [
						{
							"internalType": "uint256",
							"name": "",
							"type": "uint256"
						}
					],
					"stateMutability": "view",
					"type": "function"
				},
				{
					"inputs": [
						{
							"internalType": "uint256",
							"name": "_simpleStorageIndex",
							"type": "uint256"
						},
						{
							"internalType": "uint256",
							"name": "_newSimpleStorageNumber",
							"type": "uint256"
						}
					],
					"name": "sfStore",
					"outputs": [],
					"stateMutability": "nonpayable",
					"type": "function"
				}
			],
			"devdoc": {
				"kind": "dev",
				"methods": {},
				"version": 1
			},
			"evm": {
				"assembly": "    /* \"contracts/Lesson 3/StorageFactory.sol\":299:4399  contract StorageFactory {... */\n  mstore(0x40, 0x80)\n  callvalue\n  dup1\n  iszero\n  tag_1\n  jumpi\n  0x00\n  dup1\n  revert\ntag_1:\n  pop\n  dataSize(sub_0)\n  dup1\n  dataOffset(sub_0)\n  0x00\n  codecopy\n  0x00\n  return\nstop\n\nsub_0: assembly {\n        /* \"contracts/Lesson 3/StorageFactory.sol\":299:4399  contract StorageFactory {... */\n      mstore(0x40, 0x80)\n      callvalue\n      dup1\n      iszero\n      tag_1\n      jumpi\n      0x00\n      dup1\n      revert\n    tag_1:\n      pop\n      jumpi(tag_2, lt(calldatasize, 0x04))\n      shr(0xe0, calldataload(0x00))\n      dup1\n      0x9b40d2f9\n      gt\n      tag_20\n      jumpi\n      dup1\n      0xceb12d64\n      gt\n      tag_21\n      jumpi\n      dup1\n      0xceb12d64\n      eq\n      tag_15\n      jumpi\n      dup1\n      0xe86b1f0a\n      eq\n      tag_16\n      jumpi\n      dup1\n      0xe8b87788\n      eq\n      tag_17\n      jumpi\n      dup1\n      0xf39f3035\n      eq\n      tag_18\n      jumpi\n      dup1\n      0xfbe253c3\n      eq\n      tag_19\n      jumpi\n      jump(tag_2)\n    tag_21:\n      dup1\n      0x9b40d2f9\n      eq\n      tag_11\n      jumpi\n      dup1\n      0xa0a3ed09\n      eq\n      tag_12\n      jumpi\n      dup1\n      0xc2d1efdc\n      eq\n      tag_13\n      jumpi\n      dup1\n      0xc5f19c20\n      eq\n      tag_14\n      jumpi\n      jump(tag_2)\n    tag_20:\n      dup1\n      0x18478734\n      gt\n      tag_22\n      jumpi\n      dup1\n      0x18478734\n      eq\n      tag_7\n      jumpi\n      dup1\n      0x1dda6541\n      eq\n      tag_8\n      jumpi\n      dup1\n      0x44eddd15\n      eq\n      tag_9\n      jumpi\n      dup1\n      0x83694e97\n      eq\n      tag_10\n      jumpi\n      jump(tag_2)\n    tag_22:\n      dup1\n      0x049d1513\n      eq\n      tag_3\n      jumpi\n      dup1\n      0x05ac9cfe\n      eq\n      tag_4\n      jumpi\n      dup1\n      0x09c677f1\n      eq\n      tag_5\n      jumpi\n      dup1\n      0x1563700f\n      eq\n      tag_6\n      jumpi\n    tag_2:\n      0x00\n      dup1\n      revert\n        /* \"contracts/Lesson 3/StorageFactory.sol\":3346:3516  function familyFavoriteNumberSum(string memory _familyName) public view returns(uint256) {... */\n    tag_3:\n      tag_23\n      0x04\n      dup1\n      calldatasize\n      sub\n      dup2\n      add\n      swap1\n      tag_24\n      swap2\n      swap1\n      tag_25\n      jump\t// in\n    tag_24:\n      tag_26\n      jump\t// in\n    tag_23:\n      mload(0x40)\n      tag_27\n      swap2\n      swap1\n      tag_28\n      jump\t// in\n    tag_27:\n      mload(0x40)\n      dup1\n      swap2\n      sub\n      swap1\n      return\n        /* \"contracts/Lesson 3/StorageFactory.sol\":2241:2302  mapping(string => MySimpleStorage) public familySimpleStorage */\n    tag_4:\n      tag_29\n      0x04\n      dup1\n      calldatasize\n      sub\n      dup2\n      add\n      swap1\n      tag_30\n      swap2\n      swap1\n      tag_25\n      jump\t// in\n    tag_30:\n      tag_31\n      jump\t// in\n    tag_29:\n      mload(0x40)\n      tag_32\n      swap2\n      swap1\n      tag_33\n      jump\t// in\n    tag_32:\n      mload(0x40)\n      dup1\n      swap2\n      sub\n      swap1\n      return\n        /* \"contracts/Lesson 3/StorageFactory.sol\":2471:2647  function createFamilySimpleStorage(string memory _familyName) familyNameNotBlank(_familyName) public {... */\n    tag_5:\n      tag_34\n      0x04\n      dup1\n      calldatasize\n      sub\n      dup2\n      add\n      swap1\n      tag_35\n      swap2\n      swap1\n      tag_25\n      jump\t// in\n    tag_35:\n      tag_36\n      jump\t// in\n    tag_34:\n      stop\n        /* \"contracts/Lesson 3/StorageFactory.sol\":548:787  function sfStore(uint256 _simpleStorageIndex, uint256 _newSimpleStorageNumber) public {... */\n    tag_6:\n      tag_37\n      0x04\n      dup1\n      calldatasize\n      sub\n      dup2\n      add\n      swap1\n      tag_38\n      swap2\n      swap1\n      tag_39\n      jump\t// in\n    tag_38:\n      tag_40\n      jump\t// in\n    tag_37:\n      stop\n        /* \"contracts/Lesson 3/StorageFactory.sol\":1126:1251  function createMySimpleStorageContract() public {... */\n    tag_7:\n      tag_41\n      tag_42\n      jump\t// in\n    tag_41:\n      stop\n        /* \"contracts/Lesson 3/StorageFactory.sol\":421:540  function createSimpleStorageContract() public {... */\n    tag_8:\n      tag_43\n      tag_44\n      jump\t// in\n    tag_43:\n      stop\n        /* \"contracts/Lesson 3/StorageFactory.sol\":2861:3072  function familyGetFavoriteNumber(string memory _familyName, string memory _personName) public view returns(uint256) {... */\n    tag_9:\n      tag_45\n      0x04\n      dup1\n      calldatasize\n      sub\n      dup2\n      add\n      swap1\n      tag_46\n      swap2\n      swap1\n      tag_47\n      jump\t// in\n    tag_46:\n      tag_48\n      jump\t// in\n    tag_45:\n      mload(0x40)\n      tag_49\n      swap2\n      swap1\n      tag_28\n      jump\t// in\n    tag_49:\n      mload(0x40)\n      dup1\n      swap2\n      sub\n      swap1\n      return\n        /* \"contracts/Lesson 3/StorageFactory.sol\":1848:2187  function msfAddTwoFavoriteNumbers(uint256 _mySimpleStorageIndex, string memory _firstName, string memory _secondName) public view returns(uint256) {... */\n    tag_10:\n      tag_50\n      0x04\n      dup1\n      calldatasize\n      sub\n      dup2\n      add\n      swap1\n      tag_51\n      swap2\n      swap1\n      tag_52\n      jump\t// in\n    tag_51:\n      tag_53\n      jump\t// in\n    tag_50:\n      mload(0x40)\n      tag_54\n      swap2\n      swap1\n      tag_28\n      jump\t// in\n    tag_54:\n      mload(0x40)\n      dup1\n      swap2\n      sub\n      swap1\n      return\n        /* \"contracts/Lesson 3/StorageFactory.sol\":1559:1840  function msfGetFavoriteNumber(uint256 _mySimpleStorageIndex, string memory _name) public view returns(uint256) {... */\n    tag_11:\n      tag_55\n      0x04\n      dup1\n      calldatasize\n      sub\n      dup2\n      add\n      swap1\n      tag_56\n      swap2\n      swap1\n      tag_57\n      jump\t// in\n    tag_56:\n      tag_58\n      jump\t// in\n    tag_55:\n      mload(0x40)\n      tag_59\n      swap2\n      swap1\n      tag_28\n      jump\t// in\n    tag_59:\n      mload(0x40)\n      dup1\n      swap2\n      sub\n      swap1\n      return\n        /* \"contracts/Lesson 3/StorageFactory.sol\":3080:3337  function familyAddTwoFavoriteNumbers(string memory _familyName, string memory _firstName, string memory _secondName) public view returns(uint256) {... */\n    tag_12:\n      tag_60\n      0x04\n      dup1\n      calldatasize\n      sub\n      dup2\n      add\n      swap1\n      tag_61\n      swap2\n      swap1\n      tag_62\n      jump\t// in\n    tag_61:\n      tag_63\n      jump\t// in\n    tag_60:\n      mload(0x40)\n      tag_64\n      swap2\n      swap1\n      tag_28\n      jump\t// in\n    tag_64:\n      mload(0x40)\n      dup1\n      swap2\n      sub\n      swap1\n      return\n        /* \"contracts/Lesson 3/StorageFactory.sol\":1062:1117  MySimpleStorage[] public listOfMySimpleStorageContracts */\n    tag_13:\n      tag_65\n      0x04\n      dup1\n      calldatasize\n      sub\n      dup2\n      add\n      swap1\n      tag_66\n      swap2\n      swap1\n      tag_67\n      jump\t// in\n    tag_66:\n      tag_68\n      jump\t// in\n    tag_65:\n      mload(0x40)\n      tag_69\n      swap2\n      swap1\n      tag_33\n      jump\t// in\n    tag_69:\n      mload(0x40)\n      dup1\n      swap2\n      sub\n      swap1\n      return\n        /* \"contracts/Lesson 3/StorageFactory.sol\":795:1008  function sfGet(uint256 _simpleStorageIndex) public view returns(uint256) {... */\n    tag_14:\n      tag_70\n      0x04\n      dup1\n      calldatasize\n      sub\n      dup2\n      add\n      swap1\n      tag_71\n      swap2\n      swap1\n      tag_67\n      jump\t// in\n    tag_71:\n      tag_72\n      jump\t// in\n    tag_70:\n      mload(0x40)\n      tag_73\n      swap2\n      swap1\n      tag_28\n      jump\t// in\n    tag_73:\n      mload(0x40)\n      dup1\n      swap2\n      sub\n      swap1\n      return\n        /* \"contracts/Lesson 3/StorageFactory.sol\":1259:1551  function msfStore(uint256 _mySimpleStorageIndex, uint256 _newFavoriteNumber, string memory _newPersonName) public {... */\n    tag_15:\n      tag_74\n      0x04\n      dup1\n      calldatasize\n      sub\n      dup2\n      add\n      swap1\n      tag_75\n      swap2\n      swap1\n      tag_76\n      jump\t// in\n    tag_75:\n      tag_77\n      jump\t// in\n    tag_74:\n      stop\n        /* \"contracts/Lesson 3/StorageFactory.sol\":3871:4392  function compareFavoriteNumbersAnyFamily(... */\n    tag_16:\n      tag_78\n      0x04\n      dup1\n      calldatasize\n      sub\n      dup2\n      add\n      swap1\n      tag_79\n      swap2\n      swap1\n      tag_80\n      jump\t// in\n    tag_79:\n      tag_81\n      jump\t// in\n    tag_78:\n      mload(0x40)\n      tag_82\n      swap2\n      swap1\n      tag_83\n      jump\t// in\n    tag_82:\n      mload(0x40)\n      dup1\n      swap2\n      sub\n      swap1\n      return\n        /* \"contracts/Lesson 3/StorageFactory.sol\":2655:2853  function familyStore(string memory _familyName, uint256 _favoriteNumber, string memory _personName) public {... */\n    tag_17:\n      tag_84\n      0x04\n      dup1\n      calldatasize\n      sub\n      dup2\n      add\n      swap1\n      tag_85\n      swap2\n      swap1\n      tag_86\n      jump\t// in\n    tag_85:\n      tag_87\n      jump\t// in\n    tag_84:\n      stop\n        /* \"contracts/Lesson 3/StorageFactory.sol\":361:412  SimpleStorage[] public listOfSimpleStorageContracts */\n    tag_18:\n      tag_88\n      0x04\n      dup1\n      calldatasize\n      sub\n      dup2\n      add\n      swap1\n      tag_89\n      swap2\n      swap1\n      tag_67\n      jump\t// in\n    tag_89:\n      tag_90\n      jump\t// in\n    tag_88:\n      mload(0x40)\n      tag_91\n      swap2\n      swap1\n      tag_92\n      jump\t// in\n    tag_91:\n      mload(0x40)\n      dup1\n      swap2\n      sub\n      swap1\n      return\n        /* \"contracts/Lesson 3/StorageFactory.sol\":3524:3859  function betterFamilyFavoriteNumbersSum(string memory _firstFamilyName, string memory _secondFamilyName) public view returns(string memory) {... */\n    tag_19:\n      tag_93\n      0x04\n      dup1\n      calldatasize\n      sub\n      dup2\n      add\n      swap1\n      tag_94\n      swap2\n      swap1\n      tag_47\n      jump\t// in\n    tag_94:\n      tag_95\n      jump\t// in\n    tag_93:\n      mload(0x40)\n      tag_96\n      swap2\n      swap1\n      tag_83\n      jump\t// in\n    tag_96:\n      mload(0x40)\n      dup1\n      swap2\n      sub\n      swap1\n      return\n        /* \"contracts/Lesson 3/StorageFactory.sol\":3346:3516  function familyFavoriteNumberSum(string memory _familyName) public view returns(uint256) {... */\n    tag_26:\n        /* \"contracts/Lesson 3/StorageFactory.sol\":3426:3433  uint256 */\n      0x00\n        /* \"contracts/Lesson 3/StorageFactory.sol\":3453:3472  familySimpleStorage */\n      0x02\n        /* \"contracts/Lesson 3/StorageFactory.sol\":3473:3484  _familyName */\n      dup3\n        /* \"contracts/Lesson 3/StorageFactory.sol\":3453:3485  familySimpleStorage[_familyName] */\n      mload(0x40)\n      tag_98\n      swap2\n      swap1\n      tag_99\n      jump\t// in\n    tag_98:\n      swap1\n      dup2\n      mstore\n      0x20\n      add\n      mload(0x40)\n      dup1\n      swap2\n      sub\n      swap1\n      keccak256\n      0x00\n      swap1\n      sload\n      swap1\n      0x0100\n      exp\n      swap1\n      div\n      0xffffffffffffffffffffffffffffffffffffffff\n      and\n        /* \"contracts/Lesson 3/StorageFactory.sol\":3453:3506  familySimpleStorage[_familyName].sumOfFavoriteNumbers */\n      0xffffffffffffffffffffffffffffffffffffffff\n      and\n      0xfc782c9f\n        /* \"contracts/Lesson 3/StorageFactory.sol\":3453:3508  familySimpleStorage[_familyName].sumOfFavoriteNumbers() */\n      mload(0x40)\n      dup2\n      0xffffffff\n      and\n      0xe0\n      shl\n      dup2\n      mstore\n      0x04\n      add\n      0x20\n      mload(0x40)\n      dup1\n      dup4\n      sub\n      dup2\n      dup7\n      gas\n      staticcall\n      iszero\n      dup1\n      iszero\n      tag_101\n      jumpi\n      returndatasize\n      0x00\n      dup1\n      returndatacopy\n      revert(0x00, returndatasize)\n    tag_101:\n      pop\n      pop\n      pop\n      pop\n      mload(0x40)\n      returndatasize\n      not(0x1f)\n      0x1f\n      dup3\n      add\n      and\n      dup3\n      add\n      dup1\n      0x40\n      mstore\n      pop\n      dup2\n      add\n      swap1\n      tag_102\n      swap2\n      swap1\n      tag_103\n      jump\t// in\n    tag_102:\n        /* \"contracts/Lesson 3/StorageFactory.sol\":3446:3508  return familySimpleStorage[_familyName].sumOfFavoriteNumbers() */\n      swap1\n      pop\n        /* \"contracts/Lesson 3/StorageFactory.sol\":3346:3516  function familyFavoriteNumberSum(string memory _familyName) public view returns(uint256) {... */\n      swap2\n      swap1\n      pop\n      jump\t// out\n        /* \"contracts/Lesson 3/StorageFactory.sol\":2241:2302  mapping(string => MySimpleStorage) public familySimpleStorage */\n    tag_31:\n      0x02\n      dup2\n      dup1\n      mload\n      0x20\n      dup2\n      add\n      dup3\n      add\n      dup1\n      mload\n      dup5\n      dup3\n      mstore\n      0x20\n      dup4\n      add\n      0x20\n      dup6\n      add\n      keccak256\n      dup2\n      dup4\n      mstore\n      dup1\n      swap6\n      pop\n      pop\n      pop\n      pop\n      pop\n      pop\n      0x00\n      swap2\n      pop\n      sload\n      swap1\n      0x0100\n      exp\n      swap1\n      div\n      0xffffffffffffffffffffffffffffffffffffffff\n      and\n      dup2\n      jump\t// out\n        /* \"contracts/Lesson 3/StorageFactory.sol\":2471:2647  function createFamilySimpleStorage(string memory _familyName) familyNameNotBlank(_familyName) public {... */\n    tag_36:\n        /* \"contracts/Lesson 3/StorageFactory.sol\":2552:2563  _familyName */\n      dup1\n        /* \"contracts/Lesson 3/StorageFactory.sol\":2414:2415  0 */\n      0x00\n        /* \"contracts/Lesson 3/StorageFactory.sol\":2392:2403  _familyName */\n      dup2\n        /* \"contracts/Lesson 3/StorageFactory.sol\":2386:2411  bytes(_familyName).length */\n      mload\n        /* \"contracts/Lesson 3/StorageFactory.sol\":2386:2415  bytes(_familyName).length > 0 */\n      gt\n        /* \"contracts/Lesson 3/StorageFactory.sol\":2377:2443  require (bytes(_familyName).length > 0, \"Must supply family name\") */\n      tag_105\n      jumpi\n      mload(0x40)\n      0x08c379a000000000000000000000000000000000000000000000000000000000\n      dup2\n      mstore\n      0x04\n      add\n      tag_106\n      swap1\n      tag_107\n      jump\t// in\n    tag_106:\n      mload(0x40)\n      dup1\n      swap2\n      sub\n      swap1\n      revert\n    tag_105:\n        /* \"contracts/Lesson 3/StorageFactory.sol\":2618:2639  new MySimpleStorage() */\n      mload(0x40)\n      tag_109\n      swap1\n      tag_110\n      jump\t// in\n    tag_109:\n      mload(0x40)\n      dup1\n      swap2\n      sub\n      swap1\n      0x00\n      create\n      dup1\n      iszero\n      dup1\n      iszero\n      tag_111\n      jumpi\n      returndatasize\n      0x00\n      dup1\n      returndatacopy\n      revert(0x00, returndatasize)\n    tag_111:\n      pop\n        /* \"contracts/Lesson 3/StorageFactory.sol\":2583:2602  familySimpleStorage */\n      0x02\n        /* \"contracts/Lesson 3/StorageFactory.sol\":2603:2614  _familyName */\n      dup4\n        /* \"contracts/Lesson 3/StorageFactory.sol\":2583:2615  familySimpleStorage[_familyName] */\n      mload(0x40)\n      tag_112\n      swap2\n      swap1\n      tag_99\n      jump\t// in\n    tag_112:\n      swap1\n      dup2\n      mstore\n      0x20\n      add\n      mload(0x40)\n      dup1\n      swap2\n      sub\n      swap1\n      keccak256\n      0x00\n        /* \"contracts/Lesson 3/StorageFactory.sol\":2583:2639  familySimpleStorage[_familyName] = new MySimpleStorage() */\n      0x0100\n      exp\n      dup2\n      sload\n      dup2\n      0xffffffffffffffffffffffffffffffffffffffff\n      mul\n      not\n      and\n      swap1\n      dup4\n      0xffffffffffffffffffffffffffffffffffffffff\n      and\n      mul\n      or\n      swap1\n      sstore\n      pop\n        /* \"contracts/Lesson 3/StorageFactory.sol\":2471:2647  function createFamilySimpleStorage(string memory _familyName) familyNameNotBlank(_familyName) public {... */\n      pop\n      pop\n      jump\t// out\n        /* \"contracts/Lesson 3/StorageFactory.sol\":548:787  function sfStore(uint256 _simpleStorageIndex, uint256 _newSimpleStorageNumber) public {... */\n    tag_40:\n        /* \"contracts/Lesson 3/StorageFactory.sol\":645:672  SimpleStorage simpleStorage */\n      0x00\n        /* \"contracts/Lesson 3/StorageFactory.sol\":675:703  listOfSimpleStorageContracts */\n      dup1\n        /* \"contracts/Lesson 3/StorageFactory.sol\":704:723  _simpleStorageIndex */\n      dup4\n        /* \"contracts/Lesson 3/StorageFactory.sol\":675:724  listOfSimpleStorageContracts[_simpleStorageIndex] */\n      dup2\n      sload\n      dup2\n      lt\n      tag_114\n      jumpi\n      tag_115\n      tag_116\n      jump\t// in\n    tag_115:\n    tag_114:\n      swap1\n      0x00\n      mstore\n      keccak256(0x00, 0x20)\n      add\n      0x00\n      swap1\n      sload\n      swap1\n      0x0100\n      exp\n      swap1\n      div\n      0xffffffffffffffffffffffffffffffffffffffff\n      and\n        /* \"contracts/Lesson 3/StorageFactory.sol\":645:724  SimpleStorage simpleStorage = listOfSimpleStorageContracts[_simpleStorageIndex] */\n      swap1\n      pop\n        /* \"contracts/Lesson 3/StorageFactory.sol\":735:748  simpleStorage */\n      dup1\n        /* \"contracts/Lesson 3/StorageFactory.sol\":735:754  simpleStorage.store */\n      0xffffffffffffffffffffffffffffffffffffffff\n      and\n      0x6057361d\n        /* \"contracts/Lesson 3/StorageFactory.sol\":755:778  _newSimpleStorageNumber */\n      dup4\n        /* \"contracts/Lesson 3/StorageFactory.sol\":735:779  simpleStorage.store(_newSimpleStorageNumber) */\n      mload(0x40)\n      dup3\n      0xffffffff\n      and\n      0xe0\n      shl\n      dup2\n      mstore\n      0x04\n      add\n      tag_118\n      swap2\n      swap1\n      tag_28\n      jump\t// in\n    tag_118:\n      0x00\n      mload(0x40)\n      dup1\n      dup4\n      sub\n      dup2\n      0x00\n      dup8\n      dup1\n      extcodesize\n      iszero\n      dup1\n      iszero\n      tag_119\n      jumpi\n      0x00\n      dup1\n      revert\n    tag_119:\n      pop\n      gas\n      call\n      iszero\n      dup1\n      iszero\n      tag_121\n      jumpi\n      returndatasize\n      0x00\n      dup1\n      returndatacopy\n      revert(0x00, returndatasize)\n    tag_121:\n      pop\n      pop\n      pop\n      pop\n        /* \"contracts/Lesson 3/StorageFactory.sol\":634:787  {... */\n      pop\n        /* \"contracts/Lesson 3/StorageFactory.sol\":548:787  function sfStore(uint256 _simpleStorageIndex, uint256 _newSimpleStorageNumber) public {... */\n      pop\n      pop\n      jump\t// out\n        /* \"contracts/Lesson 3/StorageFactory.sol\":1126:1251  function createMySimpleStorageContract() public {... */\n    tag_42:\n        /* \"contracts/Lesson 3/StorageFactory.sol\":1185:1215  listOfMySimpleStorageContracts */\n      0x01\n        /* \"contracts/Lesson 3/StorageFactory.sol\":1221:1242  new MySimpleStorage() */\n      mload(0x40)\n      tag_123\n      swap1\n      tag_110\n      jump\t// in\n    tag_123:\n      mload(0x40)\n      dup1\n      swap2\n      sub\n      swap1\n      0x00\n      create\n      dup1\n      iszero\n      dup1\n      iszero\n      tag_124\n      jumpi\n      returndatasize\n      0x00\n      dup1\n      returndatacopy\n      revert(0x00, returndatasize)\n    tag_124:\n      pop\n        /* \"contracts/Lesson 3/StorageFactory.sol\":1185:1243  listOfMySimpleStorageContracts.push(new MySimpleStorage()) */\n      swap1\n      dup1\n      0x01\n      dup2\n      sload\n      add\n      dup1\n      dup3\n      sstore\n      dup1\n      swap2\n      pop\n      pop\n      0x01\n      swap1\n      sub\n      swap1\n      0x00\n      mstore\n      keccak256(0x00, 0x20)\n      add\n      0x00\n      swap1\n      swap2\n      swap1\n      swap2\n      swap1\n      swap2\n      0x0100\n      exp\n      dup2\n      sload\n      dup2\n      0xffffffffffffffffffffffffffffffffffffffff\n      mul\n      not\n      and\n      swap1\n      dup4\n      0xffffffffffffffffffffffffffffffffffffffff\n      and\n      mul\n      or\n      swap1\n      sstore\n      pop\n        /* \"contracts/Lesson 3/StorageFactory.sol\":1126:1251  function createMySimpleStorageContract() public {... */\n      jump\t// out\n        /* \"contracts/Lesson 3/StorageFactory.sol\":421:540  function createSimpleStorageContract() public {... */\n    tag_44:\n        /* \"contracts/Lesson 3/StorageFactory.sol\":478:506  listOfSimpleStorageContracts */\n      0x00\n        /* \"contracts/Lesson 3/StorageFactory.sol\":512:531  new SimpleStorage() */\n      mload(0x40)\n      tag_127\n      swap1\n      tag_128\n      jump\t// in\n    tag_127:\n      mload(0x40)\n      dup1\n      swap2\n      sub\n      swap1\n      0x00\n      create\n      dup1\n      iszero\n      dup1\n      iszero\n      tag_129\n      jumpi\n      returndatasize\n      0x00\n      dup1\n      returndatacopy\n      revert(0x00, returndatasize)\n    tag_129:\n      pop\n        /* \"contracts/Lesson 3/StorageFactory.sol\":478:532  listOfSimpleStorageContracts.push(new SimpleStorage()) */\n      swap1\n      dup1\n      0x01\n      dup2\n      sload\n      add\n      dup1\n      dup3\n      sstore\n      dup1\n      swap2\n      pop\n      pop\n      0x01\n      swap1\n      sub\n      swap1\n      0x00\n      mstore\n      keccak256(0x00, 0x20)\n      add\n      0x00\n      swap1\n      swap2\n      swap1\n      swap2\n      swap1\n      swap2\n      0x0100\n      exp\n      dup2\n      sload\n      dup2\n      0xffffffffffffffffffffffffffffffffffffffff\n      mul\n      not\n      and\n      swap1\n      dup4\n      0xffffffffffffffffffffffffffffffffffffffff\n      and\n      mul\n      or\n      swap1\n      sstore\n      pop\n        /* \"contracts/Lesson 3/StorageFactory.sol\":421:540  function createSimpleStorageContract() public {... */\n      jump\t// out\n        /* \"contracts/Lesson 3/StorageFactory.sol\":2861:3072  function familyGetFavoriteNumber(string memory _familyName, string memory _personName) public view returns(uint256) {... */\n    tag_48:\n        /* \"contracts/Lesson 3/StorageFactory.sol\":2968:2975  uint256 */\n      0x00\n        /* \"contracts/Lesson 3/StorageFactory.sol\":2995:3014  familySimpleStorage */\n      0x02\n        /* \"contracts/Lesson 3/StorageFactory.sol\":3015:3026  _familyName */\n      dup4\n        /* \"contracts/Lesson 3/StorageFactory.sol\":2995:3027  familySimpleStorage[_familyName] */\n      mload(0x40)\n      tag_132\n      swap2\n      swap1\n      tag_99\n      jump\t// in\n    tag_132:\n      swap1\n      dup2\n      mstore\n      0x20\n      add\n      mload(0x40)\n      dup1\n      swap2\n      sub\n      swap1\n      keccak256\n      0x00\n      swap1\n      sload\n      swap1\n      0x0100\n      exp\n      swap1\n      div\n      0xffffffffffffffffffffffffffffffffffffffff\n      and\n        /* \"contracts/Lesson 3/StorageFactory.sol\":2995:3051  familySimpleStorage[_familyName].getPersonFavoriteNumber */\n      0xffffffffffffffffffffffffffffffffffffffff\n      and\n      0x7b4cd9eb\n        /* \"contracts/Lesson 3/StorageFactory.sol\":3052:3063  _personName */\n      dup4\n        /* \"contracts/Lesson 3/StorageFactory.sol\":2995:3064  familySimpleStorage[_familyName].getPersonFavoriteNumber(_personName) */\n      mload(0x40)\n      dup3\n      0xffffffff\n      and\n      0xe0\n      shl\n      dup2\n      mstore\n      0x04\n      add\n      tag_133\n      swap2\n      swap1\n      tag_83\n      jump\t// in\n    tag_133:\n      0x20\n      mload(0x40)\n      dup1\n      dup4\n      sub\n      dup2\n      dup7\n      gas\n      staticcall\n      iszero\n      dup1\n      iszero\n      tag_135\n      jumpi\n      returndatasize\n      0x00\n      dup1\n      returndatacopy\n      revert(0x00, returndatasize)\n    tag_135:\n      pop\n      pop\n      pop\n      pop\n      mload(0x40)\n      returndatasize\n      not(0x1f)\n      0x1f\n      dup3\n      add\n      and\n      dup3\n      add\n      dup1\n      0x40\n      mstore\n      pop\n      dup2\n      add\n      swap1\n      tag_136\n      swap2\n      swap1\n      tag_103\n      jump\t// in\n    tag_136:\n        /* \"contracts/Lesson 3/StorageFactory.sol\":2988:3064  return familySimpleStorage[_familyName].getPersonFavoriteNumber(_personName) */\n      swap1\n      pop\n        /* \"contracts/Lesson 3/StorageFactory.sol\":2861:3072  function familyGetFavoriteNumber(string memory _familyName, string memory _personName) public view returns(uint256) {... */\n      swap3\n      swap2\n      pop\n      pop\n      jump\t// out\n        /* \"contracts/Lesson 3/StorageFactory.sol\":1848:2187  function msfAddTwoFavoriteNumbers(uint256 _mySimpleStorageIndex, string memory _firstName, string memory _secondName) public view returns(uint256) {... */\n    tag_53:\n        /* \"contracts/Lesson 3/StorageFactory.sol\":1986:1993  uint256 */\n      0x00\n        /* \"contracts/Lesson 3/StorageFactory.sol\":2006:2037  MySimpleStorage mySimpleStorage */\n      dup1\n        /* \"contracts/Lesson 3/StorageFactory.sol\":2040:2070  listOfMySimpleStorageContracts */\n      0x01\n        /* \"contracts/Lesson 3/StorageFactory.sol\":2071:2092  _mySimpleStorageIndex */\n      dup6\n        /* \"contracts/Lesson 3/StorageFactory.sol\":2040:2093  listOfMySimpleStorageContracts[_mySimpleStorageIndex] */\n      dup2\n      sload\n      dup2\n      lt\n      tag_138\n      jumpi\n      tag_139\n      tag_116\n      jump\t// in\n    tag_139:\n    tag_138:\n      swap1\n      0x00\n      mstore\n      keccak256(0x00, 0x20)\n      add\n      0x00\n      swap1\n      sload\n      swap1\n      0x0100\n      exp\n      swap1\n      div\n      0xffffffffffffffffffffffffffffffffffffffff\n      and\n        /* \"contracts/Lesson 3/StorageFactory.sol\":2006:2093  MySimpleStorage mySimpleStorage = listOfMySimpleStorageContracts[_mySimpleStorageIndex] */\n      swap1\n      pop\n        /* \"contracts/Lesson 3/StorageFactory.sol\":2111:2126  mySimpleStorage */\n      dup1\n        /* \"contracts/Lesson 3/StorageFactory.sol\":2111:2154  mySimpleStorage.addTwoPeopleFavoriteNumbers */\n      0xffffffffffffffffffffffffffffffffffffffff\n      and\n      0x54bfa6a4\n        /* \"contracts/Lesson 3/StorageFactory.sol\":2155:2165  _firstName */\n      dup6\n        /* \"contracts/Lesson 3/StorageFactory.sol\":2167:2178  _secondName */\n      dup6\n        /* \"contracts/Lesson 3/StorageFactory.sol\":2111:2179  mySimpleStorage.addTwoPeopleFavoriteNumbers(_firstName, _secondName) */\n      mload(0x40)\n      dup4\n      0xffffffff\n      and\n      0xe0\n      shl\n      dup2\n      mstore\n      0x04\n      add\n      tag_141\n      swap3\n      swap2\n      swap1\n      tag_142\n      jump\t// in\n    tag_141:\n      0x20\n      mload(0x40)\n      dup1\n      dup4\n      sub\n      dup2\n      dup7\n      gas\n      staticcall\n      iszero\n      dup1\n      iszero\n      tag_144\n      jumpi\n      returndatasize\n      0x00\n      dup1\n      returndatacopy\n      revert(0x00, returndatasize)\n    tag_144:\n      pop\n      pop\n      pop\n      pop\n      mload(0x40)\n      returndatasize\n      not(0x1f)\n      0x1f\n      dup3\n      add\n      and\n      dup3\n      add\n      dup1\n      0x40\n      mstore\n      pop\n      dup2\n      add\n      swap1\n      tag_145\n      swap2\n      swap1\n      tag_103\n      jump\t// in\n    tag_145:\n        /* \"contracts/Lesson 3/StorageFactory.sol\":2104:2179  return mySimpleStorage.addTwoPeopleFavoriteNumbers(_firstName, _secondName) */\n      swap2\n      pop\n      pop\n        /* \"contracts/Lesson 3/StorageFactory.sol\":1848:2187  function msfAddTwoFavoriteNumbers(uint256 _mySimpleStorageIndex, string memory _firstName, string memory _secondName) public view returns(uint256) {... */\n      swap4\n      swap3\n      pop\n      pop\n      pop\n      jump\t// out\n        /* \"contracts/Lesson 3/StorageFactory.sol\":1559:1840  function msfGetFavoriteNumber(uint256 _mySimpleStorageIndex, string memory _name) public view returns(uint256) {... */\n    tag_58:\n        /* \"contracts/Lesson 3/StorageFactory.sol\":1661:1668  uint256 */\n      0x00\n        /* \"contracts/Lesson 3/StorageFactory.sol\":1681:1712  MySimpleStorage mySimpleStorage */\n      dup1\n        /* \"contracts/Lesson 3/StorageFactory.sol\":1715:1745  listOfMySimpleStorageContracts */\n      0x01\n        /* \"contracts/Lesson 3/StorageFactory.sol\":1746:1767  _mySimpleStorageIndex */\n      dup5\n        /* \"contracts/Lesson 3/StorageFactory.sol\":1715:1768  listOfMySimpleStorageContracts[_mySimpleStorageIndex] */\n      dup2\n      sload\n      dup2\n      lt\n      tag_147\n      jumpi\n      tag_148\n      tag_116\n      jump\t// in\n    tag_148:\n    tag_147:\n      swap1\n      0x00\n      mstore\n      keccak256(0x00, 0x20)\n      add\n      0x00\n      swap1\n      sload\n      swap1\n      0x0100\n      exp\n      swap1\n      div\n      0xffffffffffffffffffffffffffffffffffffffff\n      and\n        /* \"contracts/Lesson 3/StorageFactory.sol\":1681:1768  MySimpleStorage mySimpleStorage = listOfMySimpleStorageContracts[_mySimpleStorageIndex] */\n      swap1\n      pop\n        /* \"contracts/Lesson 3/StorageFactory.sol\":1786:1801  mySimpleStorage */\n      dup1\n        /* \"contracts/Lesson 3/StorageFactory.sol\":1786:1825  mySimpleStorage.getPersonFavoriteNumber */\n      0xffffffffffffffffffffffffffffffffffffffff\n      and\n      0x7b4cd9eb\n        /* \"contracts/Lesson 3/StorageFactory.sol\":1826:1831  _name */\n      dup5\n        /* \"contracts/Lesson 3/StorageFactory.sol\":1786:1832  mySimpleStorage.getPersonFavoriteNumber(_name) */\n      mload(0x40)\n      dup3\n      0xffffffff\n      and\n      0xe0\n      shl\n      dup2\n      mstore\n      0x04\n      add\n      tag_150\n      swap2\n      swap1\n      tag_83\n      jump\t// in\n    tag_150:\n      0x20\n      mload(0x40)\n      dup1\n      dup4\n      sub\n      dup2\n      dup7\n      gas\n      staticcall\n      iszero\n      dup1\n      iszero\n      tag_152\n      jumpi\n      returndatasize\n      0x00\n      dup1\n      returndatacopy\n      revert(0x00, returndatasize)\n    tag_152:\n      pop\n      pop\n      pop\n      pop\n      mload(0x40)\n      returndatasize\n      not(0x1f)\n      0x1f\n      dup3\n      add\n      and\n      dup3\n      add\n      dup1\n      0x40\n      mstore\n      pop\n      dup2\n      add\n      swap1\n      tag_153\n      swap2\n      swap1\n      tag_103\n      jump\t// in\n    tag_153:\n        /* \"contracts/Lesson 3/StorageFactory.sol\":1779:1832  return mySimpleStorage.getPersonFavoriteNumber(_name) */\n      swap2\n      pop\n      pop\n        /* \"contracts/Lesson 3/StorageFactory.sol\":1559:1840  function msfGetFavoriteNumber(uint256 _mySimpleStorageIndex, string memory _name) public view returns(uint256) {... */\n      swap3\n      swap2\n      pop\n      pop\n      jump\t// out\n        /* \"contracts/Lesson 3/StorageFactory.sol\":3080:3337  function familyAddTwoFavoriteNumbers(string memory _familyName, string memory _firstName, string memory _secondName) public view returns(uint256) {... */\n    tag_63:\n        /* \"contracts/Lesson 3/StorageFactory.sol\":3217:3224  uint256 */\n      0x00\n        /* \"contracts/Lesson 3/StorageFactory.sol\":3244:3263  familySimpleStorage */\n      0x02\n        /* \"contracts/Lesson 3/StorageFactory.sol\":3264:3275  _familyName */\n      dup5\n        /* \"contracts/Lesson 3/StorageFactory.sol\":3244:3276  familySimpleStorage[_familyName] */\n      mload(0x40)\n      tag_155\n      swap2\n      swap1\n      tag_99\n      jump\t// in\n    tag_155:\n      swap1\n      dup2\n      mstore\n      0x20\n      add\n      mload(0x40)\n      dup1\n      swap2\n      sub\n      swap1\n      keccak256\n      0x00\n      swap1\n      sload\n      swap1\n      0x0100\n      exp\n      swap1\n      div\n      0xffffffffffffffffffffffffffffffffffffffff\n      and\n        /* \"contracts/Lesson 3/StorageFactory.sol\":3244:3304  familySimpleStorage[_familyName].addTwoPeopleFavoriteNumbers */\n      0xffffffffffffffffffffffffffffffffffffffff\n      and\n      0x54bfa6a4\n        /* \"contracts/Lesson 3/StorageFactory.sol\":3305:3315  _firstName */\n      dup5\n        /* \"contracts/Lesson 3/StorageFactory.sol\":3317:3328  _secondName */\n      dup5\n        /* \"contracts/Lesson 3/StorageFactory.sol\":3244:3329  familySimpleStorage[_familyName].addTwoPeopleFavoriteNumbers(_firstName, _secondName) */\n      mload(0x40)\n      dup4\n      0xffffffff\n      and\n      0xe0\n      shl\n      dup2\n      mstore\n      0x04\n      add\n      tag_156\n      swap3\n      swap2\n      swap1\n      tag_142\n      jump\t// in\n    tag_156:\n      0x20\n      mload(0x40)\n      dup1\n      dup4\n      sub\n      dup2\n      dup7\n      gas\n      staticcall\n      iszero\n      dup1\n      iszero\n      tag_158\n      jumpi\n      returndatasize\n      0x00\n      dup1\n      returndatacopy\n      revert(0x00, returndatasize)\n    tag_158:\n      pop\n      pop\n      pop\n      pop\n      mload(0x40)\n      returndatasize\n      not(0x1f)\n      0x1f\n      dup3\n      add\n      and\n      dup3\n      add\n      dup1\n      0x40\n      mstore\n      pop\n      dup2\n      add\n      swap1\n      tag_159\n      swap2\n      swap1\n      tag_103\n      jump\t// in\n    tag_159:\n        /* \"contracts/Lesson 3/StorageFactory.sol\":3237:3329  return familySimpleStorage[_familyName].addTwoPeopleFavoriteNumbers(_firstName, _secondName) */\n      swap1\n      pop\n        /* \"contracts/Lesson 3/StorageFactory.sol\":3080:3337  function familyAddTwoFavoriteNumbers(string memory _familyName, string memory _firstName, string memory _secondName) public view returns(uint256) {... */\n      swap4\n      swap3\n      pop\n      pop\n      pop\n      jump\t// out\n        /* \"contracts/Lesson 3/StorageFactory.sol\":1062:1117  MySimpleStorage[] public listOfMySimpleStorageContracts */\n    tag_68:\n      0x01\n      dup2\n      dup2\n      sload\n      dup2\n      lt\n      tag_160\n      jumpi\n      0x00\n      dup1\n      revert\n    tag_160:\n      swap1\n      0x00\n      mstore\n      keccak256(0x00, 0x20)\n      add\n      0x00\n      swap2\n      pop\n      sload\n      swap1\n      0x0100\n      exp\n      swap1\n      div\n      0xffffffffffffffffffffffffffffffffffffffff\n      and\n      dup2\n      jump\t// out\n        /* \"contracts/Lesson 3/StorageFactory.sol\":795:1008  function sfGet(uint256 _simpleStorageIndex) public view returns(uint256) {... */\n    tag_72:\n        /* \"contracts/Lesson 3/StorageFactory.sol\":859:866  uint256 */\n      0x00\n        /* \"contracts/Lesson 3/StorageFactory.sol\":879:906  SimpleStorage simpleStorage */\n      dup1\n        /* \"contracts/Lesson 3/StorageFactory.sol\":909:937  listOfSimpleStorageContracts */\n      0x00\n        /* \"contracts/Lesson 3/StorageFactory.sol\":938:957  _simpleStorageIndex */\n      dup4\n        /* \"contracts/Lesson 3/StorageFactory.sol\":909:958  listOfSimpleStorageContracts[_simpleStorageIndex] */\n      dup2\n      sload\n      dup2\n      lt\n      tag_163\n      jumpi\n      tag_164\n      tag_116\n      jump\t// in\n    tag_164:\n    tag_163:\n      swap1\n      0x00\n      mstore\n      keccak256(0x00, 0x20)\n      add\n      0x00\n      swap1\n      sload\n      swap1\n      0x0100\n      exp\n      swap1\n      div\n      0xffffffffffffffffffffffffffffffffffffffff\n      and\n        /* \"contracts/Lesson 3/StorageFactory.sol\":879:958  SimpleStorage simpleStorage = listOfSimpleStorageContracts[_simpleStorageIndex] */\n      swap1\n      pop\n        /* \"contracts/Lesson 3/StorageFactory.sol\":976:989  simpleStorage */\n      dup1\n        /* \"contracts/Lesson 3/StorageFactory.sol\":976:998  simpleStorage.retrieve */\n      0xffffffffffffffffffffffffffffffffffffffff\n      and\n      0x2e64cec1\n        /* \"contracts/Lesson 3/StorageFactory.sol\":976:1000  simpleStorage.retrieve() */\n      mload(0x40)\n      dup2\n      0xffffffff\n      and\n      0xe0\n      shl\n      dup2\n      mstore\n      0x04\n      add\n      0x20\n      mload(0x40)\n      dup1\n      dup4\n      sub\n      dup2\n      dup7\n      gas\n      staticcall\n      iszero\n      dup1\n      iszero\n      tag_167\n      jumpi\n      returndatasize\n      0x00\n      dup1\n      returndatacopy\n      revert(0x00, returndatasize)\n    tag_167:\n      pop\n      pop\n      pop\n      pop\n      mload(0x40)\n      returndatasize\n      not(0x1f)\n      0x1f\n      dup3\n      add\n      and\n      dup3\n      add\n      dup1\n      0x40\n      mstore\n      pop\n      dup2\n      add\n      swap1\n      tag_168\n      swap2\n      swap1\n      tag_103\n      jump\t// in\n    tag_168:\n        /* \"contracts/Lesson 3/StorageFactory.sol\":969:1000  return simpleStorage.retrieve() */\n      swap2\n      pop\n      pop\n        /* \"contracts/Lesson 3/StorageFactory.sol\":795:1008  function sfGet(uint256 _simpleStorageIndex) public view returns(uint256) {... */\n      swap2\n      swap1\n      pop\n      jump\t// out\n        /* \"contracts/Lesson 3/StorageFactory.sol\":1259:1551  function msfStore(uint256 _mySimpleStorageIndex, uint256 _newFavoriteNumber, string memory _newPersonName) public {... */\n    tag_77:\n        /* \"contracts/Lesson 3/StorageFactory.sol\":1384:1415  MySimpleStorage mySimpleStorage */\n      0x00\n        /* \"contracts/Lesson 3/StorageFactory.sol\":1418:1448  listOfMySimpleStorageContracts */\n      0x01\n        /* \"contracts/Lesson 3/StorageFactory.sol\":1449:1470  _mySimpleStorageIndex */\n      dup5\n        /* \"contracts/Lesson 3/StorageFactory.sol\":1418:1471  listOfMySimpleStorageContracts[_mySimpleStorageIndex] */\n      dup2\n      sload\n      dup2\n      lt\n      tag_170\n      jumpi\n      tag_171\n      tag_116\n      jump\t// in\n    tag_171:\n    tag_170:\n      swap1\n      0x00\n      mstore\n      keccak256(0x00, 0x20)\n      add\n      0x00\n      swap1\n      sload\n      swap1\n      0x0100\n      exp\n      swap1\n      div\n      0xffffffffffffffffffffffffffffffffffffffff\n      and\n        /* \"contracts/Lesson 3/StorageFactory.sol\":1384:1471  MySimpleStorage mySimpleStorage = listOfMySimpleStorageContracts[_mySimpleStorageIndex] */\n      swap1\n      pop\n        /* \"contracts/Lesson 3/StorageFactory.sol\":1482:1497  mySimpleStorage */\n      dup1\n        /* \"contracts/Lesson 3/StorageFactory.sol\":1482:1507  mySimpleStorage.newPerson */\n      0xffffffffffffffffffffffffffffffffffffffff\n      and\n      0x35e317f3\n        /* \"contracts/Lesson 3/StorageFactory.sol\":1508:1526  _newFavoriteNumber */\n      dup5\n        /* \"contracts/Lesson 3/StorageFactory.sol\":1528:1542  _newPersonName */\n      dup5\n        /* \"contracts/Lesson 3/StorageFactory.sol\":1482:1543  mySimpleStorage.newPerson(_newFavoriteNumber, _newPersonName) */\n      mload(0x40)\n      dup4\n      0xffffffff\n      and\n      0xe0\n      shl\n      dup2\n      mstore\n      0x04\n      add\n      tag_173\n      swap3\n      swap2\n      swap1\n      tag_174\n      jump\t// in\n    tag_173:\n      0x00\n      mload(0x40)\n      dup1\n      dup4\n      sub\n      dup2\n      0x00\n      dup8\n      dup1\n      extcodesize\n      iszero\n      dup1\n      iszero\n      tag_175\n      jumpi\n      0x00\n      dup1\n      revert\n    tag_175:\n      pop\n      gas\n      call\n      iszero\n      dup1\n      iszero\n      tag_177\n      jumpi\n      returndatasize\n      0x00\n      dup1\n      returndatacopy\n      revert(0x00, returndatasize)\n    tag_177:\n      pop\n      pop\n      pop\n      pop\n        /* \"contracts/Lesson 3/StorageFactory.sol\":1373:1551  {... */\n      pop\n        /* \"contracts/Lesson 3/StorageFactory.sol\":1259:1551  function msfStore(uint256 _mySimpleStorageIndex, uint256 _newFavoriteNumber, string memory _newPersonName) public {... */\n      pop\n      pop\n      pop\n      jump\t// out\n        /* \"contracts/Lesson 3/StorageFactory.sol\":3871:4392  function compareFavoriteNumbersAnyFamily(... */\n    tag_81:\n        /* \"contracts/Lesson 3/StorageFactory.sol\":4109:4122  string memory */\n      0x60\n        /* \"contracts/Lesson 3/StorageFactory.sol\":4210:4276  familyGetFavoriteNumber(_secondFamilyName, _secondPersonFirstName) */\n      tag_179\n        /* \"contracts/Lesson 3/StorageFactory.sol\":4234:4251  _secondFamilyName */\n      dup3\n        /* \"contracts/Lesson 3/StorageFactory.sol\":4253:4275  _secondPersonFirstName */\n      dup5\n        /* \"contracts/Lesson 3/StorageFactory.sol\":4210:4233  familyGetFavoriteNumber */\n      tag_48\n        /* \"contracts/Lesson 3/StorageFactory.sol\":4210:4276  familyGetFavoriteNumber(_secondFamilyName, _secondPersonFirstName) */\n      jump\t// in\n    tag_179:\n        /* \"contracts/Lesson 3/StorageFactory.sol\":4143:4207  familyGetFavoriteNumber(_firstFamilyName, _firstPersonFirstName) */\n      tag_180\n        /* \"contracts/Lesson 3/StorageFactory.sol\":4167:4183  _firstFamilyName */\n      dup6\n        /* \"contracts/Lesson 3/StorageFactory.sol\":4185:4206  _firstPersonFirstName */\n      dup8\n        /* \"contracts/Lesson 3/StorageFactory.sol\":4143:4166  familyGetFavoriteNumber */\n      tag_48\n        /* \"contracts/Lesson 3/StorageFactory.sol\":4143:4207  familyGetFavoriteNumber(_firstFamilyName, _firstPersonFirstName) */\n      jump\t// in\n    tag_180:\n        /* \"contracts/Lesson 3/StorageFactory.sol\":4143:4276  familyGetFavoriteNumber(_firstFamilyName, _firstPersonFirstName) > familyGetFavoriteNumber(_secondFamilyName, _secondPersonFirstName) */\n      gt\n        /* \"contracts/Lesson 3/StorageFactory.sol\":4139:4341  if (familyGetFavoriteNumber(_firstFamilyName, _firstPersonFirstName) > familyGetFavoriteNumber(_secondFamilyName, _secondPersonFirstName)) {... */\n      iszero\n      tag_181\n      jumpi\n        /* \"contracts/Lesson 3/StorageFactory.sol\":4304:4325  _firstPersonFirstName */\n      dup5\n        /* \"contracts/Lesson 3/StorageFactory.sol\":4297:4325  return _firstPersonFirstName */\n      swap1\n      pop\n      jump(tag_178)\n        /* \"contracts/Lesson 3/StorageFactory.sol\":4139:4341  if (familyGetFavoriteNumber(_firstFamilyName, _firstPersonFirstName) > familyGetFavoriteNumber(_secondFamilyName, _secondPersonFirstName)) {... */\n    tag_181:\n        /* \"contracts/Lesson 3/StorageFactory.sol\":4362:4384  _secondPersonFirstName */\n      dup3\n        /* \"contracts/Lesson 3/StorageFactory.sol\":4355:4384  return _secondPersonFirstName */\n      swap1\n      pop\n        /* \"contracts/Lesson 3/StorageFactory.sol\":3871:4392  function compareFavoriteNumbersAnyFamily(... */\n    tag_178:\n      swap5\n      swap4\n      pop\n      pop\n      pop\n      pop\n      jump\t// out\n        /* \"contracts/Lesson 3/StorageFactory.sol\":2655:2853  function familyStore(string memory _familyName, uint256 _favoriteNumber, string memory _personName) public {... */\n    tag_87:\n        /* \"contracts/Lesson 3/StorageFactory.sol\":2773:2792  familySimpleStorage */\n      0x02\n        /* \"contracts/Lesson 3/StorageFactory.sol\":2793:2804  _familyName */\n      dup4\n        /* \"contracts/Lesson 3/StorageFactory.sol\":2773:2805  familySimpleStorage[_familyName] */\n      mload(0x40)\n      tag_183\n      swap2\n      swap1\n      tag_99\n      jump\t// in\n    tag_183:\n      swap1\n      dup2\n      mstore\n      0x20\n      add\n      mload(0x40)\n      dup1\n      swap2\n      sub\n      swap1\n      keccak256\n      0x00\n      swap1\n      sload\n      swap1\n      0x0100\n      exp\n      swap1\n      div\n      0xffffffffffffffffffffffffffffffffffffffff\n      and\n        /* \"contracts/Lesson 3/StorageFactory.sol\":2773:2815  familySimpleStorage[_familyName].newPerson */\n      0xffffffffffffffffffffffffffffffffffffffff\n      and\n      0x35e317f3\n        /* \"contracts/Lesson 3/StorageFactory.sol\":2816:2831  _favoriteNumber */\n      dup4\n        /* \"contracts/Lesson 3/StorageFactory.sol\":2833:2844  _personName */\n      dup4\n        /* \"contracts/Lesson 3/StorageFactory.sol\":2773:2845  familySimpleStorage[_familyName].newPerson(_favoriteNumber, _personName) */\n      mload(0x40)\n      dup4\n      0xffffffff\n      and\n      0xe0\n      shl\n      dup2\n      mstore\n      0x04\n      add\n      tag_184\n      swap3\n      swap2\n      swap1\n      tag_174\n      jump\t// in\n    tag_184:\n      0x00\n      mload(0x40)\n      dup1\n      dup4\n      sub\n      dup2\n      0x00\n      dup8\n      dup1\n      extcodesize\n      iszero\n      dup1\n      iszero\n      tag_185\n      jumpi\n      0x00\n      dup1\n      revert\n    tag_185:\n      pop\n      gas\n      call\n      iszero\n      dup1\n      iszero\n      tag_187\n      jumpi\n      returndatasize\n      0x00\n      dup1\n      returndatacopy\n      revert(0x00, returndatasize)\n    tag_187:\n      pop\n      pop\n      pop\n      pop\n        /* \"contracts/Lesson 3/StorageFactory.sol\":2655:2853  function familyStore(string memory _familyName, uint256 _favoriteNumber, string memory _personName) public {... */\n      pop\n      pop\n      pop\n      jump\t// out\n        /* \"contracts/Lesson 3/StorageFactory.sol\":361:412  SimpleStorage[] public listOfSimpleStorageContracts */\n    tag_90:\n      0x00\n      dup2\n      dup2\n      sload\n      dup2\n      lt\n      tag_188\n      jumpi\n      0x00\n      dup1\n      revert\n    tag_188:\n      swap1\n      0x00\n      mstore\n      keccak256(0x00, 0x20)\n      add\n      0x00\n      swap2\n      pop\n      sload\n      swap1\n      0x0100\n      exp\n      swap1\n      div\n      0xffffffffffffffffffffffffffffffffffffffff\n      and\n      dup2\n      jump\t// out\n        /* \"contracts/Lesson 3/StorageFactory.sol\":3524:3859  function betterFamilyFavoriteNumbersSum(string memory _firstFamilyName, string memory _secondFamilyName) public view returns(string memory) {... */\n    tag_95:\n        /* \"contracts/Lesson 3/StorageFactory.sol\":3649:3662  string memory */\n      0x60\n        /* \"contracts/Lesson 3/StorageFactory.sol\":3723:3765  familyFavoriteNumberSum(_secondFamilyName) */\n      tag_191\n        /* \"contracts/Lesson 3/StorageFactory.sol\":3747:3764  _secondFamilyName */\n      dup3\n        /* \"contracts/Lesson 3/StorageFactory.sol\":3723:3746  familyFavoriteNumberSum */\n      tag_26\n        /* \"contracts/Lesson 3/StorageFactory.sol\":3723:3765  familyFavoriteNumberSum(_secondFamilyName) */\n      jump\t// in\n    tag_191:\n        /* \"contracts/Lesson 3/StorageFactory.sol\":3679:3720  familyFavoriteNumberSum(_firstFamilyName) */\n      tag_192\n        /* \"contracts/Lesson 3/StorageFactory.sol\":3703:3719  _firstFamilyName */\n      dup5\n        /* \"contracts/Lesson 3/StorageFactory.sol\":3679:3702  familyFavoriteNumberSum */\n      tag_26\n        /* \"contracts/Lesson 3/StorageFactory.sol\":3679:3720  familyFavoriteNumberSum(_firstFamilyName) */\n      jump\t// in\n    tag_192:\n        /* \"contracts/Lesson 3/StorageFactory.sol\":3679:3765  familyFavoriteNumberSum(_firstFamilyName) > familyFavoriteNumberSum(_secondFamilyName) */\n      gt\n        /* \"contracts/Lesson 3/StorageFactory.sol\":3675:3817  if (familyFavoriteNumberSum(_firstFamilyName) > familyFavoriteNumberSum(_secondFamilyName)) {... */\n      iszero\n      tag_193\n      jumpi\n        /* \"contracts/Lesson 3/StorageFactory.sol\":3789:3805  _firstFamilyName */\n      dup3\n        /* \"contracts/Lesson 3/StorageFactory.sol\":3782:3805  return _firstFamilyName */\n      swap1\n      pop\n      jump(tag_190)\n        /* \"contracts/Lesson 3/StorageFactory.sol\":3675:3817  if (familyFavoriteNumberSum(_firstFamilyName) > familyFavoriteNumberSum(_secondFamilyName)) {... */\n    tag_193:\n        /* \"contracts/Lesson 3/StorageFactory.sol\":3834:3851  _secondFamilyName */\n      dup2\n        /* \"contracts/Lesson 3/StorageFactory.sol\":3827:3851  return _secondFamilyName */\n      swap1\n      pop\n        /* \"contracts/Lesson 3/StorageFactory.sol\":3524:3859  function betterFamilyFavoriteNumbersSum(string memory _firstFamilyName, string memory _secondFamilyName) public view returns(string memory) {... */\n    tag_190:\n      swap3\n      swap2\n      pop\n      pop\n      jump\t// out\n    tag_110:\n      dataSize(sub_0)\n      dup1\n      dataOffset(sub_0)\n      dup4\n      codecopy\n      add\n      swap1\n      jump\t// out\n    tag_128:\n      dataSize(sub_1)\n      dup1\n      dataOffset(sub_1)\n      dup4\n      codecopy\n      add\n      swap1\n      jump\t// out\n        /* \"#utility.yul\":7:82   */\n    tag_194:\n        /* \"#utility.yul\":40:46   */\n      0x00\n        /* \"#utility.yul\":73:75   */\n      0x40\n        /* \"#utility.yul\":67:76   */\n      mload\n        /* \"#utility.yul\":57:76   */\n      swap1\n      pop\n        /* \"#utility.yul\":7:82   */\n      swap1\n      jump\t// out\n        /* \"#utility.yul\":88:205   */\n    tag_195:\n        /* \"#utility.yul\":197:198   */\n      0x00\n        /* \"#utility.yul\":194:195   */\n      dup1\n        /* \"#utility.yul\":187:199   */\n      revert\n        /* \"#utility.yul\":211:328   */\n    tag_196:\n        /* \"#utility.yul\":320:321   */\n      0x00\n        /* \"#utility.yul\":317:318   */\n      dup1\n        /* \"#utility.yul\":310:322   */\n      revert\n        /* \"#utility.yul\":334:451   */\n    tag_197:\n        /* \"#utility.yul\":443:444   */\n      0x00\n        /* \"#utility.yul\":440:441   */\n      dup1\n        /* \"#utility.yul\":433:445   */\n      revert\n        /* \"#utility.yul\":457:574   */\n    tag_198:\n        /* \"#utility.yul\":566:567   */\n      0x00\n        /* \"#utility.yul\":563:564   */\n      dup1\n        /* \"#utility.yul\":556:568   */\n      revert\n        /* \"#utility.yul\":580:682   */\n    tag_199:\n        /* \"#utility.yul\":621:627   */\n      0x00\n        /* \"#utility.yul\":672:674   */\n      0x1f\n        /* \"#utility.yul\":668:675   */\n      not\n        /* \"#utility.yul\":663:665   */\n      0x1f\n        /* \"#utility.yul\":656:661   */\n      dup4\n        /* \"#utility.yul\":652:666   */\n      add\n        /* \"#utility.yul\":648:676   */\n      and\n        /* \"#utility.yul\":638:676   */\n      swap1\n      pop\n        /* \"#utility.yul\":580:682   */\n      swap2\n      swap1\n      pop\n      jump\t// out\n        /* \"#utility.yul\":688:868   */\n    tag_200:\n        /* \"#utility.yul\":736:813   */\n      0x4e487b7100000000000000000000000000000000000000000000000000000000\n        /* \"#utility.yul\":733:734   */\n      0x00\n        /* \"#utility.yul\":726:814   */\n      mstore\n        /* \"#utility.yul\":833:837   */\n      0x41\n        /* \"#utility.yul\":830:831   */\n      0x04\n        /* \"#utility.yul\":823:838   */\n      mstore\n        /* \"#utility.yul\":857:861   */\n      0x24\n        /* \"#utility.yul\":854:855   */\n      0x00\n        /* \"#utility.yul\":847:862   */\n      revert\n        /* \"#utility.yul\":874:1155   */\n    tag_201:\n        /* \"#utility.yul\":957:984   */\n      tag_237\n        /* \"#utility.yul\":979:983   */\n      dup3\n        /* \"#utility.yul\":957:984   */\n      tag_199\n      jump\t// in\n    tag_237:\n        /* \"#utility.yul\":949:955   */\n      dup2\n        /* \"#utility.yul\":945:985   */\n      add\n        /* \"#utility.yul\":1087:1093   */\n      dup2\n        /* \"#utility.yul\":1075:1085   */\n      dup2\n        /* \"#utility.yul\":1072:1094   */\n      lt\n        /* \"#utility.yul\":1051:1069   */\n      0xffffffffffffffff\n        /* \"#utility.yul\":1039:1049   */\n      dup3\n        /* \"#utility.yul\":1036:1070   */\n      gt\n        /* \"#utility.yul\":1033:1095   */\n      or\n        /* \"#utility.yul\":1030:1118   */\n      iszero\n      tag_238\n      jumpi\n        /* \"#utility.yul\":1098:1116   */\n      tag_239\n      tag_200\n      jump\t// in\n    tag_239:\n        /* \"#utility.yul\":1030:1118   */\n    tag_238:\n        /* \"#utility.yul\":1138:1148   */\n      dup1\n        /* \"#utility.yul\":1134:1136   */\n      0x40\n        /* \"#utility.yul\":1127:1149   */\n      mstore\n        /* \"#utility.yul\":917:1155   */\n      pop\n        /* \"#utility.yul\":874:1155   */\n      pop\n      pop\n      jump\t// out\n        /* \"#utility.yul\":1161:1290   */\n    tag_202:\n        /* \"#utility.yul\":1195:1201   */\n      0x00\n        /* \"#utility.yul\":1222:1242   */\n      tag_241\n      tag_194\n      jump\t// in\n    tag_241:\n        /* \"#utility.yul\":1212:1242   */\n      swap1\n      pop\n        /* \"#utility.yul\":1251:1284   */\n      tag_242\n        /* \"#utility.yul\":1279:1283   */\n      dup3\n        /* \"#utility.yul\":1271:1277   */\n      dup3\n        /* \"#utility.yul\":1251:1284   */\n      tag_201\n      jump\t// in\n    tag_242:\n        /* \"#utility.yul\":1161:1290   */\n      swap2\n      swap1\n      pop\n      jump\t// out\n        /* \"#utility.yul\":1296:1604   */\n    tag_203:\n        /* \"#utility.yul\":1358:1362   */\n      0x00\n        /* \"#utility.yul\":1448:1466   */\n      0xffffffffffffffff\n        /* \"#utility.yul\":1440:1446   */\n      dup3\n        /* \"#utility.yul\":1437:1467   */\n      gt\n        /* \"#utility.yul\":1434:1490   */\n      iszero\n      tag_244\n      jumpi\n        /* \"#utility.yul\":1470:1488   */\n      tag_245\n      tag_200\n      jump\t// in\n    tag_245:\n        /* \"#utility.yul\":1434:1490   */\n    tag_244:\n        /* \"#utility.yul\":1508:1537   */\n      tag_246\n        /* \"#utility.yul\":1530:1536   */\n      dup3\n        /* \"#utility.yul\":1508:1537   */\n      tag_199\n      jump\t// in\n    tag_246:\n        /* \"#utility.yul\":1500:1537   */\n      swap1\n      pop\n        /* \"#utility.yul\":1592:1596   */\n      0x20\n        /* \"#utility.yul\":1586:1590   */\n      dup2\n        /* \"#utility.yul\":1582:1597   */\n      add\n        /* \"#utility.yul\":1574:1597   */\n      swap1\n      pop\n        /* \"#utility.yul\":1296:1604   */\n      swap2\n      swap1\n      pop\n      jump\t// out\n        /* \"#utility.yul\":1610:1756   */\n    tag_204:\n        /* \"#utility.yul\":1707:1713   */\n      dup3\n        /* \"#utility.yul\":1702:1705   */\n      dup2\n        /* \"#utility.yul\":1697:1700   */\n      dup4\n        /* \"#utility.yul\":1684:1714   */\n      calldatacopy\n        /* \"#utility.yul\":1748:1749   */\n      0x00\n        /* \"#utility.yul\":1739:1745   */\n      dup4\n        /* \"#utility.yul\":1734:1737   */\n      dup4\n        /* \"#utility.yul\":1730:1746   */\n      add\n        /* \"#utility.yul\":1723:1750   */\n      mstore\n        /* \"#utility.yul\":1610:1756   */\n      pop\n      pop\n      pop\n      jump\t// out\n        /* \"#utility.yul\":1762:2187   */\n    tag_205:\n        /* \"#utility.yul\":1840:1845   */\n      0x00\n        /* \"#utility.yul\":1865:1931   */\n      tag_249\n        /* \"#utility.yul\":1881:1930   */\n      tag_250\n        /* \"#utility.yul\":1923:1929   */\n      dup5\n        /* \"#utility.yul\":1881:1930   */\n      tag_203\n      jump\t// in\n    tag_250:\n        /* \"#utility.yul\":1865:1931   */\n      tag_202\n      jump\t// in\n    tag_249:\n        /* \"#utility.yul\":1856:1931   */\n      swap1\n      pop\n        /* \"#utility.yul\":1954:1960   */\n      dup3\n        /* \"#utility.yul\":1947:1952   */\n      dup2\n        /* \"#utility.yul\":1940:1961   */\n      mstore\n        /* \"#utility.yul\":1992:1996   */\n      0x20\n        /* \"#utility.yul\":1985:1990   */\n      dup2\n        /* \"#utility.yul\":1981:1997   */\n      add\n        /* \"#utility.yul\":2030:2033   */\n      dup5\n        /* \"#utility.yul\":2021:2027   */\n      dup5\n        /* \"#utility.yul\":2016:2019   */\n      dup5\n        /* \"#utility.yul\":2012:2028   */\n      add\n        /* \"#utility.yul\":2009:2034   */\n      gt\n        /* \"#utility.yul\":2006:2118   */\n      iszero\n      tag_251\n      jumpi\n        /* \"#utility.yul\":2037:2116   */\n      tag_252\n      tag_198\n      jump\t// in\n    tag_252:\n        /* \"#utility.yul\":2006:2118   */\n    tag_251:\n        /* \"#utility.yul\":2127:2181   */\n      tag_253\n        /* \"#utility.yul\":2174:2180   */\n      dup5\n        /* \"#utility.yul\":2169:2172   */\n      dup3\n        /* \"#utility.yul\":2164:2167   */\n      dup6\n        /* \"#utility.yul\":2127:2181   */\n      tag_204\n      jump\t// in\n    tag_253:\n        /* \"#utility.yul\":1846:2187   */\n      pop\n        /* \"#utility.yul\":1762:2187   */\n      swap4\n      swap3\n      pop\n      pop\n      pop\n      jump\t// out\n        /* \"#utility.yul\":2207:2547   */\n    tag_206:\n        /* \"#utility.yul\":2263:2268   */\n      0x00\n        /* \"#utility.yul\":2312:2315   */\n      dup3\n        /* \"#utility.yul\":2305:2309   */\n      0x1f\n        /* \"#utility.yul\":2297:2303   */\n      dup4\n        /* \"#utility.yul\":2293:2310   */\n      add\n        /* \"#utility.yul\":2289:2316   */\n      slt\n        /* \"#utility.yul\":2279:2401   */\n      tag_255\n      jumpi\n        /* \"#utility.yul\":2320:2399   */\n      tag_256\n      tag_197\n      jump\t// in\n    tag_256:\n        /* \"#utility.yul\":2279:2401   */\n    tag_255:\n        /* \"#utility.yul\":2437:2443   */\n      dup2\n        /* \"#utility.yul\":2424:2444   */\n      calldataload\n        /* \"#utility.yul\":2462:2541   */\n      tag_257\n        /* \"#utility.yul\":2537:2540   */\n      dup5\n        /* \"#utility.yul\":2529:2535   */\n      dup3\n        /* \"#utility.yul\":2522:2526   */\n      0x20\n        /* \"#utility.yul\":2514:2520   */\n      dup7\n        /* \"#utility.yul\":2510:2527   */\n      add\n        /* \"#utility.yul\":2462:2541   */\n      tag_205\n      jump\t// in\n    tag_257:\n        /* \"#utility.yul\":2453:2541   */\n      swap2\n      pop\n        /* \"#utility.yul\":2269:2547   */\n      pop\n        /* \"#utility.yul\":2207:2547   */\n      swap3\n      swap2\n      pop\n      pop\n      jump\t// out\n        /* \"#utility.yul\":2553:3062   */\n    tag_25:\n        /* \"#utility.yul\":2622:2628   */\n      0x00\n        /* \"#utility.yul\":2671:2673   */\n      0x20\n        /* \"#utility.yul\":2659:2668   */\n      dup3\n        /* \"#utility.yul\":2650:2657   */\n      dup5\n        /* \"#utility.yul\":2646:2669   */\n      sub\n        /* \"#utility.yul\":2642:2674   */\n      slt\n        /* \"#utility.yul\":2639:2758   */\n      iszero\n      tag_259\n      jumpi\n        /* \"#utility.yul\":2677:2756   */\n      tag_260\n      tag_195\n      jump\t// in\n    tag_260:\n        /* \"#utility.yul\":2639:2758   */\n    tag_259:\n        /* \"#utility.yul\":2825:2826   */\n      0x00\n        /* \"#utility.yul\":2814:2823   */\n      dup3\n        /* \"#utility.yul\":2810:2827   */\n      add\n        /* \"#utility.yul\":2797:2828   */\n      calldataload\n        /* \"#utility.yul\":2855:2873   */\n      0xffffffffffffffff\n        /* \"#utility.yul\":2847:2853   */\n      dup2\n        /* \"#utility.yul\":2844:2874   */\n      gt\n        /* \"#utility.yul\":2841:2958   */\n      iszero\n      tag_261\n      jumpi\n        /* \"#utility.yul\":2877:2956   */\n      tag_262\n      tag_196\n      jump\t// in\n    tag_262:\n        /* \"#utility.yul\":2841:2958   */\n    tag_261:\n        /* \"#utility.yul\":2982:3045   */\n      tag_263\n        /* \"#utility.yul\":3037:3044   */\n      dup5\n        /* \"#utility.yul\":3028:3034   */\n      dup3\n        /* \"#utility.yul\":3017:3026   */\n      dup6\n        /* \"#utility.yul\":3013:3035   */\n      add\n        /* \"#utility.yul\":2982:3045   */\n      tag_206\n      jump\t// in\n    tag_263:\n        /* \"#utility.yul\":2972:3045   */\n      swap2\n      pop\n        /* \"#utility.yul\":2768:3055   */\n      pop\n        /* \"#utility.yul\":2553:3062   */\n      swap3\n      swap2\n      pop\n      pop\n      jump\t// out\n        /* \"#utility.yul\":3068:3145   */\n    tag_207:\n        /* \"#utility.yul\":3105:3112   */\n      0x00\n        /* \"#utility.yul\":3134:3139   */\n      dup2\n        /* \"#utility.yul\":3123:3139   */\n      swap1\n      pop\n        /* \"#utility.yul\":3068:3145   */\n      swap2\n      swap1\n      pop\n      jump\t// out\n        /* \"#utility.yul\":3151:3269   */\n    tag_208:\n        /* \"#utility.yul\":3238:3262   */\n      tag_266\n        /* \"#utility.yul\":3256:3261   */\n      dup2\n        /* \"#utility.yul\":3238:3262   */\n      tag_207\n      jump\t// in\n    tag_266:\n        /* \"#utility.yul\":3233:3236   */\n      dup3\n        /* \"#utility.yul\":3226:3263   */\n      mstore\n        /* \"#utility.yul\":3151:3269   */\n      pop\n      pop\n      jump\t// out\n        /* \"#utility.yul\":3275:3497   */\n    tag_28:\n        /* \"#utility.yul\":3368:3372   */\n      0x00\n        /* \"#utility.yul\":3406:3408   */\n      0x20\n        /* \"#utility.yul\":3395:3404   */\n      dup3\n        /* \"#utility.yul\":3391:3409   */\n      add\n        /* \"#utility.yul\":3383:3409   */\n      swap1\n      pop\n        /* \"#utility.yul\":3419:3490   */\n      tag_268\n        /* \"#utility.yul\":3487:3488   */\n      0x00\n        /* \"#utility.yul\":3476:3485   */\n      dup4\n        /* \"#utility.yul\":3472:3489   */\n      add\n        /* \"#utility.yul\":3463:3469   */\n      dup5\n        /* \"#utility.yul\":3419:3490   */\n      tag_208\n      jump\t// in\n    tag_268:\n        /* \"#utility.yul\":3275:3497   */\n      swap3\n      swap2\n      pop\n      pop\n      jump\t// out\n        /* \"#utility.yul\":3503:3629   */\n    tag_209:\n        /* \"#utility.yul\":3540:3547   */\n      0x00\n        /* \"#utility.yul\":3580:3622   */\n      0xffffffffffffffffffffffffffffffffffffffff\n        /* \"#utility.yul\":3573:3578   */\n      dup3\n        /* \"#utility.yul\":3569:3623   */\n      and\n        /* \"#utility.yul\":3558:3623   */\n      swap1\n      pop\n        /* \"#utility.yul\":3503:3629   */\n      swap2\n      swap1\n      pop\n      jump\t// out\n        /* \"#utility.yul\":3635:3695   */\n    tag_210:\n        /* \"#utility.yul\":3663:3666   */\n      0x00\n        /* \"#utility.yul\":3684:3689   */\n      dup2\n        /* \"#utility.yul\":3677:3689   */\n      swap1\n      pop\n        /* \"#utility.yul\":3635:3695   */\n      swap2\n      swap1\n      pop\n      jump\t// out\n        /* \"#utility.yul\":3701:3843   */\n    tag_211:\n        /* \"#utility.yul\":3751:3760   */\n      0x00\n        /* \"#utility.yul\":3784:3837   */\n      tag_272\n        /* \"#utility.yul\":3802:3836   */\n      tag_273\n        /* \"#utility.yul\":3811:3835   */\n      tag_274\n        /* \"#utility.yul\":3829:3834   */\n      dup5\n        /* \"#utility.yul\":3811:3835   */\n      tag_209\n      jump\t// in\n    tag_274:\n        /* \"#utility.yul\":3802:3836   */\n      tag_210\n      jump\t// in\n    tag_273:\n        /* \"#utility.yul\":3784:3837   */\n      tag_209\n      jump\t// in\n    tag_272:\n        /* \"#utility.yul\":3771:3837   */\n      swap1\n      pop\n        /* \"#utility.yul\":3701:3843   */\n      swap2\n      swap1\n      pop\n      jump\t// out\n        /* \"#utility.yul\":3849:3975   */\n    tag_212:\n        /* \"#utility.yul\":3899:3908   */\n      0x00\n        /* \"#utility.yul\":3932:3969   */\n      tag_276\n        /* \"#utility.yul\":3963:3968   */\n      dup3\n        /* \"#utility.yul\":3932:3969   */\n      tag_211\n      jump\t// in\n    tag_276:\n        /* \"#utility.yul\":3919:3969   */\n      swap1\n      pop\n        /* \"#utility.yul\":3849:3975   */\n      swap2\n      swap1\n      pop\n      jump\t// out\n        /* \"#utility.yul\":3981:4130   */\n    tag_213:\n        /* \"#utility.yul\":4054:4063   */\n      0x00\n        /* \"#utility.yul\":4087:4124   */\n      tag_278\n        /* \"#utility.yul\":4118:4123   */\n      dup3\n        /* \"#utility.yul\":4087:4124   */\n      tag_212\n      jump\t// in\n    tag_278:\n        /* \"#utility.yul\":4074:4124   */\n      swap1\n      pop\n        /* \"#utility.yul\":3981:4130   */\n      swap2\n      swap1\n      pop\n      jump\t// out\n        /* \"#utility.yul\":4136:4313   */\n    tag_214:\n        /* \"#utility.yul\":4246:4306   */\n      tag_280\n        /* \"#utility.yul\":4300:4305   */\n      dup2\n        /* \"#utility.yul\":4246:4306   */\n      tag_213\n      jump\t// in\n    tag_280:\n        /* \"#utility.yul\":4241:4244   */\n      dup3\n        /* \"#utility.yul\":4234:4307   */\n      mstore\n        /* \"#utility.yul\":4136:4313   */\n      pop\n      pop\n      jump\t// out\n        /* \"#utility.yul\":4319:4587   */\n    tag_33:\n        /* \"#utility.yul\":4435:4439   */\n      0x00\n        /* \"#utility.yul\":4473:4475   */\n      0x20\n        /* \"#utility.yul\":4462:4471   */\n      dup3\n        /* \"#utility.yul\":4458:4476   */\n      add\n        /* \"#utility.yul\":4450:4476   */\n      swap1\n      pop\n        /* \"#utility.yul\":4486:4580   */\n      tag_282\n        /* \"#utility.yul\":4577:4578   */\n      0x00\n        /* \"#utility.yul\":4566:4575   */\n      dup4\n        /* \"#utility.yul\":4562:4579   */\n      add\n        /* \"#utility.yul\":4553:4559   */\n      dup5\n        /* \"#utility.yul\":4486:4580   */\n      tag_214\n      jump\t// in\n    tag_282:\n        /* \"#utility.yul\":4319:4587   */\n      swap3\n      swap2\n      pop\n      pop\n      jump\t// out\n        /* \"#utility.yul\":4593:4715   */\n    tag_215:\n        /* \"#utility.yul\":4666:4690   */\n      tag_284\n        /* \"#utility.yul\":4684:4689   */\n      dup2\n        /* \"#utility.yul\":4666:4690   */\n      tag_207\n      jump\t// in\n    tag_284:\n        /* \"#utility.yul\":4659:4664   */\n      dup2\n        /* \"#utility.yul\":4656:4691   */\n      eq\n        /* \"#utility.yul\":4646:4709   */\n      tag_285\n      jumpi\n        /* \"#utility.yul\":4705:4706   */\n      0x00\n        /* \"#utility.yul\":4702:4703   */\n      dup1\n        /* \"#utility.yul\":4695:4707   */\n      revert\n        /* \"#utility.yul\":4646:4709   */\n    tag_285:\n        /* \"#utility.yul\":4593:4715   */\n      pop\n      jump\t// out\n        /* \"#utility.yul\":4721:4860   */\n    tag_216:\n        /* \"#utility.yul\":4767:4772   */\n      0x00\n        /* \"#utility.yul\":4805:4811   */\n      dup2\n        /* \"#utility.yul\":4792:4812   */\n      calldataload\n        /* \"#utility.yul\":4783:4812   */\n      swap1\n      pop\n        /* \"#utility.yul\":4821:4854   */\n      tag_287\n        /* \"#utility.yul\":4848:4853   */\n      dup2\n        /* \"#utility.yul\":4821:4854   */\n      tag_215\n      jump\t// in\n    tag_287:\n        /* \"#utility.yul\":4721:4860   */\n      swap3\n      swap2\n      pop\n      pop\n      jump\t// out\n        /* \"#utility.yul\":4866:5340   */\n    tag_39:\n        /* \"#utility.yul\":4934:4940   */\n      0x00\n        /* \"#utility.yul\":4942:4948   */\n      dup1\n        /* \"#utility.yul\":4991:4993   */\n      0x40\n        /* \"#utility.yul\":4979:4988   */\n      dup4\n        /* \"#utility.yul\":4970:4977   */\n      dup6\n        /* \"#utility.yul\":4966:4989   */\n      sub\n        /* \"#utility.yul\":4962:4994   */\n      slt\n        /* \"#utility.yul\":4959:5078   */\n      iszero\n      tag_289\n      jumpi\n        /* \"#utility.yul\":4997:5076   */\n      tag_290\n      tag_195\n      jump\t// in\n    tag_290:\n        /* \"#utility.yul\":4959:5078   */\n    tag_289:\n        /* \"#utility.yul\":5117:5118   */\n      0x00\n        /* \"#utility.yul\":5142:5195   */\n      tag_291\n        /* \"#utility.yul\":5187:5194   */\n      dup6\n        /* \"#utility.yul\":5178:5184   */\n      dup3\n        /* \"#utility.yul\":5167:5176   */\n      dup7\n        /* \"#utility.yul\":5163:5185   */\n      add\n        /* \"#utility.yul\":5142:5195   */\n      tag_216\n      jump\t// in\n    tag_291:\n        /* \"#utility.yul\":5132:5195   */\n      swap3\n      pop\n        /* \"#utility.yul\":5088:5205   */\n      pop\n        /* \"#utility.yul\":5244:5246   */\n      0x20\n        /* \"#utility.yul\":5270:5323   */\n      tag_292\n        /* \"#utility.yul\":5315:5322   */\n      dup6\n        /* \"#utility.yul\":5306:5312   */\n      dup3\n        /* \"#utility.yul\":5295:5304   */\n      dup7\n        /* \"#utility.yul\":5291:5313   */\n      add\n        /* \"#utility.yul\":5270:5323   */\n      tag_216\n      jump\t// in\n    tag_292:\n        /* \"#utility.yul\":5260:5323   */\n      swap2\n      pop\n        /* \"#utility.yul\":5215:5333   */\n      pop\n        /* \"#utility.yul\":4866:5340   */\n      swap3\n      pop\n      swap3\n      swap1\n      pop\n      jump\t// out\n        /* \"#utility.yul\":5346:6180   */\n    tag_47:\n        /* \"#utility.yul\":5434:5440   */\n      0x00\n        /* \"#utility.yul\":5442:5448   */\n      dup1\n        /* \"#utility.yul\":5491:5493   */\n      0x40\n        /* \"#utility.yul\":5479:5488   */\n      dup4\n        /* \"#utility.yul\":5470:5477   */\n      dup6\n        /* \"#utility.yul\":5466:5489   */\n      sub\n        /* \"#utility.yul\":5462:5494   */\n      slt\n        /* \"#utility.yul\":5459:5578   */\n      iszero\n      tag_294\n      jumpi\n        /* \"#utility.yul\":5497:5576   */\n      tag_295\n      tag_195\n      jump\t// in\n    tag_295:\n        /* \"#utility.yul\":5459:5578   */\n    tag_294:\n        /* \"#utility.yul\":5645:5646   */\n      0x00\n        /* \"#utility.yul\":5634:5643   */\n      dup4\n        /* \"#utility.yul\":5630:5647   */\n      add\n        /* \"#utility.yul\":5617:5648   */\n      calldataload\n        /* \"#utility.yul\":5675:5693   */\n      0xffffffffffffffff\n        /* \"#utility.yul\":5667:5673   */\n      dup2\n        /* \"#utility.yul\":5664:5694   */\n      gt\n        /* \"#utility.yul\":5661:5778   */\n      iszero\n      tag_296\n      jumpi\n        /* \"#utility.yul\":5697:5776   */\n      tag_297\n      tag_196\n      jump\t// in\n    tag_297:\n        /* \"#utility.yul\":5661:5778   */\n    tag_296:\n        /* \"#utility.yul\":5802:5865   */\n      tag_298\n        /* \"#utility.yul\":5857:5864   */\n      dup6\n        /* \"#utility.yul\":5848:5854   */\n      dup3\n        /* \"#utility.yul\":5837:5846   */\n      dup7\n        /* \"#utility.yul\":5833:5855   */\n      add\n        /* \"#utility.yul\":5802:5865   */\n      tag_206\n      jump\t// in\n    tag_298:\n        /* \"#utility.yul\":5792:5865   */\n      swap3\n      pop\n        /* \"#utility.yul\":5588:5875   */\n      pop\n        /* \"#utility.yul\":5942:5944   */\n      0x20\n        /* \"#utility.yul\":5931:5940   */\n      dup4\n        /* \"#utility.yul\":5927:5945   */\n      add\n        /* \"#utility.yul\":5914:5946   */\n      calldataload\n        /* \"#utility.yul\":5973:5991   */\n      0xffffffffffffffff\n        /* \"#utility.yul\":5965:5971   */\n      dup2\n        /* \"#utility.yul\":5962:5992   */\n      gt\n        /* \"#utility.yul\":5959:6076   */\n      iszero\n      tag_299\n      jumpi\n        /* \"#utility.yul\":5995:6074   */\n      tag_300\n      tag_196\n      jump\t// in\n    tag_300:\n        /* \"#utility.yul\":5959:6076   */\n    tag_299:\n        /* \"#utility.yul\":6100:6163   */\n      tag_301\n        /* \"#utility.yul\":6155:6162   */\n      dup6\n        /* \"#utility.yul\":6146:6152   */\n      dup3\n        /* \"#utility.yul\":6135:6144   */\n      dup7\n        /* \"#utility.yul\":6131:6153   */\n      add\n        /* \"#utility.yul\":6100:6163   */\n      tag_206\n      jump\t// in\n    tag_301:\n        /* \"#utility.yul\":6090:6163   */\n      swap2\n      pop\n        /* \"#utility.yul\":5885:6173   */\n      pop\n        /* \"#utility.yul\":5346:6180   */\n      swap3\n      pop\n      swap3\n      swap1\n      pop\n      jump\t// out\n        /* \"#utility.yul\":6186:7165   */\n    tag_52:\n        /* \"#utility.yul\":6283:6289   */\n      0x00\n        /* \"#utility.yul\":6291:6297   */\n      dup1\n        /* \"#utility.yul\":6299:6305   */\n      0x00\n        /* \"#utility.yul\":6348:6350   */\n      0x60\n        /* \"#utility.yul\":6336:6345   */\n      dup5\n        /* \"#utility.yul\":6327:6334   */\n      dup7\n        /* \"#utility.yul\":6323:6346   */\n      sub\n        /* \"#utility.yul\":6319:6351   */\n      slt\n        /* \"#utility.yul\":6316:6435   */\n      iszero\n      tag_303\n      jumpi\n        /* \"#utility.yul\":6354:6433   */\n      tag_304\n      tag_195\n      jump\t// in\n    tag_304:\n        /* \"#utility.yul\":6316:6435   */\n    tag_303:\n        /* \"#utility.yul\":6474:6475   */\n      0x00\n        /* \"#utility.yul\":6499:6552   */\n      tag_305\n        /* \"#utility.yul\":6544:6551   */\n      dup7\n        /* \"#utility.yul\":6535:6541   */\n      dup3\n        /* \"#utility.yul\":6524:6533   */\n      dup8\n        /* \"#utility.yul\":6520:6542   */\n      add\n        /* \"#utility.yul\":6499:6552   */\n      tag_216\n      jump\t// in\n    tag_305:\n        /* \"#utility.yul\":6489:6552   */\n      swap4\n      pop\n        /* \"#utility.yul\":6445:6562   */\n      pop\n        /* \"#utility.yul\":6629:6631   */\n      0x20\n        /* \"#utility.yul\":6618:6627   */\n      dup5\n        /* \"#utility.yul\":6614:6632   */\n      add\n        /* \"#utility.yul\":6601:6633   */\n      calldataload\n        /* \"#utility.yul\":6660:6678   */\n      0xffffffffffffffff\n        /* \"#utility.yul\":6652:6658   */\n      dup2\n        /* \"#utility.yul\":6649:6679   */\n      gt\n        /* \"#utility.yul\":6646:6763   */\n      iszero\n      tag_306\n      jumpi\n        /* \"#utility.yul\":6682:6761   */\n      tag_307\n      tag_196\n      jump\t// in\n    tag_307:\n        /* \"#utility.yul\":6646:6763   */\n    tag_306:\n        /* \"#utility.yul\":6787:6850   */\n      tag_308\n        /* \"#utility.yul\":6842:6849   */\n      dup7\n        /* \"#utility.yul\":6833:6839   */\n      dup3\n        /* \"#utility.yul\":6822:6831   */\n      dup8\n        /* \"#utility.yul\":6818:6840   */\n      add\n        /* \"#utility.yul\":6787:6850   */\n      tag_206\n      jump\t// in\n    tag_308:\n        /* \"#utility.yul\":6777:6850   */\n      swap3\n      pop\n        /* \"#utility.yul\":6572:6860   */\n      pop\n        /* \"#utility.yul\":6927:6929   */\n      0x40\n        /* \"#utility.yul\":6916:6925   */\n      dup5\n        /* \"#utility.yul\":6912:6930   */\n      add\n        /* \"#utility.yul\":6899:6931   */\n      calldataload\n        /* \"#utility.yul\":6958:6976   */\n      0xffffffffffffffff\n        /* \"#utility.yul\":6950:6956   */\n      dup2\n        /* \"#utility.yul\":6947:6977   */\n      gt\n        /* \"#utility.yul\":6944:7061   */\n      iszero\n      tag_309\n      jumpi\n        /* \"#utility.yul\":6980:7059   */\n      tag_310\n      tag_196\n      jump\t// in\n    tag_310:\n        /* \"#utility.yul\":6944:7061   */\n    tag_309:\n        /* \"#utility.yul\":7085:7148   */\n      tag_311\n        /* \"#utility.yul\":7140:7147   */\n      dup7\n        /* \"#utility.yul\":7131:7137   */\n      dup3\n        /* \"#utility.yul\":7120:7129   */\n      dup8\n        /* \"#utility.yul\":7116:7138   */\n      add\n        /* \"#utility.yul\":7085:7148   */\n      tag_206\n      jump\t// in\n    tag_311:\n        /* \"#utility.yul\":7075:7148   */\n      swap2\n      pop\n        /* \"#utility.yul\":6870:7158   */\n      pop\n        /* \"#utility.yul\":6186:7165   */\n      swap3\n      pop\n      swap3\n      pop\n      swap3\n      jump\t// out\n        /* \"#utility.yul\":7171:7825   */\n    tag_57:\n        /* \"#utility.yul\":7249:7255   */\n      0x00\n        /* \"#utility.yul\":7257:7263   */\n      dup1\n        /* \"#utility.yul\":7306:7308   */\n      0x40\n        /* \"#utility.yul\":7294:7303   */\n      dup4\n        /* \"#utility.yul\":7285:7292   */\n      dup6\n        /* \"#utility.yul\":7281:7304   */\n      sub\n        /* \"#utility.yul\":7277:7309   */\n      slt\n        /* \"#utility.yul\":7274:7393   */\n      iszero\n      tag_313\n      jumpi\n        /* \"#utility.yul\":7312:7391   */\n      tag_314\n      tag_195\n      jump\t// in\n    tag_314:\n        /* \"#utility.yul\":7274:7393   */\n    tag_313:\n        /* \"#utility.yul\":7432:7433   */\n      0x00\n        /* \"#utility.yul\":7457:7510   */\n      tag_315\n        /* \"#utility.yul\":7502:7509   */\n      dup6\n        /* \"#utility.yul\":7493:7499   */\n      dup3\n        /* \"#utility.yul\":7482:7491   */\n      dup7\n        /* \"#utility.yul\":7478:7500   */\n      add\n        /* \"#utility.yul\":7457:7510   */\n      tag_216\n      jump\t// in\n    tag_315:\n        /* \"#utility.yul\":7447:7510   */\n      swap3\n      pop\n        /* \"#utility.yul\":7403:7520   */\n      pop\n        /* \"#utility.yul\":7587:7589   */\n      0x20\n        /* \"#utility.yul\":7576:7585   */\n      dup4\n        /* \"#utility.yul\":7572:7590   */\n      add\n        /* \"#utility.yul\":7559:7591   */\n      calldataload\n        /* \"#utility.yul\":7618:7636   */\n      0xffffffffffffffff\n        /* \"#utility.yul\":7610:7616   */\n      dup2\n        /* \"#utility.yul\":7607:7637   */\n      gt\n        /* \"#utility.yul\":7604:7721   */\n      iszero\n      tag_316\n      jumpi\n        /* \"#utility.yul\":7640:7719   */\n      tag_317\n      tag_196\n      jump\t// in\n    tag_317:\n        /* \"#utility.yul\":7604:7721   */\n    tag_316:\n        /* \"#utility.yul\":7745:7808   */\n      tag_318\n        /* \"#utility.yul\":7800:7807   */\n      dup6\n        /* \"#utility.yul\":7791:7797   */\n      dup3\n        /* \"#utility.yul\":7780:7789   */\n      dup7\n        /* \"#utility.yul\":7776:7798   */\n      add\n        /* \"#utility.yul\":7745:7808   */\n      tag_206\n      jump\t// in\n    tag_318:\n        /* \"#utility.yul\":7735:7808   */\n      swap2\n      pop\n        /* \"#utility.yul\":7530:7818   */\n      pop\n        /* \"#utility.yul\":7171:7825   */\n      swap3\n      pop\n      swap3\n      swap1\n      pop\n      jump\t// out\n        /* \"#utility.yul\":7831:8990   */\n    tag_62:\n        /* \"#utility.yul\":7938:7944   */\n      0x00\n        /* \"#utility.yul\":7946:7952   */\n      dup1\n        /* \"#utility.yul\":7954:7960   */\n      0x00\n        /* \"#utility.yul\":8003:8005   */\n      0x60\n        /* \"#utility.yul\":7991:8000   */\n      dup5\n        /* \"#utility.yul\":7982:7989   */\n      dup7\n        /* \"#utility.yul\":7978:8001   */\n      sub\n        /* \"#utility.yul\":7974:8006   */\n      slt\n        /* \"#utility.yul\":7971:8090   */\n      iszero\n      tag_320\n      jumpi\n        /* \"#utility.yul\":8009:8088   */\n      tag_321\n      tag_195\n      jump\t// in\n    tag_321:\n        /* \"#utility.yul\":7971:8090   */\n    tag_320:\n        /* \"#utility.yul\":8157:8158   */\n      0x00\n        /* \"#utility.yul\":8146:8155   */\n      dup5\n        /* \"#utility.yul\":8142:8159   */\n      add\n        /* \"#utility.yul\":8129:8160   */\n      calldataload\n        /* \"#utility.yul\":8187:8205   */\n      0xffffffffffffffff\n        /* \"#utility.yul\":8179:8185   */\n      dup2\n        /* \"#utility.yul\":8176:8206   */\n      gt\n        /* \"#utility.yul\":8173:8290   */\n      iszero\n      tag_322\n      jumpi\n        /* \"#utility.yul\":8209:8288   */\n      tag_323\n      tag_196\n      jump\t// in\n    tag_323:\n        /* \"#utility.yul\":8173:8290   */\n    tag_322:\n        /* \"#utility.yul\":8314:8377   */\n      tag_324\n        /* \"#utility.yul\":8369:8376   */\n      dup7\n        /* \"#utility.yul\":8360:8366   */\n      dup3\n        /* \"#utility.yul\":8349:8358   */\n      dup8\n        /* \"#utility.yul\":8345:8367   */\n      add\n        /* \"#utility.yul\":8314:8377   */\n      tag_206\n      jump\t// in\n    tag_324:\n        /* \"#utility.yul\":8304:8377   */\n      swap4\n      pop\n        /* \"#utility.yul\":8100:8387   */\n      pop\n        /* \"#utility.yul\":8454:8456   */\n      0x20\n        /* \"#utility.yul\":8443:8452   */\n      dup5\n        /* \"#utility.yul\":8439:8457   */\n      add\n        /* \"#utility.yul\":8426:8458   */\n      calldataload\n        /* \"#utility.yul\":8485:8503   */\n      0xffffffffffffffff\n        /* \"#utility.yul\":8477:8483   */\n      dup2\n        /* \"#utility.yul\":8474:8504   */\n      gt\n        /* \"#utility.yul\":8471:8588   */\n      iszero\n      tag_325\n      jumpi\n        /* \"#utility.yul\":8507:8586   */\n      tag_326\n      tag_196\n      jump\t// in\n    tag_326:\n        /* \"#utility.yul\":8471:8588   */\n    tag_325:\n        /* \"#utility.yul\":8612:8675   */\n      tag_327\n        /* \"#utility.yul\":8667:8674   */\n      dup7\n        /* \"#utility.yul\":8658:8664   */\n      dup3\n        /* \"#utility.yul\":8647:8656   */\n      dup8\n        /* \"#utility.yul\":8643:8665   */\n      add\n        /* \"#utility.yul\":8612:8675   */\n      tag_206\n      jump\t// in\n    tag_327:\n        /* \"#utility.yul\":8602:8675   */\n      swap3\n      pop\n        /* \"#utility.yul\":8397:8685   */\n      pop\n        /* \"#utility.yul\":8752:8754   */\n      0x40\n        /* \"#utility.yul\":8741:8750   */\n      dup5\n        /* \"#utility.yul\":8737:8755   */\n      add\n        /* \"#utility.yul\":8724:8756   */\n      calldataload\n        /* \"#utility.yul\":8783:8801   */\n      0xffffffffffffffff\n        /* \"#utility.yul\":8775:8781   */\n      dup2\n        /* \"#utility.yul\":8772:8802   */\n      gt\n        /* \"#utility.yul\":8769:8886   */\n      iszero\n      tag_328\n      jumpi\n        /* \"#utility.yul\":8805:8884   */\n      tag_329\n      tag_196\n      jump\t// in\n    tag_329:\n        /* \"#utility.yul\":8769:8886   */\n    tag_328:\n        /* \"#utility.yul\":8910:8973   */\n      tag_330\n        /* \"#utility.yul\":8965:8972   */\n      dup7\n        /* \"#utility.yul\":8956:8962   */\n      dup3\n        /* \"#utility.yul\":8945:8954   */\n      dup8\n        /* \"#utility.yul\":8941:8963   */\n      add\n        /* \"#utility.yul\":8910:8973   */\n      tag_206\n      jump\t// in\n    tag_330:\n        /* \"#utility.yul\":8900:8973   */\n      swap2\n      pop\n        /* \"#utility.yul\":8695:8983   */\n      pop\n        /* \"#utility.yul\":7831:8990   */\n      swap3\n      pop\n      swap3\n      pop\n      swap3\n      jump\t// out\n        /* \"#utility.yul\":8996:9325   */\n    tag_67:\n        /* \"#utility.yul\":9055:9061   */\n      0x00\n        /* \"#utility.yul\":9104:9106   */\n      0x20\n        /* \"#utility.yul\":9092:9101   */\n      dup3\n        /* \"#utility.yul\":9083:9090   */\n      dup5\n        /* \"#utility.yul\":9079:9102   */\n      sub\n        /* \"#utility.yul\":9075:9107   */\n      slt\n        /* \"#utility.yul\":9072:9191   */\n      iszero\n      tag_332\n      jumpi\n        /* \"#utility.yul\":9110:9189   */\n      tag_333\n      tag_195\n      jump\t// in\n    tag_333:\n        /* \"#utility.yul\":9072:9191   */\n    tag_332:\n        /* \"#utility.yul\":9230:9231   */\n      0x00\n        /* \"#utility.yul\":9255:9308   */\n      tag_334\n        /* \"#utility.yul\":9300:9307   */\n      dup5\n        /* \"#utility.yul\":9291:9297   */\n      dup3\n        /* \"#utility.yul\":9280:9289   */\n      dup6\n        /* \"#utility.yul\":9276:9298   */\n      add\n        /* \"#utility.yul\":9255:9308   */\n      tag_216\n      jump\t// in\n    tag_334:\n        /* \"#utility.yul\":9245:9308   */\n      swap2\n      pop\n        /* \"#utility.yul\":9201:9318   */\n      pop\n        /* \"#utility.yul\":8996:9325   */\n      swap3\n      swap2\n      pop\n      pop\n      jump\t// out\n        /* \"#utility.yul\":9331:10130   */\n    tag_76:\n        /* \"#utility.yul\":9418:9424   */\n      0x00\n        /* \"#utility.yul\":9426:9432   */\n      dup1\n        /* \"#utility.yul\":9434:9440   */\n      0x00\n        /* \"#utility.yul\":9483:9485   */\n      0x60\n        /* \"#utility.yul\":9471:9480   */\n      dup5\n        /* \"#utility.yul\":9462:9469   */\n      dup7\n        /* \"#utility.yul\":9458:9481   */\n      sub\n        /* \"#utility.yul\":9454:9486   */\n      slt\n        /* \"#utility.yul\":9451:9570   */\n      iszero\n      tag_336\n      jumpi\n        /* \"#utility.yul\":9489:9568   */\n      tag_337\n      tag_195\n      jump\t// in\n    tag_337:\n        /* \"#utility.yul\":9451:9570   */\n    tag_336:\n        /* \"#utility.yul\":9609:9610   */\n      0x00\n        /* \"#utility.yul\":9634:9687   */\n      tag_338\n        /* \"#utility.yul\":9679:9686   */\n      dup7\n        /* \"#utility.yul\":9670:9676   */\n      dup3\n        /* \"#utility.yul\":9659:9668   */\n      dup8\n        /* \"#utility.yul\":9655:9677   */\n      add\n        /* \"#utility.yul\":9634:9687   */\n      tag_216\n      jump\t// in\n    tag_338:\n        /* \"#utility.yul\":9624:9687   */\n      swap4\n      pop\n        /* \"#utility.yul\":9580:9697   */\n      pop\n        /* \"#utility.yul\":9736:9738   */\n      0x20\n        /* \"#utility.yul\":9762:9815   */\n      tag_339\n        /* \"#utility.yul\":9807:9814   */\n      dup7\n        /* \"#utility.yul\":9798:9804   */\n      dup3\n        /* \"#utility.yul\":9787:9796   */\n      dup8\n        /* \"#utility.yul\":9783:9805   */\n      add\n        /* \"#utility.yul\":9762:9815   */\n      tag_216\n      jump\t// in\n    tag_339:\n        /* \"#utility.yul\":9752:9815   */\n      swap3\n      pop\n        /* \"#utility.yul\":9707:9825   */\n      pop\n        /* \"#utility.yul\":9892:9894   */\n      0x40\n        /* \"#utility.yul\":9881:9890   */\n      dup5\n        /* \"#utility.yul\":9877:9895   */\n      add\n        /* \"#utility.yul\":9864:9896   */\n      calldataload\n        /* \"#utility.yul\":9923:9941   */\n      0xffffffffffffffff\n        /* \"#utility.yul\":9915:9921   */\n      dup2\n        /* \"#utility.yul\":9912:9942   */\n      gt\n        /* \"#utility.yul\":9909:10026   */\n      iszero\n      tag_340\n      jumpi\n        /* \"#utility.yul\":9945:10024   */\n      tag_341\n      tag_196\n      jump\t// in\n    tag_341:\n        /* \"#utility.yul\":9909:10026   */\n    tag_340:\n        /* \"#utility.yul\":10050:10113   */\n      tag_342\n        /* \"#utility.yul\":10105:10112   */\n      dup7\n        /* \"#utility.yul\":10096:10102   */\n      dup3\n        /* \"#utility.yul\":10085:10094   */\n      dup8\n        /* \"#utility.yul\":10081:10103   */\n      add\n        /* \"#utility.yul\":10050:10113   */\n      tag_206\n      jump\t// in\n    tag_342:\n        /* \"#utility.yul\":10040:10113   */\n      swap2\n      pop\n        /* \"#utility.yul\":9835:10123   */\n      pop\n        /* \"#utility.yul\":9331:10130   */\n      swap3\n      pop\n      swap3\n      pop\n      swap3\n      jump\t// out\n        /* \"#utility.yul\":10136:11621   */\n    tag_80:\n        /* \"#utility.yul\":10262:10268   */\n      0x00\n        /* \"#utility.yul\":10270:10276   */\n      dup1\n        /* \"#utility.yul\":10278:10284   */\n      0x00\n        /* \"#utility.yul\":10286:10292   */\n      dup1\n        /* \"#utility.yul\":10335:10338   */\n      0x80\n        /* \"#utility.yul\":10323:10332   */\n      dup6\n        /* \"#utility.yul\":10314:10321   */\n      dup8\n        /* \"#utility.yul\":10310:10333   */\n      sub\n        /* \"#utility.yul\":10306:10339   */\n      slt\n        /* \"#utility.yul\":10303:10423   */\n      iszero\n      tag_344\n      jumpi\n        /* \"#utility.yul\":10342:10421   */\n      tag_345\n      tag_195\n      jump\t// in\n    tag_345:\n        /* \"#utility.yul\":10303:10423   */\n    tag_344:\n        /* \"#utility.yul\":10490:10491   */\n      0x00\n        /* \"#utility.yul\":10479:10488   */\n      dup6\n        /* \"#utility.yul\":10475:10492   */\n      add\n        /* \"#utility.yul\":10462:10493   */\n      calldataload\n        /* \"#utility.yul\":10520:10538   */\n      0xffffffffffffffff\n        /* \"#utility.yul\":10512:10518   */\n      dup2\n        /* \"#utility.yul\":10509:10539   */\n      gt\n        /* \"#utility.yul\":10506:10623   */\n      iszero\n      tag_346\n      jumpi\n        /* \"#utility.yul\":10542:10621   */\n      tag_347\n      tag_196\n      jump\t// in\n    tag_347:\n        /* \"#utility.yul\":10506:10623   */\n    tag_346:\n        /* \"#utility.yul\":10647:10710   */\n      tag_348\n        /* \"#utility.yul\":10702:10709   */\n      dup8\n        /* \"#utility.yul\":10693:10699   */\n      dup3\n        /* \"#utility.yul\":10682:10691   */\n      dup9\n        /* \"#utility.yul\":10678:10700   */\n      add\n        /* \"#utility.yul\":10647:10710   */\n      tag_206\n      jump\t// in\n    tag_348:\n        /* \"#utility.yul\":10637:10710   */\n      swap5\n      pop\n        /* \"#utility.yul\":10433:10720   */\n      pop\n        /* \"#utility.yul\":10787:10789   */\n      0x20\n        /* \"#utility.yul\":10776:10785   */\n      dup6\n        /* \"#utility.yul\":10772:10790   */\n      add\n        /* \"#utility.yul\":10759:10791   */\n      calldataload\n        /* \"#utility.yul\":10818:10836   */\n      0xffffffffffffffff\n        /* \"#utility.yul\":10810:10816   */\n      dup2\n        /* \"#utility.yul\":10807:10837   */\n      gt\n        /* \"#utility.yul\":10804:10921   */\n      iszero\n      tag_349\n      jumpi\n        /* \"#utility.yul\":10840:10919   */\n      tag_350\n      tag_196\n      jump\t// in\n    tag_350:\n        /* \"#utility.yul\":10804:10921   */\n    tag_349:\n        /* \"#utility.yul\":10945:11008   */\n      tag_351\n        /* \"#utility.yul\":11000:11007   */\n      dup8\n        /* \"#utility.yul\":10991:10997   */\n      dup3\n        /* \"#utility.yul\":10980:10989   */\n      dup9\n        /* \"#utility.yul\":10976:10998   */\n      add\n        /* \"#utility.yul\":10945:11008   */\n      tag_206\n      jump\t// in\n    tag_351:\n        /* \"#utility.yul\":10935:11008   */\n      swap4\n      pop\n        /* \"#utility.yul\":10730:11018   */\n      pop\n        /* \"#utility.yul\":11085:11087   */\n      0x40\n        /* \"#utility.yul\":11074:11083   */\n      dup6\n        /* \"#utility.yul\":11070:11088   */\n      add\n        /* \"#utility.yul\":11057:11089   */\n      calldataload\n        /* \"#utility.yul\":11116:11134   */\n      0xffffffffffffffff\n        /* \"#utility.yul\":11108:11114   */\n      dup2\n        /* \"#utility.yul\":11105:11135   */\n      gt\n        /* \"#utility.yul\":11102:11219   */\n      iszero\n      tag_352\n      jumpi\n        /* \"#utility.yul\":11138:11217   */\n      tag_353\n      tag_196\n      jump\t// in\n    tag_353:\n        /* \"#utility.yul\":11102:11219   */\n    tag_352:\n        /* \"#utility.yul\":11243:11306   */\n      tag_354\n        /* \"#utility.yul\":11298:11305   */\n      dup8\n        /* \"#utility.yul\":11289:11295   */\n      dup3\n        /* \"#utility.yul\":11278:11287   */\n      dup9\n        /* \"#utility.yul\":11274:11296   */\n      add\n        /* \"#utility.yul\":11243:11306   */\n      tag_206\n      jump\t// in\n    tag_354:\n        /* \"#utility.yul\":11233:11306   */\n      swap3\n      pop\n        /* \"#utility.yul\":11028:11316   */\n      pop\n        /* \"#utility.yul\":11383:11385   */\n      0x60\n        /* \"#utility.yul\":11372:11381   */\n      dup6\n        /* \"#utility.yul\":11368:11386   */\n      add\n        /* \"#utility.yul\":11355:11387   */\n      calldataload\n        /* \"#utility.yul\":11414:11432   */\n      0xffffffffffffffff\n        /* \"#utility.yul\":11406:11412   */\n      dup2\n        /* \"#utility.yul\":11403:11433   */\n      gt\n        /* \"#utility.yul\":11400:11517   */\n      iszero\n      tag_355\n      jumpi\n        /* \"#utility.yul\":11436:11515   */\n      tag_356\n      tag_196\n      jump\t// in\n    tag_356:\n        /* \"#utility.yul\":11400:11517   */\n    tag_355:\n        /* \"#utility.yul\":11541:11604   */\n      tag_357\n        /* \"#utility.yul\":11596:11603   */\n      dup8\n        /* \"#utility.yul\":11587:11593   */\n      dup3\n        /* \"#utility.yul\":11576:11585   */\n      dup9\n        /* \"#utility.yul\":11572:11594   */\n      add\n        /* \"#utility.yul\":11541:11604   */\n      tag_206\n      jump\t// in\n    tag_357:\n        /* \"#utility.yul\":11531:11604   */\n      swap2\n      pop\n        /* \"#utility.yul\":11326:11614   */\n      pop\n        /* \"#utility.yul\":10136:11621   */\n      swap3\n      swap6\n      swap2\n      swap5\n      pop\n      swap3\n      pop\n      jump\t// out\n        /* \"#utility.yul\":11627:11726   */\n    tag_217:\n        /* \"#utility.yul\":11679:11685   */\n      0x00\n        /* \"#utility.yul\":11713:11718   */\n      dup2\n        /* \"#utility.yul\":11707:11719   */\n      mload\n        /* \"#utility.yul\":11697:11719   */\n      swap1\n      pop\n        /* \"#utility.yul\":11627:11726   */\n      swap2\n      swap1\n      pop\n      jump\t// out\n        /* \"#utility.yul\":11732:11901   */\n    tag_218:\n        /* \"#utility.yul\":11816:11827   */\n      0x00\n        /* \"#utility.yul\":11850:11856   */\n      dup3\n        /* \"#utility.yul\":11845:11848   */\n      dup3\n        /* \"#utility.yul\":11838:11857   */\n      mstore\n        /* \"#utility.yul\":11890:11894   */\n      0x20\n        /* \"#utility.yul\":11885:11888   */\n      dup3\n        /* \"#utility.yul\":11881:11895   */\n      add\n        /* \"#utility.yul\":11866:11895   */\n      swap1\n      pop\n        /* \"#utility.yul\":11732:11901   */\n      swap3\n      swap2\n      pop\n      pop\n      jump\t// out\n        /* \"#utility.yul\":11907:12153   */\n    tag_219:\n        /* \"#utility.yul\":11988:11989   */\n      0x00\n        /* \"#utility.yul\":11998:12111   */\n    tag_361:\n        /* \"#utility.yul\":12012:12018   */\n      dup4\n        /* \"#utility.yul\":12009:12010   */\n      dup2\n        /* \"#utility.yul\":12006:12019   */\n      lt\n        /* \"#utility.yul\":11998:12111   */\n      iszero\n      tag_363\n      jumpi\n        /* \"#utility.yul\":12097:12098   */\n      dup1\n        /* \"#utility.yul\":12092:12095   */\n      dup3\n        /* \"#utility.yul\":12088:12099   */\n      add\n        /* \"#utility.yul\":12082:12100   */\n      mload\n        /* \"#utility.yul\":12078:12079   */\n      dup2\n        /* \"#utility.yul\":12073:12076   */\n      dup5\n        /* \"#utility.yul\":12069:12080   */\n      add\n        /* \"#utility.yul\":12062:12101   */\n      mstore\n        /* \"#utility.yul\":12034:12036   */\n      0x20\n        /* \"#utility.yul\":12031:12032   */\n      dup2\n        /* \"#utility.yul\":12027:12037   */\n      add\n        /* \"#utility.yul\":12022:12037   */\n      swap1\n      pop\n        /* \"#utility.yul\":11998:12111   */\n      jump(tag_361)\n    tag_363:\n        /* \"#utility.yul\":12145:12146   */\n      0x00\n        /* \"#utility.yul\":12136:12142   */\n      dup5\n        /* \"#utility.yul\":12131:12134   */\n      dup5\n        /* \"#utility.yul\":12127:12143   */\n      add\n        /* \"#utility.yul\":12120:12147   */\n      mstore\n        /* \"#utility.yul\":11969:12153   */\n      pop\n        /* \"#utility.yul\":11907:12153   */\n      pop\n      pop\n      pop\n      jump\t// out\n        /* \"#utility.yul\":12159:12536   */\n    tag_220:\n        /* \"#utility.yul\":12247:12250   */\n      0x00\n        /* \"#utility.yul\":12275:12314   */\n      tag_365\n        /* \"#utility.yul\":12308:12313   */\n      dup3\n        /* \"#utility.yul\":12275:12314   */\n      tag_217\n      jump\t// in\n    tag_365:\n        /* \"#utility.yul\":12330:12401   */\n      tag_366\n        /* \"#utility.yul\":12394:12400   */\n      dup2\n        /* \"#utility.yul\":12389:12392   */\n      dup6\n        /* \"#utility.yul\":12330:12401   */\n      tag_218\n      jump\t// in\n    tag_366:\n        /* \"#utility.yul\":12323:12401   */\n      swap4\n      pop\n        /* \"#utility.yul\":12410:12475   */\n      tag_367\n        /* \"#utility.yul\":12468:12474   */\n      dup2\n        /* \"#utility.yul\":12463:12466   */\n      dup6\n        /* \"#utility.yul\":12456:12460   */\n      0x20\n        /* \"#utility.yul\":12449:12454   */\n      dup7\n        /* \"#utility.yul\":12445:12461   */\n      add\n        /* \"#utility.yul\":12410:12475   */\n      tag_219\n      jump\t// in\n    tag_367:\n        /* \"#utility.yul\":12500:12529   */\n      tag_368\n        /* \"#utility.yul\":12522:12528   */\n      dup2\n        /* \"#utility.yul\":12500:12529   */\n      tag_199\n      jump\t// in\n    tag_368:\n        /* \"#utility.yul\":12495:12498   */\n      dup5\n        /* \"#utility.yul\":12491:12530   */\n      add\n        /* \"#utility.yul\":12484:12530   */\n      swap2\n      pop\n        /* \"#utility.yul\":12251:12536   */\n      pop\n        /* \"#utility.yul\":12159:12536   */\n      swap3\n      swap2\n      pop\n      pop\n      jump\t// out\n        /* \"#utility.yul\":12542:12855   */\n    tag_83:\n        /* \"#utility.yul\":12655:12659   */\n      0x00\n        /* \"#utility.yul\":12693:12695   */\n      0x20\n        /* \"#utility.yul\":12682:12691   */\n      dup3\n        /* \"#utility.yul\":12678:12696   */\n      add\n        /* \"#utility.yul\":12670:12696   */\n      swap1\n      pop\n        /* \"#utility.yul\":12742:12751   */\n      dup2\n        /* \"#utility.yul\":12736:12740   */\n      dup2\n        /* \"#utility.yul\":12732:12752   */\n      sub\n        /* \"#utility.yul\":12728:12729   */\n      0x00\n        /* \"#utility.yul\":12717:12726   */\n      dup4\n        /* \"#utility.yul\":12713:12730   */\n      add\n        /* \"#utility.yul\":12706:12753   */\n      mstore\n        /* \"#utility.yul\":12770:12848   */\n      tag_370\n        /* \"#utility.yul\":12843:12847   */\n      dup2\n        /* \"#utility.yul\":12834:12840   */\n      dup5\n        /* \"#utility.yul\":12770:12848   */\n      tag_220\n      jump\t// in\n    tag_370:\n        /* \"#utility.yul\":12762:12848   */\n      swap1\n      pop\n        /* \"#utility.yul\":12542:12855   */\n      swap3\n      swap2\n      pop\n      pop\n      jump\t// out\n        /* \"#utility.yul\":12861:13840   */\n    tag_86:\n        /* \"#utility.yul\":12958:12964   */\n      0x00\n        /* \"#utility.yul\":12966:12972   */\n      dup1\n        /* \"#utility.yul\":12974:12980   */\n      0x00\n        /* \"#utility.yul\":13023:13025   */\n      0x60\n        /* \"#utility.yul\":13011:13020   */\n      dup5\n        /* \"#utility.yul\":13002:13009   */\n      dup7\n        /* \"#utility.yul\":12998:13021   */\n      sub\n        /* \"#utility.yul\":12994:13026   */\n      slt\n        /* \"#utility.yul\":12991:13110   */\n      iszero\n      tag_372\n      jumpi\n        /* \"#utility.yul\":13029:13108   */\n      tag_373\n      tag_195\n      jump\t// in\n    tag_373:\n        /* \"#utility.yul\":12991:13110   */\n    tag_372:\n        /* \"#utility.yul\":13177:13178   */\n      0x00\n        /* \"#utility.yul\":13166:13175   */\n      dup5\n        /* \"#utility.yul\":13162:13179   */\n      add\n        /* \"#utility.yul\":13149:13180   */\n      calldataload\n        /* \"#utility.yul\":13207:13225   */\n      0xffffffffffffffff\n        /* \"#utility.yul\":13199:13205   */\n      dup2\n        /* \"#utility.yul\":13196:13226   */\n      gt\n        /* \"#utility.yul\":13193:13310   */\n      iszero\n      tag_374\n      jumpi\n        /* \"#utility.yul\":13229:13308   */\n      tag_375\n      tag_196\n      jump\t// in\n    tag_375:\n        /* \"#utility.yul\":13193:13310   */\n    tag_374:\n        /* \"#utility.yul\":13334:13397   */\n      tag_376\n        /* \"#utility.yul\":13389:13396   */\n      dup7\n        /* \"#utility.yul\":13380:13386   */\n      dup3\n        /* \"#utility.yul\":13369:13378   */\n      dup8\n        /* \"#utility.yul\":13365:13387   */\n      add\n        /* \"#utility.yul\":13334:13397   */\n      tag_206\n      jump\t// in\n    tag_376:\n        /* \"#utility.yul\":13324:13397   */\n      swap4\n      pop\n        /* \"#utility.yul\":13120:13407   */\n      pop\n        /* \"#utility.yul\":13446:13448   */\n      0x20\n        /* \"#utility.yul\":13472:13525   */\n      tag_377\n        /* \"#utility.yul\":13517:13524   */\n      dup7\n        /* \"#utility.yul\":13508:13514   */\n      dup3\n        /* \"#utility.yul\":13497:13506   */\n      dup8\n        /* \"#utility.yul\":13493:13515   */\n      add\n        /* \"#utility.yul\":13472:13525   */\n      tag_216\n      jump\t// in\n    tag_377:\n        /* \"#utility.yul\":13462:13525   */\n      swap3\n      pop\n        /* \"#utility.yul\":13417:13535   */\n      pop\n        /* \"#utility.yul\":13602:13604   */\n      0x40\n        /* \"#utility.yul\":13591:13600   */\n      dup5\n        /* \"#utility.yul\":13587:13605   */\n      add\n        /* \"#utility.yul\":13574:13606   */\n      calldataload\n        /* \"#utility.yul\":13633:13651   */\n      0xffffffffffffffff\n        /* \"#utility.yul\":13625:13631   */\n      dup2\n        /* \"#utility.yul\":13622:13652   */\n      gt\n        /* \"#utility.yul\":13619:13736   */\n      iszero\n      tag_378\n      jumpi\n        /* \"#utility.yul\":13655:13734   */\n      tag_379\n      tag_196\n      jump\t// in\n    tag_379:\n        /* \"#utility.yul\":13619:13736   */\n    tag_378:\n        /* \"#utility.yul\":13760:13823   */\n      tag_380\n        /* \"#utility.yul\":13815:13822   */\n      dup7\n        /* \"#utility.yul\":13806:13812   */\n      dup3\n        /* \"#utility.yul\":13795:13804   */\n      dup8\n        /* \"#utility.yul\":13791:13813   */\n      add\n        /* \"#utility.yul\":13760:13823   */\n      tag_206\n      jump\t// in\n    tag_380:\n        /* \"#utility.yul\":13750:13823   */\n      swap2\n      pop\n        /* \"#utility.yul\":13545:13833   */\n      pop\n        /* \"#utility.yul\":12861:13840   */\n      swap3\n      pop\n      swap3\n      pop\n      swap3\n      jump\t// out\n        /* \"#utility.yul\":13846:13993   */\n    tag_221:\n        /* \"#utility.yul\":13917:13926   */\n      0x00\n        /* \"#utility.yul\":13950:13987   */\n      tag_382\n        /* \"#utility.yul\":13981:13986   */\n      dup3\n        /* \"#utility.yul\":13950:13987   */\n      tag_212\n      jump\t// in\n    tag_382:\n        /* \"#utility.yul\":13937:13987   */\n      swap1\n      pop\n        /* \"#utility.yul\":13846:13993   */\n      swap2\n      swap1\n      pop\n      jump\t// out\n        /* \"#utility.yul\":13999:14172   */\n    tag_222:\n        /* \"#utility.yul\":14107:14165   */\n      tag_384\n        /* \"#utility.yul\":14159:14164   */\n      dup2\n        /* \"#utility.yul\":14107:14165   */\n      tag_221\n      jump\t// in\n    tag_384:\n        /* \"#utility.yul\":14102:14105   */\n      dup3\n        /* \"#utility.yul\":14095:14166   */\n      mstore\n        /* \"#utility.yul\":13999:14172   */\n      pop\n      pop\n      jump\t// out\n        /* \"#utility.yul\":14178:14442   */\n    tag_92:\n        /* \"#utility.yul\":14292:14296   */\n      0x00\n        /* \"#utility.yul\":14330:14332   */\n      0x20\n        /* \"#utility.yul\":14319:14328   */\n      dup3\n        /* \"#utility.yul\":14315:14333   */\n      add\n        /* \"#utility.yul\":14307:14333   */\n      swap1\n      pop\n        /* \"#utility.yul\":14343:14435   */\n      tag_386\n        /* \"#utility.yul\":14432:14433   */\n      0x00\n        /* \"#utility.yul\":14421:14430   */\n      dup4\n        /* \"#utility.yul\":14417:14434   */\n      add\n        /* \"#utility.yul\":14408:14414   */\n      dup5\n        /* \"#utility.yul\":14343:14435   */\n      tag_222\n      jump\t// in\n    tag_386:\n        /* \"#utility.yul\":14178:14442   */\n      swap3\n      swap2\n      pop\n      pop\n      jump\t// out\n        /* \"#utility.yul\":14448:14596   */\n    tag_223:\n        /* \"#utility.yul\":14550:14561   */\n      0x00\n        /* \"#utility.yul\":14587:14590   */\n      dup2\n        /* \"#utility.yul\":14572:14590   */\n      swap1\n      pop\n        /* \"#utility.yul\":14448:14596   */\n      swap3\n      swap2\n      pop\n      pop\n      jump\t// out\n        /* \"#utility.yul\":14602:14992   */\n    tag_224:\n        /* \"#utility.yul\":14708:14711   */\n      0x00\n        /* \"#utility.yul\":14736:14775   */\n      tag_389\n        /* \"#utility.yul\":14769:14774   */\n      dup3\n        /* \"#utility.yul\":14736:14775   */\n      tag_217\n      jump\t// in\n    tag_389:\n        /* \"#utility.yul\":14791:14880   */\n      tag_390\n        /* \"#utility.yul\":14873:14879   */\n      dup2\n        /* \"#utility.yul\":14868:14871   */\n      dup6\n        /* \"#utility.yul\":14791:14880   */\n      tag_223\n      jump\t// in\n    tag_390:\n        /* \"#utility.yul\":14784:14880   */\n      swap4\n      pop\n        /* \"#utility.yul\":14889:14954   */\n      tag_391\n        /* \"#utility.yul\":14947:14953   */\n      dup2\n        /* \"#utility.yul\":14942:14945   */\n      dup6\n        /* \"#utility.yul\":14935:14939   */\n      0x20\n        /* \"#utility.yul\":14928:14933   */\n      dup7\n        /* \"#utility.yul\":14924:14940   */\n      add\n        /* \"#utility.yul\":14889:14954   */\n      tag_219\n      jump\t// in\n    tag_391:\n        /* \"#utility.yul\":14979:14985   */\n      dup1\n        /* \"#utility.yul\":14974:14977   */\n      dup5\n        /* \"#utility.yul\":14970:14986   */\n      add\n        /* \"#utility.yul\":14963:14986   */\n      swap2\n      pop\n        /* \"#utility.yul\":14712:14992   */\n      pop\n        /* \"#utility.yul\":14602:14992   */\n      swap3\n      swap2\n      pop\n      pop\n      jump\t// out\n        /* \"#utility.yul\":14998:15273   */\n    tag_99:\n        /* \"#utility.yul\":15130:15133   */\n      0x00\n        /* \"#utility.yul\":15152:15247   */\n      tag_393\n        /* \"#utility.yul\":15243:15246   */\n      dup3\n        /* \"#utility.yul\":15234:15240   */\n      dup5\n        /* \"#utility.yul\":15152:15247   */\n      tag_224\n      jump\t// in\n    tag_393:\n        /* \"#utility.yul\":15145:15247   */\n      swap2\n      pop\n        /* \"#utility.yul\":15264:15267   */\n      dup2\n        /* \"#utility.yul\":15257:15267   */\n      swap1\n      pop\n        /* \"#utility.yul\":14998:15273   */\n      swap3\n      swap2\n      pop\n      pop\n      jump\t// out\n        /* \"#utility.yul\":15279:15422   */\n    tag_225:\n        /* \"#utility.yul\":15336:15341   */\n      0x00\n        /* \"#utility.yul\":15367:15373   */\n      dup2\n        /* \"#utility.yul\":15361:15374   */\n      mload\n        /* \"#utility.yul\":15352:15374   */\n      swap1\n      pop\n        /* \"#utility.yul\":15383:15416   */\n      tag_395\n        /* \"#utility.yul\":15410:15415   */\n      dup2\n        /* \"#utility.yul\":15383:15416   */\n      tag_215\n      jump\t// in\n    tag_395:\n        /* \"#utility.yul\":15279:15422   */\n      swap3\n      swap2\n      pop\n      pop\n      jump\t// out\n        /* \"#utility.yul\":15428:15779   */\n    tag_103:\n        /* \"#utility.yul\":15498:15504   */\n      0x00\n        /* \"#utility.yul\":15547:15549   */\n      0x20\n        /* \"#utility.yul\":15535:15544   */\n      dup3\n        /* \"#utility.yul\":15526:15533   */\n      dup5\n        /* \"#utility.yul\":15522:15545   */\n      sub\n        /* \"#utility.yul\":15518:15550   */\n      slt\n        /* \"#utility.yul\":15515:15634   */\n      iszero\n      tag_397\n      jumpi\n        /* \"#utility.yul\":15553:15632   */\n      tag_398\n      tag_195\n      jump\t// in\n    tag_398:\n        /* \"#utility.yul\":15515:15634   */\n    tag_397:\n        /* \"#utility.yul\":15673:15674   */\n      0x00\n        /* \"#utility.yul\":15698:15762   */\n      tag_399\n        /* \"#utility.yul\":15754:15761   */\n      dup5\n        /* \"#utility.yul\":15745:15751   */\n      dup3\n        /* \"#utility.yul\":15734:15743   */\n      dup6\n        /* \"#utility.yul\":15730:15752   */\n      add\n        /* \"#utility.yul\":15698:15762   */\n      tag_225\n      jump\t// in\n    tag_399:\n        /* \"#utility.yul\":15688:15762   */\n      swap2\n      pop\n        /* \"#utility.yul\":15644:15772   */\n      pop\n        /* \"#utility.yul\":15428:15779   */\n      swap3\n      swap2\n      pop\n      pop\n      jump\t// out\n        /* \"#utility.yul\":15785:15958   */\n    tag_226:\n        /* \"#utility.yul\":15925:15950   */\n      0x4d75737420737570706c792066616d696c79206e616d65000000000000000000\n        /* \"#utility.yul\":15921:15922   */\n      0x00\n        /* \"#utility.yul\":15913:15919   */\n      dup3\n        /* \"#utility.yul\":15909:15923   */\n      add\n        /* \"#utility.yul\":15902:15951   */\n      mstore\n        /* \"#utility.yul\":15785:15958   */\n      pop\n      jump\t// out\n        /* \"#utility.yul\":15964:16330   */\n    tag_227:\n        /* \"#utility.yul\":16106:16109   */\n      0x00\n        /* \"#utility.yul\":16127:16194   */\n      tag_402\n        /* \"#utility.yul\":16191:16193   */\n      0x17\n        /* \"#utility.yul\":16186:16189   */\n      dup4\n        /* \"#utility.yul\":16127:16194   */\n      tag_218\n      jump\t// in\n    tag_402:\n        /* \"#utility.yul\":16120:16194   */\n      swap2\n      pop\n        /* \"#utility.yul\":16203:16296   */\n      tag_403\n        /* \"#utility.yul\":16292:16295   */\n      dup3\n        /* \"#utility.yul\":16203:16296   */\n      tag_226\n      jump\t// in\n    tag_403:\n        /* \"#utility.yul\":16321:16323   */\n      0x20\n        /* \"#utility.yul\":16316:16319   */\n      dup3\n        /* \"#utility.yul\":16312:16324   */\n      add\n        /* \"#utility.yul\":16305:16324   */\n      swap1\n      pop\n        /* \"#utility.yul\":15964:16330   */\n      swap2\n      swap1\n      pop\n      jump\t// out\n        /* \"#utility.yul\":16336:16755   */\n    tag_107:\n        /* \"#utility.yul\":16502:16506   */\n      0x00\n        /* \"#utility.yul\":16540:16542   */\n      0x20\n        /* \"#utility.yul\":16529:16538   */\n      dup3\n        /* \"#utility.yul\":16525:16543   */\n      add\n        /* \"#utility.yul\":16517:16543   */\n      swap1\n      pop\n        /* \"#utility.yul\":16589:16598   */\n      dup2\n        /* \"#utility.yul\":16583:16587   */\n      dup2\n        /* \"#utility.yul\":16579:16599   */\n      sub\n        /* \"#utility.yul\":16575:16576   */\n      0x00\n        /* \"#utility.yul\":16564:16573   */\n      dup4\n        /* \"#utility.yul\":16560:16577   */\n      add\n        /* \"#utility.yul\":16553:16600   */\n      mstore\n        /* \"#utility.yul\":16617:16748   */\n      tag_405\n        /* \"#utility.yul\":16743:16747   */\n      dup2\n        /* \"#utility.yul\":16617:16748   */\n      tag_227\n      jump\t// in\n    tag_405:\n        /* \"#utility.yul\":16609:16748   */\n      swap1\n      pop\n        /* \"#utility.yul\":16336:16755   */\n      swap2\n      swap1\n      pop\n      jump\t// out\n        /* \"#utility.yul\":16761:16941   */\n    tag_116:\n        /* \"#utility.yul\":16809:16886   */\n      0x4e487b7100000000000000000000000000000000000000000000000000000000\n        /* \"#utility.yul\":16806:16807   */\n      0x00\n        /* \"#utility.yul\":16799:16887   */\n      mstore\n        /* \"#utility.yul\":16906:16910   */\n      0x32\n        /* \"#utility.yul\":16903:16904   */\n      0x04\n        /* \"#utility.yul\":16896:16911   */\n      mstore\n        /* \"#utility.yul\":16930:16934   */\n      0x24\n        /* \"#utility.yul\":16927:16928   */\n      0x00\n        /* \"#utility.yul\":16920:16935   */\n      revert\n        /* \"#utility.yul\":16947:17461   */\n    tag_142:\n        /* \"#utility.yul\":17108:17112   */\n      0x00\n        /* \"#utility.yul\":17146:17148   */\n      0x40\n        /* \"#utility.yul\":17135:17144   */\n      dup3\n        /* \"#utility.yul\":17131:17149   */\n      add\n        /* \"#utility.yul\":17123:17149   */\n      swap1\n      pop\n        /* \"#utility.yul\":17195:17204   */\n      dup2\n        /* \"#utility.yul\":17189:17193   */\n      dup2\n        /* \"#utility.yul\":17185:17205   */\n      sub\n        /* \"#utility.yul\":17181:17182   */\n      0x00\n        /* \"#utility.yul\":17170:17179   */\n      dup4\n        /* \"#utility.yul\":17166:17183   */\n      add\n        /* \"#utility.yul\":17159:17206   */\n      mstore\n        /* \"#utility.yul\":17223:17301   */\n      tag_408\n        /* \"#utility.yul\":17296:17300   */\n      dup2\n        /* \"#utility.yul\":17287:17293   */\n      dup6\n        /* \"#utility.yul\":17223:17301   */\n      tag_220\n      jump\t// in\n    tag_408:\n        /* \"#utility.yul\":17215:17301   */\n      swap1\n      pop\n        /* \"#utility.yul\":17348:17357   */\n      dup2\n        /* \"#utility.yul\":17342:17346   */\n      dup2\n        /* \"#utility.yul\":17338:17358   */\n      sub\n        /* \"#utility.yul\":17333:17335   */\n      0x20\n        /* \"#utility.yul\":17322:17331   */\n      dup4\n        /* \"#utility.yul\":17318:17336   */\n      add\n        /* \"#utility.yul\":17311:17359   */\n      mstore\n        /* \"#utility.yul\":17376:17454   */\n      tag_409\n        /* \"#utility.yul\":17449:17453   */\n      dup2\n        /* \"#utility.yul\":17440:17446   */\n      dup5\n        /* \"#utility.yul\":17376:17454   */\n      tag_220\n      jump\t// in\n    tag_409:\n        /* \"#utility.yul\":17368:17454   */\n      swap1\n      pop\n        /* \"#utility.yul\":16947:17461   */\n      swap4\n      swap3\n      pop\n      pop\n      pop\n      jump\t// out\n        /* \"#utility.yul\":17467:17890   */\n    tag_174:\n        /* \"#utility.yul\":17608:17612   */\n      0x00\n        /* \"#utility.yul\":17646:17648   */\n      0x40\n        /* \"#utility.yul\":17635:17644   */\n      dup3\n        /* \"#utility.yul\":17631:17649   */\n      add\n        /* \"#utility.yul\":17623:17649   */\n      swap1\n      pop\n        /* \"#utility.yul\":17659:17730   */\n      tag_411\n        /* \"#utility.yul\":17727:17728   */\n      0x00\n        /* \"#utility.yul\":17716:17725   */\n      dup4\n        /* \"#utility.yul\":17712:17729   */\n      add\n        /* \"#utility.yul\":17703:17709   */\n      dup6\n        /* \"#utility.yul\":17659:17730   */\n      tag_208\n      jump\t// in\n    tag_411:\n        /* \"#utility.yul\":17777:17786   */\n      dup2\n        /* \"#utility.yul\":17771:17775   */\n      dup2\n        /* \"#utility.yul\":17767:17787   */\n      sub\n        /* \"#utility.yul\":17762:17764   */\n      0x20\n        /* \"#utility.yul\":17751:17760   */\n      dup4\n        /* \"#utility.yul\":17747:17765   */\n      add\n        /* \"#utility.yul\":17740:17788   */\n      mstore\n        /* \"#utility.yul\":17805:17883   */\n      tag_412\n        /* \"#utility.yul\":17878:17882   */\n      dup2\n        /* \"#utility.yul\":17869:17875   */\n      dup5\n        /* \"#utility.yul\":17805:17883   */\n      tag_220\n      jump\t// in\n    tag_412:\n        /* \"#utility.yul\":17797:17883   */\n      swap1\n      pop\n        /* \"#utility.yul\":17467:17890   */\n      swap4\n      swap3\n      pop\n      pop\n      pop\n      jump\t// out\n    stop\n\n    sub_0: assembly {\n            /* \"contracts/Lesson 3/MySimpleStorage.sol\":60:1083  contract MySimpleStorage {... */\n          mstore(0x40, 0x80)\n          callvalue\n          dup1\n          iszero\n          tag_1\n          jumpi\n          0x00\n          dup1\n          revert\n        tag_1:\n          pop\n          dataSize(sub_0)\n          dup1\n          dataOffset(sub_0)\n          0x00\n          codecopy\n          0x00\n          return\n        stop\n\n        sub_0: assembly {\n                /* \"contracts/Lesson 3/MySimpleStorage.sol\":60:1083  contract MySimpleStorage {... */\n              mstore(0x40, 0x80)\n              callvalue\n              dup1\n              iszero\n              tag_1\n              jumpi\n              0x00\n              dup1\n              revert\n            tag_1:\n              pop\n              jumpi(tag_2, lt(calldatasize, 0x04))\n              shr(0xe0, calldataload(0x00))\n              dup1\n              0x35e317f3\n              eq\n              tag_3\n              jumpi\n              dup1\n              0x54bfa6a4\n              eq\n              tag_4\n              jumpi\n              dup1\n              0x7b4cd9eb\n              eq\n              tag_5\n              jumpi\n              dup1\n              0xf52aee1d\n              eq\n              tag_6\n              jumpi\n              dup1\n              0xfc782c9f\n              eq\n              tag_7\n              jumpi\n            tag_2:\n              0x00\n              dup1\n              revert\n                /* \"contracts/Lesson 3/MySimpleStorage.sol\":312:469  function newPerson(uint256 _favoriteNumber, string memory _name) public  {... */\n            tag_3:\n              tag_8\n              0x04\n              dup1\n              calldatasize\n              sub\n              dup2\n              add\n              swap1\n              tag_9\n              swap2\n              swap1\n              tag_10\n              jump\t// in\n            tag_9:\n              tag_11\n              jump\t// in\n            tag_8:\n              stop\n                /* \"contracts/Lesson 3/MySimpleStorage.sol\":627:846  function addTwoPeopleFavoriteNumbers(string memory _firstName, string memory _secondName) public view returns(uint256) {... */\n            tag_4:\n              tag_12\n              0x04\n              dup1\n              calldatasize\n              sub\n              dup2\n              add\n              swap1\n              tag_13\n              swap2\n              swap1\n              tag_14\n              jump\t// in\n            tag_13:\n              tag_15\n              jump\t// in\n            tag_12:\n              mload(0x40)\n              tag_16\n              swap2\n              swap1\n              tag_17\n              jump\t// in\n            tag_16:\n              mload(0x40)\n              dup1\n              swap2\n              sub\n              swap1\n              return\n                /* \"contracts/Lesson 3/MySimpleStorage.sol\":477:619  function getPersonFavoriteNumber(string memory _name) personExists(_name) public view returns(uint256) {... */\n            tag_5:\n              tag_18\n              0x04\n              dup1\n              calldatasize\n              sub\n              dup2\n              add\n              swap1\n              tag_19\n              swap2\n              swap1\n              tag_20\n              jump\t// in\n            tag_19:\n              tag_21\n              jump\t// in\n            tag_18:\n              mload(0x40)\n              tag_22\n              swap2\n              swap1\n              tag_17\n              jump\t// in\n            tag_22:\n              mload(0x40)\n              dup1\n              swap2\n              sub\n              swap1\n              return\n                /* \"contracts/Lesson 3/MySimpleStorage.sol\":136:163  string[] public listOfNames */\n            tag_6:\n              tag_23\n              0x04\n              dup1\n              calldatasize\n              sub\n              dup2\n              add\n              swap1\n              tag_24\n              swap2\n              swap1\n              tag_25\n              jump\t// in\n            tag_24:\n              tag_26\n              jump\t// in\n            tag_23:\n              mload(0x40)\n              tag_27\n              swap2\n              swap1\n              tag_28\n              jump\t// in\n            tag_27:\n              mload(0x40)\n              dup1\n              swap2\n              sub\n              swap1\n              return\n                /* \"contracts/Lesson 3/MySimpleStorage.sol\":854:1080  function sumOfFavoriteNumbers() public view returns(uint256) {... */\n            tag_7:\n              tag_29\n              tag_30\n              jump\t// in\n            tag_29:\n              mload(0x40)\n              tag_31\n              swap2\n              swap1\n              tag_17\n              jump\t// in\n            tag_31:\n              mload(0x40)\n              dup1\n              swap2\n              sub\n              swap1\n              return\n                /* \"contracts/Lesson 3/MySimpleStorage.sol\":312:469  function newPerson(uint256 _favoriteNumber, string memory _name) public  {... */\n            tag_11:\n                /* \"contracts/Lesson 3/MySimpleStorage.sol\":412:427  _favoriteNumber */\n              dup2\n                /* \"contracts/Lesson 3/MySimpleStorage.sol\":396:402  people */\n              0x00\n                /* \"contracts/Lesson 3/MySimpleStorage.sol\":403:408  _name */\n              dup3\n                /* \"contracts/Lesson 3/MySimpleStorage.sol\":396:409  people[_name] */\n              mload(0x40)\n              tag_33\n              swap2\n              swap1\n              tag_34\n              jump\t// in\n            tag_33:\n              swap1\n              dup2\n              mstore\n              0x20\n              add\n              mload(0x40)\n              dup1\n              swap2\n              sub\n              swap1\n              keccak256\n                /* \"contracts/Lesson 3/MySimpleStorage.sol\":396:427  people[_name] = _favoriteNumber */\n              dup2\n              swap1\n              sstore\n              pop\n                /* \"contracts/Lesson 3/MySimpleStorage.sol\":438:449  listOfNames */\n              0x01\n                /* \"contracts/Lesson 3/MySimpleStorage.sol\":455:460  _name */\n              dup2\n                /* \"contracts/Lesson 3/MySimpleStorage.sol\":438:461  listOfNames.push(_name) */\n              swap1\n              dup1\n              0x01\n              dup2\n              sload\n              add\n              dup1\n              dup3\n              sstore\n              dup1\n              swap2\n              pop\n              pop\n              0x01\n              swap1\n              sub\n              swap1\n              0x00\n              mstore\n              keccak256(0x00, 0x20)\n              add\n              0x00\n              swap1\n              swap2\n              swap1\n              swap2\n              swap1\n              swap2\n              pop\n              swap1\n              dup2\n              tag_36\n              swap2\n              swap1\n              tag_37\n              jump\t// in\n            tag_36:\n              pop\n                /* \"contracts/Lesson 3/MySimpleStorage.sol\":312:469  function newPerson(uint256 _favoriteNumber, string memory _name) public  {... */\n              pop\n              pop\n              jump\t// out\n                /* \"contracts/Lesson 3/MySimpleStorage.sol\":627:846  function addTwoPeopleFavoriteNumbers(string memory _firstName, string memory _secondName) public view returns(uint256) {... */\n            tag_15:\n                /* \"contracts/Lesson 3/MySimpleStorage.sol\":737:744  uint256 */\n              0x00\n                /* \"contracts/Lesson 3/MySimpleStorage.sol\":802:838  getPersonFavoriteNumber(_secondName) */\n              tag_39\n                /* \"contracts/Lesson 3/MySimpleStorage.sol\":826:837  _secondName */\n              dup3\n                /* \"contracts/Lesson 3/MySimpleStorage.sol\":802:825  getPersonFavoriteNumber */\n              tag_21\n                /* \"contracts/Lesson 3/MySimpleStorage.sol\":802:838  getPersonFavoriteNumber(_secondName) */\n              jump\t// in\n            tag_39:\n                /* \"contracts/Lesson 3/MySimpleStorage.sol\":764:799  getPersonFavoriteNumber(_firstName) */\n              tag_40\n                /* \"contracts/Lesson 3/MySimpleStorage.sol\":788:798  _firstName */\n              dup5\n                /* \"contracts/Lesson 3/MySimpleStorage.sol\":764:787  getPersonFavoriteNumber */\n              tag_21\n                /* \"contracts/Lesson 3/MySimpleStorage.sol\":764:799  getPersonFavoriteNumber(_firstName) */\n              jump\t// in\n            tag_40:\n                /* \"contracts/Lesson 3/MySimpleStorage.sol\":764:838  getPersonFavoriteNumber(_firstName) + getPersonFavoriteNumber(_secondName) */\n              tag_41\n              swap2\n              swap1\n              tag_42\n              jump\t// in\n            tag_41:\n                /* \"contracts/Lesson 3/MySimpleStorage.sol\":757:838  return getPersonFavoriteNumber(_firstName) + getPersonFavoriteNumber(_secondName) */\n              swap1\n              pop\n                /* \"contracts/Lesson 3/MySimpleStorage.sol\":627:846  function addTwoPeopleFavoriteNumbers(string memory _firstName, string memory _secondName) public view returns(uint256) {... */\n              swap3\n              swap2\n              pop\n              pop\n              jump\t// out\n                /* \"contracts/Lesson 3/MySimpleStorage.sol\":477:619  function getPersonFavoriteNumber(string memory _name) personExists(_name) public view returns(uint256) {... */\n            tag_21:\n                /* \"contracts/Lesson 3/MySimpleStorage.sol\":571:578  uint256 */\n              0x00\n                /* \"contracts/Lesson 3/MySimpleStorage.sol\":544:549  _name */\n              dup2\n                /* \"contracts/Lesson 3/MySimpleStorage.sol\":251:252  0 */\n              0x00\n                /* \"contracts/Lesson 3/MySimpleStorage.sol\":234:240  people */\n              dup1\n                /* \"contracts/Lesson 3/MySimpleStorage.sol\":241:246  _name */\n              dup3\n                /* \"contracts/Lesson 3/MySimpleStorage.sol\":234:247  people[_name] */\n              mload(0x40)\n              tag_44\n              swap2\n              swap1\n              tag_34\n              jump\t// in\n            tag_44:\n              swap1\n              dup2\n              mstore\n              0x20\n              add\n              mload(0x40)\n              dup1\n              swap2\n              sub\n              swap1\n              keccak256\n              sload\n                /* \"contracts/Lesson 3/MySimpleStorage.sol\":234:252  people[_name] != 0 */\n              sub\n                /* \"contracts/Lesson 3/MySimpleStorage.sol\":226:284  require(people[_name] != 0, \"This person does not exist.\") */\n              tag_45\n              jumpi\n              mload(0x40)\n              0x08c379a000000000000000000000000000000000000000000000000000000000\n              dup2\n              mstore\n              0x04\n              add\n              tag_46\n              swap1\n              tag_47\n              jump\t// in\n            tag_46:\n              mload(0x40)\n              dup1\n              swap2\n              sub\n              swap1\n              revert\n            tag_45:\n                /* \"contracts/Lesson 3/MySimpleStorage.sol\":598:604  people */\n              0x00\n                /* \"contracts/Lesson 3/MySimpleStorage.sol\":605:610  _name */\n              dup4\n                /* \"contracts/Lesson 3/MySimpleStorage.sol\":598:611  people[_name] */\n              mload(0x40)\n              tag_49\n              swap2\n              swap1\n              tag_34\n              jump\t// in\n            tag_49:\n              swap1\n              dup2\n              mstore\n              0x20\n              add\n              mload(0x40)\n              dup1\n              swap2\n              sub\n              swap1\n              keccak256\n              sload\n                /* \"contracts/Lesson 3/MySimpleStorage.sol\":591:611  return people[_name] */\n              swap2\n              pop\n                /* \"contracts/Lesson 3/MySimpleStorage.sol\":477:619  function getPersonFavoriteNumber(string memory _name) personExists(_name) public view returns(uint256) {... */\n              pop\n              swap2\n              swap1\n              pop\n              jump\t// out\n                /* \"contracts/Lesson 3/MySimpleStorage.sol\":136:163  string[] public listOfNames */\n            tag_26:\n              0x01\n              dup2\n              dup2\n              sload\n              dup2\n              lt\n              tag_50\n              jumpi\n              0x00\n              dup1\n              revert\n            tag_50:\n              swap1\n              0x00\n              mstore\n              keccak256(0x00, 0x20)\n              add\n              0x00\n              swap2\n              pop\n              swap1\n              pop\n              dup1\n              sload\n              tag_52\n              swap1\n              tag_53\n              jump\t// in\n            tag_52:\n              dup1\n              0x1f\n              add\n              0x20\n              dup1\n              swap2\n              div\n              mul\n              0x20\n              add\n              mload(0x40)\n              swap1\n              dup2\n              add\n              0x40\n              mstore\n              dup1\n              swap3\n              swap2\n              swap1\n              dup2\n              dup2\n              mstore\n              0x20\n              add\n              dup3\n              dup1\n              sload\n              tag_54\n              swap1\n              tag_53\n              jump\t// in\n            tag_54:\n              dup1\n              iszero\n              tag_55\n              jumpi\n              dup1\n              0x1f\n              lt\n              tag_56\n              jumpi\n              0x0100\n              dup1\n              dup4\n              sload\n              div\n              mul\n              dup4\n              mstore\n              swap2\n              0x20\n              add\n              swap2\n              jump(tag_55)\n            tag_56:\n              dup3\n              add\n              swap2\n              swap1\n              0x00\n              mstore\n              keccak256(0x00, 0x20)\n              swap1\n            tag_57:\n              dup2\n              sload\n              dup2\n              mstore\n              swap1\n              0x01\n              add\n              swap1\n              0x20\n              add\n              dup1\n              dup4\n              gt\n              tag_57\n              jumpi\n              dup3\n              swap1\n              sub\n              0x1f\n              and\n              dup3\n              add\n              swap2\n            tag_55:\n              pop\n              pop\n              pop\n              pop\n              pop\n              dup2\n              jump\t// out\n                /* \"contracts/Lesson 3/MySimpleStorage.sol\":854:1080  function sumOfFavoriteNumbers() public view returns(uint256) {... */\n            tag_30:\n                /* \"contracts/Lesson 3/MySimpleStorage.sol\":906:913  uint256 */\n              0x00\n                /* \"contracts/Lesson 3/MySimpleStorage.sol\":926:937  uint256 sum */\n              dup1\n                /* \"contracts/Lesson 3/MySimpleStorage.sol\":952:961  uint256 i */\n              0x00\n                /* \"contracts/Lesson 3/MySimpleStorage.sol\":948:1052  for(uint256 i = 0; i < listOfNames.length; i++) {... */\n            tag_59:\n                /* \"contracts/Lesson 3/MySimpleStorage.sol\":971:982  listOfNames */\n              0x01\n                /* \"contracts/Lesson 3/MySimpleStorage.sol\":971:989  listOfNames.length */\n              dup1\n              sload\n              swap1\n              pop\n                /* \"contracts/Lesson 3/MySimpleStorage.sol\":967:968  i */\n              dup2\n                /* \"contracts/Lesson 3/MySimpleStorage.sol\":967:989  i < listOfNames.length */\n              lt\n                /* \"contracts/Lesson 3/MySimpleStorage.sol\":948:1052  for(uint256 i = 0; i < listOfNames.length; i++) {... */\n              iszero\n              tag_60\n              jumpi\n                /* \"contracts/Lesson 3/MySimpleStorage.sol\":1018:1024  people */\n              0x00\n                /* \"contracts/Lesson 3/MySimpleStorage.sol\":1025:1036  listOfNames */\n              0x01\n                /* \"contracts/Lesson 3/MySimpleStorage.sol\":1037:1038  i */\n              dup3\n                /* \"contracts/Lesson 3/MySimpleStorage.sol\":1025:1039  listOfNames[i] */\n              dup2\n              sload\n              dup2\n              lt\n              tag_62\n              jumpi\n              tag_63\n              tag_64\n              jump\t// in\n            tag_63:\n            tag_62:\n              swap1\n              0x00\n              mstore\n              keccak256(0x00, 0x20)\n              add\n                /* \"contracts/Lesson 3/MySimpleStorage.sol\":1018:1040  people[listOfNames[i]] */\n              mload(0x40)\n              tag_66\n              swap2\n              swap1\n              tag_67\n              jump\t// in\n            tag_66:\n              swap1\n              dup2\n              mstore\n              0x20\n              add\n              mload(0x40)\n              dup1\n              swap2\n              sub\n              swap1\n              keccak256\n              sload\n                /* \"contracts/Lesson 3/MySimpleStorage.sol\":1011:1040  sum += people[listOfNames[i]] */\n              dup3\n              tag_68\n              swap2\n              swap1\n              tag_42\n              jump\t// in\n            tag_68:\n              swap2\n              pop\n                /* \"contracts/Lesson 3/MySimpleStorage.sol\":991:994  i++ */\n              dup1\n              dup1\n              tag_69\n              swap1\n              tag_70\n              jump\t// in\n            tag_69:\n              swap2\n              pop\n              pop\n                /* \"contracts/Lesson 3/MySimpleStorage.sol\":948:1052  for(uint256 i = 0; i < listOfNames.length; i++) {... */\n              jump(tag_59)\n            tag_60:\n              pop\n                /* \"contracts/Lesson 3/MySimpleStorage.sol\":1069:1072  sum */\n              dup1\n                /* \"contracts/Lesson 3/MySimpleStorage.sol\":1062:1072  return sum */\n              swap2\n              pop\n              pop\n                /* \"contracts/Lesson 3/MySimpleStorage.sol\":854:1080  function sumOfFavoriteNumbers() public view returns(uint256) {... */\n              swap1\n              jump\t// out\n                /* \"#utility.yul\":7:82   */\n            tag_71:\n                /* \"#utility.yul\":40:46   */\n              0x00\n                /* \"#utility.yul\":73:75   */\n              0x40\n                /* \"#utility.yul\":67:76   */\n              mload\n                /* \"#utility.yul\":57:76   */\n              swap1\n              pop\n                /* \"#utility.yul\":7:82   */\n              swap1\n              jump\t// out\n                /* \"#utility.yul\":88:205   */\n            tag_72:\n                /* \"#utility.yul\":197:198   */\n              0x00\n                /* \"#utility.yul\":194:195   */\n              dup1\n                /* \"#utility.yul\":187:199   */\n              revert\n                /* \"#utility.yul\":211:328   */\n            tag_73:\n                /* \"#utility.yul\":320:321   */\n              0x00\n                /* \"#utility.yul\":317:318   */\n              dup1\n                /* \"#utility.yul\":310:322   */\n              revert\n                /* \"#utility.yul\":334:411   */\n            tag_74:\n                /* \"#utility.yul\":371:378   */\n              0x00\n                /* \"#utility.yul\":400:405   */\n              dup2\n                /* \"#utility.yul\":389:405   */\n              swap1\n              pop\n                /* \"#utility.yul\":334:411   */\n              swap2\n              swap1\n              pop\n              jump\t// out\n                /* \"#utility.yul\":417:539   */\n            tag_75:\n                /* \"#utility.yul\":490:514   */\n              tag_120\n                /* \"#utility.yul\":508:513   */\n              dup2\n                /* \"#utility.yul\":490:514   */\n              tag_74\n              jump\t// in\n            tag_120:\n                /* \"#utility.yul\":483:488   */\n              dup2\n                /* \"#utility.yul\":480:515   */\n              eq\n                /* \"#utility.yul\":470:533   */\n              tag_121\n              jumpi\n                /* \"#utility.yul\":529:530   */\n              0x00\n                /* \"#utility.yul\":526:527   */\n              dup1\n                /* \"#utility.yul\":519:531   */\n              revert\n                /* \"#utility.yul\":470:533   */\n            tag_121:\n                /* \"#utility.yul\":417:539   */\n              pop\n              jump\t// out\n                /* \"#utility.yul\":545:684   */\n            tag_76:\n                /* \"#utility.yul\":591:596   */\n              0x00\n                /* \"#utility.yul\":629:635   */\n              dup2\n                /* \"#utility.yul\":616:636   */\n              calldataload\n                /* \"#utility.yul\":607:636   */\n              swap1\n              pop\n                /* \"#utility.yul\":645:678   */\n              tag_123\n                /* \"#utility.yul\":672:677   */\n              dup2\n                /* \"#utility.yul\":645:678   */\n              tag_75\n              jump\t// in\n            tag_123:\n                /* \"#utility.yul\":545:684   */\n              swap3\n              swap2\n              pop\n              pop\n              jump\t// out\n                /* \"#utility.yul\":690:807   */\n            tag_77:\n                /* \"#utility.yul\":799:800   */\n              0x00\n                /* \"#utility.yul\":796:797   */\n              dup1\n                /* \"#utility.yul\":789:801   */\n              revert\n                /* \"#utility.yul\":813:930   */\n            tag_78:\n                /* \"#utility.yul\":922:923   */\n              0x00\n                /* \"#utility.yul\":919:920   */\n              dup1\n                /* \"#utility.yul\":912:924   */\n              revert\n                /* \"#utility.yul\":936:1038   */\n            tag_79:\n                /* \"#utility.yul\":977:983   */\n              0x00\n                /* \"#utility.yul\":1028:1030   */\n              0x1f\n                /* \"#utility.yul\":1024:1031   */\n              not\n                /* \"#utility.yul\":1019:1021   */\n              0x1f\n                /* \"#utility.yul\":1012:1017   */\n              dup4\n                /* \"#utility.yul\":1008:1022   */\n              add\n                /* \"#utility.yul\":1004:1032   */\n              and\n                /* \"#utility.yul\":994:1032   */\n              swap1\n              pop\n                /* \"#utility.yul\":936:1038   */\n              swap2\n              swap1\n              pop\n              jump\t// out\n                /* \"#utility.yul\":1044:1224   */\n            tag_80:\n                /* \"#utility.yul\":1092:1169   */\n              0x4e487b7100000000000000000000000000000000000000000000000000000000\n                /* \"#utility.yul\":1089:1090   */\n              0x00\n                /* \"#utility.yul\":1082:1170   */\n              mstore\n                /* \"#utility.yul\":1189:1193   */\n              0x41\n                /* \"#utility.yul\":1186:1187   */\n              0x04\n                /* \"#utility.yul\":1179:1194   */\n              mstore\n                /* \"#utility.yul\":1213:1217   */\n              0x24\n                /* \"#utility.yul\":1210:1211   */\n              0x00\n                /* \"#utility.yul\":1203:1218   */\n              revert\n                /* \"#utility.yul\":1230:1511   */\n            tag_81:\n                /* \"#utility.yul\":1313:1340   */\n              tag_129\n                /* \"#utility.yul\":1335:1339   */\n              dup3\n                /* \"#utility.yul\":1313:1340   */\n              tag_79\n              jump\t// in\n            tag_129:\n                /* \"#utility.yul\":1305:1311   */\n              dup2\n                /* \"#utility.yul\":1301:1341   */\n              add\n                /* \"#utility.yul\":1443:1449   */\n              dup2\n                /* \"#utility.yul\":1431:1441   */\n              dup2\n                /* \"#utility.yul\":1428:1450   */\n              lt\n                /* \"#utility.yul\":1407:1425   */\n              0xffffffffffffffff\n                /* \"#utility.yul\":1395:1405   */\n              dup3\n                /* \"#utility.yul\":1392:1426   */\n              gt\n                /* \"#utility.yul\":1389:1451   */\n              or\n                /* \"#utility.yul\":1386:1474   */\n              iszero\n              tag_130\n              jumpi\n                /* \"#utility.yul\":1454:1472   */\n              tag_131\n              tag_80\n              jump\t// in\n            tag_131:\n                /* \"#utility.yul\":1386:1474   */\n            tag_130:\n                /* \"#utility.yul\":1494:1504   */\n              dup1\n                /* \"#utility.yul\":1490:1492   */\n              0x40\n                /* \"#utility.yul\":1483:1505   */\n              mstore\n                /* \"#utility.yul\":1273:1511   */\n              pop\n                /* \"#utility.yul\":1230:1511   */\n              pop\n              pop\n              jump\t// out\n                /* \"#utility.yul\":1517:1646   */\n            tag_82:\n                /* \"#utility.yul\":1551:1557   */\n              0x00\n                /* \"#utility.yul\":1578:1598   */\n              tag_133\n              tag_71\n              jump\t// in\n            tag_133:\n                /* \"#utility.yul\":1568:1598   */\n              swap1\n              pop\n                /* \"#utility.yul\":1607:1640   */\n              tag_134\n                /* \"#utility.yul\":1635:1639   */\n              dup3\n                /* \"#utility.yul\":1627:1633   */\n              dup3\n                /* \"#utility.yul\":1607:1640   */\n              tag_81\n              jump\t// in\n            tag_134:\n                /* \"#utility.yul\":1517:1646   */\n              swap2\n              swap1\n              pop\n              jump\t// out\n                /* \"#utility.yul\":1652:1960   */\n            tag_83:\n                /* \"#utility.yul\":1714:1718   */\n              0x00\n                /* \"#utility.yul\":1804:1822   */\n              0xffffffffffffffff\n                /* \"#utility.yul\":1796:1802   */\n              dup3\n                /* \"#utility.yul\":1793:1823   */\n              gt\n                /* \"#utility.yul\":1790:1846   */\n              iszero\n              tag_136\n              jumpi\n                /* \"#utility.yul\":1826:1844   */\n              tag_137\n              tag_80\n              jump\t// in\n            tag_137:\n                /* \"#utility.yul\":1790:1846   */\n            tag_136:\n                /* \"#utility.yul\":1864:1893   */\n              tag_138\n                /* \"#utility.yul\":1886:1892   */\n              dup3\n                /* \"#utility.yul\":1864:1893   */\n              tag_79\n              jump\t// in\n            tag_138:\n                /* \"#utility.yul\":1856:1893   */\n              swap1\n              pop\n                /* \"#utility.yul\":1948:1952   */\n              0x20\n                /* \"#utility.yul\":1942:1946   */\n              dup2\n                /* \"#utility.yul\":1938:1953   */\n              add\n                /* \"#utility.yul\":1930:1953   */\n              swap1\n              pop\n                /* \"#utility.yul\":1652:1960   */\n              swap2\n              swap1\n              pop\n              jump\t// out\n                /* \"#utility.yul\":1966:2112   */\n            tag_84:\n                /* \"#utility.yul\":2063:2069   */\n              dup3\n                /* \"#utility.yul\":2058:2061   */\n              dup2\n                /* \"#utility.yul\":2053:2056   */\n              dup4\n                /* \"#utility.yul\":2040:2070   */\n              calldatacopy\n                /* \"#utility.yul\":2104:2105   */\n              0x00\n                /* \"#utility.yul\":2095:2101   */\n              dup4\n                /* \"#utility.yul\":2090:2093   */\n              dup4\n                /* \"#utility.yul\":2086:2102   */\n              add\n                /* \"#utility.yul\":2079:2106   */\n              mstore\n                /* \"#utility.yul\":1966:2112   */\n              pop\n              pop\n              pop\n              jump\t// out\n                /* \"#utility.yul\":2118:2543   */\n            tag_85:\n                /* \"#utility.yul\":2196:2201   */\n              0x00\n                /* \"#utility.yul\":2221:2287   */\n              tag_141\n                /* \"#utility.yul\":2237:2286   */\n              tag_142\n                /* \"#utility.yul\":2279:2285   */\n              dup5\n                /* \"#utility.yul\":2237:2286   */\n              tag_83\n              jump\t// in\n            tag_142:\n                /* \"#utility.yul\":2221:2287   */\n              tag_82\n              jump\t// in\n            tag_141:\n                /* \"#utility.yul\":2212:2287   */\n              swap1\n              pop\n                /* \"#utility.yul\":2310:2316   */\n              dup3\n                /* \"#utility.yul\":2303:2308   */\n              dup2\n                /* \"#utility.yul\":2296:2317   */\n              mstore\n                /* \"#utility.yul\":2348:2352   */\n              0x20\n                /* \"#utility.yul\":2341:2346   */\n              dup2\n                /* \"#utility.yul\":2337:2353   */\n              add\n                /* \"#utility.yul\":2386:2389   */\n              dup5\n                /* \"#utility.yul\":2377:2383   */\n              dup5\n                /* \"#utility.yul\":2372:2375   */\n              dup5\n                /* \"#utility.yul\":2368:2384   */\n              add\n                /* \"#utility.yul\":2365:2390   */\n              gt\n                /* \"#utility.yul\":2362:2474   */\n              iszero\n              tag_143\n              jumpi\n                /* \"#utility.yul\":2393:2472   */\n              tag_144\n              tag_78\n              jump\t// in\n            tag_144:\n                /* \"#utility.yul\":2362:2474   */\n            tag_143:\n                /* \"#utility.yul\":2483:2537   */\n              tag_145\n                /* \"#utility.yul\":2530:2536   */\n              dup5\n                /* \"#utility.yul\":2525:2528   */\n              dup3\n                /* \"#utility.yul\":2520:2523   */\n              dup6\n                /* \"#utility.yul\":2483:2537   */\n              tag_84\n              jump\t// in\n            tag_145:\n                /* \"#utility.yul\":2202:2543   */\n              pop\n                /* \"#utility.yul\":2118:2543   */\n              swap4\n              swap3\n              pop\n              pop\n              pop\n              jump\t// out\n                /* \"#utility.yul\":2563:2903   */\n            tag_86:\n                /* \"#utility.yul\":2619:2624   */\n              0x00\n                /* \"#utility.yul\":2668:2671   */\n              dup3\n                /* \"#utility.yul\":2661:2665   */\n              0x1f\n                /* \"#utility.yul\":2653:2659   */\n              dup4\n                /* \"#utility.yul\":2649:2666   */\n              add\n                /* \"#utility.yul\":2645:2672   */\n              slt\n                /* \"#utility.yul\":2635:2757   */\n              tag_147\n              jumpi\n                /* \"#utility.yul\":2676:2755   */\n              tag_148\n              tag_77\n              jump\t// in\n            tag_148:\n                /* \"#utility.yul\":2635:2757   */\n            tag_147:\n                /* \"#utility.yul\":2793:2799   */\n              dup2\n                /* \"#utility.yul\":2780:2800   */\n              calldataload\n                /* \"#utility.yul\":2818:2897   */\n              tag_149\n                /* \"#utility.yul\":2893:2896   */\n              dup5\n                /* \"#utility.yul\":2885:2891   */\n              dup3\n                /* \"#utility.yul\":2878:2882   */\n              0x20\n                /* \"#utility.yul\":2870:2876   */\n              dup7\n                /* \"#utility.yul\":2866:2883   */\n              add\n                /* \"#utility.yul\":2818:2897   */\n              tag_85\n              jump\t// in\n            tag_149:\n                /* \"#utility.yul\":2809:2897   */\n              swap2\n              pop\n                /* \"#utility.yul\":2625:2903   */\n              pop\n                /* \"#utility.yul\":2563:2903   */\n              swap3\n              swap2\n              pop\n              pop\n              jump\t// out\n                /* \"#utility.yul\":2909:3563   */\n            tag_10:\n                /* \"#utility.yul\":2987:2993   */\n              0x00\n                /* \"#utility.yul\":2995:3001   */\n              dup1\n                /* \"#utility.yul\":3044:3046   */\n              0x40\n                /* \"#utility.yul\":3032:3041   */\n              dup4\n                /* \"#utility.yul\":3023:3030   */\n              dup6\n                /* \"#utility.yul\":3019:3042   */\n              sub\n                /* \"#utility.yul\":3015:3047   */\n              slt\n                /* \"#utility.yul\":3012:3131   */\n              iszero\n              tag_151\n              jumpi\n                /* \"#utility.yul\":3050:3129   */\n              tag_152\n              tag_72\n              jump\t// in\n            tag_152:\n                /* \"#utility.yul\":3012:3131   */\n            tag_151:\n                /* \"#utility.yul\":3170:3171   */\n              0x00\n                /* \"#utility.yul\":3195:3248   */\n              tag_153\n                /* \"#utility.yul\":3240:3247   */\n              dup6\n                /* \"#utility.yul\":3231:3237   */\n              dup3\n                /* \"#utility.yul\":3220:3229   */\n              dup7\n                /* \"#utility.yul\":3216:3238   */\n              add\n                /* \"#utility.yul\":3195:3248   */\n              tag_76\n              jump\t// in\n            tag_153:\n                /* \"#utility.yul\":3185:3248   */\n              swap3\n              pop\n                /* \"#utility.yul\":3141:3258   */\n              pop\n                /* \"#utility.yul\":3325:3327   */\n              0x20\n                /* \"#utility.yul\":3314:3323   */\n              dup4\n                /* \"#utility.yul\":3310:3328   */\n              add\n                /* \"#utility.yul\":3297:3329   */\n              calldataload\n                /* \"#utility.yul\":3356:3374   */\n              0xffffffffffffffff\n                /* \"#utility.yul\":3348:3354   */\n              dup2\n                /* \"#utility.yul\":3345:3375   */\n              gt\n                /* \"#utility.yul\":3342:3459   */\n              iszero\n              tag_154\n              jumpi\n                /* \"#utility.yul\":3378:3457   */\n              tag_155\n              tag_73\n              jump\t// in\n            tag_155:\n                /* \"#utility.yul\":3342:3459   */\n            tag_154:\n                /* \"#utility.yul\":3483:3546   */\n              tag_156\n                /* \"#utility.yul\":3538:3545   */\n              dup6\n                /* \"#utility.yul\":3529:3535   */\n              dup3\n                /* \"#utility.yul\":3518:3527   */\n              dup7\n                /* \"#utility.yul\":3514:3536   */\n              add\n                /* \"#utility.yul\":3483:3546   */\n              tag_86\n              jump\t// in\n            tag_156:\n                /* \"#utility.yul\":3473:3546   */\n              swap2\n              pop\n                /* \"#utility.yul\":3268:3556   */\n              pop\n                /* \"#utility.yul\":2909:3563   */\n              swap3\n              pop\n              swap3\n              swap1\n              pop\n              jump\t// out\n                /* \"#utility.yul\":3569:4403   */\n            tag_14:\n                /* \"#utility.yul\":3657:3663   */\n              0x00\n                /* \"#utility.yul\":3665:3671   */\n              dup1\n                /* \"#utility.yul\":3714:3716   */\n              0x40\n                /* \"#utility.yul\":3702:3711   */\n              dup4\n                /* \"#utility.yul\":3693:3700   */\n              dup6\n                /* \"#utility.yul\":3689:3712   */\n              sub\n                /* \"#utility.yul\":3685:3717   */\n              slt\n                /* \"#utility.yul\":3682:3801   */\n              iszero\n              tag_158\n              jumpi\n                /* \"#utility.yul\":3720:3799   */\n              tag_159\n              tag_72\n              jump\t// in\n            tag_159:\n                /* \"#utility.yul\":3682:3801   */\n            tag_158:\n                /* \"#utility.yul\":3868:3869   */\n              0x00\n                /* \"#utility.yul\":3857:3866   */\n              dup4\n                /* \"#utility.yul\":3853:3870   */\n              add\n                /* \"#utility.yul\":3840:3871   */\n              calldataload\n                /* \"#utility.yul\":3898:3916   */\n              0xffffffffffffffff\n                /* \"#utility.yul\":3890:3896   */\n              dup2\n                /* \"#utility.yul\":3887:3917   */\n              gt\n                /* \"#utility.yul\":3884:4001   */\n              iszero\n              tag_160\n              jumpi\n                /* \"#utility.yul\":3920:3999   */\n              tag_161\n              tag_73\n              jump\t// in\n            tag_161:\n                /* \"#utility.yul\":3884:4001   */\n            tag_160:\n                /* \"#utility.yul\":4025:4088   */\n              tag_162\n                /* \"#utility.yul\":4080:4087   */\n              dup6\n                /* \"#utility.yul\":4071:4077   */\n              dup3\n                /* \"#utility.yul\":4060:4069   */\n              dup7\n                /* \"#utility.yul\":4056:4078   */\n              add\n                /* \"#utility.yul\":4025:4088   */\n              tag_86\n              jump\t// in\n            tag_162:\n                /* \"#utility.yul\":4015:4088   */\n              swap3\n              pop\n                /* \"#utility.yul\":3811:4098   */\n              pop\n                /* \"#utility.yul\":4165:4167   */\n              0x20\n                /* \"#utility.yul\":4154:4163   */\n              dup4\n                /* \"#utility.yul\":4150:4168   */\n              add\n                /* \"#utility.yul\":4137:4169   */\n              calldataload\n                /* \"#utility.yul\":4196:4214   */\n              0xffffffffffffffff\n                /* \"#utility.yul\":4188:4194   */\n              dup2\n                /* \"#utility.yul\":4185:4215   */\n              gt\n                /* \"#utility.yul\":4182:4299   */\n              iszero\n              tag_163\n              jumpi\n                /* \"#utility.yul\":4218:4297   */\n              tag_164\n              tag_73\n              jump\t// in\n            tag_164:\n                /* \"#utility.yul\":4182:4299   */\n            tag_163:\n                /* \"#utility.yul\":4323:4386   */\n              tag_165\n                /* \"#utility.yul\":4378:4385   */\n              dup6\n                /* \"#utility.yul\":4369:4375   */\n              dup3\n                /* \"#utility.yul\":4358:4367   */\n              dup7\n                /* \"#utility.yul\":4354:4376   */\n              add\n                /* \"#utility.yul\":4323:4386   */\n              tag_86\n              jump\t// in\n            tag_165:\n                /* \"#utility.yul\":4313:4386   */\n              swap2\n              pop\n                /* \"#utility.yul\":4108:4396   */\n              pop\n                /* \"#utility.yul\":3569:4403   */\n              swap3\n              pop\n              swap3\n              swap1\n              pop\n              jump\t// out\n                /* \"#utility.yul\":4409:4527   */\n            tag_87:\n                /* \"#utility.yul\":4496:4520   */\n              tag_167\n                /* \"#utility.yul\":4514:4519   */\n              dup2\n                /* \"#utility.yul\":4496:4520   */\n              tag_74\n              jump\t// in\n            tag_167:\n                /* \"#utility.yul\":4491:4494   */\n              dup3\n                /* \"#utility.yul\":4484:4521   */\n              mstore\n                /* \"#utility.yul\":4409:4527   */\n              pop\n              pop\n              jump\t// out\n                /* \"#utility.yul\":4533:4755   */\n            tag_17:\n                /* \"#utility.yul\":4626:4630   */\n              0x00\n                /* \"#utility.yul\":4664:4666   */\n              0x20\n                /* \"#utility.yul\":4653:4662   */\n              dup3\n                /* \"#utility.yul\":4649:4667   */\n              add\n                /* \"#utility.yul\":4641:4667   */\n              swap1\n              pop\n                /* \"#utility.yul\":4677:4748   */\n              tag_169\n                /* \"#utility.yul\":4745:4746   */\n              0x00\n                /* \"#utility.yul\":4734:4743   */\n              dup4\n                /* \"#utility.yul\":4730:4747   */\n              add\n                /* \"#utility.yul\":4721:4727   */\n              dup5\n                /* \"#utility.yul\":4677:4748   */\n              tag_87\n              jump\t// in\n            tag_169:\n                /* \"#utility.yul\":4533:4755   */\n              swap3\n              swap2\n              pop\n              pop\n              jump\t// out\n                /* \"#utility.yul\":4761:5270   */\n            tag_20:\n                /* \"#utility.yul\":4830:4836   */\n              0x00\n                /* \"#utility.yul\":4879:4881   */\n              0x20\n                /* \"#utility.yul\":4867:4876   */\n              dup3\n                /* \"#utility.yul\":4858:4865   */\n              dup5\n                /* \"#utility.yul\":4854:4877   */\n              sub\n                /* \"#utility.yul\":4850:4882   */\n              slt\n                /* \"#utility.yul\":4847:4966   */\n              iszero\n              tag_171\n              jumpi\n                /* \"#utility.yul\":4885:4964   */\n              tag_172\n              tag_72\n              jump\t// in\n            tag_172:\n                /* \"#utility.yul\":4847:4966   */\n            tag_171:\n                /* \"#utility.yul\":5033:5034   */\n              0x00\n                /* \"#utility.yul\":5022:5031   */\n              dup3\n                /* \"#utility.yul\":5018:5035   */\n              add\n                /* \"#utility.yul\":5005:5036   */\n              calldataload\n                /* \"#utility.yul\":5063:5081   */\n              0xffffffffffffffff\n                /* \"#utility.yul\":5055:5061   */\n              dup2\n                /* \"#utility.yul\":5052:5082   */\n              gt\n                /* \"#utility.yul\":5049:5166   */\n              iszero\n              tag_173\n              jumpi\n                /* \"#utility.yul\":5085:5164   */\n              tag_174\n              tag_73\n              jump\t// in\n            tag_174:\n                /* \"#utility.yul\":5049:5166   */\n            tag_173:\n                /* \"#utility.yul\":5190:5253   */\n              tag_175\n                /* \"#utility.yul\":5245:5252   */\n              dup5\n                /* \"#utility.yul\":5236:5242   */\n              dup3\n                /* \"#utility.yul\":5225:5234   */\n              dup6\n                /* \"#utility.yul\":5221:5243   */\n              add\n                /* \"#utility.yul\":5190:5253   */\n              tag_86\n              jump\t// in\n            tag_175:\n                /* \"#utility.yul\":5180:5253   */\n              swap2\n              pop\n                /* \"#utility.yul\":4976:5263   */\n              pop\n                /* \"#utility.yul\":4761:5270   */\n              swap3\n              swap2\n              pop\n              pop\n              jump\t// out\n                /* \"#utility.yul\":5276:5605   */\n            tag_25:\n                /* \"#utility.yul\":5335:5341   */\n              0x00\n                /* \"#utility.yul\":5384:5386   */\n              0x20\n                /* \"#utility.yul\":5372:5381   */\n              dup3\n                /* \"#utility.yul\":5363:5370   */\n              dup5\n                /* \"#utility.yul\":5359:5382   */\n              sub\n                /* \"#utility.yul\":5355:5387   */\n              slt\n                /* \"#utility.yul\":5352:5471   */\n              iszero\n              tag_177\n              jumpi\n                /* \"#utility.yul\":5390:5469   */\n              tag_178\n              tag_72\n              jump\t// in\n            tag_178:\n                /* \"#utility.yul\":5352:5471   */\n            tag_177:\n                /* \"#utility.yul\":5510:5511   */\n              0x00\n                /* \"#utility.yul\":5535:5588   */\n              tag_179\n                /* \"#utility.yul\":5580:5587   */\n              dup5\n                /* \"#utility.yul\":5571:5577   */\n              dup3\n                /* \"#utility.yul\":5560:5569   */\n              dup6\n                /* \"#utility.yul\":5556:5578   */\n              add\n                /* \"#utility.yul\":5535:5588   */\n              tag_76\n              jump\t// in\n            tag_179:\n                /* \"#utility.yul\":5525:5588   */\n              swap2\n              pop\n                /* \"#utility.yul\":5481:5598   */\n              pop\n                /* \"#utility.yul\":5276:5605   */\n              swap3\n              swap2\n              pop\n              pop\n              jump\t// out\n                /* \"#utility.yul\":5611:5710   */\n            tag_88:\n                /* \"#utility.yul\":5663:5669   */\n              0x00\n                /* \"#utility.yul\":5697:5702   */\n              dup2\n                /* \"#utility.yul\":5691:5703   */\n              mload\n                /* \"#utility.yul\":5681:5703   */\n              swap1\n              pop\n                /* \"#utility.yul\":5611:5710   */\n              swap2\n              swap1\n              pop\n              jump\t// out\n                /* \"#utility.yul\":5716:5885   */\n            tag_89:\n                /* \"#utility.yul\":5800:5811   */\n              0x00\n                /* \"#utility.yul\":5834:5840   */\n              dup3\n                /* \"#utility.yul\":5829:5832   */\n              dup3\n                /* \"#utility.yul\":5822:5841   */\n              mstore\n                /* \"#utility.yul\":5874:5878   */\n              0x20\n                /* \"#utility.yul\":5869:5872   */\n              dup3\n                /* \"#utility.yul\":5865:5879   */\n              add\n                /* \"#utility.yul\":5850:5879   */\n              swap1\n              pop\n                /* \"#utility.yul\":5716:5885   */\n              swap3\n              swap2\n              pop\n              pop\n              jump\t// out\n                /* \"#utility.yul\":5891:6137   */\n            tag_90:\n                /* \"#utility.yul\":5972:5973   */\n              0x00\n                /* \"#utility.yul\":5982:6095   */\n            tag_183:\n                /* \"#utility.yul\":5996:6002   */\n              dup4\n                /* \"#utility.yul\":5993:5994   */\n              dup2\n                /* \"#utility.yul\":5990:6003   */\n              lt\n                /* \"#utility.yul\":5982:6095   */\n              iszero\n              tag_185\n              jumpi\n                /* \"#utility.yul\":6081:6082   */\n              dup1\n                /* \"#utility.yul\":6076:6079   */\n              dup3\n                /* \"#utility.yul\":6072:6083   */\n              add\n                /* \"#utility.yul\":6066:6084   */\n              mload\n                /* \"#utility.yul\":6062:6063   */\n              dup2\n                /* \"#utility.yul\":6057:6060   */\n              dup5\n                /* \"#utility.yul\":6053:6064   */\n              add\n                /* \"#utility.yul\":6046:6085   */\n              mstore\n                /* \"#utility.yul\":6018:6020   */\n              0x20\n                /* \"#utility.yul\":6015:6016   */\n              dup2\n                /* \"#utility.yul\":6011:6021   */\n              add\n                /* \"#utility.yul\":6006:6021   */\n              swap1\n              pop\n                /* \"#utility.yul\":5982:6095   */\n              jump(tag_183)\n            tag_185:\n                /* \"#utility.yul\":6129:6130   */\n              0x00\n                /* \"#utility.yul\":6120:6126   */\n              dup5\n                /* \"#utility.yul\":6115:6118   */\n              dup5\n                /* \"#utility.yul\":6111:6127   */\n              add\n                /* \"#utility.yul\":6104:6131   */\n              mstore\n                /* \"#utility.yul\":5953:6137   */\n              pop\n                /* \"#utility.yul\":5891:6137   */\n              pop\n              pop\n              pop\n              jump\t// out\n                /* \"#utility.yul\":6143:6520   */\n            tag_91:\n                /* \"#utility.yul\":6231:6234   */\n              0x00\n                /* \"#utility.yul\":6259:6298   */\n              tag_187\n                /* \"#utility.yul\":6292:6297   */\n              dup3\n                /* \"#utility.yul\":6259:6298   */\n              tag_88\n              jump\t// in\n            tag_187:\n                /* \"#utility.yul\":6314:6385   */\n              tag_188\n                /* \"#utility.yul\":6378:6384   */\n              dup2\n                /* \"#utility.yul\":6373:6376   */\n              dup6\n                /* \"#utility.yul\":6314:6385   */\n              tag_89\n              jump\t// in\n            tag_188:\n                /* \"#utility.yul\":6307:6385   */\n              swap4\n              pop\n                /* \"#utility.yul\":6394:6459   */\n              tag_189\n                /* \"#utility.yul\":6452:6458   */\n              dup2\n                /* \"#utility.yul\":6447:6450   */\n              dup6\n                /* \"#utility.yul\":6440:6444   */\n              0x20\n                /* \"#utility.yul\":6433:6438   */\n              dup7\n                /* \"#utility.yul\":6429:6445   */\n              add\n                /* \"#utility.yul\":6394:6459   */\n              tag_90\n              jump\t// in\n            tag_189:\n                /* \"#utility.yul\":6484:6513   */\n              tag_190\n                /* \"#utility.yul\":6506:6512   */\n              dup2\n                /* \"#utility.yul\":6484:6513   */\n              tag_79\n              jump\t// in\n            tag_190:\n                /* \"#utility.yul\":6479:6482   */\n              dup5\n                /* \"#utility.yul\":6475:6514   */\n              add\n                /* \"#utility.yul\":6468:6514   */\n              swap2\n              pop\n                /* \"#utility.yul\":6235:6520   */\n              pop\n                /* \"#utility.yul\":6143:6520   */\n              swap3\n              swap2\n              pop\n              pop\n              jump\t// out\n                /* \"#utility.yul\":6526:6839   */\n            tag_28:\n                /* \"#utility.yul\":6639:6643   */\n              0x00\n                /* \"#utility.yul\":6677:6679   */\n              0x20\n                /* \"#utility.yul\":6666:6675   */\n              dup3\n                /* \"#utility.yul\":6662:6680   */\n              add\n                /* \"#utility.yul\":6654:6680   */\n              swap1\n              pop\n                /* \"#utility.yul\":6726:6735   */\n              dup2\n                /* \"#utility.yul\":6720:6724   */\n              dup2\n                /* \"#utility.yul\":6716:6736   */\n              sub\n                /* \"#utility.yul\":6712:6713   */\n              0x00\n                /* \"#utility.yul\":6701:6710   */\n              dup4\n                /* \"#utility.yul\":6697:6714   */\n              add\n                /* \"#utility.yul\":6690:6737   */\n              mstore\n                /* \"#utility.yul\":6754:6832   */\n              tag_192\n                /* \"#utility.yul\":6827:6831   */\n              dup2\n                /* \"#utility.yul\":6818:6824   */\n              dup5\n                /* \"#utility.yul\":6754:6832   */\n              tag_91\n              jump\t// in\n            tag_192:\n                /* \"#utility.yul\":6746:6832   */\n              swap1\n              pop\n                /* \"#utility.yul\":6526:6839   */\n              swap3\n              swap2\n              pop\n              pop\n              jump\t// out\n                /* \"#utility.yul\":6845:6993   */\n            tag_92:\n                /* \"#utility.yul\":6947:6958   */\n              0x00\n                /* \"#utility.yul\":6984:6987   */\n              dup2\n                /* \"#utility.yul\":6969:6987   */\n              swap1\n              pop\n                /* \"#utility.yul\":6845:6993   */\n              swap3\n              swap2\n              pop\n              pop\n              jump\t// out\n                /* \"#utility.yul\":6999:7389   */\n            tag_93:\n                /* \"#utility.yul\":7105:7108   */\n              0x00\n                /* \"#utility.yul\":7133:7172   */\n              tag_195\n                /* \"#utility.yul\":7166:7171   */\n              dup3\n                /* \"#utility.yul\":7133:7172   */\n              tag_88\n              jump\t// in\n            tag_195:\n                /* \"#utility.yul\":7188:7277   */\n              tag_196\n                /* \"#utility.yul\":7270:7276   */\n              dup2\n                /* \"#utility.yul\":7265:7268   */\n              dup6\n                /* \"#utility.yul\":7188:7277   */\n              tag_92\n              jump\t// in\n            tag_196:\n                /* \"#utility.yul\":7181:7277   */\n              swap4\n              pop\n                /* \"#utility.yul\":7286:7351   */\n              tag_197\n                /* \"#utility.yul\":7344:7350   */\n              dup2\n                /* \"#utility.yul\":7339:7342   */\n              dup6\n                /* \"#utility.yul\":7332:7336   */\n              0x20\n                /* \"#utility.yul\":7325:7330   */\n              dup7\n                /* \"#utility.yul\":7321:7337   */\n              add\n                /* \"#utility.yul\":7286:7351   */\n              tag_90\n              jump\t// in\n            tag_197:\n                /* \"#utility.yul\":7376:7382   */\n              dup1\n                /* \"#utility.yul\":7371:7374   */\n              dup5\n                /* \"#utility.yul\":7367:7383   */\n              add\n                /* \"#utility.yul\":7360:7383   */\n              swap2\n              pop\n                /* \"#utility.yul\":7109:7389   */\n              pop\n                /* \"#utility.yul\":6999:7389   */\n              swap3\n              swap2\n              pop\n              pop\n              jump\t// out\n                /* \"#utility.yul\":7395:7670   */\n            tag_34:\n                /* \"#utility.yul\":7527:7530   */\n              0x00\n                /* \"#utility.yul\":7549:7644   */\n              tag_199\n                /* \"#utility.yul\":7640:7643   */\n              dup3\n                /* \"#utility.yul\":7631:7637   */\n              dup5\n                /* \"#utility.yul\":7549:7644   */\n              tag_93\n              jump\t// in\n            tag_199:\n                /* \"#utility.yul\":7542:7644   */\n              swap2\n              pop\n                /* \"#utility.yul\":7661:7664   */\n              dup2\n                /* \"#utility.yul\":7654:7664   */\n              swap1\n              pop\n                /* \"#utility.yul\":7395:7670   */\n              swap3\n              swap2\n              pop\n              pop\n              jump\t// out\n                /* \"#utility.yul\":7676:7856   */\n            tag_94:\n                /* \"#utility.yul\":7724:7801   */\n              0x4e487b7100000000000000000000000000000000000000000000000000000000\n                /* \"#utility.yul\":7721:7722   */\n              0x00\n                /* \"#utility.yul\":7714:7802   */\n              mstore\n                /* \"#utility.yul\":7821:7825   */\n              0x22\n                /* \"#utility.yul\":7818:7819   */\n              0x04\n                /* \"#utility.yul\":7811:7826   */\n              mstore\n                /* \"#utility.yul\":7845:7849   */\n              0x24\n                /* \"#utility.yul\":7842:7843   */\n              0x00\n                /* \"#utility.yul\":7835:7850   */\n              revert\n                /* \"#utility.yul\":7862:8182   */\n            tag_53:\n                /* \"#utility.yul\":7906:7912   */\n              0x00\n                /* \"#utility.yul\":7943:7944   */\n              0x02\n                /* \"#utility.yul\":7937:7941   */\n              dup3\n                /* \"#utility.yul\":7933:7945   */\n              div\n                /* \"#utility.yul\":7923:7945   */\n              swap1\n              pop\n                /* \"#utility.yul\":7990:7991   */\n              0x01\n                /* \"#utility.yul\":7984:7988   */\n              dup3\n                /* \"#utility.yul\":7980:7992   */\n              and\n                /* \"#utility.yul\":8011:8029   */\n              dup1\n                /* \"#utility.yul\":8001:8082   */\n              tag_202\n              jumpi\n                /* \"#utility.yul\":8067:8071   */\n              0x7f\n                /* \"#utility.yul\":8059:8065   */\n              dup3\n                /* \"#utility.yul\":8055:8072   */\n              and\n                /* \"#utility.yul\":8045:8072   */\n              swap2\n              pop\n                /* \"#utility.yul\":8001:8082   */\n            tag_202:\n                /* \"#utility.yul\":8129:8131   */\n              0x20\n                /* \"#utility.yul\":8121:8127   */\n              dup3\n                /* \"#utility.yul\":8118:8132   */\n              lt\n                /* \"#utility.yul\":8098:8116   */\n              dup2\n                /* \"#utility.yul\":8095:8133   */\n              sub\n                /* \"#utility.yul\":8092:8176   */\n              tag_203\n              jumpi\n                /* \"#utility.yul\":8148:8166   */\n              tag_204\n              tag_94\n              jump\t// in\n            tag_204:\n                /* \"#utility.yul\":8092:8176   */\n            tag_203:\n                /* \"#utility.yul\":7913:8182   */\n              pop\n                /* \"#utility.yul\":7862:8182   */\n              swap2\n              swap1\n              pop\n              jump\t// out\n                /* \"#utility.yul\":8188:8329   */\n            tag_95:\n                /* \"#utility.yul\":8237:8241   */\n              0x00\n                /* \"#utility.yul\":8260:8263   */\n              dup2\n                /* \"#utility.yul\":8252:8263   */\n              swap1\n              pop\n                /* \"#utility.yul\":8283:8286   */\n              dup2\n                /* \"#utility.yul\":8280:8281   */\n              0x00\n                /* \"#utility.yul\":8273:8287   */\n              mstore\n                /* \"#utility.yul\":8317:8321   */\n              0x20\n                /* \"#utility.yul\":8314:8315   */\n              0x00\n                /* \"#utility.yul\":8304:8322   */\n              keccak256\n                /* \"#utility.yul\":8296:8322   */\n              swap1\n              pop\n                /* \"#utility.yul\":8188:8329   */\n              swap2\n              swap1\n              pop\n              jump\t// out\n                /* \"#utility.yul\":8335:8428   */\n            tag_96:\n                /* \"#utility.yul\":8372:8378   */\n              0x00\n                /* \"#utility.yul\":8419:8421   */\n              0x20\n                /* \"#utility.yul\":8414:8416   */\n              0x1f\n                /* \"#utility.yul\":8407:8412   */\n              dup4\n                /* \"#utility.yul\":8403:8417   */\n              add\n                /* \"#utility.yul\":8399:8422   */\n              div\n                /* \"#utility.yul\":8389:8422   */\n              swap1\n              pop\n                /* \"#utility.yul\":8335:8428   */\n              swap2\n              swap1\n              pop\n              jump\t// out\n                /* \"#utility.yul\":8434:8541   */\n            tag_97:\n                /* \"#utility.yul\":8478:8486   */\n              0x00\n                /* \"#utility.yul\":8528:8533   */\n              dup3\n                /* \"#utility.yul\":8522:8526   */\n              dup3\n                /* \"#utility.yul\":8518:8534   */\n              shl\n                /* \"#utility.yul\":8497:8534   */\n              swap1\n              pop\n                /* \"#utility.yul\":8434:8541   */\n              swap3\n              swap2\n              pop\n              pop\n              jump\t// out\n                /* \"#utility.yul\":8547:8940   */\n            tag_98:\n                /* \"#utility.yul\":8616:8622   */\n              0x00\n                /* \"#utility.yul\":8666:8667   */\n              0x08\n                /* \"#utility.yul\":8654:8664   */\n              dup4\n                /* \"#utility.yul\":8650:8668   */\n              mul\n                /* \"#utility.yul\":8689:8786   */\n              tag_209\n                /* \"#utility.yul\":8719:8785   */\n              0xffffffffffffffffffffffffffffffffffffffffffffffffffffffffffffffff\n                /* \"#utility.yul\":8708:8717   */\n              dup3\n                /* \"#utility.yul\":8689:8786   */\n              tag_97\n              jump\t// in\n            tag_209:\n                /* \"#utility.yul\":8807:8846   */\n              tag_210\n                /* \"#utility.yul\":8837:8845   */\n              dup7\n                /* \"#utility.yul\":8826:8835   */\n              dup4\n                /* \"#utility.yul\":8807:8846   */\n              tag_97\n              jump\t// in\n            tag_210:\n                /* \"#utility.yul\":8795:8846   */\n              swap6\n              pop\n                /* \"#utility.yul\":8879:8883   */\n              dup1\n                /* \"#utility.yul\":8875:8884   */\n              not\n                /* \"#utility.yul\":8868:8873   */\n              dup5\n                /* \"#utility.yul\":8864:8885   */\n              and\n                /* \"#utility.yul\":8855:8885   */\n              swap4\n              pop\n                /* \"#utility.yul\":8928:8932   */\n              dup1\n                /* \"#utility.yul\":8918:8926   */\n              dup7\n                /* \"#utility.yul\":8914:8933   */\n              and\n                /* \"#utility.yul\":8907:8912   */\n              dup5\n                /* \"#utility.yul\":8904:8934   */\n              or\n                /* \"#utility.yul\":8894:8934   */\n              swap3\n              pop\n                /* \"#utility.yul\":8623:8940   */\n              pop\n              pop\n                /* \"#utility.yul\":8547:8940   */\n              swap4\n              swap3\n              pop\n              pop\n              pop\n              jump\t// out\n                /* \"#utility.yul\":8946:9006   */\n            tag_99:\n                /* \"#utility.yul\":8974:8977   */\n              0x00\n                /* \"#utility.yul\":8995:9000   */\n              dup2\n                /* \"#utility.yul\":8988:9000   */\n              swap1\n              pop\n                /* \"#utility.yul\":8946:9006   */\n              swap2\n              swap1\n              pop\n              jump\t// out\n                /* \"#utility.yul\":9012:9154   */\n            tag_100:\n                /* \"#utility.yul\":9062:9071   */\n              0x00\n                /* \"#utility.yul\":9095:9148   */\n              tag_213\n                /* \"#utility.yul\":9113:9147   */\n              tag_214\n                /* \"#utility.yul\":9122:9146   */\n              tag_215\n                /* \"#utility.yul\":9140:9145   */\n              dup5\n                /* \"#utility.yul\":9122:9146   */\n              tag_74\n              jump\t// in\n            tag_215:\n                /* \"#utility.yul\":9113:9147   */\n              tag_99\n              jump\t// in\n            tag_214:\n                /* \"#utility.yul\":9095:9148   */\n              tag_74\n              jump\t// in\n            tag_213:\n                /* \"#utility.yul\":9082:9148   */\n              swap1\n              pop\n                /* \"#utility.yul\":9012:9154   */\n              swap2\n              swap1\n              pop\n              jump\t// out\n                /* \"#utility.yul\":9160:9235   */\n            tag_101:\n                /* \"#utility.yul\":9203:9206   */\n              0x00\n                /* \"#utility.yul\":9224:9229   */\n              dup2\n                /* \"#utility.yul\":9217:9229   */\n              swap1\n              pop\n                /* \"#utility.yul\":9160:9235   */\n              swap2\n              swap1\n              pop\n              jump\t// out\n                /* \"#utility.yul\":9241:9510   */\n            tag_102:\n                /* \"#utility.yul\":9351:9390   */\n              tag_218\n                /* \"#utility.yul\":9382:9389   */\n              dup4\n                /* \"#utility.yul\":9351:9390   */\n              tag_100\n              jump\t// in\n            tag_218:\n                /* \"#utility.yul\":9412:9503   */\n              tag_219\n                /* \"#utility.yul\":9461:9502   */\n              tag_220\n                /* \"#utility.yul\":9485:9501   */\n              dup3\n                /* \"#utility.yul\":9461:9502   */\n              tag_101\n              jump\t// in\n            tag_220:\n                /* \"#utility.yul\":9453:9459   */\n              dup5\n                /* \"#utility.yul\":9446:9450   */\n              dup5\n                /* \"#utility.yul\":9440:9451   */\n              sload\n                /* \"#utility.yul\":9412:9503   */\n              tag_98\n              jump\t// in\n            tag_219:\n                /* \"#utility.yul\":9406:9410   */\n              dup3\n                /* \"#utility.yul\":9399:9504   */\n              sstore\n                /* \"#utility.yul\":9317:9510   */\n              pop\n                /* \"#utility.yul\":9241:9510   */\n              pop\n              pop\n              pop\n              jump\t// out\n                /* \"#utility.yul\":9516:9589   */\n            tag_103:\n                /* \"#utility.yul\":9561:9564   */\n              0x00\n                /* \"#utility.yul\":9516:9589   */\n              swap1\n              jump\t// out\n                /* \"#utility.yul\":9595:9784   */\n            tag_104:\n                /* \"#utility.yul\":9672:9704   */\n              tag_223\n              tag_103\n              jump\t// in\n            tag_223:\n                /* \"#utility.yul\":9713:9778   */\n              tag_224\n                /* \"#utility.yul\":9771:9777   */\n              dup2\n                /* \"#utility.yul\":9763:9769   */\n              dup5\n                /* \"#utility.yul\":9757:9761   */\n              dup5\n                /* \"#utility.yul\":9713:9778   */\n              tag_102\n              jump\t// in\n            tag_224:\n                /* \"#utility.yul\":9648:9784   */\n              pop\n                /* \"#utility.yul\":9595:9784   */\n              pop\n              pop\n              jump\t// out\n                /* \"#utility.yul\":9790:9976   */\n            tag_105:\n                /* \"#utility.yul\":9850:9970   */\n            tag_226:\n                /* \"#utility.yul\":9867:9870   */\n              dup2\n                /* \"#utility.yul\":9860:9865   */\n              dup2\n                /* \"#utility.yul\":9857:9871   */\n              lt\n                /* \"#utility.yul\":9850:9970   */\n              iszero\n              tag_228\n              jumpi\n                /* \"#utility.yul\":9921:9960   */\n              tag_229\n                /* \"#utility.yul\":9958:9959   */\n              0x00\n                /* \"#utility.yul\":9951:9956   */\n              dup3\n                /* \"#utility.yul\":9921:9960   */\n              tag_104\n              jump\t// in\n            tag_229:\n                /* \"#utility.yul\":9894:9895   */\n              0x01\n                /* \"#utility.yul\":9887:9892   */\n              dup2\n                /* \"#utility.yul\":9883:9896   */\n              add\n                /* \"#utility.yul\":9874:9896   */\n              swap1\n              pop\n                /* \"#utility.yul\":9850:9970   */\n              jump(tag_226)\n            tag_228:\n                /* \"#utility.yul\":9790:9976   */\n              pop\n              pop\n              jump\t// out\n                /* \"#utility.yul\":9982:10525   */\n            tag_106:\n                /* \"#utility.yul\":10083:10085   */\n              0x1f\n                /* \"#utility.yul\":10078:10081   */\n              dup3\n                /* \"#utility.yul\":10075:10086   */\n              gt\n                /* \"#utility.yul\":10072:10518   */\n              iszero\n              tag_231\n              jumpi\n                /* \"#utility.yul\":10117:10155   */\n              tag_232\n                /* \"#utility.yul\":10149:10154   */\n              dup2\n                /* \"#utility.yul\":10117:10155   */\n              tag_95\n              jump\t// in\n            tag_232:\n                /* \"#utility.yul\":10201:10230   */\n              tag_233\n                /* \"#utility.yul\":10219:10229   */\n              dup5\n                /* \"#utility.yul\":10201:10230   */\n              tag_96\n              jump\t// in\n            tag_233:\n                /* \"#utility.yul\":10191:10199   */\n              dup2\n                /* \"#utility.yul\":10187:10231   */\n              add\n                /* \"#utility.yul\":10384:10386   */\n              0x20\n                /* \"#utility.yul\":10372:10382   */\n              dup6\n                /* \"#utility.yul\":10369:10387   */\n              lt\n                /* \"#utility.yul\":10366:10415   */\n              iszero\n              tag_234\n              jumpi\n                /* \"#utility.yul\":10405:10413   */\n              dup2\n                /* \"#utility.yul\":10390:10413   */\n              swap1\n              pop\n                /* \"#utility.yul\":10366:10415   */\n            tag_234:\n                /* \"#utility.yul\":10428:10508   */\n              tag_235\n                /* \"#utility.yul\":10484:10506   */\n              tag_236\n                /* \"#utility.yul\":10502:10505   */\n              dup6\n                /* \"#utility.yul\":10484:10506   */\n              tag_96\n              jump\t// in\n            tag_236:\n                /* \"#utility.yul\":10474:10482   */\n              dup4\n                /* \"#utility.yul\":10470:10507   */\n              add\n                /* \"#utility.yul\":10457:10468   */\n              dup3\n                /* \"#utility.yul\":10428:10508   */\n              tag_105\n              jump\t// in\n            tag_235:\n                /* \"#utility.yul\":10087:10518   */\n              pop\n              pop\n                /* \"#utility.yul\":10072:10518   */\n            tag_231:\n                /* \"#utility.yul\":9982:10525   */\n              pop\n              pop\n              pop\n              jump\t// out\n                /* \"#utility.yul\":10531:10648   */\n            tag_107:\n                /* \"#utility.yul\":10585:10593   */\n              0x00\n                /* \"#utility.yul\":10635:10640   */\n              dup3\n                /* \"#utility.yul\":10629:10633   */\n              dup3\n                /* \"#utility.yul\":10625:10641   */\n              shr\n                /* \"#utility.yul\":10604:10641   */\n              swap1\n              pop\n                /* \"#utility.yul\":10531:10648   */\n              swap3\n              swap2\n              pop\n              pop\n              jump\t// out\n                /* \"#utility.yul\":10654:10823   */\n            tag_108:\n                /* \"#utility.yul\":10698:10704   */\n              0x00\n                /* \"#utility.yul\":10731:10782   */\n              tag_239\n                /* \"#utility.yul\":10779:10780   */\n              0x00\n                /* \"#utility.yul\":10775:10781   */\n              not\n                /* \"#utility.yul\":10767:10772   */\n              dup5\n                /* \"#utility.yul\":10764:10765   */\n              0x08\n                /* \"#utility.yul\":10760:10773   */\n              mul\n                /* \"#utility.yul\":10731:10782   */\n              tag_107\n              jump\t// in\n            tag_239:\n                /* \"#utility.yul\":10727:10783   */\n              not\n                /* \"#utility.yul\":10812:10816   */\n              dup1\n                /* \"#utility.yul\":10806:10810   */\n              dup4\n                /* \"#utility.yul\":10802:10817   */\n              and\n                /* \"#utility.yul\":10792:10817   */\n              swap2\n              pop\n                /* \"#utility.yul\":10705:10823   */\n              pop\n                /* \"#utility.yul\":10654:10823   */\n              swap3\n              swap2\n              pop\n              pop\n              jump\t// out\n                /* \"#utility.yul\":10828:11123   */\n            tag_109:\n                /* \"#utility.yul\":10904:10908   */\n              0x00\n                /* \"#utility.yul\":11050:11079   */\n              tag_241\n                /* \"#utility.yul\":11075:11078   */\n              dup4\n                /* \"#utility.yul\":11069:11073   */\n              dup4\n                /* \"#utility.yul\":11050:11079   */\n              tag_108\n              jump\t// in\n            tag_241:\n                /* \"#utility.yul\":11042:11079   */\n              swap2\n              pop\n                /* \"#utility.yul\":11112:11115   */\n              dup3\n                /* \"#utility.yul\":11109:11110   */\n              0x02\n                /* \"#utility.yul\":11105:11116   */\n              mul\n                /* \"#utility.yul\":11099:11103   */\n              dup3\n                /* \"#utility.yul\":11096:11117   */\n              or\n                /* \"#utility.yul\":11088:11117   */\n              swap1\n              pop\n                /* \"#utility.yul\":10828:11123   */\n              swap3\n              swap2\n              pop\n              pop\n              jump\t// out\n                /* \"#utility.yul\":11128:12523   */\n            tag_37:\n                /* \"#utility.yul\":11245:11282   */\n              tag_243\n                /* \"#utility.yul\":11278:11281   */\n              dup3\n                /* \"#utility.yul\":11245:11282   */\n              tag_88\n              jump\t// in\n            tag_243:\n                /* \"#utility.yul\":11347:11365   */\n              0xffffffffffffffff\n                /* \"#utility.yul\":11339:11345   */\n              dup2\n                /* \"#utility.yul\":11336:11366   */\n              gt\n                /* \"#utility.yul\":11333:11389   */\n              iszero\n              tag_244\n              jumpi\n                /* \"#utility.yul\":11369:11387   */\n              tag_245\n              tag_80\n              jump\t// in\n            tag_245:\n                /* \"#utility.yul\":11333:11389   */\n            tag_244:\n                /* \"#utility.yul\":11413:11451   */\n              tag_246\n                /* \"#utility.yul\":11445:11449   */\n              dup3\n                /* \"#utility.yul\":11439:11450   */\n              sload\n                /* \"#utility.yul\":11413:11451   */\n              tag_53\n              jump\t// in\n            tag_246:\n                /* \"#utility.yul\":11498:11565   */\n              tag_247\n                /* \"#utility.yul\":11558:11564   */\n              dup3\n                /* \"#utility.yul\":11550:11556   */\n              dup3\n                /* \"#utility.yul\":11544:11548   */\n              dup6\n                /* \"#utility.yul\":11498:11565   */\n              tag_106\n              jump\t// in\n            tag_247:\n                /* \"#utility.yul\":11592:11593   */\n              0x00\n                /* \"#utility.yul\":11616:11620   */\n              0x20\n                /* \"#utility.yul\":11603:11620   */\n              swap1\n              pop\n                /* \"#utility.yul\":11648:11650   */\n              0x1f\n                /* \"#utility.yul\":11640:11646   */\n              dup4\n                /* \"#utility.yul\":11637:11651   */\n              gt\n                /* \"#utility.yul\":11665:11666   */\n              0x01\n                /* \"#utility.yul\":11660:12278   */\n              dup2\n              eq\n              tag_249\n              jumpi\n                /* \"#utility.yul\":12322:12323   */\n              0x00\n                /* \"#utility.yul\":12339:12345   */\n              dup5\n                /* \"#utility.yul\":12336:12413   */\n              iszero\n              tag_250\n              jumpi\n                /* \"#utility.yul\":12388:12397   */\n              dup3\n                /* \"#utility.yul\":12383:12386   */\n              dup8\n                /* \"#utility.yul\":12379:12398   */\n              add\n                /* \"#utility.yul\":12373:12399   */\n              mload\n                /* \"#utility.yul\":12364:12399   */\n              swap1\n              pop\n                /* \"#utility.yul\":12336:12413   */\n            tag_250:\n                /* \"#utility.yul\":12439:12506   */\n              tag_251\n                /* \"#utility.yul\":12499:12505   */\n              dup6\n                /* \"#utility.yul\":12492:12497   */\n              dup3\n                /* \"#utility.yul\":12439:12506   */\n              tag_109\n              jump\t// in\n            tag_251:\n                /* \"#utility.yul\":12433:12437   */\n              dup7\n                /* \"#utility.yul\":12426:12507   */\n              sstore\n                /* \"#utility.yul\":12295:12517   */\n              pop\n                /* \"#utility.yul\":11630:12517   */\n              jump(tag_248)\n                /* \"#utility.yul\":11660:12278   */\n            tag_249:\n                /* \"#utility.yul\":11712:11716   */\n              0x1f\n                /* \"#utility.yul\":11708:11717   */\n              not\n                /* \"#utility.yul\":11700:11706   */\n              dup5\n                /* \"#utility.yul\":11696:11718   */\n              and\n                /* \"#utility.yul\":11746:11783   */\n              tag_252\n                /* \"#utility.yul\":11778:11782   */\n              dup7\n                /* \"#utility.yul\":11746:11783   */\n              tag_95\n              jump\t// in\n            tag_252:\n                /* \"#utility.yul\":11805:11806   */\n              0x00\n                /* \"#utility.yul\":11819:12027   */\n            tag_253:\n                /* \"#utility.yul\":11833:11840   */\n              dup3\n                /* \"#utility.yul\":11830:11831   */\n              dup2\n                /* \"#utility.yul\":11827:11841   */\n              lt\n                /* \"#utility.yul\":11819:12027   */\n              iszero\n              tag_255\n              jumpi\n                /* \"#utility.yul\":11912:11921   */\n              dup5\n                /* \"#utility.yul\":11907:11910   */\n              dup10\n                /* \"#utility.yul\":11903:11922   */\n              add\n                /* \"#utility.yul\":11897:11923   */\n              mload\n                /* \"#utility.yul\":11889:11895   */\n              dup3\n                /* \"#utility.yul\":11882:11924   */\n              sstore\n                /* \"#utility.yul\":11963:11964   */\n              0x01\n                /* \"#utility.yul\":11955:11961   */\n              dup3\n                /* \"#utility.yul\":11951:11965   */\n              add\n                /* \"#utility.yul\":11941:11965   */\n              swap2\n              pop\n                /* \"#utility.yul\":12010:12012   */\n              0x20\n                /* \"#utility.yul\":11999:12008   */\n              dup6\n                /* \"#utility.yul\":11995:12013   */\n              add\n                /* \"#utility.yul\":11982:12013   */\n              swap5\n              pop\n                /* \"#utility.yul\":11856:11860   */\n              0x20\n                /* \"#utility.yul\":11853:11854   */\n              dup2\n                /* \"#utility.yul\":11849:11861   */\n              add\n                /* \"#utility.yul\":11844:11861   */\n              swap1\n              pop\n                /* \"#utility.yul\":11819:12027   */\n              jump(tag_253)\n            tag_255:\n                /* \"#utility.yul\":12055:12061   */\n              dup7\n                /* \"#utility.yul\":12046:12053   */\n              dup4\n                /* \"#utility.yul\":12043:12062   */\n              lt\n                /* \"#utility.yul\":12040:12219   */\n              iszero\n              tag_256\n              jumpi\n                /* \"#utility.yul\":12113:12122   */\n              dup5\n                /* \"#utility.yul\":12108:12111   */\n              dup10\n                /* \"#utility.yul\":12104:12123   */\n              add\n                /* \"#utility.yul\":12098:12124   */\n              mload\n                /* \"#utility.yul\":12156:12204   */\n              tag_257\n                /* \"#utility.yul\":12198:12202   */\n              0x1f\n                /* \"#utility.yul\":12190:12196   */\n              dup10\n                /* \"#utility.yul\":12186:12203   */\n              and\n                /* \"#utility.yul\":12175:12184   */\n              dup3\n                /* \"#utility.yul\":12156:12204   */\n              tag_108\n              jump\t// in\n            tag_257:\n                /* \"#utility.yul\":12148:12154   */\n              dup4\n                /* \"#utility.yul\":12141:12205   */\n              sstore\n                /* \"#utility.yul\":12063:12219   */\n              pop\n                /* \"#utility.yul\":12040:12219   */\n            tag_256:\n                /* \"#utility.yul\":12265:12266   */\n              0x01\n                /* \"#utility.yul\":12261:12262   */\n              0x02\n                /* \"#utility.yul\":12253:12259   */\n              dup9\n                /* \"#utility.yul\":12249:12263   */\n              mul\n                /* \"#utility.yul\":12245:12267   */\n              add\n                /* \"#utility.yul\":12239:12243   */\n              dup9\n                /* \"#utility.yul\":12232:12268   */\n              sstore\n                /* \"#utility.yul\":11667:12278   */\n              pop\n              pop\n              pop\n                /* \"#utility.yul\":11630:12517   */\n            tag_248:\n              pop\n                /* \"#utility.yul\":11220:12523   */\n              pop\n              pop\n              pop\n                /* \"#utility.yul\":11128:12523   */\n              pop\n              pop\n              jump\t// out\n                /* \"#utility.yul\":12529:12709   */\n            tag_110:\n                /* \"#utility.yul\":12577:12654   */\n              0x4e487b7100000000000000000000000000000000000000000000000000000000\n                /* \"#utility.yul\":12574:12575   */\n              0x00\n                /* \"#utility.yul\":12567:12655   */\n              mstore\n                /* \"#utility.yul\":12674:12678   */\n              0x11\n                /* \"#utility.yul\":12671:12672   */\n              0x04\n                /* \"#utility.yul\":12664:12679   */\n              mstore\n                /* \"#utility.yul\":12698:12702   */\n              0x24\n                /* \"#utility.yul\":12695:12696   */\n              0x00\n                /* \"#utility.yul\":12688:12703   */\n              revert\n                /* \"#utility.yul\":12715:12906   */\n            tag_42:\n                /* \"#utility.yul\":12755:12758   */\n              0x00\n                /* \"#utility.yul\":12774:12794   */\n              tag_260\n                /* \"#utility.yul\":12792:12793   */\n              dup3\n                /* \"#utility.yul\":12774:12794   */\n              tag_74\n              jump\t// in\n            tag_260:\n                /* \"#utility.yul\":12769:12794   */\n              swap2\n              pop\n                /* \"#utility.yul\":12808:12828   */\n              tag_261\n                /* \"#utility.yul\":12826:12827   */\n              dup4\n                /* \"#utility.yul\":12808:12828   */\n              tag_74\n              jump\t// in\n            tag_261:\n                /* \"#utility.yul\":12803:12828   */\n              swap3\n              pop\n                /* \"#utility.yul\":12851:12852   */\n              dup3\n                /* \"#utility.yul\":12848:12849   */\n              dup3\n                /* \"#utility.yul\":12844:12853   */\n              add\n                /* \"#utility.yul\":12837:12853   */\n              swap1\n              pop\n                /* \"#utility.yul\":12872:12875   */\n              dup1\n                /* \"#utility.yul\":12869:12870   */\n              dup3\n                /* \"#utility.yul\":12866:12876   */\n              gt\n                /* \"#utility.yul\":12863:12899   */\n              iszero\n              tag_262\n              jumpi\n                /* \"#utility.yul\":12879:12897   */\n              tag_263\n              tag_110\n              jump\t// in\n            tag_263:\n                /* \"#utility.yul\":12863:12899   */\n            tag_262:\n                /* \"#utility.yul\":12715:12906   */\n              swap3\n              swap2\n              pop\n              pop\n              jump\t// out\n                /* \"#utility.yul\":12912:13089   */\n            tag_111:\n                /* \"#utility.yul\":13052:13081   */\n              0x5468697320706572736f6e20646f6573206e6f742065786973742e0000000000\n                /* \"#utility.yul\":13048:13049   */\n              0x00\n                /* \"#utility.yul\":13040:13046   */\n              dup3\n                /* \"#utility.yul\":13036:13050   */\n              add\n                /* \"#utility.yul\":13029:13082   */\n              mstore\n                /* \"#utility.yul\":12912:13089   */\n              pop\n              jump\t// out\n                /* \"#utility.yul\":13095:13461   */\n            tag_112:\n                /* \"#utility.yul\":13237:13240   */\n              0x00\n                /* \"#utility.yul\":13258:13325   */\n              tag_266\n                /* \"#utility.yul\":13322:13324   */\n              0x1b\n                /* \"#utility.yul\":13317:13320   */\n              dup4\n                /* \"#utility.yul\":13258:13325   */\n              tag_89\n              jump\t// in\n            tag_266:\n                /* \"#utility.yul\":13251:13325   */\n              swap2\n              pop\n                /* \"#utility.yul\":13334:13427   */\n              tag_267\n                /* \"#utility.yul\":13423:13426   */\n              dup3\n                /* \"#utility.yul\":13334:13427   */\n              tag_111\n              jump\t// in\n            tag_267:\n                /* \"#utility.yul\":13452:13454   */\n              0x20\n                /* \"#utility.yul\":13447:13450   */\n              dup3\n                /* \"#utility.yul\":13443:13455   */\n              add\n                /* \"#utility.yul\":13436:13455   */\n              swap1\n              pop\n                /* \"#utility.yul\":13095:13461   */\n              swap2\n              swap1\n              pop\n              jump\t// out\n                /* \"#utility.yul\":13467:13886   */\n            tag_47:\n                /* \"#utility.yul\":13633:13637   */\n              0x00\n                /* \"#utility.yul\":13671:13673   */\n              0x20\n                /* \"#utility.yul\":13660:13669   */\n              dup3\n                /* \"#utility.yul\":13656:13674   */\n              add\n                /* \"#utility.yul\":13648:13674   */\n              swap1\n              pop\n                /* \"#utility.yul\":13720:13729   */\n              dup2\n                /* \"#utility.yul\":13714:13718   */\n              dup2\n                /* \"#utility.yul\":13710:13730   */\n              sub\n                /* \"#utility.yul\":13706:13707   */\n              0x00\n                /* \"#utility.yul\":13695:13704   */\n              dup4\n                /* \"#utility.yul\":13691:13708   */\n              add\n                /* \"#utility.yul\":13684:13731   */\n              mstore\n                /* \"#utility.yul\":13748:13879   */\n              tag_269\n                /* \"#utility.yul\":13874:13878   */\n              dup2\n                /* \"#utility.yul\":13748:13879   */\n              tag_112\n              jump\t// in\n            tag_269:\n                /* \"#utility.yul\":13740:13879   */\n              swap1\n              pop\n                /* \"#utility.yul\":13467:13886   */\n              swap2\n              swap1\n              pop\n              jump\t// out\n                /* \"#utility.yul\":13892:14072   */\n            tag_64:\n                /* \"#utility.yul\":13940:14017   */\n              0x4e487b7100000000000000000000000000000000000000000000000000000000\n                /* \"#utility.yul\":13937:13938   */\n              0x00\n                /* \"#utility.yul\":13930:14018   */\n              mstore\n                /* \"#utility.yul\":14037:14041   */\n              0x32\n                /* \"#utility.yul\":14034:14035   */\n              0x04\n                /* \"#utility.yul\":14027:14042   */\n              mstore\n                /* \"#utility.yul\":14061:14065   */\n              0x24\n                /* \"#utility.yul\":14058:14059   */\n              0x00\n                /* \"#utility.yul\":14051:14066   */\n              revert\n                /* \"#utility.yul\":14102:14976   */\n            tag_113:\n                /* \"#utility.yul\":14205:14208   */\n              0x00\n                /* \"#utility.yul\":14242:14247   */\n              dup2\n                /* \"#utility.yul\":14236:14248   */\n              sload\n                /* \"#utility.yul\":14271:14307   */\n              tag_272\n                /* \"#utility.yul\":14297:14306   */\n              dup2\n                /* \"#utility.yul\":14271:14307   */\n              tag_53\n              jump\t// in\n            tag_272:\n                /* \"#utility.yul\":14323:14412   */\n              tag_273\n                /* \"#utility.yul\":14405:14411   */\n              dup2\n                /* \"#utility.yul\":14400:14403   */\n              dup7\n                /* \"#utility.yul\":14323:14412   */\n              tag_92\n              jump\t// in\n            tag_273:\n                /* \"#utility.yul\":14316:14412   */\n              swap5\n              pop\n                /* \"#utility.yul\":14443:14444   */\n              0x01\n                /* \"#utility.yul\":14432:14441   */\n              dup3\n                /* \"#utility.yul\":14428:14445   */\n              and\n                /* \"#utility.yul\":14459:14460   */\n              0x00\n                /* \"#utility.yul\":14454:14620   */\n              dup2\n              eq\n              tag_275\n              jumpi\n                /* \"#utility.yul\":14634:14635   */\n              0x01\n                /* \"#utility.yul\":14629:14970   */\n              dup2\n              eq\n              tag_276\n              jumpi\n                /* \"#utility.yul\":14421:14970   */\n              jump(tag_274)\n                /* \"#utility.yul\":14454:14620   */\n            tag_275:\n                /* \"#utility.yul\":14538:14542   */\n              0xff\n                /* \"#utility.yul\":14534:14543   */\n              not\n                /* \"#utility.yul\":14523:14532   */\n              dup4\n                /* \"#utility.yul\":14519:14544   */\n              and\n                /* \"#utility.yul\":14514:14517   */\n              dup7\n                /* \"#utility.yul\":14507:14545   */\n              mstore\n                /* \"#utility.yul\":14600:14606   */\n              dup2\n                /* \"#utility.yul\":14593:14607   */\n              iszero\n                /* \"#utility.yul\":14586:14608   */\n              iszero\n                /* \"#utility.yul\":14578:14584   */\n              dup3\n                /* \"#utility.yul\":14574:14609   */\n              mul\n                /* \"#utility.yul\":14569:14572   */\n              dup7\n                /* \"#utility.yul\":14565:14610   */\n              add\n                /* \"#utility.yul\":14558:14610   */\n              swap4\n              pop\n                /* \"#utility.yul\":14454:14620   */\n              jump(tag_274)\n                /* \"#utility.yul\":14629:14970   */\n            tag_276:\n                /* \"#utility.yul\":14696:14734   */\n              tag_277\n                /* \"#utility.yul\":14728:14733   */\n              dup6\n                /* \"#utility.yul\":14696:14734   */\n              tag_95\n              jump\t// in\n            tag_277:\n                /* \"#utility.yul\":14756:14757   */\n              0x00\n                /* \"#utility.yul\":14770:14924   */\n            tag_278:\n                /* \"#utility.yul\":14784:14790   */\n              dup4\n                /* \"#utility.yul\":14781:14782   */\n              dup2\n                /* \"#utility.yul\":14778:14791   */\n              lt\n                /* \"#utility.yul\":14770:14924   */\n              iszero\n              tag_280\n              jumpi\n                /* \"#utility.yul\":14858:14865   */\n              dup2\n                /* \"#utility.yul\":14852:14866   */\n              sload\n                /* \"#utility.yul\":14848:14849   */\n              dup2\n                /* \"#utility.yul\":14843:14846   */\n              dup10\n                /* \"#utility.yul\":14839:14850   */\n              add\n                /* \"#utility.yul\":14832:14867   */\n              mstore\n                /* \"#utility.yul\":14908:14909   */\n              0x01\n                /* \"#utility.yul\":14899:14906   */\n              dup3\n                /* \"#utility.yul\":14895:14910   */\n              add\n                /* \"#utility.yul\":14884:14910   */\n              swap2\n              pop\n                /* \"#utility.yul\":14806:14810   */\n              0x20\n                /* \"#utility.yul\":14803:14804   */\n              dup2\n                /* \"#utility.yul\":14799:14811   */\n              add\n                /* \"#utility.yul\":14794:14811   */\n              swap1\n              pop\n                /* \"#utility.yul\":14770:14924   */\n              jump(tag_278)\n            tag_280:\n                /* \"#utility.yul\":14953:14959   */\n              dup4\n                /* \"#utility.yul\":14948:14951   */\n              dup9\n                /* \"#utility.yul\":14944:14960   */\n              add\n                /* \"#utility.yul\":14937:14960   */\n              swap6\n              pop\n                /* \"#utility.yul\":14636:14970   */\n              pop\n              pop\n                /* \"#utility.yul\":14421:14970   */\n            tag_274:\n              pop\n                /* \"#utility.yul\":14209:14976   */\n              pop\n              pop\n                /* \"#utility.yul\":14102:14976   */\n              swap3\n              swap2\n              pop\n              pop\n              jump\t// out\n                /* \"#utility.yul\":14982:15251   */\n            tag_67:\n                /* \"#utility.yul\":15111:15114   */\n              0x00\n                /* \"#utility.yul\":15133:15225   */\n              tag_282\n                /* \"#utility.yul\":15221:15224   */\n              dup3\n                /* \"#utility.yul\":15212:15218   */\n              dup5\n                /* \"#utility.yul\":15133:15225   */\n              tag_113\n              jump\t// in\n            tag_282:\n                /* \"#utility.yul\":15126:15225   */\n              swap2\n              pop\n                /* \"#utility.yul\":15242:15245   */\n              dup2\n                /* \"#utility.yul\":15235:15245   */\n              swap1\n              pop\n                /* \"#utility.yul\":14982:15251   */\n              swap3\n              swap2\n              pop\n              pop\n              jump\t// out\n                /* \"#utility.yul\":15257:15490   */\n            tag_70:\n                /* \"#utility.yul\":15296:15299   */\n              0x00\n                /* \"#utility.yul\":15319:15343   */\n              tag_284\n                /* \"#utility.yul\":15337:15342   */\n              dup3\n                /* \"#utility.yul\":15319:15343   */\n              tag_74\n              jump\t// in\n            tag_284:\n                /* \"#utility.yul\":15310:15343   */\n              swap2\n              pop\n                /* \"#utility.yul\":15365:15431   */\n              0xffffffffffffffffffffffffffffffffffffffffffffffffffffffffffffffff\n                /* \"#utility.yul\":15358:15363   */\n              dup3\n                /* \"#utility.yul\":15355:15432   */\n              sub\n                /* \"#utility.yul\":15352:15455   */\n              tag_285\n              jumpi\n                /* \"#utility.yul\":15435:15453   */\n              tag_286\n              tag_110\n              jump\t// in\n            tag_286:\n                /* \"#utility.yul\":15352:15455   */\n            tag_285:\n                /* \"#utility.yul\":15482:15483   */\n              0x01\n                /* \"#utility.yul\":15475:15480   */\n              dup3\n                /* \"#utility.yul\":15471:15484   */\n              add\n                /* \"#utility.yul\":15464:15484   */\n              swap1\n              pop\n                /* \"#utility.yul\":15257:15490   */\n              swap2\n              swap1\n              pop\n              jump\t// out\n\n            auxdata: 0xa26469706673582212204d82c13dacd46eeb827aea71e406d92c63107f08aadf453c4af901afd4c817e464736f6c63430008130033\n        }\n    }\n\n    sub_1: assembly {\n            /* \"contracts/Lesson 3/SimpleStorage.sol\":60:727  contract SimpleStorage {... */\n          mstore(0x40, 0x80)\n          callvalue\n          dup1\n          iszero\n          tag_1\n          jumpi\n          0x00\n          dup1\n          revert\n        tag_1:\n          pop\n          dataSize(sub_0)\n          dup1\n          dataOffset(sub_0)\n          0x00\n          codecopy\n          0x00\n          return\n        stop\n\n        sub_0: assembly {\n                /* \"contracts/Lesson 3/SimpleStorage.sol\":60:727  contract SimpleStorage {... */\n              mstore(0x40, 0x80)\n              callvalue\n              dup1\n              iszero\n              tag_1\n              jumpi\n              0x00\n              dup1\n              revert\n            tag_1:\n              pop\n              jumpi(tag_2, lt(calldatasize, 0x04))\n              shr(0xe0, calldataload(0x00))\n              dup1\n              0x2e64cec1\n              eq\n              tag_3\n              jumpi\n              dup1\n              0x2ebce631\n              eq\n              tag_4\n              jumpi\n              dup1\n              0x6057361d\n              eq\n              tag_5\n              jumpi\n              dup1\n              0x6f760f41\n              eq\n              tag_6\n              jumpi\n              dup1\n              0x8bab8dd5\n              eq\n              tag_7\n              jumpi\n            tag_2:\n              0x00\n              dup1\n              revert\n                /* \"contracts/Lesson 3/SimpleStorage.sol\":428:520  function retrieve() public view returns (uint256) {... */\n            tag_3:\n              tag_8\n              tag_9\n              jump\t// in\n            tag_8:\n              mload(0x40)\n              tag_10\n              swap2\n              swap1\n              tag_11\n              jump\t// in\n            tag_10:\n              mload(0x40)\n              dup1\n              swap2\n              sub\n              swap1\n              return\n                /* \"contracts/Lesson 3/SimpleStorage.sol\":212:240  Person[] public listOfPeople */\n            tag_4:\n              tag_12\n              0x04\n              dup1\n              calldatasize\n              sub\n              dup2\n              add\n              swap1\n              tag_13\n              swap2\n              swap1\n              tag_14\n              jump\t// in\n            tag_13:\n              tag_15\n              jump\t// in\n            tag_12:\n              mload(0x40)\n              tag_16\n              swap3\n              swap2\n              swap1\n              tag_17\n              jump\t// in\n            tag_16:\n              mload(0x40)\n              dup1\n              swap2\n              sub\n              swap1\n              return\n                /* \"contracts/Lesson 3/SimpleStorage.sol\":312:420  function store(uint256 _favoriteNumber) public virtual {... */\n            tag_5:\n              tag_18\n              0x04\n              dup1\n              calldatasize\n              sub\n              dup2\n              add\n              swap1\n              tag_19\n              swap2\n              swap1\n              tag_14\n              jump\t// in\n            tag_19:\n              tag_20\n              jump\t// in\n            tag_18:\n              stop\n                /* \"contracts/Lesson 3/SimpleStorage.sol\":528:724  function addPerson(string memory _name, uint256 _favoriteNumber) public {... */\n            tag_6:\n              tag_21\n              0x04\n              dup1\n              calldatasize\n              sub\n              dup2\n              add\n              swap1\n              tag_22\n              swap2\n              swap1\n              tag_23\n              jump\t// in\n            tag_22:\n              tag_24\n              jump\t// in\n            tag_21:\n              stop\n                /* \"contracts/Lesson 3/SimpleStorage.sol\":249:303  mapping(string => uint256) public nameToFavoriteNumber */\n            tag_7:\n              tag_25\n              0x04\n              dup1\n              calldatasize\n              sub\n              dup2\n              add\n              swap1\n              tag_26\n              swap2\n              swap1\n              tag_27\n              jump\t// in\n            tag_26:\n              tag_28\n              jump\t// in\n            tag_25:\n              mload(0x40)\n              tag_29\n              swap2\n              swap1\n              tag_11\n              jump\t// in\n            tag_29:\n              mload(0x40)\n              dup1\n              swap2\n              sub\n              swap1\n              return\n                /* \"contracts/Lesson 3/SimpleStorage.sol\":428:520  function retrieve() public view returns (uint256) {... */\n            tag_9:\n                /* \"contracts/Lesson 3/SimpleStorage.sol\":469:476  uint256 */\n              0x00\n                /* \"contracts/Lesson 3/SimpleStorage.sol\":496:512  myFavoriteNumber */\n              dup1\n              sload\n                /* \"contracts/Lesson 3/SimpleStorage.sol\":489:512  return myFavoriteNumber */\n              swap1\n              pop\n                /* \"contracts/Lesson 3/SimpleStorage.sol\":428:520  function retrieve() public view returns (uint256) {... */\n              swap1\n              jump\t// out\n                /* \"contracts/Lesson 3/SimpleStorage.sol\":212:240  Person[] public listOfPeople */\n            tag_15:\n              0x01\n              dup2\n              dup2\n              sload\n              dup2\n              lt\n              tag_31\n              jumpi\n              0x00\n              dup1\n              revert\n            tag_31:\n              swap1\n              0x00\n              mstore\n              keccak256(0x00, 0x20)\n              swap1\n              0x02\n              mul\n              add\n              0x00\n              swap2\n              pop\n              swap1\n              pop\n              dup1\n              0x00\n              add\n              sload\n              swap1\n              dup1\n              0x01\n              add\n              dup1\n              sload\n              tag_33\n              swap1\n              tag_34\n              jump\t// in\n            tag_33:\n              dup1\n              0x1f\n              add\n              0x20\n              dup1\n              swap2\n              div\n              mul\n              0x20\n              add\n              mload(0x40)\n              swap1\n              dup2\n              add\n              0x40\n              mstore\n              dup1\n              swap3\n              swap2\n              swap1\n              dup2\n              dup2\n              mstore\n              0x20\n              add\n              dup3\n              dup1\n              sload\n              tag_35\n              swap1\n              tag_34\n              jump\t// in\n            tag_35:\n              dup1\n              iszero\n              tag_36\n              jumpi\n              dup1\n              0x1f\n              lt\n              tag_37\n              jumpi\n              0x0100\n              dup1\n              dup4\n              sload\n              div\n              mul\n              dup4\n              mstore\n              swap2\n              0x20\n              add\n              swap2\n              jump(tag_36)\n            tag_37:\n              dup3\n              add\n              swap2\n              swap1\n              0x00\n              mstore\n              keccak256(0x00, 0x20)\n              swap1\n            tag_38:\n              dup2\n              sload\n              dup2\n              mstore\n              swap1\n              0x01\n              add\n              swap1\n              0x20\n              add\n              dup1\n              dup4\n              gt\n              tag_38\n              jumpi\n              dup3\n              swap1\n              sub\n              0x1f\n              and\n              dup3\n              add\n              swap2\n            tag_36:\n              pop\n              pop\n              pop\n              pop\n              pop\n              swap1\n              pop\n              dup3\n              jump\t// out\n                /* \"contracts/Lesson 3/SimpleStorage.sol\":312:420  function store(uint256 _favoriteNumber) public virtual {... */\n            tag_20:\n                /* \"contracts/Lesson 3/SimpleStorage.sol\":397:412  _favoriteNumber */\n              dup1\n                /* \"contracts/Lesson 3/SimpleStorage.sol\":378:394  myFavoriteNumber */\n              0x00\n                /* \"contracts/Lesson 3/SimpleStorage.sol\":378:412  myFavoriteNumber = _favoriteNumber */\n              dup2\n              swap1\n              sstore\n              pop\n                /* \"contracts/Lesson 3/SimpleStorage.sol\":312:420  function store(uint256 _favoriteNumber) public virtual {... */\n              pop\n              jump\t// out\n                /* \"contracts/Lesson 3/SimpleStorage.sol\":528:724  function addPerson(string memory _name, uint256 _favoriteNumber) public {... */\n            tag_24:\n                /* \"contracts/Lesson 3/SimpleStorage.sol\":611:623  listOfPeople */\n              0x01\n                /* \"contracts/Lesson 3/SimpleStorage.sol\":629:659  Person(_favoriteNumber, _name) */\n              mload(0x40)\n              dup1\n              0x40\n              add\n              0x40\n              mstore\n              dup1\n                /* \"contracts/Lesson 3/SimpleStorage.sol\":636:651  _favoriteNumber */\n              dup4\n                /* \"contracts/Lesson 3/SimpleStorage.sol\":629:659  Person(_favoriteNumber, _name) */\n              dup2\n              mstore\n              0x20\n              add\n                /* \"contracts/Lesson 3/SimpleStorage.sol\":653:658  _name */\n              dup5\n                /* \"contracts/Lesson 3/SimpleStorage.sol\":629:659  Person(_favoriteNumber, _name) */\n              dup2\n              mstore\n              pop\n                /* \"contracts/Lesson 3/SimpleStorage.sol\":611:660  listOfPeople.push(Person(_favoriteNumber, _name)) */\n              swap1\n              dup1\n              0x01\n              dup2\n              sload\n              add\n              dup1\n              dup3\n              sstore\n              dup1\n              swap2\n              pop\n              pop\n              0x01\n              swap1\n              sub\n              swap1\n              0x00\n              mstore\n              keccak256(0x00, 0x20)\n              swap1\n              0x02\n              mul\n              add\n              0x00\n              swap1\n              swap2\n              swap1\n              swap2\n              swap1\n              swap2\n              pop\n              0x00\n              dup3\n              add\n              mload\n              dup2\n              0x00\n              add\n              sstore\n              0x20\n              dup3\n              add\n              mload\n              dup2\n              0x01\n              add\n              swap1\n              dup2\n              tag_42\n              swap2\n              swap1\n              tag_43\n              jump\t// in\n            tag_42:\n              pop\n              pop\n              pop\n                /* \"contracts/Lesson 3/SimpleStorage.sol\":701:716  _favoriteNumber */\n              dup1\n                /* \"contracts/Lesson 3/SimpleStorage.sol\":671:691  nameToFavoriteNumber */\n              0x02\n                /* \"contracts/Lesson 3/SimpleStorage.sol\":692:697  _name */\n              dup4\n                /* \"contracts/Lesson 3/SimpleStorage.sol\":671:698  nameToFavoriteNumber[_name] */\n              mload(0x40)\n              tag_44\n              swap2\n              swap1\n              tag_45\n              jump\t// in\n            tag_44:\n              swap1\n              dup2\n              mstore\n              0x20\n              add\n              mload(0x40)\n              dup1\n              swap2\n              sub\n              swap1\n              keccak256\n                /* \"contracts/Lesson 3/SimpleStorage.sol\":671:716  nameToFavoriteNumber[_name] = _favoriteNumber */\n              dup2\n              swap1\n              sstore\n              pop\n                /* \"contracts/Lesson 3/SimpleStorage.sol\":528:724  function addPerson(string memory _name, uint256 _favoriteNumber) public {... */\n              pop\n              pop\n              jump\t// out\n                /* \"contracts/Lesson 3/SimpleStorage.sol\":249:303  mapping(string => uint256) public nameToFavoriteNumber */\n            tag_28:\n              0x02\n              dup2\n              dup1\n              mload\n              0x20\n              dup2\n              add\n              dup3\n              add\n              dup1\n              mload\n              dup5\n              dup3\n              mstore\n              0x20\n              dup4\n              add\n              0x20\n              dup6\n              add\n              keccak256\n              dup2\n              dup4\n              mstore\n              dup1\n              swap6\n              pop\n              pop\n              pop\n              pop\n              pop\n              pop\n              0x00\n              swap2\n              pop\n              swap1\n              pop\n              sload\n              dup2\n              jump\t// out\n                /* \"#utility.yul\":7:84   */\n            tag_46:\n                /* \"#utility.yul\":44:51   */\n              0x00\n                /* \"#utility.yul\":73:78   */\n              dup2\n                /* \"#utility.yul\":62:78   */\n              swap1\n              pop\n                /* \"#utility.yul\":7:84   */\n              swap2\n              swap1\n              pop\n              jump\t// out\n                /* \"#utility.yul\":90:208   */\n            tag_47:\n                /* \"#utility.yul\":177:201   */\n              tag_88\n                /* \"#utility.yul\":195:200   */\n              dup2\n                /* \"#utility.yul\":177:201   */\n              tag_46\n              jump\t// in\n            tag_88:\n                /* \"#utility.yul\":172:175   */\n              dup3\n                /* \"#utility.yul\":165:202   */\n              mstore\n                /* \"#utility.yul\":90:208   */\n              pop\n              pop\n              jump\t// out\n                /* \"#utility.yul\":214:436   */\n            tag_11:\n                /* \"#utility.yul\":307:311   */\n              0x00\n                /* \"#utility.yul\":345:347   */\n              0x20\n                /* \"#utility.yul\":334:343   */\n              dup3\n                /* \"#utility.yul\":330:348   */\n              add\n                /* \"#utility.yul\":322:348   */\n              swap1\n              pop\n                /* \"#utility.yul\":358:429   */\n              tag_90\n                /* \"#utility.yul\":426:427   */\n              0x00\n                /* \"#utility.yul\":415:424   */\n              dup4\n                /* \"#utility.yul\":411:428   */\n              add\n                /* \"#utility.yul\":402:408   */\n              dup5\n                /* \"#utility.yul\":358:429   */\n              tag_47\n              jump\t// in\n            tag_90:\n                /* \"#utility.yul\":214:436   */\n              swap3\n              swap2\n              pop\n              pop\n              jump\t// out\n                /* \"#utility.yul\":442:517   */\n            tag_48:\n                /* \"#utility.yul\":475:481   */\n              0x00\n                /* \"#utility.yul\":508:510   */\n              0x40\n                /* \"#utility.yul\":502:511   */\n              mload\n                /* \"#utility.yul\":492:511   */\n              swap1\n              pop\n                /* \"#utility.yul\":442:517   */\n              swap1\n              jump\t// out\n                /* \"#utility.yul\":523:640   */\n            tag_49:\n                /* \"#utility.yul\":632:633   */\n              0x00\n                /* \"#utility.yul\":629:630   */\n              dup1\n                /* \"#utility.yul\":622:634   */\n              revert\n                /* \"#utility.yul\":646:763   */\n            tag_50:\n                /* \"#utility.yul\":755:756   */\n              0x00\n                /* \"#utility.yul\":752:753   */\n              dup1\n                /* \"#utility.yul\":745:757   */\n              revert\n                /* \"#utility.yul\":769:891   */\n            tag_51:\n                /* \"#utility.yul\":842:866   */\n              tag_95\n                /* \"#utility.yul\":860:865   */\n              dup2\n                /* \"#utility.yul\":842:866   */\n              tag_46\n              jump\t// in\n            tag_95:\n                /* \"#utility.yul\":835:840   */\n              dup2\n                /* \"#utility.yul\":832:867   */\n              eq\n                /* \"#utility.yul\":822:885   */\n              tag_96\n              jumpi\n                /* \"#utility.yul\":881:882   */\n              0x00\n                /* \"#utility.yul\":878:879   */\n              dup1\n                /* \"#utility.yul\":871:883   */\n              revert\n                /* \"#utility.yul\":822:885   */\n            tag_96:\n                /* \"#utility.yul\":769:891   */\n              pop\n              jump\t// out\n                /* \"#utility.yul\":897:1036   */\n            tag_52:\n                /* \"#utility.yul\":943:948   */\n              0x00\n                /* \"#utility.yul\":981:987   */\n              dup2\n                /* \"#utility.yul\":968:988   */\n              calldataload\n                /* \"#utility.yul\":959:988   */\n              swap1\n              pop\n                /* \"#utility.yul\":997:1030   */\n              tag_98\n                /* \"#utility.yul\":1024:1029   */\n              dup2\n                /* \"#utility.yul\":997:1030   */\n              tag_51\n              jump\t// in\n            tag_98:\n                /* \"#utility.yul\":897:1036   */\n              swap3\n              swap2\n              pop\n              pop\n              jump\t// out\n                /* \"#utility.yul\":1042:1371   */\n            tag_14:\n                /* \"#utility.yul\":1101:1107   */\n              0x00\n                /* \"#utility.yul\":1150:1152   */\n              0x20\n                /* \"#utility.yul\":1138:1147   */\n              dup3\n                /* \"#utility.yul\":1129:1136   */\n              dup5\n                /* \"#utility.yul\":1125:1148   */\n              sub\n                /* \"#utility.yul\":1121:1153   */\n              slt\n                /* \"#utility.yul\":1118:1237   */\n              iszero\n              tag_100\n              jumpi\n                /* \"#utility.yul\":1156:1235   */\n              tag_101\n              tag_49\n              jump\t// in\n            tag_101:\n                /* \"#utility.yul\":1118:1237   */\n            tag_100:\n                /* \"#utility.yul\":1276:1277   */\n              0x00\n                /* \"#utility.yul\":1301:1354   */\n              tag_102\n                /* \"#utility.yul\":1346:1353   */\n              dup5\n                /* \"#utility.yul\":1337:1343   */\n              dup3\n                /* \"#utility.yul\":1326:1335   */\n              dup6\n                /* \"#utility.yul\":1322:1344   */\n              add\n                /* \"#utility.yul\":1301:1354   */\n              tag_52\n              jump\t// in\n            tag_102:\n                /* \"#utility.yul\":1291:1354   */\n              swap2\n              pop\n                /* \"#utility.yul\":1247:1364   */\n              pop\n                /* \"#utility.yul\":1042:1371   */\n              swap3\n              swap2\n              pop\n              pop\n              jump\t// out\n                /* \"#utility.yul\":1377:1476   */\n            tag_53:\n                /* \"#utility.yul\":1429:1435   */\n              0x00\n                /* \"#utility.yul\":1463:1468   */\n              dup2\n                /* \"#utility.yul\":1457:1469   */\n              mload\n                /* \"#utility.yul\":1447:1469   */\n              swap1\n              pop\n                /* \"#utility.yul\":1377:1476   */\n              swap2\n              swap1\n              pop\n              jump\t// out\n                /* \"#utility.yul\":1482:1651   */\n            tag_54:\n                /* \"#utility.yul\":1566:1577   */\n              0x00\n                /* \"#utility.yul\":1600:1606   */\n              dup3\n                /* \"#utility.yul\":1595:1598   */\n              dup3\n                /* \"#utility.yul\":1588:1607   */\n              mstore\n                /* \"#utility.yul\":1640:1644   */\n              0x20\n                /* \"#utility.yul\":1635:1638   */\n              dup3\n                /* \"#utility.yul\":1631:1645   */\n              add\n                /* \"#utility.yul\":1616:1645   */\n              swap1\n              pop\n                /* \"#utility.yul\":1482:1651   */\n              swap3\n              swap2\n              pop\n              pop\n              jump\t// out\n                /* \"#utility.yul\":1657:1903   */\n            tag_55:\n                /* \"#utility.yul\":1738:1739   */\n              0x00\n                /* \"#utility.yul\":1748:1861   */\n            tag_106:\n                /* \"#utility.yul\":1762:1768   */\n              dup4\n                /* \"#utility.yul\":1759:1760   */\n              dup2\n                /* \"#utility.yul\":1756:1769   */\n              lt\n                /* \"#utility.yul\":1748:1861   */\n              iszero\n              tag_108\n              jumpi\n                /* \"#utility.yul\":1847:1848   */\n              dup1\n                /* \"#utility.yul\":1842:1845   */\n              dup3\n                /* \"#utility.yul\":1838:1849   */\n              add\n                /* \"#utility.yul\":1832:1850   */\n              mload\n                /* \"#utility.yul\":1828:1829   */\n              dup2\n                /* \"#utility.yul\":1823:1826   */\n              dup5\n                /* \"#utility.yul\":1819:1830   */\n              add\n                /* \"#utility.yul\":1812:1851   */\n              mstore\n                /* \"#utility.yul\":1784:1786   */\n              0x20\n                /* \"#utility.yul\":1781:1782   */\n              dup2\n                /* \"#utility.yul\":1777:1787   */\n              add\n                /* \"#utility.yul\":1772:1787   */\n              swap1\n              pop\n                /* \"#utility.yul\":1748:1861   */\n              jump(tag_106)\n            tag_108:\n                /* \"#utility.yul\":1895:1896   */\n              0x00\n                /* \"#utility.yul\":1886:1892   */\n              dup5\n                /* \"#utility.yul\":1881:1884   */\n              dup5\n                /* \"#utility.yul\":1877:1893   */\n              add\n                /* \"#utility.yul\":1870:1897   */\n              mstore\n                /* \"#utility.yul\":1719:1903   */\n              pop\n                /* \"#utility.yul\":1657:1903   */\n              pop\n              pop\n              pop\n              jump\t// out\n                /* \"#utility.yul\":1909:2011   */\n            tag_56:\n                /* \"#utility.yul\":1950:1956   */\n              0x00\n                /* \"#utility.yul\":2001:2003   */\n              0x1f\n                /* \"#utility.yul\":1997:2004   */\n              not\n                /* \"#utility.yul\":1992:1994   */\n              0x1f\n                /* \"#utility.yul\":1985:1990   */\n              dup4\n                /* \"#utility.yul\":1981:1995   */\n              add\n                /* \"#utility.yul\":1977:2005   */\n              and\n                /* \"#utility.yul\":1967:2005   */\n              swap1\n              pop\n                /* \"#utility.yul\":1909:2011   */\n              swap2\n              swap1\n              pop\n              jump\t// out\n                /* \"#utility.yul\":2017:2394   */\n            tag_57:\n                /* \"#utility.yul\":2105:2108   */\n              0x00\n                /* \"#utility.yul\":2133:2172   */\n              tag_111\n                /* \"#utility.yul\":2166:2171   */\n              dup3\n                /* \"#utility.yul\":2133:2172   */\n              tag_53\n              jump\t// in\n            tag_111:\n                /* \"#utility.yul\":2188:2259   */\n              tag_112\n                /* \"#utility.yul\":2252:2258   */\n              dup2\n                /* \"#utility.yul\":2247:2250   */\n              dup6\n                /* \"#utility.yul\":2188:2259   */\n              tag_54\n              jump\t// in\n            tag_112:\n                /* \"#utility.yul\":2181:2259   */\n              swap4\n              pop\n                /* \"#utility.yul\":2268:2333   */\n              tag_113\n                /* \"#utility.yul\":2326:2332   */\n              dup2\n                /* \"#utility.yul\":2321:2324   */\n              dup6\n                /* \"#utility.yul\":2314:2318   */\n              0x20\n                /* \"#utility.yul\":2307:2312   */\n              dup7\n                /* \"#utility.yul\":2303:2319   */\n              add\n                /* \"#utility.yul\":2268:2333   */\n              tag_55\n              jump\t// in\n            tag_113:\n                /* \"#utility.yul\":2358:2387   */\n              tag_114\n                /* \"#utility.yul\":2380:2386   */\n              dup2\n                /* \"#utility.yul\":2358:2387   */\n              tag_56\n              jump\t// in\n            tag_114:\n                /* \"#utility.yul\":2353:2356   */\n              dup5\n                /* \"#utility.yul\":2349:2388   */\n              add\n                /* \"#utility.yul\":2342:2388   */\n              swap2\n              pop\n                /* \"#utility.yul\":2109:2394   */\n              pop\n                /* \"#utility.yul\":2017:2394   */\n              swap3\n              swap2\n              pop\n              pop\n              jump\t// out\n                /* \"#utility.yul\":2400:2823   */\n            tag_17:\n                /* \"#utility.yul\":2541:2545   */\n              0x00\n                /* \"#utility.yul\":2579:2581   */\n              0x40\n                /* \"#utility.yul\":2568:2577   */\n              dup3\n                /* \"#utility.yul\":2564:2582   */\n              add\n                /* \"#utility.yul\":2556:2582   */\n              swap1\n              pop\n                /* \"#utility.yul\":2592:2663   */\n              tag_116\n                /* \"#utility.yul\":2660:2661   */\n              0x00\n                /* \"#utility.yul\":2649:2658   */\n              dup4\n                /* \"#utility.yul\":2645:2662   */\n              add\n                /* \"#utility.yul\":2636:2642   */\n              dup6\n                /* \"#utility.yul\":2592:2663   */\n              tag_47\n              jump\t// in\n            tag_116:\n                /* \"#utility.yul\":2710:2719   */\n              dup2\n                /* \"#utility.yul\":2704:2708   */\n              dup2\n                /* \"#utility.yul\":2700:2720   */\n              sub\n                /* \"#utility.yul\":2695:2697   */\n              0x20\n                /* \"#utility.yul\":2684:2693   */\n              dup4\n                /* \"#utility.yul\":2680:2698   */\n              add\n                /* \"#utility.yul\":2673:2721   */\n              mstore\n                /* \"#utility.yul\":2738:2816   */\n              tag_117\n                /* \"#utility.yul\":2811:2815   */\n              dup2\n                /* \"#utility.yul\":2802:2808   */\n              dup5\n                /* \"#utility.yul\":2738:2816   */\n              tag_57\n              jump\t// in\n            tag_117:\n                /* \"#utility.yul\":2730:2816   */\n              swap1\n              pop\n                /* \"#utility.yul\":2400:2823   */\n              swap4\n              swap3\n              pop\n              pop\n              pop\n              jump\t// out\n                /* \"#utility.yul\":2829:2946   */\n            tag_58:\n                /* \"#utility.yul\":2938:2939   */\n              0x00\n                /* \"#utility.yul\":2935:2936   */\n              dup1\n                /* \"#utility.yul\":2928:2940   */\n              revert\n                /* \"#utility.yul\":2952:3069   */\n            tag_59:\n                /* \"#utility.yul\":3061:3062   */\n              0x00\n                /* \"#utility.yul\":3058:3059   */\n              dup1\n                /* \"#utility.yul\":3051:3063   */\n              revert\n                /* \"#utility.yul\":3075:3255   */\n            tag_60:\n                /* \"#utility.yul\":3123:3200   */\n              0x4e487b7100000000000000000000000000000000000000000000000000000000\n                /* \"#utility.yul\":3120:3121   */\n              0x00\n                /* \"#utility.yul\":3113:3201   */\n              mstore\n                /* \"#utility.yul\":3220:3224   */\n              0x41\n                /* \"#utility.yul\":3217:3218   */\n              0x04\n                /* \"#utility.yul\":3210:3225   */\n              mstore\n                /* \"#utility.yul\":3244:3248   */\n              0x24\n                /* \"#utility.yul\":3241:3242   */\n              0x00\n                /* \"#utility.yul\":3234:3249   */\n              revert\n                /* \"#utility.yul\":3261:3542   */\n            tag_61:\n                /* \"#utility.yul\":3344:3371   */\n              tag_122\n                /* \"#utility.yul\":3366:3370   */\n              dup3\n                /* \"#utility.yul\":3344:3371   */\n              tag_56\n              jump\t// in\n            tag_122:\n                /* \"#utility.yul\":3336:3342   */\n              dup2\n                /* \"#utility.yul\":3332:3372   */\n              add\n                /* \"#utility.yul\":3474:3480   */\n              dup2\n                /* \"#utility.yul\":3462:3472   */\n              dup2\n                /* \"#utility.yul\":3459:3481   */\n              lt\n                /* \"#utility.yul\":3438:3456   */\n              0xffffffffffffffff\n                /* \"#utility.yul\":3426:3436   */\n              dup3\n                /* \"#utility.yul\":3423:3457   */\n              gt\n                /* \"#utility.yul\":3420:3482   */\n              or\n                /* \"#utility.yul\":3417:3505   */\n              iszero\n              tag_123\n              jumpi\n                /* \"#utility.yul\":3485:3503   */\n              tag_124\n              tag_60\n              jump\t// in\n            tag_124:\n                /* \"#utility.yul\":3417:3505   */\n            tag_123:\n                /* \"#utility.yul\":3525:3535   */\n              dup1\n                /* \"#utility.yul\":3521:3523   */\n              0x40\n                /* \"#utility.yul\":3514:3536   */\n              mstore\n                /* \"#utility.yul\":3304:3542   */\n              pop\n                /* \"#utility.yul\":3261:3542   */\n              pop\n              pop\n              jump\t// out\n                /* \"#utility.yul\":3548:3677   */\n            tag_62:\n                /* \"#utility.yul\":3582:3588   */\n              0x00\n                /* \"#utility.yul\":3609:3629   */\n              tag_126\n              tag_48\n              jump\t// in\n            tag_126:\n                /* \"#utility.yul\":3599:3629   */\n              swap1\n              pop\n                /* \"#utility.yul\":3638:3671   */\n              tag_127\n                /* \"#utility.yul\":3666:3670   */\n              dup3\n                /* \"#utility.yul\":3658:3664   */\n              dup3\n                /* \"#utility.yul\":3638:3671   */\n              tag_61\n              jump\t// in\n            tag_127:\n                /* \"#utility.yul\":3548:3677   */\n              swap2\n              swap1\n              pop\n              jump\t// out\n                /* \"#utility.yul\":3683:3991   */\n            tag_63:\n                /* \"#utility.yul\":3745:3749   */\n              0x00\n                /* \"#utility.yul\":3835:3853   */\n              0xffffffffffffffff\n                /* \"#utility.yul\":3827:3833   */\n              dup3\n                /* \"#utility.yul\":3824:3854   */\n              gt\n                /* \"#utility.yul\":3821:3877   */\n              iszero\n              tag_129\n              jumpi\n                /* \"#utility.yul\":3857:3875   */\n              tag_130\n              tag_60\n              jump\t// in\n            tag_130:\n                /* \"#utility.yul\":3821:3877   */\n            tag_129:\n                /* \"#utility.yul\":3895:3924   */\n              tag_131\n                /* \"#utility.yul\":3917:3923   */\n              dup3\n                /* \"#utility.yul\":3895:3924   */\n              tag_56\n              jump\t// in\n            tag_131:\n                /* \"#utility.yul\":3887:3924   */\n              swap1\n              pop\n                /* \"#utility.yul\":3979:3983   */\n              0x20\n                /* \"#utility.yul\":3973:3977   */\n              dup2\n                /* \"#utility.yul\":3969:3984   */\n              add\n                /* \"#utility.yul\":3961:3984   */\n              swap1\n              pop\n                /* \"#utility.yul\":3683:3991   */\n              swap2\n              swap1\n              pop\n              jump\t// out\n                /* \"#utility.yul\":3997:4143   */\n            tag_64:\n                /* \"#utility.yul\":4094:4100   */\n              dup3\n                /* \"#utility.yul\":4089:4092   */\n              dup2\n                /* \"#utility.yul\":4084:4087   */\n              dup4\n                /* \"#utility.yul\":4071:4101   */\n              calldatacopy\n                /* \"#utility.yul\":4135:4136   */\n              0x00\n                /* \"#utility.yul\":4126:4132   */\n              dup4\n                /* \"#utility.yul\":4121:4124   */\n              dup4\n                /* \"#utility.yul\":4117:4133   */\n              add\n                /* \"#utility.yul\":4110:4137   */\n              mstore\n                /* \"#utility.yul\":3997:4143   */\n              pop\n              pop\n              pop\n              jump\t// out\n                /* \"#utility.yul\":4149:4574   */\n            tag_65:\n                /* \"#utility.yul\":4227:4232   */\n              0x00\n                /* \"#utility.yul\":4252:4318   */\n              tag_134\n                /* \"#utility.yul\":4268:4317   */\n              tag_135\n                /* \"#utility.yul\":4310:4316   */\n              dup5\n                /* \"#utility.yul\":4268:4317   */\n              tag_63\n              jump\t// in\n            tag_135:\n                /* \"#utility.yul\":4252:4318   */\n              tag_62\n              jump\t// in\n            tag_134:\n                /* \"#utility.yul\":4243:4318   */\n              swap1\n              pop\n                /* \"#utility.yul\":4341:4347   */\n              dup3\n                /* \"#utility.yul\":4334:4339   */\n              dup2\n                /* \"#utility.yul\":4327:4348   */\n              mstore\n                /* \"#utility.yul\":4379:4383   */\n              0x20\n                /* \"#utility.yul\":4372:4377   */\n              dup2\n                /* \"#utility.yul\":4368:4384   */\n              add\n                /* \"#utility.yul\":4417:4420   */\n              dup5\n                /* \"#utility.yul\":4408:4414   */\n              dup5\n                /* \"#utility.yul\":4403:4406   */\n              dup5\n                /* \"#utility.yul\":4399:4415   */\n              add\n                /* \"#utility.yul\":4396:4421   */\n              gt\n                /* \"#utility.yul\":4393:4505   */\n              iszero\n              tag_136\n              jumpi\n                /* \"#utility.yul\":4424:4503   */\n              tag_137\n              tag_59\n              jump\t// in\n            tag_137:\n                /* \"#utility.yul\":4393:4505   */\n            tag_136:\n                /* \"#utility.yul\":4514:4568   */\n              tag_138\n                /* \"#utility.yul\":4561:4567   */\n              dup5\n                /* \"#utility.yul\":4556:4559   */\n              dup3\n                /* \"#utility.yul\":4551:4554   */\n              dup6\n                /* \"#utility.yul\":4514:4568   */\n              tag_64\n              jump\t// in\n            tag_138:\n                /* \"#utility.yul\":4233:4574   */\n              pop\n                /* \"#utility.yul\":4149:4574   */\n              swap4\n              swap3\n              pop\n              pop\n              pop\n              jump\t// out\n                /* \"#utility.yul\":4594:4934   */\n            tag_66:\n                /* \"#utility.yul\":4650:4655   */\n              0x00\n                /* \"#utility.yul\":4699:4702   */\n              dup3\n                /* \"#utility.yul\":4692:4696   */\n              0x1f\n                /* \"#utility.yul\":4684:4690   */\n              dup4\n                /* \"#utility.yul\":4680:4697   */\n              add\n                /* \"#utility.yul\":4676:4703   */\n              slt\n                /* \"#utility.yul\":4666:4788   */\n              tag_140\n              jumpi\n                /* \"#utility.yul\":4707:4786   */\n              tag_141\n              tag_58\n              jump\t// in\n            tag_141:\n                /* \"#utility.yul\":4666:4788   */\n            tag_140:\n                /* \"#utility.yul\":4824:4830   */\n              dup2\n                /* \"#utility.yul\":4811:4831   */\n              calldataload\n                /* \"#utility.yul\":4849:4928   */\n              tag_142\n                /* \"#utility.yul\":4924:4927   */\n              dup5\n                /* \"#utility.yul\":4916:4922   */\n              dup3\n                /* \"#utility.yul\":4909:4913   */\n              0x20\n                /* \"#utility.yul\":4901:4907   */\n              dup7\n                /* \"#utility.yul\":4897:4914   */\n              add\n                /* \"#utility.yul\":4849:4928   */\n              tag_65\n              jump\t// in\n            tag_142:\n                /* \"#utility.yul\":4840:4928   */\n              swap2\n              pop\n                /* \"#utility.yul\":4656:4934   */\n              pop\n                /* \"#utility.yul\":4594:4934   */\n              swap3\n              swap2\n              pop\n              pop\n              jump\t// out\n                /* \"#utility.yul\":4940:5594   */\n            tag_23:\n                /* \"#utility.yul\":5018:5024   */\n              0x00\n                /* \"#utility.yul\":5026:5032   */\n              dup1\n                /* \"#utility.yul\":5075:5077   */\n              0x40\n                /* \"#utility.yul\":5063:5072   */\n              dup4\n                /* \"#utility.yul\":5054:5061   */\n              dup6\n                /* \"#utility.yul\":5050:5073   */\n              sub\n                /* \"#utility.yul\":5046:5078   */\n              slt\n                /* \"#utility.yul\":5043:5162   */\n              iszero\n              tag_144\n              jumpi\n                /* \"#utility.yul\":5081:5160   */\n              tag_145\n              tag_49\n              jump\t// in\n            tag_145:\n                /* \"#utility.yul\":5043:5162   */\n            tag_144:\n                /* \"#utility.yul\":5229:5230   */\n              0x00\n                /* \"#utility.yul\":5218:5227   */\n              dup4\n                /* \"#utility.yul\":5214:5231   */\n              add\n                /* \"#utility.yul\":5201:5232   */\n              calldataload\n                /* \"#utility.yul\":5259:5277   */\n              0xffffffffffffffff\n                /* \"#utility.yul\":5251:5257   */\n              dup2\n                /* \"#utility.yul\":5248:5278   */\n              gt\n                /* \"#utility.yul\":5245:5362   */\n              iszero\n              tag_146\n              jumpi\n                /* \"#utility.yul\":5281:5360   */\n              tag_147\n              tag_50\n              jump\t// in\n            tag_147:\n                /* \"#utility.yul\":5245:5362   */\n            tag_146:\n                /* \"#utility.yul\":5386:5449   */\n              tag_148\n                /* \"#utility.yul\":5441:5448   */\n              dup6\n                /* \"#utility.yul\":5432:5438   */\n              dup3\n                /* \"#utility.yul\":5421:5430   */\n              dup7\n                /* \"#utility.yul\":5417:5439   */\n              add\n                /* \"#utility.yul\":5386:5449   */\n              tag_66\n              jump\t// in\n            tag_148:\n                /* \"#utility.yul\":5376:5449   */\n              swap3\n              pop\n                /* \"#utility.yul\":5172:5459   */\n              pop\n                /* \"#utility.yul\":5498:5500   */\n              0x20\n                /* \"#utility.yul\":5524:5577   */\n              tag_149\n                /* \"#utility.yul\":5569:5576   */\n              dup6\n                /* \"#utility.yul\":5560:5566   */\n              dup3\n                /* \"#utility.yul\":5549:5558   */\n              dup7\n                /* \"#utility.yul\":5545:5567   */\n              add\n                /* \"#utility.yul\":5524:5577   */\n              tag_52\n              jump\t// in\n            tag_149:\n                /* \"#utility.yul\":5514:5577   */\n              swap2\n              pop\n                /* \"#utility.yul\":5469:5587   */\n              pop\n                /* \"#utility.yul\":4940:5594   */\n              swap3\n              pop\n              swap3\n              swap1\n              pop\n              jump\t// out\n                /* \"#utility.yul\":5600:6109   */\n            tag_27:\n                /* \"#utility.yul\":5669:5675   */\n              0x00\n                /* \"#utility.yul\":5718:5720   */\n              0x20\n                /* \"#utility.yul\":5706:5715   */\n              dup3\n                /* \"#utility.yul\":5697:5704   */\n              dup5\n                /* \"#utility.yul\":5693:5716   */\n              sub\n                /* \"#utility.yul\":5689:5721   */\n              slt\n                /* \"#utility.yul\":5686:5805   */\n              iszero\n              tag_151\n              jumpi\n                /* \"#utility.yul\":5724:5803   */\n              tag_152\n              tag_49\n              jump\t// in\n            tag_152:\n                /* \"#utility.yul\":5686:5805   */\n            tag_151:\n                /* \"#utility.yul\":5872:5873   */\n              0x00\n                /* \"#utility.yul\":5861:5870   */\n              dup3\n                /* \"#utility.yul\":5857:5874   */\n              add\n                /* \"#utility.yul\":5844:5875   */\n              calldataload\n                /* \"#utility.yul\":5902:5920   */\n              0xffffffffffffffff\n                /* \"#utility.yul\":5894:5900   */\n              dup2\n                /* \"#utility.yul\":5891:5921   */\n              gt\n                /* \"#utility.yul\":5888:6005   */\n              iszero\n              tag_153\n              jumpi\n                /* \"#utility.yul\":5924:6003   */\n              tag_154\n              tag_50\n              jump\t// in\n            tag_154:\n                /* \"#utility.yul\":5888:6005   */\n            tag_153:\n                /* \"#utility.yul\":6029:6092   */\n              tag_155\n                /* \"#utility.yul\":6084:6091   */\n              dup5\n                /* \"#utility.yul\":6075:6081   */\n              dup3\n                /* \"#utility.yul\":6064:6073   */\n              dup6\n                /* \"#utility.yul\":6060:6082   */\n              add\n                /* \"#utility.yul\":6029:6092   */\n              tag_66\n              jump\t// in\n            tag_155:\n                /* \"#utility.yul\":6019:6092   */\n              swap2\n              pop\n                /* \"#utility.yul\":5815:6102   */\n              pop\n                /* \"#utility.yul\":5600:6109   */\n              swap3\n              swap2\n              pop\n              pop\n              jump\t// out\n                /* \"#utility.yul\":6115:6295   */\n            tag_67:\n                /* \"#utility.yul\":6163:6240   */\n              0x4e487b7100000000000000000000000000000000000000000000000000000000\n                /* \"#utility.yul\":6160:6161   */\n              0x00\n                /* \"#utility.yul\":6153:6241   */\n              mstore\n                /* \"#utility.yul\":6260:6264   */\n              0x22\n                /* \"#utility.yul\":6257:6258   */\n              0x04\n                /* \"#utility.yul\":6250:6265   */\n              mstore\n                /* \"#utility.yul\":6284:6288   */\n              0x24\n                /* \"#utility.yul\":6281:6282   */\n              0x00\n                /* \"#utility.yul\":6274:6289   */\n              revert\n                /* \"#utility.yul\":6301:6621   */\n            tag_34:\n                /* \"#utility.yul\":6345:6351   */\n              0x00\n                /* \"#utility.yul\":6382:6383   */\n              0x02\n                /* \"#utility.yul\":6376:6380   */\n              dup3\n                /* \"#utility.yul\":6372:6384   */\n              div\n                /* \"#utility.yul\":6362:6384   */\n              swap1\n              pop\n                /* \"#utility.yul\":6429:6430   */\n              0x01\n                /* \"#utility.yul\":6423:6427   */\n              dup3\n                /* \"#utility.yul\":6419:6431   */\n              and\n                /* \"#utility.yul\":6450:6468   */\n              dup1\n                /* \"#utility.yul\":6440:6521   */\n              tag_158\n              jumpi\n                /* \"#utility.yul\":6506:6510   */\n              0x7f\n                /* \"#utility.yul\":6498:6504   */\n              dup3\n                /* \"#utility.yul\":6494:6511   */\n              and\n                /* \"#utility.yul\":6484:6511   */\n              swap2\n              pop\n                /* \"#utility.yul\":6440:6521   */\n            tag_158:\n                /* \"#utility.yul\":6568:6570   */\n              0x20\n                /* \"#utility.yul\":6560:6566   */\n              dup3\n                /* \"#utility.yul\":6557:6571   */\n              lt\n                /* \"#utility.yul\":6537:6555   */\n              dup2\n                /* \"#utility.yul\":6534:6572   */\n              sub\n                /* \"#utility.yul\":6531:6615   */\n              tag_159\n              jumpi\n                /* \"#utility.yul\":6587:6605   */\n              tag_160\n              tag_67\n              jump\t// in\n            tag_160:\n                /* \"#utility.yul\":6531:6615   */\n            tag_159:\n                /* \"#utility.yul\":6352:6621   */\n              pop\n                /* \"#utility.yul\":6301:6621   */\n              swap2\n              swap1\n              pop\n              jump\t// out\n                /* \"#utility.yul\":6627:6768   */\n            tag_68:\n                /* \"#utility.yul\":6676:6680   */\n              0x00\n                /* \"#utility.yul\":6699:6702   */\n              dup2\n                /* \"#utility.yul\":6691:6702   */\n              swap1\n              pop\n                /* \"#utility.yul\":6722:6725   */\n              dup2\n                /* \"#utility.yul\":6719:6720   */\n              0x00\n                /* \"#utility.yul\":6712:6726   */\n              mstore\n                /* \"#utility.yul\":6756:6760   */\n              0x20\n                /* \"#utility.yul\":6753:6754   */\n              0x00\n                /* \"#utility.yul\":6743:6761   */\n              keccak256\n                /* \"#utility.yul\":6735:6761   */\n              swap1\n              pop\n                /* \"#utility.yul\":6627:6768   */\n              swap2\n              swap1\n              pop\n              jump\t// out\n                /* \"#utility.yul\":6774:6867   */\n            tag_69:\n                /* \"#utility.yul\":6811:6817   */\n              0x00\n                /* \"#utility.yul\":6858:6860   */\n              0x20\n                /* \"#utility.yul\":6853:6855   */\n              0x1f\n                /* \"#utility.yul\":6846:6851   */\n              dup4\n                /* \"#utility.yul\":6842:6856   */\n              add\n                /* \"#utility.yul\":6838:6861   */\n              div\n                /* \"#utility.yul\":6828:6861   */\n              swap1\n              pop\n                /* \"#utility.yul\":6774:6867   */\n              swap2\n              swap1\n              pop\n              jump\t// out\n                /* \"#utility.yul\":6873:6980   */\n            tag_70:\n                /* \"#utility.yul\":6917:6925   */\n              0x00\n                /* \"#utility.yul\":6967:6972   */\n              dup3\n                /* \"#utility.yul\":6961:6965   */\n              dup3\n                /* \"#utility.yul\":6957:6973   */\n              shl\n                /* \"#utility.yul\":6936:6973   */\n              swap1\n              pop\n                /* \"#utility.yul\":6873:6980   */\n              swap3\n              swap2\n              pop\n              pop\n              jump\t// out\n                /* \"#utility.yul\":6986:7379   */\n            tag_71:\n                /* \"#utility.yul\":7055:7061   */\n              0x00\n                /* \"#utility.yul\":7105:7106   */\n              0x08\n                /* \"#utility.yul\":7093:7103   */\n              dup4\n                /* \"#utility.yul\":7089:7107   */\n              mul\n                /* \"#utility.yul\":7128:7225   */\n              tag_165\n                /* \"#utility.yul\":7158:7224   */\n              0xffffffffffffffffffffffffffffffffffffffffffffffffffffffffffffffff\n                /* \"#utility.yul\":7147:7156   */\n              dup3\n                /* \"#utility.yul\":7128:7225   */\n              tag_70\n              jump\t// in\n            tag_165:\n                /* \"#utility.yul\":7246:7285   */\n              tag_166\n                /* \"#utility.yul\":7276:7284   */\n              dup7\n                /* \"#utility.yul\":7265:7274   */\n              dup4\n                /* \"#utility.yul\":7246:7285   */\n              tag_70\n              jump\t// in\n            tag_166:\n                /* \"#utility.yul\":7234:7285   */\n              swap6\n              pop\n                /* \"#utility.yul\":7318:7322   */\n              dup1\n                /* \"#utility.yul\":7314:7323   */\n              not\n                /* \"#utility.yul\":7307:7312   */\n              dup5\n                /* \"#utility.yul\":7303:7324   */\n              and\n                /* \"#utility.yul\":7294:7324   */\n              swap4\n              pop\n                /* \"#utility.yul\":7367:7371   */\n              dup1\n                /* \"#utility.yul\":7357:7365   */\n              dup7\n                /* \"#utility.yul\":7353:7372   */\n              and\n                /* \"#utility.yul\":7346:7351   */\n              dup5\n                /* \"#utility.yul\":7343:7373   */\n              or\n                /* \"#utility.yul\":7333:7373   */\n              swap3\n              pop\n                /* \"#utility.yul\":7062:7379   */\n              pop\n              pop\n                /* \"#utility.yul\":6986:7379   */\n              swap4\n              swap3\n              pop\n              pop\n              pop\n              jump\t// out\n                /* \"#utility.yul\":7385:7445   */\n            tag_72:\n                /* \"#utility.yul\":7413:7416   */\n              0x00\n                /* \"#utility.yul\":7434:7439   */\n              dup2\n                /* \"#utility.yul\":7427:7439   */\n              swap1\n              pop\n                /* \"#utility.yul\":7385:7445   */\n              swap2\n              swap1\n              pop\n              jump\t// out\n                /* \"#utility.yul\":7451:7593   */\n            tag_73:\n                /* \"#utility.yul\":7501:7510   */\n              0x00\n                /* \"#utility.yul\":7534:7587   */\n              tag_169\n                /* \"#utility.yul\":7552:7586   */\n              tag_170\n                /* \"#utility.yul\":7561:7585   */\n              tag_171\n                /* \"#utility.yul\":7579:7584   */\n              dup5\n                /* \"#utility.yul\":7561:7585   */\n              tag_46\n              jump\t// in\n            tag_171:\n                /* \"#utility.yul\":7552:7586   */\n              tag_72\n              jump\t// in\n            tag_170:\n                /* \"#utility.yul\":7534:7587   */\n              tag_46\n              jump\t// in\n            tag_169:\n                /* \"#utility.yul\":7521:7587   */\n              swap1\n              pop\n                /* \"#utility.yul\":7451:7593   */\n              swap2\n              swap1\n              pop\n              jump\t// out\n                /* \"#utility.yul\":7599:7674   */\n            tag_74:\n                /* \"#utility.yul\":7642:7645   */\n              0x00\n                /* \"#utility.yul\":7663:7668   */\n              dup2\n                /* \"#utility.yul\":7656:7668   */\n              swap1\n              pop\n                /* \"#utility.yul\":7599:7674   */\n              swap2\n              swap1\n              pop\n              jump\t// out\n                /* \"#utility.yul\":7680:7949   */\n            tag_75:\n                /* \"#utility.yul\":7790:7829   */\n              tag_174\n                /* \"#utility.yul\":7821:7828   */\n              dup4\n                /* \"#utility.yul\":7790:7829   */\n              tag_73\n              jump\t// in\n            tag_174:\n                /* \"#utility.yul\":7851:7942   */\n              tag_175\n                /* \"#utility.yul\":7900:7941   */\n              tag_176\n                /* \"#utility.yul\":7924:7940   */\n              dup3\n                /* \"#utility.yul\":7900:7941   */\n              tag_74\n              jump\t// in\n            tag_176:\n                /* \"#utility.yul\":7892:7898   */\n              dup5\n                /* \"#utility.yul\":7885:7889   */\n              dup5\n                /* \"#utility.yul\":7879:7890   */\n              sload\n                /* \"#utility.yul\":7851:7942   */\n              tag_71\n              jump\t// in\n            tag_175:\n                /* \"#utility.yul\":7845:7849   */\n              dup3\n                /* \"#utility.yul\":7838:7943   */\n              sstore\n                /* \"#utility.yul\":7756:7949   */\n              pop\n                /* \"#utility.yul\":7680:7949   */\n              pop\n              pop\n              pop\n              jump\t// out\n                /* \"#utility.yul\":7955:8028   */\n            tag_76:\n                /* \"#utility.yul\":8000:8003   */\n              0x00\n                /* \"#utility.yul\":7955:8028   */\n              swap1\n              jump\t// out\n                /* \"#utility.yul\":8034:8223   */\n            tag_77:\n                /* \"#utility.yul\":8111:8143   */\n              tag_179\n              tag_76\n              jump\t// in\n            tag_179:\n                /* \"#utility.yul\":8152:8217   */\n              tag_180\n                /* \"#utility.yul\":8210:8216   */\n              dup2\n                /* \"#utility.yul\":8202:8208   */\n              dup5\n                /* \"#utility.yul\":8196:8200   */\n              dup5\n                /* \"#utility.yul\":8152:8217   */\n              tag_75\n              jump\t// in\n            tag_180:\n                /* \"#utility.yul\":8087:8223   */\n              pop\n                /* \"#utility.yul\":8034:8223   */\n              pop\n              pop\n              jump\t// out\n                /* \"#utility.yul\":8229:8415   */\n            tag_78:\n                /* \"#utility.yul\":8289:8409   */\n            tag_182:\n                /* \"#utility.yul\":8306:8309   */\n              dup2\n                /* \"#utility.yul\":8299:8304   */\n              dup2\n                /* \"#utility.yul\":8296:8310   */\n              lt\n                /* \"#utility.yul\":8289:8409   */\n              iszero\n              tag_184\n              jumpi\n                /* \"#utility.yul\":8360:8399   */\n              tag_185\n                /* \"#utility.yul\":8397:8398   */\n              0x00\n                /* \"#utility.yul\":8390:8395   */\n              dup3\n                /* \"#utility.yul\":8360:8399   */\n              tag_77\n              jump\t// in\n            tag_185:\n                /* \"#utility.yul\":8333:8334   */\n              0x01\n                /* \"#utility.yul\":8326:8331   */\n              dup2\n                /* \"#utility.yul\":8322:8335   */\n              add\n                /* \"#utility.yul\":8313:8335   */\n              swap1\n              pop\n                /* \"#utility.yul\":8289:8409   */\n              jump(tag_182)\n            tag_184:\n                /* \"#utility.yul\":8229:8415   */\n              pop\n              pop\n              jump\t// out\n                /* \"#utility.yul\":8421:8964   */\n            tag_79:\n                /* \"#utility.yul\":8522:8524   */\n              0x1f\n                /* \"#utility.yul\":8517:8520   */\n              dup3\n                /* \"#utility.yul\":8514:8525   */\n              gt\n                /* \"#utility.yul\":8511:8957   */\n              iszero\n              tag_187\n              jumpi\n                /* \"#utility.yul\":8556:8594   */\n              tag_188\n                /* \"#utility.yul\":8588:8593   */\n              dup2\n                /* \"#utility.yul\":8556:8594   */\n              tag_68\n              jump\t// in\n            tag_188:\n                /* \"#utility.yul\":8640:8669   */\n              tag_189\n                /* \"#utility.yul\":8658:8668   */\n              dup5\n                /* \"#utility.yul\":8640:8669   */\n              tag_69\n              jump\t// in\n            tag_189:\n                /* \"#utility.yul\":8630:8638   */\n              dup2\n                /* \"#utility.yul\":8626:8670   */\n              add\n                /* \"#utility.yul\":8823:8825   */\n              0x20\n                /* \"#utility.yul\":8811:8821   */\n              dup6\n                /* \"#utility.yul\":8808:8826   */\n              lt\n                /* \"#utility.yul\":8805:8854   */\n              iszero\n              tag_190\n              jumpi\n                /* \"#utility.yul\":8844:8852   */\n              dup2\n                /* \"#utility.yul\":8829:8852   */\n              swap1\n              pop\n                /* \"#utility.yul\":8805:8854   */\n            tag_190:\n                /* \"#utility.yul\":8867:8947   */\n              tag_191\n                /* \"#utility.yul\":8923:8945   */\n              tag_192\n                /* \"#utility.yul\":8941:8944   */\n              dup6\n                /* \"#utility.yul\":8923:8945   */\n              tag_69\n              jump\t// in\n            tag_192:\n                /* \"#utility.yul\":8913:8921   */\n              dup4\n                /* \"#utility.yul\":8909:8946   */\n              add\n                /* \"#utility.yul\":8896:8907   */\n              dup3\n                /* \"#utility.yul\":8867:8947   */\n              tag_78\n              jump\t// in\n            tag_191:\n                /* \"#utility.yul\":8526:8957   */\n              pop\n              pop\n                /* \"#utility.yul\":8511:8957   */\n            tag_187:\n                /* \"#utility.yul\":8421:8964   */\n              pop\n              pop\n              pop\n              jump\t// out\n                /* \"#utility.yul\":8970:9087   */\n            tag_80:\n                /* \"#utility.yul\":9024:9032   */\n              0x00\n                /* \"#utility.yul\":9074:9079   */\n              dup3\n                /* \"#utility.yul\":9068:9072   */\n              dup3\n                /* \"#utility.yul\":9064:9080   */\n              shr\n                /* \"#utility.yul\":9043:9080   */\n              swap1\n              pop\n                /* \"#utility.yul\":8970:9087   */\n              swap3\n              swap2\n              pop\n              pop\n              jump\t// out\n                /* \"#utility.yul\":9093:9262   */\n            tag_81:\n                /* \"#utility.yul\":9137:9143   */\n              0x00\n                /* \"#utility.yul\":9170:9221   */\n              tag_195\n                /* \"#utility.yul\":9218:9219   */\n              0x00\n                /* \"#utility.yul\":9214:9220   */\n              not\n                /* \"#utility.yul\":9206:9211   */\n              dup5\n                /* \"#utility.yul\":9203:9204   */\n              0x08\n                /* \"#utility.yul\":9199:9212   */\n              mul\n                /* \"#utility.yul\":9170:9221   */\n              tag_80\n              jump\t// in\n            tag_195:\n                /* \"#utility.yul\":9166:9222   */\n              not\n                /* \"#utility.yul\":9251:9255   */\n              dup1\n                /* \"#utility.yul\":9245:9249   */\n              dup4\n                /* \"#utility.yul\":9241:9256   */\n              and\n                /* \"#utility.yul\":9231:9256   */\n              swap2\n              pop\n                /* \"#utility.yul\":9144:9262   */\n              pop\n                /* \"#utility.yul\":9093:9262   */\n              swap3\n              swap2\n              pop\n              pop\n              jump\t// out\n                /* \"#utility.yul\":9267:9562   */\n            tag_82:\n                /* \"#utility.yul\":9343:9347   */\n              0x00\n                /* \"#utility.yul\":9489:9518   */\n              tag_197\n                /* \"#utility.yul\":9514:9517   */\n              dup4\n                /* \"#utility.yul\":9508:9512   */\n              dup4\n                /* \"#utility.yul\":9489:9518   */\n              tag_81\n              jump\t// in\n            tag_197:\n                /* \"#utility.yul\":9481:9518   */\n              swap2\n              pop\n                /* \"#utility.yul\":9551:9554   */\n              dup3\n                /* \"#utility.yul\":9548:9549   */\n              0x02\n                /* \"#utility.yul\":9544:9555   */\n              mul\n                /* \"#utility.yul\":9538:9542   */\n              dup3\n                /* \"#utility.yul\":9535:9556   */\n              or\n                /* \"#utility.yul\":9527:9556   */\n              swap1\n              pop\n                /* \"#utility.yul\":9267:9562   */\n              swap3\n              swap2\n              pop\n              pop\n              jump\t// out\n                /* \"#utility.yul\":9567:10962   */\n            tag_43:\n                /* \"#utility.yul\":9684:9721   */\n              tag_199\n                /* \"#utility.yul\":9717:9720   */\n              dup3\n                /* \"#utility.yul\":9684:9721   */\n              tag_53\n              jump\t// in\n            tag_199:\n                /* \"#utility.yul\":9786:9804   */\n              0xffffffffffffffff\n                /* \"#utility.yul\":9778:9784   */\n              dup2\n                /* \"#utility.yul\":9775:9805   */\n              gt\n                /* \"#utility.yul\":9772:9828   */\n              iszero\n              tag_200\n              jumpi\n                /* \"#utility.yul\":9808:9826   */\n              tag_201\n              tag_60\n              jump\t// in\n            tag_201:\n                /* \"#utility.yul\":9772:9828   */\n            tag_200:\n                /* \"#utility.yul\":9852:9890   */\n              tag_202\n                /* \"#utility.yul\":9884:9888   */\n              dup3\n                /* \"#utility.yul\":9878:9889   */\n              sload\n                /* \"#utility.yul\":9852:9890   */\n              tag_34\n              jump\t// in\n            tag_202:\n                /* \"#utility.yul\":9937:10004   */\n              tag_203\n                /* \"#utility.yul\":9997:10003   */\n              dup3\n                /* \"#utility.yul\":9989:9995   */\n              dup3\n                /* \"#utility.yul\":9983:9987   */\n              dup6\n                /* \"#utility.yul\":9937:10004   */\n              tag_79\n              jump\t// in\n            tag_203:\n                /* \"#utility.yul\":10031:10032   */\n              0x00\n                /* \"#utility.yul\":10055:10059   */\n              0x20\n                /* \"#utility.yul\":10042:10059   */\n              swap1\n              pop\n                /* \"#utility.yul\":10087:10089   */\n              0x1f\n                /* \"#utility.yul\":10079:10085   */\n              dup4\n                /* \"#utility.yul\":10076:10090   */\n              gt\n                /* \"#utility.yul\":10104:10105   */\n              0x01\n                /* \"#utility.yul\":10099:10717   */\n              dup2\n              eq\n              tag_205\n              jumpi\n                /* \"#utility.yul\":10761:10762   */\n              0x00\n                /* \"#utility.yul\":10778:10784   */\n              dup5\n                /* \"#utility.yul\":10775:10852   */\n              iszero\n              tag_206\n              jumpi\n                /* \"#utility.yul\":10827:10836   */\n              dup3\n                /* \"#utility.yul\":10822:10825   */\n              dup8\n                /* \"#utility.yul\":10818:10837   */\n              add\n                /* \"#utility.yul\":10812:10838   */\n              mload\n                /* \"#utility.yul\":10803:10838   */\n              swap1\n              pop\n                /* \"#utility.yul\":10775:10852   */\n            tag_206:\n                /* \"#utility.yul\":10878:10945   */\n              tag_207\n                /* \"#utility.yul\":10938:10944   */\n              dup6\n                /* \"#utility.yul\":10931:10936   */\n              dup3\n                /* \"#utility.yul\":10878:10945   */\n              tag_82\n              jump\t// in\n            tag_207:\n                /* \"#utility.yul\":10872:10876   */\n              dup7\n                /* \"#utility.yul\":10865:10946   */\n              sstore\n                /* \"#utility.yul\":10734:10956   */\n              pop\n                /* \"#utility.yul\":10069:10956   */\n              jump(tag_204)\n                /* \"#utility.yul\":10099:10717   */\n            tag_205:\n                /* \"#utility.yul\":10151:10155   */\n              0x1f\n                /* \"#utility.yul\":10147:10156   */\n              not\n                /* \"#utility.yul\":10139:10145   */\n              dup5\n                /* \"#utility.yul\":10135:10157   */\n              and\n                /* \"#utility.yul\":10185:10222   */\n              tag_208\n                /* \"#utility.yul\":10217:10221   */\n              dup7\n                /* \"#utility.yul\":10185:10222   */\n              tag_68\n              jump\t// in\n            tag_208:\n                /* \"#utility.yul\":10244:10245   */\n              0x00\n                /* \"#utility.yul\":10258:10466   */\n            tag_209:\n                /* \"#utility.yul\":10272:10279   */\n              dup3\n                /* \"#utility.yul\":10269:10270   */\n              dup2\n                /* \"#utility.yul\":10266:10280   */\n              lt\n                /* \"#utility.yul\":10258:10466   */\n              iszero\n              tag_211\n              jumpi\n                /* \"#utility.yul\":10351:10360   */\n              dup5\n                /* \"#utility.yul\":10346:10349   */\n              dup10\n                /* \"#utility.yul\":10342:10361   */\n              add\n                /* \"#utility.yul\":10336:10362   */\n              mload\n                /* \"#utility.yul\":10328:10334   */\n              dup3\n                /* \"#utility.yul\":10321:10363   */\n              sstore\n                /* \"#utility.yul\":10402:10403   */\n              0x01\n                /* \"#utility.yul\":10394:10400   */\n              dup3\n                /* \"#utility.yul\":10390:10404   */\n              add\n                /* \"#utility.yul\":10380:10404   */\n              swap2\n              pop\n                /* \"#utility.yul\":10449:10451   */\n              0x20\n                /* \"#utility.yul\":10438:10447   */\n              dup6\n                /* \"#utility.yul\":10434:10452   */\n              add\n                /* \"#utility.yul\":10421:10452   */\n              swap5\n              pop\n                /* \"#utility.yul\":10295:10299   */\n              0x20\n                /* \"#utility.yul\":10292:10293   */\n              dup2\n                /* \"#utility.yul\":10288:10300   */\n              add\n                /* \"#utility.yul\":10283:10300   */\n              swap1\n              pop\n                /* \"#utility.yul\":10258:10466   */\n              jump(tag_209)\n            tag_211:\n                /* \"#utility.yul\":10494:10500   */\n              dup7\n                /* \"#utility.yul\":10485:10492   */\n              dup4\n                /* \"#utility.yul\":10482:10501   */\n              lt\n                /* \"#utility.yul\":10479:10658   */\n              iszero\n              tag_212\n              jumpi\n                /* \"#utility.yul\":10552:10561   */\n              dup5\n                /* \"#utility.yul\":10547:10550   */\n              dup10\n                /* \"#utility.yul\":10543:10562   */\n              add\n                /* \"#utility.yul\":10537:10563   */\n              mload\n                /* \"#utility.yul\":10595:10643   */\n              tag_213\n                /* \"#utility.yul\":10637:10641   */\n              0x1f\n                /* \"#utility.yul\":10629:10635   */\n              dup10\n                /* \"#utility.yul\":10625:10642   */\n              and\n                /* \"#utility.yul\":10614:10623   */\n              dup3\n                /* \"#utility.yul\":10595:10643   */\n              tag_81\n              jump\t// in\n            tag_213:\n                /* \"#utility.yul\":10587:10593   */\n              dup4\n                /* \"#utility.yul\":10580:10644   */\n              sstore\n                /* \"#utility.yul\":10502:10658   */\n              pop\n                /* \"#utility.yul\":10479:10658   */\n            tag_212:\n                /* \"#utility.yul\":10704:10705   */\n              0x01\n                /* \"#utility.yul\":10700:10701   */\n              0x02\n                /* \"#utility.yul\":10692:10698   */\n              dup9\n                /* \"#utility.yul\":10688:10702   */\n              mul\n                /* \"#utility.yul\":10684:10706   */\n              add\n                /* \"#utility.yul\":10678:10682   */\n              dup9\n                /* \"#utility.yul\":10671:10707   */\n              sstore\n                /* \"#utility.yul\":10106:10717   */\n              pop\n              pop\n              pop\n                /* \"#utility.yul\":10069:10956   */\n            tag_204:\n              pop\n                /* \"#utility.yul\":9659:10962   */\n              pop\n              pop\n              pop\n                /* \"#utility.yul\":9567:10962   */\n              pop\n              pop\n              jump\t// out\n                /* \"#utility.yul\":10968:11116   */\n            tag_83:\n                /* \"#utility.yul\":11070:11081   */\n              0x00\n                /* \"#utility.yul\":11107:11110   */\n              dup2\n                /* \"#utility.yul\":11092:11110   */\n              swap1\n              pop\n                /* \"#utility.yul\":10968:11116   */\n              swap3\n              swap2\n              pop\n              pop\n              jump\t// out\n                /* \"#utility.yul\":11122:11512   */\n            tag_84:\n                /* \"#utility.yul\":11228:11231   */\n              0x00\n                /* \"#utility.yul\":11256:11295   */\n              tag_216\n                /* \"#utility.yul\":11289:11294   */\n              dup3\n                /* \"#utility.yul\":11256:11295   */\n              tag_53\n              jump\t// in\n            tag_216:\n                /* \"#utility.yul\":11311:11400   */\n              tag_217\n                /* \"#utility.yul\":11393:11399   */\n              dup2\n                /* \"#utility.yul\":11388:11391   */\n              dup6\n                /* \"#utility.yul\":11311:11400   */\n              tag_83\n              jump\t// in\n            tag_217:\n                /* \"#utility.yul\":11304:11400   */\n              swap4\n              pop\n                /* \"#utility.yul\":11409:11474   */\n              tag_218\n                /* \"#utility.yul\":11467:11473   */\n              dup2\n                /* \"#utility.yul\":11462:11465   */\n              dup6\n                /* \"#utility.yul\":11455:11459   */\n              0x20\n                /* \"#utility.yul\":11448:11453   */\n              dup7\n                /* \"#utility.yul\":11444:11460   */\n              add\n                /* \"#utility.yul\":11409:11474   */\n              tag_55\n              jump\t// in\n            tag_218:\n                /* \"#utility.yul\":11499:11505   */\n              dup1\n                /* \"#utility.yul\":11494:11497   */\n              dup5\n                /* \"#utility.yul\":11490:11506   */\n              add\n                /* \"#utility.yul\":11483:11506   */\n              swap2\n              pop\n                /* \"#utility.yul\":11232:11512   */\n              pop\n                /* \"#utility.yul\":11122:11512   */\n              swap3\n              swap2\n              pop\n              pop\n              jump\t// out\n                /* \"#utility.yul\":11518:11793   */\n            tag_45:\n                /* \"#utility.yul\":11650:11653   */\n              0x00\n                /* \"#utility.yul\":11672:11767   */\n              tag_220\n                /* \"#utility.yul\":11763:11766   */\n              dup3\n                /* \"#utility.yul\":11754:11760   */\n              dup5\n                /* \"#utility.yul\":11672:11767   */\n              tag_84\n              jump\t// in\n            tag_220:\n                /* \"#utility.yul\":11665:11767   */\n              swap2\n              pop\n                /* \"#utility.yul\":11784:11787   */\n              dup2\n                /* \"#utility.yul\":11777:11787   */\n              swap1\n              pop\n                /* \"#utility.yul\":11518:11793   */\n              swap3\n              swap2\n              pop\n              pop\n              jump\t// out\n\n            auxdata: 0xa2646970667358221220e01a18ab9e9fe37c5fb9eaf488f5cdcd3100268d268a602a085c35e475f9fdb864736f6c63430008130033\n        }\n    }\n\n    auxdata: 0xa26469706673582212207495c2322b22bc6955222925373a576a1b565b6c589daea04102a1f3850c7adf64736f6c63430008130033\n}\n",
				"bytecode": {
					"linkReferences": {},
					"object": "608060405234801561001057600080fd5b50612cb1806100206000396000f3fe608060405234801561001057600080fd5b506004361061010b5760003560e01c80639b40d2f9116100a2578063ceb12d6411610071578063ceb12d64146102dc578063e86b1f0a146102f8578063e8b8778814610328578063f39f303514610344578063fbe253c3146103745761010b565b80639b40d2f91461021c578063a0a3ed091461024c578063c2d1efdc1461027c578063c5f19c20146102ac5761010b565b806318478734116100de57806318478734146101a85780631dda6541146101b257806344eddd15146101bc57806383694e97146101ec5761010b565b8063049d15131461011057806305ac9cfe1461014057806309c677f1146101705780631563700f1461018c575b600080fd5b61012a60048036038101906101259190610ec4565b6103a4565b6040516101379190610f26565b60405180910390f35b61015a60048036038101906101559190610ec4565b61045a565b6040516101679190610fc0565b60405180910390f35b61018a60048036038101906101859190610ec4565b6104a3565b005b6101a660048036038101906101a19190611007565b610571565b005b6101b0610623565b005b6101ba6106b0565b005b6101d660048036038101906101d19190611047565b61073d565b6040516101e39190610f26565b60405180910390f35b610206600480360381019061020191906110bf565b6107ff565b6040516102139190610f26565b60405180910390f35b6102366004803603810190610231919061114a565b6108c9565b6040516102439190610f26565b60405180910390f35b610266600480360381019061026191906111a6565b610990565b6040516102739190610f26565b60405180910390f35b6102966004803603810190610291919061124d565b610a55565b6040516102a39190610fc0565b60405180910390f35b6102c660048036038101906102c1919061124d565b610a94565b6040516102d39190610f26565b60405180910390f35b6102f660048036038101906102f1919061127a565b610b4f565b005b610312600480360381019061030d91906112e9565b610c05565b60405161031f919061143f565b60405180910390f35b610342600480360381019061033d9190611461565b610c35565b005b61035e6004803603810190610359919061124d565b610ce5565b60405161036b919061150d565b60405180910390f35b61038e60048036038101906103899190611047565b610d24565b60405161039b919061143f565b60405180910390f35b60006002826040516103b69190611564565b908152602001604051809103902060009054906101000a900473ffffffffffffffffffffffffffffffffffffffff1673ffffffffffffffffffffffffffffffffffffffff1663fc782c9f6040518163ffffffff1660e01b8152600401602060405180830381865afa15801561042f573d6000803e3d6000fd5b505050506040513d601f19601f820116820180604052508101906104539190611590565b9050919050565b6002818051602081018201805184825260208301602085012081835280955050505050506000915054906101000a900473ffffffffffffffffffffffffffffffffffffffff1681565b8060008151116104e8576040517f08c379a00000000000000000000000000000000000000000000000000000000081526004016104df90611609565b60405180910390fd5b6040516104f490610d50565b604051809103906000f080158015610510573d6000803e3d6000fd5b506002836040516105219190611564565b908152602001604051809103902060006101000a81548173ffffffffffffffffffffffffffffffffffffffff021916908373ffffffffffffffffffffffffffffffffffffffff1602179055505050565b600080838154811061058657610585611629565b5b9060005260206000200160009054906101000a900473ffffffffffffffffffffffffffffffffffffffff1690508073ffffffffffffffffffffffffffffffffffffffff16636057361d836040518263ffffffff1660e01b81526004016105ec9190610f26565b600060405180830381600087803b15801561060657600080fd5b505af115801561061a573d6000803e3d6000fd5b50505050505050565b600160405161063190610d50565b604051809103906000f08015801561064d573d6000803e3d6000fd5b509080600181540180825580915050600190039060005260206000200160009091909190916101000a81548173ffffffffffffffffffffffffffffffffffffffff021916908373ffffffffffffffffffffffffffffffffffffffff160217905550565b60006040516106be90610d5d565b604051809103906000f0801580156106da573d6000803e3d6000fd5b509080600181540180825580915050600190039060005260206000200160009091909190916101000a81548173ffffffffffffffffffffffffffffffffffffffff021916908373ffffffffffffffffffffffffffffffffffffffff160217905550565b600060028360405161074f9190611564565b908152602001604051809103902060009054906101000a900473ffffffffffffffffffffffffffffffffffffffff1673ffffffffffffffffffffffffffffffffffffffff16637b4cd9eb836040518263ffffffff1660e01b81526004016107b6919061143f565b602060405180830381865afa1580156107d3573d6000803e3d6000fd5b505050506040513d601f19601f820116820180604052508101906107f79190611590565b905092915050565b6000806001858154811061081657610815611629565b5b9060005260206000200160009054906101000a900473ffffffffffffffffffffffffffffffffffffffff1690508073ffffffffffffffffffffffffffffffffffffffff166354bfa6a485856040518363ffffffff1660e01b815260040161087e929190611658565b602060405180830381865afa15801561089b573d6000803e3d6000fd5b505050506040513d601f19601f820116820180604052508101906108bf9190611590565b9150509392505050565b600080600184815481106108e0576108df611629565b5b9060005260206000200160009054906101000a900473ffffffffffffffffffffffffffffffffffffffff1690508073ffffffffffffffffffffffffffffffffffffffff16637b4cd9eb846040518263ffffffff1660e01b8152600401610946919061143f565b602060405180830381865afa158015610963573d6000803e3d6000fd5b505050506040513d601f19601f820116820180604052508101906109879190611590565b91505092915050565b60006002846040516109a29190611564565b908152602001604051809103902060009054906101000a900473ffffffffffffffffffffffffffffffffffffffff1673ffffffffffffffffffffffffffffffffffffffff166354bfa6a484846040518363ffffffff1660e01b8152600401610a0b929190611658565b602060405180830381865afa158015610a28573d6000803e3d6000fd5b505050506040513d601f19601f82011682018060405250810190610a4c9190611590565b90509392505050565b60018181548110610a6557600080fd5b906000526020600020016000915054906101000a900473ffffffffffffffffffffffffffffffffffffffff1681565b60008060008381548110610aab57610aaa611629565b5b9060005260206000200160009054906101000a900473ffffffffffffffffffffffffffffffffffffffff1690508073ffffffffffffffffffffffffffffffffffffffff16632e64cec16040518163ffffffff1660e01b8152600401602060405180830381865afa158015610b23573d6000803e3d6000fd5b505050506040513d601f19601f82011682018060405250810190610b479190611590565b915050919050565b600060018481548110610b6557610b64611629565b5b9060005260206000200160009054906101000a900473ffffffffffffffffffffffffffffffffffffffff1690508073ffffffffffffffffffffffffffffffffffffffff166335e317f384846040518363ffffffff1660e01b8152600401610bcd92919061168f565b600060405180830381600087803b158015610be757600080fd5b505af1158015610bfb573d6000803e3d6000fd5b5050505050505050565b6060610c11828461073d565b610c1b858761073d565b1115610c2957849050610c2d565b8290505b949350505050565b600283604051610c459190611564565b908152602001604051809103902060009054906101000a900473ffffffffffffffffffffffffffffffffffffffff1673ffffffffffffffffffffffffffffffffffffffff166335e317f383836040518363ffffffff1660e01b8152600401610cae92919061168f565b600060405180830381600087803b158015610cc857600080fd5b505af1158015610cdc573d6000803e3d6000fd5b50505050505050565b60008181548110610cf557600080fd5b906000526020600020016000915054906101000a900473ffffffffffffffffffffffffffffffffffffffff1681565b6060610d2f826103a4565b610d38846103a4565b1115610d4657829050610d4a565b8190505b92915050565b610c61806116c083390190565b61095b8061232183390190565b6000604051905090565b600080fd5b600080fd5b600080fd5b600080fd5b6000601f19601f8301169050919050565b7f4e487b7100000000000000000000000000000000000000000000000000000000600052604160045260246000fd5b610dd182610d88565b810181811067ffffffffffffffff82111715610df057610def610d99565b5b80604052505050565b6000610e03610d6a565b9050610e0f8282610dc8565b919050565b600067ffffffffffffffff821115610e2f57610e2e610d99565b5b610e3882610d88565b9050602081019050919050565b82818337600083830152505050565b6000610e67610e6284610e14565b610df9565b905082815260208101848484011115610e8357610e82610d83565b5b610e8e848285610e45565b509392505050565b600082601f830112610eab57610eaa610d7e565b5b8135610ebb848260208601610e54565b91505092915050565b600060208284031215610eda57610ed9610d74565b5b600082013567ffffffffffffffff811115610ef857610ef7610d79565b5b610f0484828501610e96565b91505092915050565b6000819050919050565b610f2081610f0d565b82525050565b6000602082019050610f3b6000830184610f17565b92915050565b600073ffffffffffffffffffffffffffffffffffffffff82169050919050565b6000819050919050565b6000610f86610f81610f7c84610f41565b610f61565b610f41565b9050919050565b6000610f9882610f6b565b9050919050565b6000610faa82610f8d565b9050919050565b610fba81610f9f565b82525050565b6000602082019050610fd56000830184610fb1565b92915050565b610fe481610f0d565b8114610fef57600080fd5b50565b60008135905061100181610fdb565b92915050565b6000806040838503121561101e5761101d610d74565b5b600061102c85828601610ff2565b925050602061103d85828601610ff2565b9150509250929050565b6000806040838503121561105e5761105d610d74565b5b600083013567ffffffffffffffff81111561107c5761107b610d79565b5b61108885828601610e96565b925050602083013567ffffffffffffffff8111156110a9576110a8610d79565b5b6110b585828601610e96565b9150509250929050565b6000806000606084860312156110d8576110d7610d74565b5b60006110e686828701610ff2565b935050602084013567ffffffffffffffff81111561110757611106610d79565b5b61111386828701610e96565b925050604084013567ffffffffffffffff81111561113457611133610d79565b5b61114086828701610e96565b9150509250925092565b6000806040838503121561116157611160610d74565b5b600061116f85828601610ff2565b925050602083013567ffffffffffffffff8111156111905761118f610d79565b5b61119c85828601610e96565b9150509250929050565b6000806000606084860312156111bf576111be610d74565b5b600084013567ffffffffffffffff8111156111dd576111dc610d79565b5b6111e986828701610e96565b935050602084013567ffffffffffffffff81111561120a57611209610d79565b5b61121686828701610e96565b925050604084013567ffffffffffffffff81111561123757611236610d79565b5b61124386828701610e96565b9150509250925092565b60006020828403121561126357611262610d74565b5b600061127184828501610ff2565b91505092915050565b60008060006060848603121561129357611292610d74565b5b60006112a186828701610ff2565b93505060206112b286828701610ff2565b925050604084013567ffffffffffffffff8111156112d3576112d2610d79565b5b6112df86828701610e96565b9150509250925092565b6000806000806080858703121561130357611302610d74565b5b600085013567ffffffffffffffff81111561132157611320610d79565b5b61132d87828801610e96565b945050602085013567ffffffffffffffff81111561134e5761134d610d79565b5b61135a87828801610e96565b935050604085013567ffffffffffffffff81111561137b5761137a610d79565b5b61138787828801610e96565b925050606085013567ffffffffffffffff8111156113a8576113a7610d79565b5b6113b487828801610e96565b91505092959194509250565b600081519050919050565b600082825260208201905092915050565b60005b838110156113fa5780820151818401526020810190506113df565b60008484015250505050565b6000611411826113c0565b61141b81856113cb565b935061142b8185602086016113dc565b61143481610d88565b840191505092915050565b600060208201905081810360008301526114598184611406565b905092915050565b60008060006060848603121561147a57611479610d74565b5b600084013567ffffffffffffffff81111561149857611497610d79565b5b6114a486828701610e96565b93505060206114b586828701610ff2565b925050604084013567ffffffffffffffff8111156114d6576114d5610d79565b5b6114e286828701610e96565b9150509250925092565b60006114f782610f8d565b9050919050565b611507816114ec565b82525050565b600060208201905061152260008301846114fe565b92915050565b600081905092915050565b600061153e826113c0565b6115488185611528565b93506115588185602086016113dc565b80840191505092915050565b60006115708284611533565b915081905092915050565b60008151905061158a81610fdb565b92915050565b6000602082840312156115a6576115a5610d74565b5b60006115b48482850161157b565b91505092915050565b7f4d75737420737570706c792066616d696c79206e616d65000000000000000000600082015250565b60006115f36017836113cb565b91506115fe826115bd565b602082019050919050565b60006020820190508181036000830152611622816115e6565b9050919050565b7f4e487b7100000000000000000000000000000000000000000000000000000000600052603260045260246000fd5b600060408201905081810360008301526116728185611406565b905081810360208301526116868184611406565b90509392505050565b60006040820190506116a46000830185610f17565b81810360208301526116b68184611406565b9050939250505056fe608060405234801561001057600080fd5b50610c41806100206000396000f3fe608060405234801561001057600080fd5b50600436106100575760003560e01c806335e317f31461005c57806354bfa6a4146100785780637b4cd9eb146100a8578063f52aee1d146100d8578063fc782c9f14610108575b600080fd5b610076600480360381019061007191906104e5565b610126565b005b610092600480360381019061008d9190610541565b610182565b60405161009f91906105c8565b60405180910390f35b6100c260048036038101906100bd91906105e3565b6101a8565b6040516100cf91906105c8565b60405180910390f35b6100f260048036038101906100ed919061062c565b610232565b6040516100ff91906106d8565b60405180910390f35b6101106102de565b60405161011d91906105c8565b60405180910390f35b816000826040516101379190610736565b90815260200160405180910390208190555060018190806001815401808255809150506001900390600052602060002001600090919091909150908161017d9190610959565b505050565b600061018d826101a8565b610196846101a8565b6101a09190610a5a565b905092915050565b600081600080826040516101bc9190610736565b9081526020016040518091039020540361020b576040517f08c379a000000000000000000000000000000000000000000000000000000000815260040161020290610ada565b60405180910390fd5b60008360405161021b9190610736565b908152602001604051809103902054915050919050565b6001818154811061024257600080fd5b90600052602060002001600091509050805461025d9061077c565b80601f01602080910402602001604051908101604052809291908181526020018280546102899061077c565b80156102d65780601f106102ab576101008083540402835291602001916102d6565b820191906000526020600020905b8154815290600101906020018083116102b957829003601f168201915b505050505081565b60008060005b60018054905081101561034d5760006001828154811061030757610306610afa565b5b9060005260206000200160405161031e9190610bac565b908152602001604051809103902054826103389190610a5a565b9150808061034590610bc3565b9150506102e4565b508091505090565b6000604051905090565b600080fd5b600080fd5b6000819050919050565b61037c81610369565b811461038757600080fd5b50565b60008135905061039981610373565b92915050565b600080fd5b600080fd5b6000601f19601f8301169050919050565b7f4e487b7100000000000000000000000000000000000000000000000000000000600052604160045260246000fd5b6103f2826103a9565b810181811067ffffffffffffffff82111715610411576104106103ba565b5b80604052505050565b6000610424610355565b905061043082826103e9565b919050565b600067ffffffffffffffff8211156104505761044f6103ba565b5b610459826103a9565b9050602081019050919050565b82818337600083830152505050565b600061048861048384610435565b61041a565b9050828152602081018484840111156104a4576104a36103a4565b5b6104af848285610466565b509392505050565b600082601f8301126104cc576104cb61039f565b5b81356104dc848260208601610475565b91505092915050565b600080604083850312156104fc576104fb61035f565b5b600061050a8582860161038a565b925050602083013567ffffffffffffffff81111561052b5761052a610364565b5b610537858286016104b7565b9150509250929050565b600080604083850312156105585761055761035f565b5b600083013567ffffffffffffffff81111561057657610575610364565b5b610582858286016104b7565b925050602083013567ffffffffffffffff8111156105a3576105a2610364565b5b6105af858286016104b7565b9150509250929050565b6105c281610369565b82525050565b60006020820190506105dd60008301846105b9565b92915050565b6000602082840312156105f9576105f861035f565b5b600082013567ffffffffffffffff81111561061757610616610364565b5b610623848285016104b7565b91505092915050565b6000602082840312156106425761064161035f565b5b60006106508482850161038a565b91505092915050565b600081519050919050565b600082825260208201905092915050565b60005b83811015610693578082015181840152602081019050610678565b60008484015250505050565b60006106aa82610659565b6106b48185610664565b93506106c4818560208601610675565b6106cd816103a9565b840191505092915050565b600060208201905081810360008301526106f2818461069f565b905092915050565b600081905092915050565b600061071082610659565b61071a81856106fa565b935061072a818560208601610675565b80840191505092915050565b60006107428284610705565b915081905092915050565b7f4e487b7100000000000000000000000000000000000000000000000000000000600052602260045260246000fd5b6000600282049050600182168061079457607f821691505b6020821081036107a7576107a661074d565b5b50919050565b60008190508160005260206000209050919050565b60006020601f8301049050919050565b600082821b905092915050565b60006008830261080f7fffffffffffffffffffffffffffffffffffffffffffffffffffffffffffffffff826107d2565b61081986836107d2565b95508019841693508086168417925050509392505050565b6000819050919050565b600061085661085161084c84610369565b610831565b610369565b9050919050565b6000819050919050565b6108708361083b565b61088461087c8261085d565b8484546107df565b825550505050565b600090565b61089961088c565b6108a4818484610867565b505050565b5b818110156108c8576108bd600082610891565b6001810190506108aa565b5050565b601f82111561090d576108de816107ad565b6108e7846107c2565b810160208510156108f6578190505b61090a610902856107c2565b8301826108a9565b50505b505050565b600082821c905092915050565b600061093060001984600802610912565b1980831691505092915050565b6000610949838361091f565b9150826002028217905092915050565b61096282610659565b67ffffffffffffffff81111561097b5761097a6103ba565b5b610985825461077c565b6109908282856108cc565b600060209050601f8311600181146109c357600084156109b1578287015190505b6109bb858261093d565b865550610a23565b601f1984166109d1866107ad565b60005b828110156109f9578489015182556001820191506020850194506020810190506109d4565b86831015610a165784890151610a12601f89168261091f565b8355505b6001600288020188555050505b505050505050565b7f4e487b7100000000000000000000000000000000000000000000000000000000600052601160045260246000fd5b6000610a6582610369565b9150610a7083610369565b9250828201905080821115610a8857610a87610a2b565b5b92915050565b7f5468697320706572736f6e20646f6573206e6f742065786973742e0000000000600082015250565b6000610ac4601b83610664565b9150610acf82610a8e565b602082019050919050565b60006020820190508181036000830152610af381610ab7565b9050919050565b7f4e487b7100000000000000000000000000000000000000000000000000000000600052603260045260246000fd5b60008154610b368161077c565b610b4081866106fa565b94506001821660008114610b5b5760018114610b7057610ba3565b60ff1983168652811515820286019350610ba3565b610b79856107ad565b60005b83811015610b9b57815481890152600182019150602081019050610b7c565b838801955050505b50505092915050565b6000610bb88284610b29565b915081905092915050565b6000610bce82610369565b91507fffffffffffffffffffffffffffffffffffffffffffffffffffffffffffffffff8203610c0057610bff610a2b565b5b60018201905091905056fea26469706673582212204d82c13dacd46eeb827aea71e406d92c63107f08aadf453c4af901afd4c817e464736f6c63430008130033608060405234801561001057600080fd5b5061093b806100206000396000f3fe608060405234801561001057600080fd5b50600436106100575760003560e01c80632e64cec11461005c5780632ebce6311461007a5780636057361d146100ab5780636f760f41146100c75780638bab8dd5146100e3575b600080fd5b610064610113565b60405161007191906102b2565b60405180910390f35b610094600480360381019061008f919061030d565b61011c565b6040516100a29291906103ca565b60405180910390f35b6100c560048036038101906100c0919061030d565b6101d8565b005b6100e160048036038101906100dc919061052f565b6101e2565b005b6100fd60048036038101906100f8919061058b565b61026b565b60405161010a91906102b2565b60405180910390f35b60008054905090565b6001818154811061012c57600080fd5b906000526020600020906002020160009150905080600001549080600101805461015590610603565b80601f016020809104026020016040519081016040528092919081815260200182805461018190610603565b80156101ce5780601f106101a3576101008083540402835291602001916101ce565b820191906000526020600020905b8154815290600101906020018083116101b157829003601f168201915b5050505050905082565b8060008190555050565b6001604051806040016040528083815260200184815250908060018154018082558091505060019003906000526020600020906002020160009091909190915060008201518160000155602082015181600101908161024191906107e0565b5050508060028360405161025591906108ee565b9081526020016040518091039020819055505050565b6002818051602081018201805184825260208301602085012081835280955050505050506000915090505481565b6000819050919050565b6102ac81610299565b82525050565b60006020820190506102c760008301846102a3565b92915050565b6000604051905090565b600080fd5b600080fd5b6102ea81610299565b81146102f557600080fd5b50565b600081359050610307816102e1565b92915050565b600060208284031215610323576103226102d7565b5b6000610331848285016102f8565b91505092915050565b600081519050919050565b600082825260208201905092915050565b60005b83811015610374578082015181840152602081019050610359565b60008484015250505050565b6000601f19601f8301169050919050565b600061039c8261033a565b6103a68185610345565b93506103b6818560208601610356565b6103bf81610380565b840191505092915050565b60006040820190506103df60008301856102a3565b81810360208301526103f18184610391565b90509392505050565b600080fd5b600080fd5b7f4e487b7100000000000000000000000000000000000000000000000000000000600052604160045260246000fd5b61043c82610380565b810181811067ffffffffffffffff8211171561045b5761045a610404565b5b80604052505050565b600061046e6102cd565b905061047a8282610433565b919050565b600067ffffffffffffffff82111561049a57610499610404565b5b6104a382610380565b9050602081019050919050565b82818337600083830152505050565b60006104d26104cd8461047f565b610464565b9050828152602081018484840111156104ee576104ed6103ff565b5b6104f98482856104b0565b509392505050565b600082601f830112610516576105156103fa565b5b81356105268482602086016104bf565b91505092915050565b60008060408385031215610546576105456102d7565b5b600083013567ffffffffffffffff811115610564576105636102dc565b5b61057085828601610501565b9250506020610581858286016102f8565b9150509250929050565b6000602082840312156105a1576105a06102d7565b5b600082013567ffffffffffffffff8111156105bf576105be6102dc565b5b6105cb84828501610501565b91505092915050565b7f4e487b7100000000000000000000000000000000000000000000000000000000600052602260045260246000fd5b6000600282049050600182168061061b57607f821691505b60208210810361062e5761062d6105d4565b5b50919050565b60008190508160005260206000209050919050565b60006020601f8301049050919050565b600082821b905092915050565b6000600883026106967fffffffffffffffffffffffffffffffffffffffffffffffffffffffffffffffff82610659565b6106a08683610659565b95508019841693508086168417925050509392505050565b6000819050919050565b60006106dd6106d86106d384610299565b6106b8565b610299565b9050919050565b6000819050919050565b6106f7836106c2565b61070b610703826106e4565b848454610666565b825550505050565b600090565b610720610713565b61072b8184846106ee565b505050565b5b8181101561074f57610744600082610718565b600181019050610731565b5050565b601f8211156107945761076581610634565b61076e84610649565b8101602085101561077d578190505b61079161078985610649565b830182610730565b50505b505050565b600082821c905092915050565b60006107b760001984600802610799565b1980831691505092915050565b60006107d083836107a6565b9150826002028217905092915050565b6107e98261033a565b67ffffffffffffffff81111561080257610801610404565b5b61080c8254610603565b610817828285610753565b600060209050601f83116001811461084a5760008415610838578287015190505b61084285826107c4565b8655506108aa565b601f19841661085886610634565b60005b828110156108805784890151825560018201915060208501945060208101905061085b565b8683101561089d5784890151610899601f8916826107a6565b8355505b6001600288020188555050505b505050505050565b600081905092915050565b60006108c88261033a565b6108d281856108b2565b93506108e2818560208601610356565b80840191505092915050565b60006108fa82846108bd565b91508190509291505056fea2646970667358221220e01a18ab9e9fe37c5fb9eaf488f5cdcd3100268d268a602a085c35e475f9fdb864736f6c63430008130033a26469706673582212207495c2322b22bc6955222925373a576a1b565b6c589daea04102a1f3850c7adf64736f6c63430008130033",
					"opcodes": "PUSH1 0x80 PUSH1 0x40 MSTORE CALLVALUE DUP1 ISZERO PUSH2 0x10 JUMPI PUSH1 0x0 DUP1 REVERT JUMPDEST POP PUSH2 0x2CB1 DUP1 PUSH2 0x20 PUSH1 0x0 CODECOPY PUSH1 0x0 RETURN INVALID PUSH1 0x80 PUSH1 0x40 MSTORE CALLVALUE DUP1 ISZERO PUSH2 0x10 JUMPI PUSH1 0x0 DUP1 REVERT JUMPDEST POP PUSH1 0x4 CALLDATASIZE LT PUSH2 0x10B JUMPI PUSH1 0x0 CALLDATALOAD PUSH1 0xE0 SHR DUP1 PUSH4 0x9B40D2F9 GT PUSH2 0xA2 JUMPI DUP1 PUSH4 0xCEB12D64 GT PUSH2 0x71 JUMPI DUP1 PUSH4 0xCEB12D64 EQ PUSH2 0x2DC JUMPI DUP1 PUSH4 0xE86B1F0A EQ PUSH2 0x2F8 JUMPI DUP1 PUSH4 0xE8B87788 EQ PUSH2 0x328 JUMPI DUP1 PUSH4 0xF39F3035 EQ PUSH2 0x344 JUMPI DUP1 PUSH4 0xFBE253C3 EQ PUSH2 0x374 JUMPI PUSH2 0x10B JUMP JUMPDEST DUP1 PUSH4 0x9B40D2F9 EQ PUSH2 0x21C JUMPI DUP1 PUSH4 0xA0A3ED09 EQ PUSH2 0x24C JUMPI DUP1 PUSH4 0xC2D1EFDC EQ PUSH2 0x27C JUMPI DUP1 PUSH4 0xC5F19C20 EQ PUSH2 0x2AC JUMPI PUSH2 0x10B JUMP JUMPDEST DUP1 PUSH4 0x18478734 GT PUSH2 0xDE JUMPI DUP1 PUSH4 0x18478734 EQ PUSH2 0x1A8 JUMPI DUP1 PUSH4 0x1DDA6541 EQ PUSH2 0x1B2 JUMPI DUP1 PUSH4 0x44EDDD15 EQ PUSH2 0x1BC JUMPI DUP1 PUSH4 0x83694E97 EQ PUSH2 0x1EC JUMPI PUSH2 0x10B JUMP JUMPDEST DUP1 PUSH4 0x49D1513 EQ PUSH2 0x110 JUMPI DUP1 PUSH4 0x5AC9CFE EQ PUSH2 0x140 JUMPI DUP1 PUSH4 0x9C677F1 EQ PUSH2 0x170 JUMPI DUP1 PUSH4 0x1563700F EQ PUSH2 0x18C JUMPI JUMPDEST PUSH1 0x0 DUP1 REVERT JUMPDEST PUSH2 0x12A PUSH1 0x4 DUP1 CALLDATASIZE SUB DUP2 ADD SWAP1 PUSH2 0x125 SWAP2 SWAP1 PUSH2 0xEC4 JUMP JUMPDEST PUSH2 0x3A4 JUMP JUMPDEST PUSH1 0x40 MLOAD PUSH2 0x137 SWAP2 SWAP1 PUSH2 0xF26 JUMP JUMPDEST PUSH1 0x40 MLOAD DUP1 SWAP2 SUB SWAP1 RETURN JUMPDEST PUSH2 0x15A PUSH1 0x4 DUP1 CALLDATASIZE SUB DUP2 ADD SWAP1 PUSH2 0x155 SWAP2 SWAP1 PUSH2 0xEC4 JUMP JUMPDEST PUSH2 0x45A JUMP JUMPDEST PUSH1 0x40 MLOAD PUSH2 0x167 SWAP2 SWAP1 PUSH2 0xFC0 JUMP JUMPDEST PUSH1 0x40 MLOAD DUP1 SWAP2 SUB SWAP1 RETURN JUMPDEST PUSH2 0x18A PUSH1 0x4 DUP1 CALLDATASIZE SUB DUP2 ADD SWAP1 PUSH2 0x185 SWAP2 SWAP1 PUSH2 0xEC4 JUMP JUMPDEST PUSH2 0x4A3 JUMP JUMPDEST STOP JUMPDEST PUSH2 0x1A6 PUSH1 0x4 DUP1 CALLDATASIZE SUB DUP2 ADD SWAP1 PUSH2 0x1A1 SWAP2 SWAP1 PUSH2 0x1007 JUMP JUMPDEST PUSH2 0x571 JUMP JUMPDEST STOP JUMPDEST PUSH2 0x1B0 PUSH2 0x623 JUMP JUMPDEST STOP JUMPDEST PUSH2 0x1BA PUSH2 0x6B0 JUMP JUMPDEST STOP JUMPDEST PUSH2 0x1D6 PUSH1 0x4 DUP1 CALLDATASIZE SUB DUP2 ADD SWAP1 PUSH2 0x1D1 SWAP2 SWAP1 PUSH2 0x1047 JUMP JUMPDEST PUSH2 0x73D JUMP JUMPDEST PUSH1 0x40 MLOAD PUSH2 0x1E3 SWAP2 SWAP1 PUSH2 0xF26 JUMP JUMPDEST PUSH1 0x40 MLOAD DUP1 SWAP2 SUB SWAP1 RETURN JUMPDEST PUSH2 0x206 PUSH1 0x4 DUP1 CALLDATASIZE SUB DUP2 ADD SWAP1 PUSH2 0x201 SWAP2 SWAP1 PUSH2 0x10BF JUMP JUMPDEST PUSH2 0x7FF JUMP JUMPDEST PUSH1 0x40 MLOAD PUSH2 0x213 SWAP2 SWAP1 PUSH2 0xF26 JUMP JUMPDEST PUSH1 0x40 MLOAD DUP1 SWAP2 SUB SWAP1 RETURN JUMPDEST PUSH2 0x236 PUSH1 0x4 DUP1 CALLDATASIZE SUB DUP2 ADD SWAP1 PUSH2 0x231 SWAP2 SWAP1 PUSH2 0x114A JUMP JUMPDEST PUSH2 0x8C9 JUMP JUMPDEST PUSH1 0x40 MLOAD PUSH2 0x243 SWAP2 SWAP1 PUSH2 0xF26 JUMP JUMPDEST PUSH1 0x40 MLOAD DUP1 SWAP2 SUB SWAP1 RETURN JUMPDEST PUSH2 0x266 PUSH1 0x4 DUP1 CALLDATASIZE SUB DUP2 ADD SWAP1 PUSH2 0x261 SWAP2 SWAP1 PUSH2 0x11A6 JUMP JUMPDEST PUSH2 0x990 JUMP JUMPDEST PUSH1 0x40 MLOAD PUSH2 0x273 SWAP2 SWAP1 PUSH2 0xF26 JUMP JUMPDEST PUSH1 0x40 MLOAD DUP1 SWAP2 SUB SWAP1 RETURN JUMPDEST PUSH2 0x296 PUSH1 0x4 DUP1 CALLDATASIZE SUB DUP2 ADD SWAP1 PUSH2 0x291 SWAP2 SWAP1 PUSH2 0x124D JUMP JUMPDEST PUSH2 0xA55 JUMP JUMPDEST PUSH1 0x40 MLOAD PUSH2 0x2A3 SWAP2 SWAP1 PUSH2 0xFC0 JUMP JUMPDEST PUSH1 0x40 MLOAD DUP1 SWAP2 SUB SWAP1 RETURN JUMPDEST PUSH2 0x2C6 PUSH1 0x4 DUP1 CALLDATASIZE SUB DUP2 ADD SWAP1 PUSH2 0x2C1 SWAP2 SWAP1 PUSH2 0x124D JUMP JUMPDEST PUSH2 0xA94 JUMP JUMPDEST PUSH1 0x40 MLOAD PUSH2 0x2D3 SWAP2 SWAP1 PUSH2 0xF26 JUMP JUMPDEST PUSH1 0x40 MLOAD DUP1 SWAP2 SUB SWAP1 RETURN JUMPDEST PUSH2 0x2F6 PUSH1 0x4 DUP1 CALLDATASIZE SUB DUP2 ADD SWAP1 PUSH2 0x2F1 SWAP2 SWAP1 PUSH2 0x127A JUMP JUMPDEST PUSH2 0xB4F JUMP JUMPDEST STOP JUMPDEST PUSH2 0x312 PUSH1 0x4 DUP1 CALLDATASIZE SUB DUP2 ADD SWAP1 PUSH2 0x30D SWAP2 SWAP1 PUSH2 0x12E9 JUMP JUMPDEST PUSH2 0xC05 JUMP JUMPDEST PUSH1 0x40 MLOAD PUSH2 0x31F SWAP2 SWAP1 PUSH2 0x143F JUMP JUMPDEST PUSH1 0x40 MLOAD DUP1 SWAP2 SUB SWAP1 RETURN JUMPDEST PUSH2 0x342 PUSH1 0x4 DUP1 CALLDATASIZE SUB DUP2 ADD SWAP1 PUSH2 0x33D SWAP2 SWAP1 PUSH2 0x1461 JUMP JUMPDEST PUSH2 0xC35 JUMP JUMPDEST STOP JUMPDEST PUSH2 0x35E PUSH1 0x4 DUP1 CALLDATASIZE SUB DUP2 ADD SWAP1 PUSH2 0x359 SWAP2 SWAP1 PUSH2 0x124D JUMP JUMPDEST PUSH2 0xCE5 JUMP JUMPDEST PUSH1 0x40 MLOAD PUSH2 0x36B SWAP2 SWAP1 PUSH2 0x150D JUMP JUMPDEST PUSH1 0x40 MLOAD DUP1 SWAP2 SUB SWAP1 RETURN JUMPDEST PUSH2 0x38E PUSH1 0x4 DUP1 CALLDATASIZE SUB DUP2 ADD SWAP1 PUSH2 0x389 SWAP2 SWAP1 PUSH2 0x1047 JUMP JUMPDEST PUSH2 0xD24 JUMP JUMPDEST PUSH1 0x40 MLOAD PUSH2 0x39B SWAP2 SWAP1 PUSH2 0x143F JUMP JUMPDEST PUSH1 0x40 MLOAD DUP1 SWAP2 SUB SWAP1 RETURN JUMPDEST PUSH1 0x0 PUSH1 0x2 DUP3 PUSH1 0x40 MLOAD PUSH2 0x3B6 SWAP2 SWAP1 PUSH2 0x1564 JUMP JUMPDEST SWAP1 DUP2 MSTORE PUSH1 0x20 ADD PUSH1 0x40 MLOAD DUP1 SWAP2 SUB SWAP1 KECCAK256 PUSH1 0x0 SWAP1 SLOAD SWAP1 PUSH2 0x100 EXP SWAP1 DIV PUSH20 0xFFFFFFFFFFFFFFFFFFFFFFFFFFFFFFFFFFFFFFFF AND PUSH20 0xFFFFFFFFFFFFFFFFFFFFFFFFFFFFFFFFFFFFFFFF AND PUSH4 0xFC782C9F PUSH1 0x40 MLOAD DUP2 PUSH4 0xFFFFFFFF AND PUSH1 0xE0 SHL DUP2 MSTORE PUSH1 0x4 ADD PUSH1 0x20 PUSH1 0x40 MLOAD DUP1 DUP4 SUB DUP2 DUP7 GAS STATICCALL ISZERO DUP1 ISZERO PUSH2 0x42F JUMPI RETURNDATASIZE PUSH1 0x0 DUP1 RETURNDATACOPY RETURNDATASIZE PUSH1 0x0 REVERT JUMPDEST POP POP POP POP PUSH1 0x40 MLOAD RETURNDATASIZE PUSH1 0x1F NOT PUSH1 0x1F DUP3 ADD AND DUP3 ADD DUP1 PUSH1 0x40 MSTORE POP DUP2 ADD SWAP1 PUSH2 0x453 SWAP2 SWAP1 PUSH2 0x1590 JUMP JUMPDEST SWAP1 POP SWAP2 SWAP1 POP JUMP JUMPDEST PUSH1 0x2 DUP2 DUP1 MLOAD PUSH1 0x20 DUP2 ADD DUP3 ADD DUP1 MLOAD DUP5 DUP3 MSTORE PUSH1 0x20 DUP4 ADD PUSH1 0x20 DUP6 ADD KECCAK256 DUP2 DUP4 MSTORE DUP1 SWAP6 POP POP POP POP POP POP PUSH1 0x0 SWAP2 POP SLOAD SWAP1 PUSH2 0x100 EXP SWAP1 DIV PUSH20 0xFFFFFFFFFFFFFFFFFFFFFFFFFFFFFFFFFFFFFFFF AND DUP2 JUMP JUMPDEST DUP1 PUSH1 0x0 DUP2 MLOAD GT PUSH2 0x4E8 JUMPI PUSH1 0x40 MLOAD PUSH32 0x8C379A000000000000000000000000000000000000000000000000000000000 DUP2 MSTORE PUSH1 0x4 ADD PUSH2 0x4DF SWAP1 PUSH2 0x1609 JUMP JUMPDEST PUSH1 0x40 MLOAD DUP1 SWAP2 SUB SWAP1 REVERT JUMPDEST PUSH1 0x40 MLOAD PUSH2 0x4F4 SWAP1 PUSH2 0xD50 JUMP JUMPDEST PUSH1 0x40 MLOAD DUP1 SWAP2 SUB SWAP1 PUSH1 0x0 CREATE DUP1 ISZERO DUP1 ISZERO PUSH2 0x510 JUMPI RETURNDATASIZE PUSH1 0x0 DUP1 RETURNDATACOPY RETURNDATASIZE PUSH1 0x0 REVERT JUMPDEST POP PUSH1 0x2 DUP4 PUSH1 0x40 MLOAD PUSH2 0x521 SWAP2 SWAP1 PUSH2 0x1564 JUMP JUMPDEST SWAP1 DUP2 MSTORE PUSH1 0x20 ADD PUSH1 0x40 MLOAD DUP1 SWAP2 SUB SWAP1 KECCAK256 PUSH1 0x0 PUSH2 0x100 EXP DUP2 SLOAD DUP2 PUSH20 0xFFFFFFFFFFFFFFFFFFFFFFFFFFFFFFFFFFFFFFFF MUL NOT AND SWAP1 DUP4 PUSH20 0xFFFFFFFFFFFFFFFFFFFFFFFFFFFFFFFFFFFFFFFF AND MUL OR SWAP1 SSTORE POP POP POP JUMP JUMPDEST PUSH1 0x0 DUP1 DUP4 DUP2 SLOAD DUP2 LT PUSH2 0x586 JUMPI PUSH2 0x585 PUSH2 0x1629 JUMP JUMPDEST JUMPDEST SWAP1 PUSH1 0x0 MSTORE PUSH1 0x20 PUSH1 0x0 KECCAK256 ADD PUSH1 0x0 SWAP1 SLOAD SWAP1 PUSH2 0x100 EXP SWAP1 DIV PUSH20 0xFFFFFFFFFFFFFFFFFFFFFFFFFFFFFFFFFFFFFFFF AND SWAP1 POP DUP1 PUSH20 0xFFFFFFFFFFFFFFFFFFFFFFFFFFFFFFFFFFFFFFFF AND PUSH4 0x6057361D DUP4 PUSH1 0x40 MLOAD DUP3 PUSH4 0xFFFFFFFF AND PUSH1 0xE0 SHL DUP2 MSTORE PUSH1 0x4 ADD PUSH2 0x5EC SWAP2 SWAP1 PUSH2 0xF26 JUMP JUMPDEST PUSH1 0x0 PUSH1 0x40 MLOAD DUP1 DUP4 SUB DUP2 PUSH1 0x0 DUP8 DUP1 EXTCODESIZE ISZERO DUP1 ISZERO PUSH2 0x606 JUMPI PUSH1 0x0 DUP1 REVERT JUMPDEST POP GAS CALL ISZERO DUP1 ISZERO PUSH2 0x61A JUMPI RETURNDATASIZE PUSH1 0x0 DUP1 RETURNDATACOPY RETURNDATASIZE PUSH1 0x0 REVERT JUMPDEST POP POP POP POP POP POP POP JUMP JUMPDEST PUSH1 0x1 PUSH1 0x40 MLOAD PUSH2 0x631 SWAP1 PUSH2 0xD50 JUMP JUMPDEST PUSH1 0x40 MLOAD DUP1 SWAP2 SUB SWAP1 PUSH1 0x0 CREATE DUP1 ISZERO DUP1 ISZERO PUSH2 0x64D JUMPI RETURNDATASIZE PUSH1 0x0 DUP1 RETURNDATACOPY RETURNDATASIZE PUSH1 0x0 REVERT JUMPDEST POP SWAP1 DUP1 PUSH1 0x1 DUP2 SLOAD ADD DUP1 DUP3 SSTORE DUP1 SWAP2 POP POP PUSH1 0x1 SWAP1 SUB SWAP1 PUSH1 0x0 MSTORE PUSH1 0x20 PUSH1 0x0 KECCAK256 ADD PUSH1 0x0 SWAP1 SWAP2 SWAP1 SWAP2 SWAP1 SWAP2 PUSH2 0x100 EXP DUP2 SLOAD DUP2 PUSH20 0xFFFFFFFFFFFFFFFFFFFFFFFFFFFFFFFFFFFFFFFF MUL NOT AND SWAP1 DUP4 PUSH20 0xFFFFFFFFFFFFFFFFFFFFFFFFFFFFFFFFFFFFFFFF AND MUL OR SWAP1 SSTORE POP JUMP JUMPDEST PUSH1 0x0 PUSH1 0x40 MLOAD PUSH2 0x6BE SWAP1 PUSH2 0xD5D JUMP JUMPDEST PUSH1 0x40 MLOAD DUP1 SWAP2 SUB SWAP1 PUSH1 0x0 CREATE DUP1 ISZERO DUP1 ISZERO PUSH2 0x6DA JUMPI RETURNDATASIZE PUSH1 0x0 DUP1 RETURNDATACOPY RETURNDATASIZE PUSH1 0x0 REVERT JUMPDEST POP SWAP1 DUP1 PUSH1 0x1 DUP2 SLOAD ADD DUP1 DUP3 SSTORE DUP1 SWAP2 POP POP PUSH1 0x1 SWAP1 SUB SWAP1 PUSH1 0x0 MSTORE PUSH1 0x20 PUSH1 0x0 KECCAK256 ADD PUSH1 0x0 SWAP1 SWAP2 SWAP1 SWAP2 SWAP1 SWAP2 PUSH2 0x100 EXP DUP2 SLOAD DUP2 PUSH20 0xFFFFFFFFFFFFFFFFFFFFFFFFFFFFFFFFFFFFFFFF MUL NOT AND SWAP1 DUP4 PUSH20 0xFFFFFFFFFFFFFFFFFFFFFFFFFFFFFFFFFFFFFFFF AND MUL OR SWAP1 SSTORE POP JUMP JUMPDEST PUSH1 0x0 PUSH1 0x2 DUP4 PUSH1 0x40 MLOAD PUSH2 0x74F SWAP2 SWAP1 PUSH2 0x1564 JUMP JUMPDEST SWAP1 DUP2 MSTORE PUSH1 0x20 ADD PUSH1 0x40 MLOAD DUP1 SWAP2 SUB SWAP1 KECCAK256 PUSH1 0x0 SWAP1 SLOAD SWAP1 PUSH2 0x100 EXP SWAP1 DIV PUSH20 0xFFFFFFFFFFFFFFFFFFFFFFFFFFFFFFFFFFFFFFFF AND PUSH20 0xFFFFFFFFFFFFFFFFFFFFFFFFFFFFFFFFFFFFFFFF AND PUSH4 0x7B4CD9EB DUP4 PUSH1 0x40 MLOAD DUP3 PUSH4 0xFFFFFFFF AND PUSH1 0xE0 SHL DUP2 MSTORE PUSH1 0x4 ADD PUSH2 0x7B6 SWAP2 SWAP1 PUSH2 0x143F JUMP JUMPDEST PUSH1 0x20 PUSH1 0x40 MLOAD DUP1 DUP4 SUB DUP2 DUP7 GAS STATICCALL ISZERO DUP1 ISZERO PUSH2 0x7D3 JUMPI RETURNDATASIZE PUSH1 0x0 DUP1 RETURNDATACOPY RETURNDATASIZE PUSH1 0x0 REVERT JUMPDEST POP POP POP POP PUSH1 0x40 MLOAD RETURNDATASIZE PUSH1 0x1F NOT PUSH1 0x1F DUP3 ADD AND DUP3 ADD DUP1 PUSH1 0x40 MSTORE POP DUP2 ADD SWAP1 PUSH2 0x7F7 SWAP2 SWAP1 PUSH2 0x1590 JUMP JUMPDEST SWAP1 POP SWAP3 SWAP2 POP POP JUMP JUMPDEST PUSH1 0x0 DUP1 PUSH1 0x1 DUP6 DUP2 SLOAD DUP2 LT PUSH2 0x816 JUMPI PUSH2 0x815 PUSH2 0x1629 JUMP JUMPDEST JUMPDEST SWAP1 PUSH1 0x0 MSTORE PUSH1 0x20 PUSH1 0x0 KECCAK256 ADD PUSH1 0x0 SWAP1 SLOAD SWAP1 PUSH2 0x100 EXP SWAP1 DIV PUSH20 0xFFFFFFFFFFFFFFFFFFFFFFFFFFFFFFFFFFFFFFFF AND SWAP1 POP DUP1 PUSH20 0xFFFFFFFFFFFFFFFFFFFFFFFFFFFFFFFFFFFFFFFF AND PUSH4 0x54BFA6A4 DUP6 DUP6 PUSH1 0x40 MLOAD DUP4 PUSH4 0xFFFFFFFF AND PUSH1 0xE0 SHL DUP2 MSTORE PUSH1 0x4 ADD PUSH2 0x87E SWAP3 SWAP2 SWAP1 PUSH2 0x1658 JUMP JUMPDEST PUSH1 0x20 PUSH1 0x40 MLOAD DUP1 DUP4 SUB DUP2 DUP7 GAS STATICCALL ISZERO DUP1 ISZERO PUSH2 0x89B JUMPI RETURNDATASIZE PUSH1 0x0 DUP1 RETURNDATACOPY RETURNDATASIZE PUSH1 0x0 REVERT JUMPDEST POP POP POP POP PUSH1 0x40 MLOAD RETURNDATASIZE PUSH1 0x1F NOT PUSH1 0x1F DUP3 ADD AND DUP3 ADD DUP1 PUSH1 0x40 MSTORE POP DUP2 ADD SWAP1 PUSH2 0x8BF SWAP2 SWAP1 PUSH2 0x1590 JUMP JUMPDEST SWAP2 POP POP SWAP4 SWAP3 POP POP POP JUMP JUMPDEST PUSH1 0x0 DUP1 PUSH1 0x1 DUP5 DUP2 SLOAD DUP2 LT PUSH2 0x8E0 JUMPI PUSH2 0x8DF PUSH2 0x1629 JUMP JUMPDEST JUMPDEST SWAP1 PUSH1 0x0 MSTORE PUSH1 0x20 PUSH1 0x0 KECCAK256 ADD PUSH1 0x0 SWAP1 SLOAD SWAP1 PUSH2 0x100 EXP SWAP1 DIV PUSH20 0xFFFFFFFFFFFFFFFFFFFFFFFFFFFFFFFFFFFFFFFF AND SWAP1 POP DUP1 PUSH20 0xFFFFFFFFFFFFFFFFFFFFFFFFFFFFFFFFFFFFFFFF AND PUSH4 0x7B4CD9EB DUP5 PUSH1 0x40 MLOAD DUP3 PUSH4 0xFFFFFFFF AND PUSH1 0xE0 SHL DUP2 MSTORE PUSH1 0x4 ADD PUSH2 0x946 SWAP2 SWAP1 PUSH2 0x143F JUMP JUMPDEST PUSH1 0x20 PUSH1 0x40 MLOAD DUP1 DUP4 SUB DUP2 DUP7 GAS STATICCALL ISZERO DUP1 ISZERO PUSH2 0x963 JUMPI RETURNDATASIZE PUSH1 0x0 DUP1 RETURNDATACOPY RETURNDATASIZE PUSH1 0x0 REVERT JUMPDEST POP POP POP POP PUSH1 0x40 MLOAD RETURNDATASIZE PUSH1 0x1F NOT PUSH1 0x1F DUP3 ADD AND DUP3 ADD DUP1 PUSH1 0x40 MSTORE POP DUP2 ADD SWAP1 PUSH2 0x987 SWAP2 SWAP1 PUSH2 0x1590 JUMP JUMPDEST SWAP2 POP POP SWAP3 SWAP2 POP POP JUMP JUMPDEST PUSH1 0x0 PUSH1 0x2 DUP5 PUSH1 0x40 MLOAD PUSH2 0x9A2 SWAP2 SWAP1 PUSH2 0x1564 JUMP JUMPDEST SWAP1 DUP2 MSTORE PUSH1 0x20 ADD PUSH1 0x40 MLOAD DUP1 SWAP2 SUB SWAP1 KECCAK256 PUSH1 0x0 SWAP1 SLOAD SWAP1 PUSH2 0x100 EXP SWAP1 DIV PUSH20 0xFFFFFFFFFFFFFFFFFFFFFFFFFFFFFFFFFFFFFFFF AND PUSH20 0xFFFFFFFFFFFFFFFFFFFFFFFFFFFFFFFFFFFFFFFF AND PUSH4 0x54BFA6A4 DUP5 DUP5 PUSH1 0x40 MLOAD DUP4 PUSH4 0xFFFFFFFF AND PUSH1 0xE0 SHL DUP2 MSTORE PUSH1 0x4 ADD PUSH2 0xA0B SWAP3 SWAP2 SWAP1 PUSH2 0x1658 JUMP JUMPDEST PUSH1 0x20 PUSH1 0x40 MLOAD DUP1 DUP4 SUB DUP2 DUP7 GAS STATICCALL ISZERO DUP1 ISZERO PUSH2 0xA28 JUMPI RETURNDATASIZE PUSH1 0x0 DUP1 RETURNDATACOPY RETURNDATASIZE PUSH1 0x0 REVERT JUMPDEST POP POP POP POP PUSH1 0x40 MLOAD RETURNDATASIZE PUSH1 0x1F NOT PUSH1 0x1F DUP3 ADD AND DUP3 ADD DUP1 PUSH1 0x40 MSTORE POP DUP2 ADD SWAP1 PUSH2 0xA4C SWAP2 SWAP1 PUSH2 0x1590 JUMP JUMPDEST SWAP1 POP SWAP4 SWAP3 POP POP POP JUMP JUMPDEST PUSH1 0x1 DUP2 DUP2 SLOAD DUP2 LT PUSH2 0xA65 JUMPI PUSH1 0x0 DUP1 REVERT JUMPDEST SWAP1 PUSH1 0x0 MSTORE PUSH1 0x20 PUSH1 0x0 KECCAK256 ADD PUSH1 0x0 SWAP2 POP SLOAD SWAP1 PUSH2 0x100 EXP SWAP1 DIV PUSH20 0xFFFFFFFFFFFFFFFFFFFFFFFFFFFFFFFFFFFFFFFF AND DUP2 JUMP JUMPDEST PUSH1 0x0 DUP1 PUSH1 0x0 DUP4 DUP2 SLOAD DUP2 LT PUSH2 0xAAB JUMPI PUSH2 0xAAA PUSH2 0x1629 JUMP JUMPDEST JUMPDEST SWAP1 PUSH1 0x0 MSTORE PUSH1 0x20 PUSH1 0x0 KECCAK256 ADD PUSH1 0x0 SWAP1 SLOAD SWAP1 PUSH2 0x100 EXP SWAP1 DIV PUSH20 0xFFFFFFFFFFFFFFFFFFFFFFFFFFFFFFFFFFFFFFFF AND SWAP1 POP DUP1 PUSH20 0xFFFFFFFFFFFFFFFFFFFFFFFFFFFFFFFFFFFFFFFF AND PUSH4 0x2E64CEC1 PUSH1 0x40 MLOAD DUP2 PUSH4 0xFFFFFFFF AND PUSH1 0xE0 SHL DUP2 MSTORE PUSH1 0x4 ADD PUSH1 0x20 PUSH1 0x40 MLOAD DUP1 DUP4 SUB DUP2 DUP7 GAS STATICCALL ISZERO DUP1 ISZERO PUSH2 0xB23 JUMPI RETURNDATASIZE PUSH1 0x0 DUP1 RETURNDATACOPY RETURNDATASIZE PUSH1 0x0 REVERT JUMPDEST POP POP POP POP PUSH1 0x40 MLOAD RETURNDATASIZE PUSH1 0x1F NOT PUSH1 0x1F DUP3 ADD AND DUP3 ADD DUP1 PUSH1 0x40 MSTORE POP DUP2 ADD SWAP1 PUSH2 0xB47 SWAP2 SWAP1 PUSH2 0x1590 JUMP JUMPDEST SWAP2 POP POP SWAP2 SWAP1 POP JUMP JUMPDEST PUSH1 0x0 PUSH1 0x1 DUP5 DUP2 SLOAD DUP2 LT PUSH2 0xB65 JUMPI PUSH2 0xB64 PUSH2 0x1629 JUMP JUMPDEST JUMPDEST SWAP1 PUSH1 0x0 MSTORE PUSH1 0x20 PUSH1 0x0 KECCAK256 ADD PUSH1 0x0 SWAP1 SLOAD SWAP1 PUSH2 0x100 EXP SWAP1 DIV PUSH20 0xFFFFFFFFFFFFFFFFFFFFFFFFFFFFFFFFFFFFFFFF AND SWAP1 POP DUP1 PUSH20 0xFFFFFFFFFFFFFFFFFFFFFFFFFFFFFFFFFFFFFFFF AND PUSH4 0x35E317F3 DUP5 DUP5 PUSH1 0x40 MLOAD DUP4 PUSH4 0xFFFFFFFF AND PUSH1 0xE0 SHL DUP2 MSTORE PUSH1 0x4 ADD PUSH2 0xBCD SWAP3 SWAP2 SWAP1 PUSH2 0x168F JUMP JUMPDEST PUSH1 0x0 PUSH1 0x40 MLOAD DUP1 DUP4 SUB DUP2 PUSH1 0x0 DUP8 DUP1 EXTCODESIZE ISZERO DUP1 ISZERO PUSH2 0xBE7 JUMPI PUSH1 0x0 DUP1 REVERT JUMPDEST POP GAS CALL ISZERO DUP1 ISZERO PUSH2 0xBFB JUMPI RETURNDATASIZE PUSH1 0x0 DUP1 RETURNDATACOPY RETURNDATASIZE PUSH1 0x0 REVERT JUMPDEST POP POP POP POP POP POP POP POP JUMP JUMPDEST PUSH1 0x60 PUSH2 0xC11 DUP3 DUP5 PUSH2 0x73D JUMP JUMPDEST PUSH2 0xC1B DUP6 DUP8 PUSH2 0x73D JUMP JUMPDEST GT ISZERO PUSH2 0xC29 JUMPI DUP5 SWAP1 POP PUSH2 0xC2D JUMP JUMPDEST DUP3 SWAP1 POP JUMPDEST SWAP5 SWAP4 POP POP POP POP JUMP JUMPDEST PUSH1 0x2 DUP4 PUSH1 0x40 MLOAD PUSH2 0xC45 SWAP2 SWAP1 PUSH2 0x1564 JUMP JUMPDEST SWAP1 DUP2 MSTORE PUSH1 0x20 ADD PUSH1 0x40 MLOAD DUP1 SWAP2 SUB SWAP1 KECCAK256 PUSH1 0x0 SWAP1 SLOAD SWAP1 PUSH2 0x100 EXP SWAP1 DIV PUSH20 0xFFFFFFFFFFFFFFFFFFFFFFFFFFFFFFFFFFFFFFFF AND PUSH20 0xFFFFFFFFFFFFFFFFFFFFFFFFFFFFFFFFFFFFFFFF AND PUSH4 0x35E317F3 DUP4 DUP4 PUSH1 0x40 MLOAD DUP4 PUSH4 0xFFFFFFFF AND PUSH1 0xE0 SHL DUP2 MSTORE PUSH1 0x4 ADD PUSH2 0xCAE SWAP3 SWAP2 SWAP1 PUSH2 0x168F JUMP JUMPDEST PUSH1 0x0 PUSH1 0x40 MLOAD DUP1 DUP4 SUB DUP2 PUSH1 0x0 DUP8 DUP1 EXTCODESIZE ISZERO DUP1 ISZERO PUSH2 0xCC8 JUMPI PUSH1 0x0 DUP1 REVERT JUMPDEST POP GAS CALL ISZERO DUP1 ISZERO PUSH2 0xCDC JUMPI RETURNDATASIZE PUSH1 0x0 DUP1 RETURNDATACOPY RETURNDATASIZE PUSH1 0x0 REVERT JUMPDEST POP POP POP POP POP POP POP JUMP JUMPDEST PUSH1 0x0 DUP2 DUP2 SLOAD DUP2 LT PUSH2 0xCF5 JUMPI PUSH1 0x0 DUP1 REVERT JUMPDEST SWAP1 PUSH1 0x0 MSTORE PUSH1 0x20 PUSH1 0x0 KECCAK256 ADD PUSH1 0x0 SWAP2 POP SLOAD SWAP1 PUSH2 0x100 EXP SWAP1 DIV PUSH20 0xFFFFFFFFFFFFFFFFFFFFFFFFFFFFFFFFFFFFFFFF AND DUP2 JUMP JUMPDEST PUSH1 0x60 PUSH2 0xD2F DUP3 PUSH2 0x3A4 JUMP JUMPDEST PUSH2 0xD38 DUP5 PUSH2 0x3A4 JUMP JUMPDEST GT ISZERO PUSH2 0xD46 JUMPI DUP3 SWAP1 POP PUSH2 0xD4A JUMP JUMPDEST DUP2 SWAP1 POP JUMPDEST SWAP3 SWAP2 POP POP JUMP JUMPDEST PUSH2 0xC61 DUP1 PUSH2 0x16C0 DUP4 CODECOPY ADD SWAP1 JUMP JUMPDEST PUSH2 0x95B DUP1 PUSH2 0x2321 DUP4 CODECOPY ADD SWAP1 JUMP JUMPDEST PUSH1 0x0 PUSH1 0x40 MLOAD SWAP1 POP SWAP1 JUMP JUMPDEST PUSH1 0x0 DUP1 REVERT JUMPDEST PUSH1 0x0 DUP1 REVERT JUMPDEST PUSH1 0x0 DUP1 REVERT JUMPDEST PUSH1 0x0 DUP1 REVERT JUMPDEST PUSH1 0x0 PUSH1 0x1F NOT PUSH1 0x1F DUP4 ADD AND SWAP1 POP SWAP2 SWAP1 POP JUMP JUMPDEST PUSH32 0x4E487B7100000000000000000000000000000000000000000000000000000000 PUSH1 0x0 MSTORE PUSH1 0x41 PUSH1 0x4 MSTORE PUSH1 0x24 PUSH1 0x0 REVERT JUMPDEST PUSH2 0xDD1 DUP3 PUSH2 0xD88 JUMP JUMPDEST DUP2 ADD DUP2 DUP2 LT PUSH8 0xFFFFFFFFFFFFFFFF DUP3 GT OR ISZERO PUSH2 0xDF0 JUMPI PUSH2 0xDEF PUSH2 0xD99 JUMP JUMPDEST JUMPDEST DUP1 PUSH1 0x40 MSTORE POP POP POP JUMP JUMPDEST PUSH1 0x0 PUSH2 0xE03 PUSH2 0xD6A JUMP JUMPDEST SWAP1 POP PUSH2 0xE0F DUP3 DUP3 PUSH2 0xDC8 JUMP JUMPDEST SWAP2 SWAP1 POP JUMP JUMPDEST PUSH1 0x0 PUSH8 0xFFFFFFFFFFFFFFFF DUP3 GT ISZERO PUSH2 0xE2F JUMPI PUSH2 0xE2E PUSH2 0xD99 JUMP JUMPDEST JUMPDEST PUSH2 0xE38 DUP3 PUSH2 0xD88 JUMP JUMPDEST SWAP1 POP PUSH1 0x20 DUP2 ADD SWAP1 POP SWAP2 SWAP1 POP JUMP JUMPDEST DUP3 DUP2 DUP4 CALLDATACOPY PUSH1 0x0 DUP4 DUP4 ADD MSTORE POP POP POP JUMP JUMPDEST PUSH1 0x0 PUSH2 0xE67 PUSH2 0xE62 DUP5 PUSH2 0xE14 JUMP JUMPDEST PUSH2 0xDF9 JUMP JUMPDEST SWAP1 POP DUP3 DUP2 MSTORE PUSH1 0x20 DUP2 ADD DUP5 DUP5 DUP5 ADD GT ISZERO PUSH2 0xE83 JUMPI PUSH2 0xE82 PUSH2 0xD83 JUMP JUMPDEST JUMPDEST PUSH2 0xE8E DUP5 DUP3 DUP6 PUSH2 0xE45 JUMP JUMPDEST POP SWAP4 SWAP3 POP POP POP JUMP JUMPDEST PUSH1 0x0 DUP3 PUSH1 0x1F DUP4 ADD SLT PUSH2 0xEAB JUMPI PUSH2 0xEAA PUSH2 0xD7E JUMP JUMPDEST JUMPDEST DUP2 CALLDATALOAD PUSH2 0xEBB DUP5 DUP3 PUSH1 0x20 DUP7 ADD PUSH2 0xE54 JUMP JUMPDEST SWAP2 POP POP SWAP3 SWAP2 POP POP JUMP JUMPDEST PUSH1 0x0 PUSH1 0x20 DUP3 DUP5 SUB SLT ISZERO PUSH2 0xEDA JUMPI PUSH2 0xED9 PUSH2 0xD74 JUMP JUMPDEST JUMPDEST PUSH1 0x0 DUP3 ADD CALLDATALOAD PUSH8 0xFFFFFFFFFFFFFFFF DUP2 GT ISZERO PUSH2 0xEF8 JUMPI PUSH2 0xEF7 PUSH2 0xD79 JUMP JUMPDEST JUMPDEST PUSH2 0xF04 DUP5 DUP3 DUP6 ADD PUSH2 0xE96 JUMP JUMPDEST SWAP2 POP POP SWAP3 SWAP2 POP POP JUMP JUMPDEST PUSH1 0x0 DUP2 SWAP1 POP SWAP2 SWAP1 POP JUMP JUMPDEST PUSH2 0xF20 DUP2 PUSH2 0xF0D JUMP JUMPDEST DUP3 MSTORE POP POP JUMP JUMPDEST PUSH1 0x0 PUSH1 0x20 DUP3 ADD SWAP1 POP PUSH2 0xF3B PUSH1 0x0 DUP4 ADD DUP5 PUSH2 0xF17 JUMP JUMPDEST SWAP3 SWAP2 POP POP JUMP JUMPDEST PUSH1 0x0 PUSH20 0xFFFFFFFFFFFFFFFFFFFFFFFFFFFFFFFFFFFFFFFF DUP3 AND SWAP1 POP SWAP2 SWAP1 POP JUMP JUMPDEST PUSH1 0x0 DUP2 SWAP1 POP SWAP2 SWAP1 POP JUMP JUMPDEST PUSH1 0x0 PUSH2 0xF86 PUSH2 0xF81 PUSH2 0xF7C DUP5 PUSH2 0xF41 JUMP JUMPDEST PUSH2 0xF61 JUMP JUMPDEST PUSH2 0xF41 JUMP JUMPDEST SWAP1 POP SWAP2 SWAP1 POP JUMP JUMPDEST PUSH1 0x0 PUSH2 0xF98 DUP3 PUSH2 0xF6B JUMP JUMPDEST SWAP1 POP SWAP2 SWAP1 POP JUMP JUMPDEST PUSH1 0x0 PUSH2 0xFAA DUP3 PUSH2 0xF8D JUMP JUMPDEST SWAP1 POP SWAP2 SWAP1 POP JUMP JUMPDEST PUSH2 0xFBA DUP2 PUSH2 0xF9F JUMP JUMPDEST DUP3 MSTORE POP POP JUMP JUMPDEST PUSH1 0x0 PUSH1 0x20 DUP3 ADD SWAP1 POP PUSH2 0xFD5 PUSH1 0x0 DUP4 ADD DUP5 PUSH2 0xFB1 JUMP JUMPDEST SWAP3 SWAP2 POP POP JUMP JUMPDEST PUSH2 0xFE4 DUP2 PUSH2 0xF0D JUMP JUMPDEST DUP2 EQ PUSH2 0xFEF JUMPI PUSH1 0x0 DUP1 REVERT JUMPDEST POP JUMP JUMPDEST PUSH1 0x0 DUP2 CALLDATALOAD SWAP1 POP PUSH2 0x1001 DUP2 PUSH2 0xFDB JUMP JUMPDEST SWAP3 SWAP2 POP POP JUMP JUMPDEST PUSH1 0x0 DUP1 PUSH1 0x40 DUP4 DUP6 SUB SLT ISZERO PUSH2 0x101E JUMPI PUSH2 0x101D PUSH2 0xD74 JUMP JUMPDEST JUMPDEST PUSH1 0x0 PUSH2 0x102C DUP6 DUP3 DUP7 ADD PUSH2 0xFF2 JUMP JUMPDEST SWAP3 POP POP PUSH1 0x20 PUSH2 0x103D DUP6 DUP3 DUP7 ADD PUSH2 0xFF2 JUMP JUMPDEST SWAP2 POP POP SWAP3 POP SWAP3 SWAP1 POP JUMP JUMPDEST PUSH1 0x0 DUP1 PUSH1 0x40 DUP4 DUP6 SUB SLT ISZERO PUSH2 0x105E JUMPI PUSH2 0x105D PUSH2 0xD74 JUMP JUMPDEST JUMPDEST PUSH1 0x0 DUP4 ADD CALLDATALOAD PUSH8 0xFFFFFFFFFFFFFFFF DUP2 GT ISZERO PUSH2 0x107C JUMPI PUSH2 0x107B PUSH2 0xD79 JUMP JUMPDEST JUMPDEST PUSH2 0x1088 DUP6 DUP3 DUP7 ADD PUSH2 0xE96 JUMP JUMPDEST SWAP3 POP POP PUSH1 0x20 DUP4 ADD CALLDATALOAD PUSH8 0xFFFFFFFFFFFFFFFF DUP2 GT ISZERO PUSH2 0x10A9 JUMPI PUSH2 0x10A8 PUSH2 0xD79 JUMP JUMPDEST JUMPDEST PUSH2 0x10B5 DUP6 DUP3 DUP7 ADD PUSH2 0xE96 JUMP JUMPDEST SWAP2 POP POP SWAP3 POP SWAP3 SWAP1 POP JUMP JUMPDEST PUSH1 0x0 DUP1 PUSH1 0x0 PUSH1 0x60 DUP5 DUP7 SUB SLT ISZERO PUSH2 0x10D8 JUMPI PUSH2 0x10D7 PUSH2 0xD74 JUMP JUMPDEST JUMPDEST PUSH1 0x0 PUSH2 0x10E6 DUP7 DUP3 DUP8 ADD PUSH2 0xFF2 JUMP JUMPDEST SWAP4 POP POP PUSH1 0x20 DUP5 ADD CALLDATALOAD PUSH8 0xFFFFFFFFFFFFFFFF DUP2 GT ISZERO PUSH2 0x1107 JUMPI PUSH2 0x1106 PUSH2 0xD79 JUMP JUMPDEST JUMPDEST PUSH2 0x1113 DUP7 DUP3 DUP8 ADD PUSH2 0xE96 JUMP JUMPDEST SWAP3 POP POP PUSH1 0x40 DUP5 ADD CALLDATALOAD PUSH8 0xFFFFFFFFFFFFFFFF DUP2 GT ISZERO PUSH2 0x1134 JUMPI PUSH2 0x1133 PUSH2 0xD79 JUMP JUMPDEST JUMPDEST PUSH2 0x1140 DUP7 DUP3 DUP8 ADD PUSH2 0xE96 JUMP JUMPDEST SWAP2 POP POP SWAP3 POP SWAP3 POP SWAP3 JUMP JUMPDEST PUSH1 0x0 DUP1 PUSH1 0x40 DUP4 DUP6 SUB SLT ISZERO PUSH2 0x1161 JUMPI PUSH2 0x1160 PUSH2 0xD74 JUMP JUMPDEST JUMPDEST PUSH1 0x0 PUSH2 0x116F DUP6 DUP3 DUP7 ADD PUSH2 0xFF2 JUMP JUMPDEST SWAP3 POP POP PUSH1 0x20 DUP4 ADD CALLDATALOAD PUSH8 0xFFFFFFFFFFFFFFFF DUP2 GT ISZERO PUSH2 0x1190 JUMPI PUSH2 0x118F PUSH2 0xD79 JUMP JUMPDEST JUMPDEST PUSH2 0x119C DUP6 DUP3 DUP7 ADD PUSH2 0xE96 JUMP JUMPDEST SWAP2 POP POP SWAP3 POP SWAP3 SWAP1 POP JUMP JUMPDEST PUSH1 0x0 DUP1 PUSH1 0x0 PUSH1 0x60 DUP5 DUP7 SUB SLT ISZERO PUSH2 0x11BF JUMPI PUSH2 0x11BE PUSH2 0xD74 JUMP JUMPDEST JUMPDEST PUSH1 0x0 DUP5 ADD CALLDATALOAD PUSH8 0xFFFFFFFFFFFFFFFF DUP2 GT ISZERO PUSH2 0x11DD JUMPI PUSH2 0x11DC PUSH2 0xD79 JUMP JUMPDEST JUMPDEST PUSH2 0x11E9 DUP7 DUP3 DUP8 ADD PUSH2 0xE96 JUMP JUMPDEST SWAP4 POP POP PUSH1 0x20 DUP5 ADD CALLDATALOAD PUSH8 0xFFFFFFFFFFFFFFFF DUP2 GT ISZERO PUSH2 0x120A JUMPI PUSH2 0x1209 PUSH2 0xD79 JUMP JUMPDEST JUMPDEST PUSH2 0x1216 DUP7 DUP3 DUP8 ADD PUSH2 0xE96 JUMP JUMPDEST SWAP3 POP POP PUSH1 0x40 DUP5 ADD CALLDATALOAD PUSH8 0xFFFFFFFFFFFFFFFF DUP2 GT ISZERO PUSH2 0x1237 JUMPI PUSH2 0x1236 PUSH2 0xD79 JUMP JUMPDEST JUMPDEST PUSH2 0x1243 DUP7 DUP3 DUP8 ADD PUSH2 0xE96 JUMP JUMPDEST SWAP2 POP POP SWAP3 POP SWAP3 POP SWAP3 JUMP JUMPDEST PUSH1 0x0 PUSH1 0x20 DUP3 DUP5 SUB SLT ISZERO PUSH2 0x1263 JUMPI PUSH2 0x1262 PUSH2 0xD74 JUMP JUMPDEST JUMPDEST PUSH1 0x0 PUSH2 0x1271 DUP5 DUP3 DUP6 ADD PUSH2 0xFF2 JUMP JUMPDEST SWAP2 POP POP SWAP3 SWAP2 POP POP JUMP JUMPDEST PUSH1 0x0 DUP1 PUSH1 0x0 PUSH1 0x60 DUP5 DUP7 SUB SLT ISZERO PUSH2 0x1293 JUMPI PUSH2 0x1292 PUSH2 0xD74 JUMP JUMPDEST JUMPDEST PUSH1 0x0 PUSH2 0x12A1 DUP7 DUP3 DUP8 ADD PUSH2 0xFF2 JUMP JUMPDEST SWAP4 POP POP PUSH1 0x20 PUSH2 0x12B2 DUP7 DUP3 DUP8 ADD PUSH2 0xFF2 JUMP JUMPDEST SWAP3 POP POP PUSH1 0x40 DUP5 ADD CALLDATALOAD PUSH8 0xFFFFFFFFFFFFFFFF DUP2 GT ISZERO PUSH2 0x12D3 JUMPI PUSH2 0x12D2 PUSH2 0xD79 JUMP JUMPDEST JUMPDEST PUSH2 0x12DF DUP7 DUP3 DUP8 ADD PUSH2 0xE96 JUMP JUMPDEST SWAP2 POP POP SWAP3 POP SWAP3 POP SWAP3 JUMP JUMPDEST PUSH1 0x0 DUP1 PUSH1 0x0 DUP1 PUSH1 0x80 DUP6 DUP8 SUB SLT ISZERO PUSH2 0x1303 JUMPI PUSH2 0x1302 PUSH2 0xD74 JUMP JUMPDEST JUMPDEST PUSH1 0x0 DUP6 ADD CALLDATALOAD PUSH8 0xFFFFFFFFFFFFFFFF DUP2 GT ISZERO PUSH2 0x1321 JUMPI PUSH2 0x1320 PUSH2 0xD79 JUMP JUMPDEST JUMPDEST PUSH2 0x132D DUP8 DUP3 DUP9 ADD PUSH2 0xE96 JUMP JUMPDEST SWAP5 POP POP PUSH1 0x20 DUP6 ADD CALLDATALOAD PUSH8 0xFFFFFFFFFFFFFFFF DUP2 GT ISZERO PUSH2 0x134E JUMPI PUSH2 0x134D PUSH2 0xD79 JUMP JUMPDEST JUMPDEST PUSH2 0x135A DUP8 DUP3 DUP9 ADD PUSH2 0xE96 JUMP JUMPDEST SWAP4 POP POP PUSH1 0x40 DUP6 ADD CALLDATALOAD PUSH8 0xFFFFFFFFFFFFFFFF DUP2 GT ISZERO PUSH2 0x137B JUMPI PUSH2 0x137A PUSH2 0xD79 JUMP JUMPDEST JUMPDEST PUSH2 0x1387 DUP8 DUP3 DUP9 ADD PUSH2 0xE96 JUMP JUMPDEST SWAP3 POP POP PUSH1 0x60 DUP6 ADD CALLDATALOAD PUSH8 0xFFFFFFFFFFFFFFFF DUP2 GT ISZERO PUSH2 0x13A8 JUMPI PUSH2 0x13A7 PUSH2 0xD79 JUMP JUMPDEST JUMPDEST PUSH2 0x13B4 DUP8 DUP3 DUP9 ADD PUSH2 0xE96 JUMP JUMPDEST SWAP2 POP POP SWAP3 SWAP6 SWAP2 SWAP5 POP SWAP3 POP JUMP JUMPDEST PUSH1 0x0 DUP2 MLOAD SWAP1 POP SWAP2 SWAP1 POP JUMP JUMPDEST PUSH1 0x0 DUP3 DUP3 MSTORE PUSH1 0x20 DUP3 ADD SWAP1 POP SWAP3 SWAP2 POP POP JUMP JUMPDEST PUSH1 0x0 JUMPDEST DUP4 DUP2 LT ISZERO PUSH2 0x13FA JUMPI DUP1 DUP3 ADD MLOAD DUP2 DUP5 ADD MSTORE PUSH1 0x20 DUP2 ADD SWAP1 POP PUSH2 0x13DF JUMP JUMPDEST PUSH1 0x0 DUP5 DUP5 ADD MSTORE POP POP POP POP JUMP JUMPDEST PUSH1 0x0 PUSH2 0x1411 DUP3 PUSH2 0x13C0 JUMP JUMPDEST PUSH2 0x141B DUP2 DUP6 PUSH2 0x13CB JUMP JUMPDEST SWAP4 POP PUSH2 0x142B DUP2 DUP6 PUSH1 0x20 DUP7 ADD PUSH2 0x13DC JUMP JUMPDEST PUSH2 0x1434 DUP2 PUSH2 0xD88 JUMP JUMPDEST DUP5 ADD SWAP2 POP POP SWAP3 SWAP2 POP POP JUMP JUMPDEST PUSH1 0x0 PUSH1 0x20 DUP3 ADD SWAP1 POP DUP2 DUP2 SUB PUSH1 0x0 DUP4 ADD MSTORE PUSH2 0x1459 DUP2 DUP5 PUSH2 0x1406 JUMP JUMPDEST SWAP1 POP SWAP3 SWAP2 POP POP JUMP JUMPDEST PUSH1 0x0 DUP1 PUSH1 0x0 PUSH1 0x60 DUP5 DUP7 SUB SLT ISZERO PUSH2 0x147A JUMPI PUSH2 0x1479 PUSH2 0xD74 JUMP JUMPDEST JUMPDEST PUSH1 0x0 DUP5 ADD CALLDATALOAD PUSH8 0xFFFFFFFFFFFFFFFF DUP2 GT ISZERO PUSH2 0x1498 JUMPI PUSH2 0x1497 PUSH2 0xD79 JUMP JUMPDEST JUMPDEST PUSH2 0x14A4 DUP7 DUP3 DUP8 ADD PUSH2 0xE96 JUMP JUMPDEST SWAP4 POP POP PUSH1 0x20 PUSH2 0x14B5 DUP7 DUP3 DUP8 ADD PUSH2 0xFF2 JUMP JUMPDEST SWAP3 POP POP PUSH1 0x40 DUP5 ADD CALLDATALOAD PUSH8 0xFFFFFFFFFFFFFFFF DUP2 GT ISZERO PUSH2 0x14D6 JUMPI PUSH2 0x14D5 PUSH2 0xD79 JUMP JUMPDEST JUMPDEST PUSH2 0x14E2 DUP7 DUP3 DUP8 ADD PUSH2 0xE96 JUMP JUMPDEST SWAP2 POP POP SWAP3 POP SWAP3 POP SWAP3 JUMP JUMPDEST PUSH1 0x0 PUSH2 0x14F7 DUP3 PUSH2 0xF8D JUMP JUMPDEST SWAP1 POP SWAP2 SWAP1 POP JUMP JUMPDEST PUSH2 0x1507 DUP2 PUSH2 0x14EC JUMP JUMPDEST DUP3 MSTORE POP POP JUMP JUMPDEST PUSH1 0x0 PUSH1 0x20 DUP3 ADD SWAP1 POP PUSH2 0x1522 PUSH1 0x0 DUP4 ADD DUP5 PUSH2 0x14FE JUMP JUMPDEST SWAP3 SWAP2 POP POP JUMP JUMPDEST PUSH1 0x0 DUP2 SWAP1 POP SWAP3 SWAP2 POP POP JUMP JUMPDEST PUSH1 0x0 PUSH2 0x153E DUP3 PUSH2 0x13C0 JUMP JUMPDEST PUSH2 0x1548 DUP2 DUP6 PUSH2 0x1528 JUMP JUMPDEST SWAP4 POP PUSH2 0x1558 DUP2 DUP6 PUSH1 0x20 DUP7 ADD PUSH2 0x13DC JUMP JUMPDEST DUP1 DUP5 ADD SWAP2 POP POP SWAP3 SWAP2 POP POP JUMP JUMPDEST PUSH1 0x0 PUSH2 0x1570 DUP3 DUP5 PUSH2 0x1533 JUMP JUMPDEST SWAP2 POP DUP2 SWAP1 POP SWAP3 SWAP2 POP POP JUMP JUMPDEST PUSH1 0x0 DUP2 MLOAD SWAP1 POP PUSH2 0x158A DUP2 PUSH2 0xFDB JUMP JUMPDEST SWAP3 SWAP2 POP POP JUMP JUMPDEST PUSH1 0x0 PUSH1 0x20 DUP3 DUP5 SUB SLT ISZERO PUSH2 0x15A6 JUMPI PUSH2 0x15A5 PUSH2 0xD74 JUMP JUMPDEST JUMPDEST PUSH1 0x0 PUSH2 0x15B4 DUP5 DUP3 DUP6 ADD PUSH2 0x157B JUMP JUMPDEST SWAP2 POP POP SWAP3 SWAP2 POP POP JUMP JUMPDEST PUSH32 0x4D75737420737570706C792066616D696C79206E616D65000000000000000000 PUSH1 0x0 DUP3 ADD MSTORE POP JUMP JUMPDEST PUSH1 0x0 PUSH2 0x15F3 PUSH1 0x17 DUP4 PUSH2 0x13CB JUMP JUMPDEST SWAP2 POP PUSH2 0x15FE DUP3 PUSH2 0x15BD JUMP JUMPDEST PUSH1 0x20 DUP3 ADD SWAP1 POP SWAP2 SWAP1 POP JUMP JUMPDEST PUSH1 0x0 PUSH1 0x20 DUP3 ADD SWAP1 POP DUP2 DUP2 SUB PUSH1 0x0 DUP4 ADD MSTORE PUSH2 0x1622 DUP2 PUSH2 0x15E6 JUMP JUMPDEST SWAP1 POP SWAP2 SWAP1 POP JUMP JUMPDEST PUSH32 0x4E487B7100000000000000000000000000000000000000000000000000000000 PUSH1 0x0 MSTORE PUSH1 0x32 PUSH1 0x4 MSTORE PUSH1 0x24 PUSH1 0x0 REVERT JUMPDEST PUSH1 0x0 PUSH1 0x40 DUP3 ADD SWAP1 POP DUP2 DUP2 SUB PUSH1 0x0 DUP4 ADD MSTORE PUSH2 0x1672 DUP2 DUP6 PUSH2 0x1406 JUMP JUMPDEST SWAP1 POP DUP2 DUP2 SUB PUSH1 0x20 DUP4 ADD MSTORE PUSH2 0x1686 DUP2 DUP5 PUSH2 0x1406 JUMP JUMPDEST SWAP1 POP SWAP4 SWAP3 POP POP POP JUMP JUMPDEST PUSH1 0x0 PUSH1 0x40 DUP3 ADD SWAP1 POP PUSH2 0x16A4 PUSH1 0x0 DUP4 ADD DUP6 PUSH2 0xF17 JUMP JUMPDEST DUP2 DUP2 SUB PUSH1 0x20 DUP4 ADD MSTORE PUSH2 0x16B6 DUP2 DUP5 PUSH2 0x1406 JUMP JUMPDEST SWAP1 POP SWAP4 SWAP3 POP POP POP JUMP INVALID PUSH1 0x80 PUSH1 0x40 MSTORE CALLVALUE DUP1 ISZERO PUSH2 0x10 JUMPI PUSH1 0x0 DUP1 REVERT JUMPDEST POP PUSH2 0xC41 DUP1 PUSH2 0x20 PUSH1 0x0 CODECOPY PUSH1 0x0 RETURN INVALID PUSH1 0x80 PUSH1 0x40 MSTORE CALLVALUE DUP1 ISZERO PUSH2 0x10 JUMPI PUSH1 0x0 DUP1 REVERT JUMPDEST POP PUSH1 0x4 CALLDATASIZE LT PUSH2 0x57 JUMPI PUSH1 0x0 CALLDATALOAD PUSH1 0xE0 SHR DUP1 PUSH4 0x35E317F3 EQ PUSH2 0x5C JUMPI DUP1 PUSH4 0x54BFA6A4 EQ PUSH2 0x78 JUMPI DUP1 PUSH4 0x7B4CD9EB EQ PUSH2 0xA8 JUMPI DUP1 PUSH4 0xF52AEE1D EQ PUSH2 0xD8 JUMPI DUP1 PUSH4 0xFC782C9F EQ PUSH2 0x108 JUMPI JUMPDEST PUSH1 0x0 DUP1 REVERT JUMPDEST PUSH2 0x76 PUSH1 0x4 DUP1 CALLDATASIZE SUB DUP2 ADD SWAP1 PUSH2 0x71 SWAP2 SWAP1 PUSH2 0x4E5 JUMP JUMPDEST PUSH2 0x126 JUMP JUMPDEST STOP JUMPDEST PUSH2 0x92 PUSH1 0x4 DUP1 CALLDATASIZE SUB DUP2 ADD SWAP1 PUSH2 0x8D SWAP2 SWAP1 PUSH2 0x541 JUMP JUMPDEST PUSH2 0x182 JUMP JUMPDEST PUSH1 0x40 MLOAD PUSH2 0x9F SWAP2 SWAP1 PUSH2 0x5C8 JUMP JUMPDEST PUSH1 0x40 MLOAD DUP1 SWAP2 SUB SWAP1 RETURN JUMPDEST PUSH2 0xC2 PUSH1 0x4 DUP1 CALLDATASIZE SUB DUP2 ADD SWAP1 PUSH2 0xBD SWAP2 SWAP1 PUSH2 0x5E3 JUMP JUMPDEST PUSH2 0x1A8 JUMP JUMPDEST PUSH1 0x40 MLOAD PUSH2 0xCF SWAP2 SWAP1 PUSH2 0x5C8 JUMP JUMPDEST PUSH1 0x40 MLOAD DUP1 SWAP2 SUB SWAP1 RETURN JUMPDEST PUSH2 0xF2 PUSH1 0x4 DUP1 CALLDATASIZE SUB DUP2 ADD SWAP1 PUSH2 0xED SWAP2 SWAP1 PUSH2 0x62C JUMP JUMPDEST PUSH2 0x232 JUMP JUMPDEST PUSH1 0x40 MLOAD PUSH2 0xFF SWAP2 SWAP1 PUSH2 0x6D8 JUMP JUMPDEST PUSH1 0x40 MLOAD DUP1 SWAP2 SUB SWAP1 RETURN JUMPDEST PUSH2 0x110 PUSH2 0x2DE JUMP JUMPDEST PUSH1 0x40 MLOAD PUSH2 0x11D SWAP2 SWAP1 PUSH2 0x5C8 JUMP JUMPDEST PUSH1 0x40 MLOAD DUP1 SWAP2 SUB SWAP1 RETURN JUMPDEST DUP2 PUSH1 0x0 DUP3 PUSH1 0x40 MLOAD PUSH2 0x137 SWAP2 SWAP1 PUSH2 0x736 JUMP JUMPDEST SWAP1 DUP2 MSTORE PUSH1 0x20 ADD PUSH1 0x40 MLOAD DUP1 SWAP2 SUB SWAP1 KECCAK256 DUP2 SWAP1 SSTORE POP PUSH1 0x1 DUP2 SWAP1 DUP1 PUSH1 0x1 DUP2 SLOAD ADD DUP1 DUP3 SSTORE DUP1 SWAP2 POP POP PUSH1 0x1 SWAP1 SUB SWAP1 PUSH1 0x0 MSTORE PUSH1 0x20 PUSH1 0x0 KECCAK256 ADD PUSH1 0x0 SWAP1 SWAP2 SWAP1 SWAP2 SWAP1 SWAP2 POP SWAP1 DUP2 PUSH2 0x17D SWAP2 SWAP1 PUSH2 0x959 JUMP JUMPDEST POP POP POP JUMP JUMPDEST PUSH1 0x0 PUSH2 0x18D DUP3 PUSH2 0x1A8 JUMP JUMPDEST PUSH2 0x196 DUP5 PUSH2 0x1A8 JUMP JUMPDEST PUSH2 0x1A0 SWAP2 SWAP1 PUSH2 0xA5A JUMP JUMPDEST SWAP1 POP SWAP3 SWAP2 POP POP JUMP JUMPDEST PUSH1 0x0 DUP2 PUSH1 0x0 DUP1 DUP3 PUSH1 0x40 MLOAD PUSH2 0x1BC SWAP2 SWAP1 PUSH2 0x736 JUMP JUMPDEST SWAP1 DUP2 MSTORE PUSH1 0x20 ADD PUSH1 0x40 MLOAD DUP1 SWAP2 SUB SWAP1 KECCAK256 SLOAD SUB PUSH2 0x20B JUMPI PUSH1 0x40 MLOAD PUSH32 0x8C379A000000000000000000000000000000000000000000000000000000000 DUP2 MSTORE PUSH1 0x4 ADD PUSH2 0x202 SWAP1 PUSH2 0xADA JUMP JUMPDEST PUSH1 0x40 MLOAD DUP1 SWAP2 SUB SWAP1 REVERT JUMPDEST PUSH1 0x0 DUP4 PUSH1 0x40 MLOAD PUSH2 0x21B SWAP2 SWAP1 PUSH2 0x736 JUMP JUMPDEST SWAP1 DUP2 MSTORE PUSH1 0x20 ADD PUSH1 0x40 MLOAD DUP1 SWAP2 SUB SWAP1 KECCAK256 SLOAD SWAP2 POP POP SWAP2 SWAP1 POP JUMP JUMPDEST PUSH1 0x1 DUP2 DUP2 SLOAD DUP2 LT PUSH2 0x242 JUMPI PUSH1 0x0 DUP1 REVERT JUMPDEST SWAP1 PUSH1 0x0 MSTORE PUSH1 0x20 PUSH1 0x0 KECCAK256 ADD PUSH1 0x0 SWAP2 POP SWAP1 POP DUP1 SLOAD PUSH2 0x25D SWAP1 PUSH2 0x77C JUMP JUMPDEST DUP1 PUSH1 0x1F ADD PUSH1 0x20 DUP1 SWAP2 DIV MUL PUSH1 0x20 ADD PUSH1 0x40 MLOAD SWAP1 DUP2 ADD PUSH1 0x40 MSTORE DUP1 SWAP3 SWAP2 SWAP1 DUP2 DUP2 MSTORE PUSH1 0x20 ADD DUP3 DUP1 SLOAD PUSH2 0x289 SWAP1 PUSH2 0x77C JUMP JUMPDEST DUP1 ISZERO PUSH2 0x2D6 JUMPI DUP1 PUSH1 0x1F LT PUSH2 0x2AB JUMPI PUSH2 0x100 DUP1 DUP4 SLOAD DIV MUL DUP4 MSTORE SWAP2 PUSH1 0x20 ADD SWAP2 PUSH2 0x2D6 JUMP JUMPDEST DUP3 ADD SWAP2 SWAP1 PUSH1 0x0 MSTORE PUSH1 0x20 PUSH1 0x0 KECCAK256 SWAP1 JUMPDEST DUP2 SLOAD DUP2 MSTORE SWAP1 PUSH1 0x1 ADD SWAP1 PUSH1 0x20 ADD DUP1 DUP4 GT PUSH2 0x2B9 JUMPI DUP3 SWAP1 SUB PUSH1 0x1F AND DUP3 ADD SWAP2 JUMPDEST POP POP POP POP POP DUP2 JUMP JUMPDEST PUSH1 0x0 DUP1 PUSH1 0x0 JUMPDEST PUSH1 0x1 DUP1 SLOAD SWAP1 POP DUP2 LT ISZERO PUSH2 0x34D JUMPI PUSH1 0x0 PUSH1 0x1 DUP3 DUP2 SLOAD DUP2 LT PUSH2 0x307 JUMPI PUSH2 0x306 PUSH2 0xAFA JUMP JUMPDEST JUMPDEST SWAP1 PUSH1 0x0 MSTORE PUSH1 0x20 PUSH1 0x0 KECCAK256 ADD PUSH1 0x40 MLOAD PUSH2 0x31E SWAP2 SWAP1 PUSH2 0xBAC JUMP JUMPDEST SWAP1 DUP2 MSTORE PUSH1 0x20 ADD PUSH1 0x40 MLOAD DUP1 SWAP2 SUB SWAP1 KECCAK256 SLOAD DUP3 PUSH2 0x338 SWAP2 SWAP1 PUSH2 0xA5A JUMP JUMPDEST SWAP2 POP DUP1 DUP1 PUSH2 0x345 SWAP1 PUSH2 0xBC3 JUMP JUMPDEST SWAP2 POP POP PUSH2 0x2E4 JUMP JUMPDEST POP DUP1 SWAP2 POP POP SWAP1 JUMP JUMPDEST PUSH1 0x0 PUSH1 0x40 MLOAD SWAP1 POP SWAP1 JUMP JUMPDEST PUSH1 0x0 DUP1 REVERT JUMPDEST PUSH1 0x0 DUP1 REVERT JUMPDEST PUSH1 0x0 DUP2 SWAP1 POP SWAP2 SWAP1 POP JUMP JUMPDEST PUSH2 0x37C DUP2 PUSH2 0x369 JUMP JUMPDEST DUP2 EQ PUSH2 0x387 JUMPI PUSH1 0x0 DUP1 REVERT JUMPDEST POP JUMP JUMPDEST PUSH1 0x0 DUP2 CALLDATALOAD SWAP1 POP PUSH2 0x399 DUP2 PUSH2 0x373 JUMP JUMPDEST SWAP3 SWAP2 POP POP JUMP JUMPDEST PUSH1 0x0 DUP1 REVERT JUMPDEST PUSH1 0x0 DUP1 REVERT JUMPDEST PUSH1 0x0 PUSH1 0x1F NOT PUSH1 0x1F DUP4 ADD AND SWAP1 POP SWAP2 SWAP1 POP JUMP JUMPDEST PUSH32 0x4E487B7100000000000000000000000000000000000000000000000000000000 PUSH1 0x0 MSTORE PUSH1 0x41 PUSH1 0x4 MSTORE PUSH1 0x24 PUSH1 0x0 REVERT JUMPDEST PUSH2 0x3F2 DUP3 PUSH2 0x3A9 JUMP JUMPDEST DUP2 ADD DUP2 DUP2 LT PUSH8 0xFFFFFFFFFFFFFFFF DUP3 GT OR ISZERO PUSH2 0x411 JUMPI PUSH2 0x410 PUSH2 0x3BA JUMP JUMPDEST JUMPDEST DUP1 PUSH1 0x40 MSTORE POP POP POP JUMP JUMPDEST PUSH1 0x0 PUSH2 0x424 PUSH2 0x355 JUMP JUMPDEST SWAP1 POP PUSH2 0x430 DUP3 DUP3 PUSH2 0x3E9 JUMP JUMPDEST SWAP2 SWAP1 POP JUMP JUMPDEST PUSH1 0x0 PUSH8 0xFFFFFFFFFFFFFFFF DUP3 GT ISZERO PUSH2 0x450 JUMPI PUSH2 0x44F PUSH2 0x3BA JUMP JUMPDEST JUMPDEST PUSH2 0x459 DUP3 PUSH2 0x3A9 JUMP JUMPDEST SWAP1 POP PUSH1 0x20 DUP2 ADD SWAP1 POP SWAP2 SWAP1 POP JUMP JUMPDEST DUP3 DUP2 DUP4 CALLDATACOPY PUSH1 0x0 DUP4 DUP4 ADD MSTORE POP POP POP JUMP JUMPDEST PUSH1 0x0 PUSH2 0x488 PUSH2 0x483 DUP5 PUSH2 0x435 JUMP JUMPDEST PUSH2 0x41A JUMP JUMPDEST SWAP1 POP DUP3 DUP2 MSTORE PUSH1 0x20 DUP2 ADD DUP5 DUP5 DUP5 ADD GT ISZERO PUSH2 0x4A4 JUMPI PUSH2 0x4A3 PUSH2 0x3A4 JUMP JUMPDEST JUMPDEST PUSH2 0x4AF DUP5 DUP3 DUP6 PUSH2 0x466 JUMP JUMPDEST POP SWAP4 SWAP3 POP POP POP JUMP JUMPDEST PUSH1 0x0 DUP3 PUSH1 0x1F DUP4 ADD SLT PUSH2 0x4CC JUMPI PUSH2 0x4CB PUSH2 0x39F JUMP JUMPDEST JUMPDEST DUP2 CALLDATALOAD PUSH2 0x4DC DUP5 DUP3 PUSH1 0x20 DUP7 ADD PUSH2 0x475 JUMP JUMPDEST SWAP2 POP POP SWAP3 SWAP2 POP POP JUMP JUMPDEST PUSH1 0x0 DUP1 PUSH1 0x40 DUP4 DUP6 SUB SLT ISZERO PUSH2 0x4FC JUMPI PUSH2 0x4FB PUSH2 0x35F JUMP JUMPDEST JUMPDEST PUSH1 0x0 PUSH2 0x50A DUP6 DUP3 DUP7 ADD PUSH2 0x38A JUMP JUMPDEST SWAP3 POP POP PUSH1 0x20 DUP4 ADD CALLDATALOAD PUSH8 0xFFFFFFFFFFFFFFFF DUP2 GT ISZERO PUSH2 0x52B JUMPI PUSH2 0x52A PUSH2 0x364 JUMP JUMPDEST JUMPDEST PUSH2 0x537 DUP6 DUP3 DUP7 ADD PUSH2 0x4B7 JUMP JUMPDEST SWAP2 POP POP SWAP3 POP SWAP3 SWAP1 POP JUMP JUMPDEST PUSH1 0x0 DUP1 PUSH1 0x40 DUP4 DUP6 SUB SLT ISZERO PUSH2 0x558 JUMPI PUSH2 0x557 PUSH2 0x35F JUMP JUMPDEST JUMPDEST PUSH1 0x0 DUP4 ADD CALLDATALOAD PUSH8 0xFFFFFFFFFFFFFFFF DUP2 GT ISZERO PUSH2 0x576 JUMPI PUSH2 0x575 PUSH2 0x364 JUMP JUMPDEST JUMPDEST PUSH2 0x582 DUP6 DUP3 DUP7 ADD PUSH2 0x4B7 JUMP JUMPDEST SWAP3 POP POP PUSH1 0x20 DUP4 ADD CALLDATALOAD PUSH8 0xFFFFFFFFFFFFFFFF DUP2 GT ISZERO PUSH2 0x5A3 JUMPI PUSH2 0x5A2 PUSH2 0x364 JUMP JUMPDEST JUMPDEST PUSH2 0x5AF DUP6 DUP3 DUP7 ADD PUSH2 0x4B7 JUMP JUMPDEST SWAP2 POP POP SWAP3 POP SWAP3 SWAP1 POP JUMP JUMPDEST PUSH2 0x5C2 DUP2 PUSH2 0x369 JUMP JUMPDEST DUP3 MSTORE POP POP JUMP JUMPDEST PUSH1 0x0 PUSH1 0x20 DUP3 ADD SWAP1 POP PUSH2 0x5DD PUSH1 0x0 DUP4 ADD DUP5 PUSH2 0x5B9 JUMP JUMPDEST SWAP3 SWAP2 POP POP JUMP JUMPDEST PUSH1 0x0 PUSH1 0x20 DUP3 DUP5 SUB SLT ISZERO PUSH2 0x5F9 JUMPI PUSH2 0x5F8 PUSH2 0x35F JUMP JUMPDEST JUMPDEST PUSH1 0x0 DUP3 ADD CALLDATALOAD PUSH8 0xFFFFFFFFFFFFFFFF DUP2 GT ISZERO PUSH2 0x617 JUMPI PUSH2 0x616 PUSH2 0x364 JUMP JUMPDEST JUMPDEST PUSH2 0x623 DUP5 DUP3 DUP6 ADD PUSH2 0x4B7 JUMP JUMPDEST SWAP2 POP POP SWAP3 SWAP2 POP POP JUMP JUMPDEST PUSH1 0x0 PUSH1 0x20 DUP3 DUP5 SUB SLT ISZERO PUSH2 0x642 JUMPI PUSH2 0x641 PUSH2 0x35F JUMP JUMPDEST JUMPDEST PUSH1 0x0 PUSH2 0x650 DUP5 DUP3 DUP6 ADD PUSH2 0x38A JUMP JUMPDEST SWAP2 POP POP SWAP3 SWAP2 POP POP JUMP JUMPDEST PUSH1 0x0 DUP2 MLOAD SWAP1 POP SWAP2 SWAP1 POP JUMP JUMPDEST PUSH1 0x0 DUP3 DUP3 MSTORE PUSH1 0x20 DUP3 ADD SWAP1 POP SWAP3 SWAP2 POP POP JUMP JUMPDEST PUSH1 0x0 JUMPDEST DUP4 DUP2 LT ISZERO PUSH2 0x693 JUMPI DUP1 DUP3 ADD MLOAD DUP2 DUP5 ADD MSTORE PUSH1 0x20 DUP2 ADD SWAP1 POP PUSH2 0x678 JUMP JUMPDEST PUSH1 0x0 DUP5 DUP5 ADD MSTORE POP POP POP POP JUMP JUMPDEST PUSH1 0x0 PUSH2 0x6AA DUP3 PUSH2 0x659 JUMP JUMPDEST PUSH2 0x6B4 DUP2 DUP6 PUSH2 0x664 JUMP JUMPDEST SWAP4 POP PUSH2 0x6C4 DUP2 DUP6 PUSH1 0x20 DUP7 ADD PUSH2 0x675 JUMP JUMPDEST PUSH2 0x6CD DUP2 PUSH2 0x3A9 JUMP JUMPDEST DUP5 ADD SWAP2 POP POP SWAP3 SWAP2 POP POP JUMP JUMPDEST PUSH1 0x0 PUSH1 0x20 DUP3 ADD SWAP1 POP DUP2 DUP2 SUB PUSH1 0x0 DUP4 ADD MSTORE PUSH2 0x6F2 DUP2 DUP5 PUSH2 0x69F JUMP JUMPDEST SWAP1 POP SWAP3 SWAP2 POP POP JUMP JUMPDEST PUSH1 0x0 DUP2 SWAP1 POP SWAP3 SWAP2 POP POP JUMP JUMPDEST PUSH1 0x0 PUSH2 0x710 DUP3 PUSH2 0x659 JUMP JUMPDEST PUSH2 0x71A DUP2 DUP6 PUSH2 0x6FA JUMP JUMPDEST SWAP4 POP PUSH2 0x72A DUP2 DUP6 PUSH1 0x20 DUP7 ADD PUSH2 0x675 JUMP JUMPDEST DUP1 DUP5 ADD SWAP2 POP POP SWAP3 SWAP2 POP POP JUMP JUMPDEST PUSH1 0x0 PUSH2 0x742 DUP3 DUP5 PUSH2 0x705 JUMP JUMPDEST SWAP2 POP DUP2 SWAP1 POP SWAP3 SWAP2 POP POP JUMP JUMPDEST PUSH32 0x4E487B7100000000000000000000000000000000000000000000000000000000 PUSH1 0x0 MSTORE PUSH1 0x22 PUSH1 0x4 MSTORE PUSH1 0x24 PUSH1 0x0 REVERT JUMPDEST PUSH1 0x0 PUSH1 0x2 DUP3 DIV SWAP1 POP PUSH1 0x1 DUP3 AND DUP1 PUSH2 0x794 JUMPI PUSH1 0x7F DUP3 AND SWAP2 POP JUMPDEST PUSH1 0x20 DUP3 LT DUP2 SUB PUSH2 0x7A7 JUMPI PUSH2 0x7A6 PUSH2 0x74D JUMP JUMPDEST JUMPDEST POP SWAP2 SWAP1 POP JUMP JUMPDEST PUSH1 0x0 DUP2 SWAP1 POP DUP2 PUSH1 0x0 MSTORE PUSH1 0x20 PUSH1 0x0 KECCAK256 SWAP1 POP SWAP2 SWAP1 POP JUMP JUMPDEST PUSH1 0x0 PUSH1 0x20 PUSH1 0x1F DUP4 ADD DIV SWAP1 POP SWAP2 SWAP1 POP JUMP JUMPDEST PUSH1 0x0 DUP3 DUP3 SHL SWAP1 POP SWAP3 SWAP2 POP POP JUMP JUMPDEST PUSH1 0x0 PUSH1 0x8 DUP4 MUL PUSH2 0x80F PUSH32 0xFFFFFFFFFFFFFFFFFFFFFFFFFFFFFFFFFFFFFFFFFFFFFFFFFFFFFFFFFFFFFFFF DUP3 PUSH2 0x7D2 JUMP JUMPDEST PUSH2 0x819 DUP7 DUP4 PUSH2 0x7D2 JUMP JUMPDEST SWAP6 POP DUP1 NOT DUP5 AND SWAP4 POP DUP1 DUP7 AND DUP5 OR SWAP3 POP POP POP SWAP4 SWAP3 POP POP POP JUMP JUMPDEST PUSH1 0x0 DUP2 SWAP1 POP SWAP2 SWAP1 POP JUMP JUMPDEST PUSH1 0x0 PUSH2 0x856 PUSH2 0x851 PUSH2 0x84C DUP5 PUSH2 0x369 JUMP JUMPDEST PUSH2 0x831 JUMP JUMPDEST PUSH2 0x369 JUMP JUMPDEST SWAP1 POP SWAP2 SWAP1 POP JUMP JUMPDEST PUSH1 0x0 DUP2 SWAP1 POP SWAP2 SWAP1 POP JUMP JUMPDEST PUSH2 0x870 DUP4 PUSH2 0x83B JUMP JUMPDEST PUSH2 0x884 PUSH2 0x87C DUP3 PUSH2 0x85D JUMP JUMPDEST DUP5 DUP5 SLOAD PUSH2 0x7DF JUMP JUMPDEST DUP3 SSTORE POP POP POP POP JUMP JUMPDEST PUSH1 0x0 SWAP1 JUMP JUMPDEST PUSH2 0x899 PUSH2 0x88C JUMP JUMPDEST PUSH2 0x8A4 DUP2 DUP5 DUP5 PUSH2 0x867 JUMP JUMPDEST POP POP POP JUMP JUMPDEST JUMPDEST DUP2 DUP2 LT ISZERO PUSH2 0x8C8 JUMPI PUSH2 0x8BD PUSH1 0x0 DUP3 PUSH2 0x891 JUMP JUMPDEST PUSH1 0x1 DUP2 ADD SWAP1 POP PUSH2 0x8AA JUMP JUMPDEST POP POP JUMP JUMPDEST PUSH1 0x1F DUP3 GT ISZERO PUSH2 0x90D JUMPI PUSH2 0x8DE DUP2 PUSH2 0x7AD JUMP JUMPDEST PUSH2 0x8E7 DUP5 PUSH2 0x7C2 JUMP JUMPDEST DUP2 ADD PUSH1 0x20 DUP6 LT ISZERO PUSH2 0x8F6 JUMPI DUP2 SWAP1 POP JUMPDEST PUSH2 0x90A PUSH2 0x902 DUP6 PUSH2 0x7C2 JUMP JUMPDEST DUP4 ADD DUP3 PUSH2 0x8A9 JUMP JUMPDEST POP POP JUMPDEST POP POP POP JUMP JUMPDEST PUSH1 0x0 DUP3 DUP3 SHR SWAP1 POP SWAP3 SWAP2 POP POP JUMP JUMPDEST PUSH1 0x0 PUSH2 0x930 PUSH1 0x0 NOT DUP5 PUSH1 0x8 MUL PUSH2 0x912 JUMP JUMPDEST NOT DUP1 DUP4 AND SWAP2 POP POP SWAP3 SWAP2 POP POP JUMP JUMPDEST PUSH1 0x0 PUSH2 0x949 DUP4 DUP4 PUSH2 0x91F JUMP JUMPDEST SWAP2 POP DUP3 PUSH1 0x2 MUL DUP3 OR SWAP1 POP SWAP3 SWAP2 POP POP JUMP JUMPDEST PUSH2 0x962 DUP3 PUSH2 0x659 JUMP JUMPDEST PUSH8 0xFFFFFFFFFFFFFFFF DUP2 GT ISZERO PUSH2 0x97B JUMPI PUSH2 0x97A PUSH2 0x3BA JUMP JUMPDEST JUMPDEST PUSH2 0x985 DUP3 SLOAD PUSH2 0x77C JUMP JUMPDEST PUSH2 0x990 DUP3 DUP3 DUP6 PUSH2 0x8CC JUMP JUMPDEST PUSH1 0x0 PUSH1 0x20 SWAP1 POP PUSH1 0x1F DUP4 GT PUSH1 0x1 DUP2 EQ PUSH2 0x9C3 JUMPI PUSH1 0x0 DUP5 ISZERO PUSH2 0x9B1 JUMPI DUP3 DUP8 ADD MLOAD SWAP1 POP JUMPDEST PUSH2 0x9BB DUP6 DUP3 PUSH2 0x93D JUMP JUMPDEST DUP7 SSTORE POP PUSH2 0xA23 JUMP JUMPDEST PUSH1 0x1F NOT DUP5 AND PUSH2 0x9D1 DUP7 PUSH2 0x7AD JUMP JUMPDEST PUSH1 0x0 JUMPDEST DUP3 DUP2 LT ISZERO PUSH2 0x9F9 JUMPI DUP5 DUP10 ADD MLOAD DUP3 SSTORE PUSH1 0x1 DUP3 ADD SWAP2 POP PUSH1 0x20 DUP6 ADD SWAP5 POP PUSH1 0x20 DUP2 ADD SWAP1 POP PUSH2 0x9D4 JUMP JUMPDEST DUP7 DUP4 LT ISZERO PUSH2 0xA16 JUMPI DUP5 DUP10 ADD MLOAD PUSH2 0xA12 PUSH1 0x1F DUP10 AND DUP3 PUSH2 0x91F JUMP JUMPDEST DUP4 SSTORE POP JUMPDEST PUSH1 0x1 PUSH1 0x2 DUP9 MUL ADD DUP9 SSTORE POP POP POP JUMPDEST POP POP POP POP POP POP JUMP JUMPDEST PUSH32 0x4E487B7100000000000000000000000000000000000000000000000000000000 PUSH1 0x0 MSTORE PUSH1 0x11 PUSH1 0x4 MSTORE PUSH1 0x24 PUSH1 0x0 REVERT JUMPDEST PUSH1 0x0 PUSH2 0xA65 DUP3 PUSH2 0x369 JUMP JUMPDEST SWAP2 POP PUSH2 0xA70 DUP4 PUSH2 0x369 JUMP JUMPDEST SWAP3 POP DUP3 DUP3 ADD SWAP1 POP DUP1 DUP3 GT ISZERO PUSH2 0xA88 JUMPI PUSH2 0xA87 PUSH2 0xA2B JUMP JUMPDEST JUMPDEST SWAP3 SWAP2 POP POP JUMP JUMPDEST PUSH32 0x5468697320706572736F6E20646F6573206E6F742065786973742E0000000000 PUSH1 0x0 DUP3 ADD MSTORE POP JUMP JUMPDEST PUSH1 0x0 PUSH2 0xAC4 PUSH1 0x1B DUP4 PUSH2 0x664 JUMP JUMPDEST SWAP2 POP PUSH2 0xACF DUP3 PUSH2 0xA8E JUMP JUMPDEST PUSH1 0x20 DUP3 ADD SWAP1 POP SWAP2 SWAP1 POP JUMP JUMPDEST PUSH1 0x0 PUSH1 0x20 DUP3 ADD SWAP1 POP DUP2 DUP2 SUB PUSH1 0x0 DUP4 ADD MSTORE PUSH2 0xAF3 DUP2 PUSH2 0xAB7 JUMP JUMPDEST SWAP1 POP SWAP2 SWAP1 POP JUMP JUMPDEST PUSH32 0x4E487B7100000000000000000000000000000000000000000000000000000000 PUSH1 0x0 MSTORE PUSH1 0x32 PUSH1 0x4 MSTORE PUSH1 0x24 PUSH1 0x0 REVERT JUMPDEST PUSH1 0x0 DUP2 SLOAD PUSH2 0xB36 DUP2 PUSH2 0x77C JUMP JUMPDEST PUSH2 0xB40 DUP2 DUP7 PUSH2 0x6FA JUMP JUMPDEST SWAP5 POP PUSH1 0x1 DUP3 AND PUSH1 0x0 DUP2 EQ PUSH2 0xB5B JUMPI PUSH1 0x1 DUP2 EQ PUSH2 0xB70 JUMPI PUSH2 0xBA3 JUMP JUMPDEST PUSH1 0xFF NOT DUP4 AND DUP7 MSTORE DUP2 ISZERO ISZERO DUP3 MUL DUP7 ADD SWAP4 POP PUSH2 0xBA3 JUMP JUMPDEST PUSH2 0xB79 DUP6 PUSH2 0x7AD JUMP JUMPDEST PUSH1 0x0 JUMPDEST DUP4 DUP2 LT ISZERO PUSH2 0xB9B JUMPI DUP2 SLOAD DUP2 DUP10 ADD MSTORE PUSH1 0x1 DUP3 ADD SWAP2 POP PUSH1 0x20 DUP2 ADD SWAP1 POP PUSH2 0xB7C JUMP JUMPDEST DUP4 DUP9 ADD SWAP6 POP POP POP JUMPDEST POP POP POP SWAP3 SWAP2 POP POP JUMP JUMPDEST PUSH1 0x0 PUSH2 0xBB8 DUP3 DUP5 PUSH2 0xB29 JUMP JUMPDEST SWAP2 POP DUP2 SWAP1 POP SWAP3 SWAP2 POP POP JUMP JUMPDEST PUSH1 0x0 PUSH2 0xBCE DUP3 PUSH2 0x369 JUMP JUMPDEST SWAP2 POP PUSH32 0xFFFFFFFFFFFFFFFFFFFFFFFFFFFFFFFFFFFFFFFFFFFFFFFFFFFFFFFFFFFFFFFF DUP3 SUB PUSH2 0xC00 JUMPI PUSH2 0xBFF PUSH2 0xA2B JUMP JUMPDEST JUMPDEST PUSH1 0x1 DUP3 ADD SWAP1 POP SWAP2 SWAP1 POP JUMP INVALID LOG2 PUSH5 0x6970667358 0x22 SLT KECCAK256 0x4D DUP3 0xC1 RETURNDATASIZE 0xAC 0xD4 PUSH15 0xEB827AEA71E406D92C63107F08AADF GASLIMIT EXTCODECOPY 0x4A 0xF9 ADD 0xAF 0xD4 0xC8 OR 0xE4 PUSH5 0x736F6C6343 STOP ADDMOD SGT STOP CALLER PUSH1 0x80 PUSH1 0x40 MSTORE CALLVALUE DUP1 ISZERO PUSH2 0x10 JUMPI PUSH1 0x0 DUP1 REVERT JUMPDEST POP PUSH2 0x93B DUP1 PUSH2 0x20 PUSH1 0x0 CODECOPY PUSH1 0x0 RETURN INVALID PUSH1 0x80 PUSH1 0x40 MSTORE CALLVALUE DUP1 ISZERO PUSH2 0x10 JUMPI PUSH1 0x0 DUP1 REVERT JUMPDEST POP PUSH1 0x4 CALLDATASIZE LT PUSH2 0x57 JUMPI PUSH1 0x0 CALLDATALOAD PUSH1 0xE0 SHR DUP1 PUSH4 0x2E64CEC1 EQ PUSH2 0x5C JUMPI DUP1 PUSH4 0x2EBCE631 EQ PUSH2 0x7A JUMPI DUP1 PUSH4 0x6057361D EQ PUSH2 0xAB JUMPI DUP1 PUSH4 0x6F760F41 EQ PUSH2 0xC7 JUMPI DUP1 PUSH4 0x8BAB8DD5 EQ PUSH2 0xE3 JUMPI JUMPDEST PUSH1 0x0 DUP1 REVERT JUMPDEST PUSH2 0x64 PUSH2 0x113 JUMP JUMPDEST PUSH1 0x40 MLOAD PUSH2 0x71 SWAP2 SWAP1 PUSH2 0x2B2 JUMP JUMPDEST PUSH1 0x40 MLOAD DUP1 SWAP2 SUB SWAP1 RETURN JUMPDEST PUSH2 0x94 PUSH1 0x4 DUP1 CALLDATASIZE SUB DUP2 ADD SWAP1 PUSH2 0x8F SWAP2 SWAP1 PUSH2 0x30D JUMP JUMPDEST PUSH2 0x11C JUMP JUMPDEST PUSH1 0x40 MLOAD PUSH2 0xA2 SWAP3 SWAP2 SWAP1 PUSH2 0x3CA JUMP JUMPDEST PUSH1 0x40 MLOAD DUP1 SWAP2 SUB SWAP1 RETURN JUMPDEST PUSH2 0xC5 PUSH1 0x4 DUP1 CALLDATASIZE SUB DUP2 ADD SWAP1 PUSH2 0xC0 SWAP2 SWAP1 PUSH2 0x30D JUMP JUMPDEST PUSH2 0x1D8 JUMP JUMPDEST STOP JUMPDEST PUSH2 0xE1 PUSH1 0x4 DUP1 CALLDATASIZE SUB DUP2 ADD SWAP1 PUSH2 0xDC SWAP2 SWAP1 PUSH2 0x52F JUMP JUMPDEST PUSH2 0x1E2 JUMP JUMPDEST STOP JUMPDEST PUSH2 0xFD PUSH1 0x4 DUP1 CALLDATASIZE SUB DUP2 ADD SWAP1 PUSH2 0xF8 SWAP2 SWAP1 PUSH2 0x58B JUMP JUMPDEST PUSH2 0x26B JUMP JUMPDEST PUSH1 0x40 MLOAD PUSH2 0x10A SWAP2 SWAP1 PUSH2 0x2B2 JUMP JUMPDEST PUSH1 0x40 MLOAD DUP1 SWAP2 SUB SWAP1 RETURN JUMPDEST PUSH1 0x0 DUP1 SLOAD SWAP1 POP SWAP1 JUMP JUMPDEST PUSH1 0x1 DUP2 DUP2 SLOAD DUP2 LT PUSH2 0x12C JUMPI PUSH1 0x0 DUP1 REVERT JUMPDEST SWAP1 PUSH1 0x0 MSTORE PUSH1 0x20 PUSH1 0x0 KECCAK256 SWAP1 PUSH1 0x2 MUL ADD PUSH1 0x0 SWAP2 POP SWAP1 POP DUP1 PUSH1 0x0 ADD SLOAD SWAP1 DUP1 PUSH1 0x1 ADD DUP1 SLOAD PUSH2 0x155 SWAP1 PUSH2 0x603 JUMP JUMPDEST DUP1 PUSH1 0x1F ADD PUSH1 0x20 DUP1 SWAP2 DIV MUL PUSH1 0x20 ADD PUSH1 0x40 MLOAD SWAP1 DUP2 ADD PUSH1 0x40 MSTORE DUP1 SWAP3 SWAP2 SWAP1 DUP2 DUP2 MSTORE PUSH1 0x20 ADD DUP3 DUP1 SLOAD PUSH2 0x181 SWAP1 PUSH2 0x603 JUMP JUMPDEST DUP1 ISZERO PUSH2 0x1CE JUMPI DUP1 PUSH1 0x1F LT PUSH2 0x1A3 JUMPI PUSH2 0x100 DUP1 DUP4 SLOAD DIV MUL DUP4 MSTORE SWAP2 PUSH1 0x20 ADD SWAP2 PUSH2 0x1CE JUMP JUMPDEST DUP3 ADD SWAP2 SWAP1 PUSH1 0x0 MSTORE PUSH1 0x20 PUSH1 0x0 KECCAK256 SWAP1 JUMPDEST DUP2 SLOAD DUP2 MSTORE SWAP1 PUSH1 0x1 ADD SWAP1 PUSH1 0x20 ADD DUP1 DUP4 GT PUSH2 0x1B1 JUMPI DUP3 SWAP1 SUB PUSH1 0x1F AND DUP3 ADD SWAP2 JUMPDEST POP POP POP POP POP SWAP1 POP DUP3 JUMP JUMPDEST DUP1 PUSH1 0x0 DUP2 SWAP1 SSTORE POP POP JUMP JUMPDEST PUSH1 0x1 PUSH1 0x40 MLOAD DUP1 PUSH1 0x40 ADD PUSH1 0x40 MSTORE DUP1 DUP4 DUP2 MSTORE PUSH1 0x20 ADD DUP5 DUP2 MSTORE POP SWAP1 DUP1 PUSH1 0x1 DUP2 SLOAD ADD DUP1 DUP3 SSTORE DUP1 SWAP2 POP POP PUSH1 0x1 SWAP1 SUB SWAP1 PUSH1 0x0 MSTORE PUSH1 0x20 PUSH1 0x0 KECCAK256 SWAP1 PUSH1 0x2 MUL ADD PUSH1 0x0 SWAP1 SWAP2 SWAP1 SWAP2 SWAP1 SWAP2 POP PUSH1 0x0 DUP3 ADD MLOAD DUP2 PUSH1 0x0 ADD SSTORE PUSH1 0x20 DUP3 ADD MLOAD DUP2 PUSH1 0x1 ADD SWAP1 DUP2 PUSH2 0x241 SWAP2 SWAP1 PUSH2 0x7E0 JUMP JUMPDEST POP POP POP DUP1 PUSH1 0x2 DUP4 PUSH1 0x40 MLOAD PUSH2 0x255 SWAP2 SWAP1 PUSH2 0x8EE JUMP JUMPDEST SWAP1 DUP2 MSTORE PUSH1 0x20 ADD PUSH1 0x40 MLOAD DUP1 SWAP2 SUB SWAP1 KECCAK256 DUP2 SWAP1 SSTORE POP POP POP JUMP JUMPDEST PUSH1 0x2 DUP2 DUP1 MLOAD PUSH1 0x20 DUP2 ADD DUP3 ADD DUP1 MLOAD DUP5 DUP3 MSTORE PUSH1 0x20 DUP4 ADD PUSH1 0x20 DUP6 ADD KECCAK256 DUP2 DUP4 MSTORE DUP1 SWAP6 POP POP POP POP POP POP PUSH1 0x0 SWAP2 POP SWAP1 POP SLOAD DUP2 JUMP JUMPDEST PUSH1 0x0 DUP2 SWAP1 POP SWAP2 SWAP1 POP JUMP JUMPDEST PUSH2 0x2AC DUP2 PUSH2 0x299 JUMP JUMPDEST DUP3 MSTORE POP POP JUMP JUMPDEST PUSH1 0x0 PUSH1 0x20 DUP3 ADD SWAP1 POP PUSH2 0x2C7 PUSH1 0x0 DUP4 ADD DUP5 PUSH2 0x2A3 JUMP JUMPDEST SWAP3 SWAP2 POP POP JUMP JUMPDEST PUSH1 0x0 PUSH1 0x40 MLOAD SWAP1 POP SWAP1 JUMP JUMPDEST PUSH1 0x0 DUP1 REVERT JUMPDEST PUSH1 0x0 DUP1 REVERT JUMPDEST PUSH2 0x2EA DUP2 PUSH2 0x299 JUMP JUMPDEST DUP2 EQ PUSH2 0x2F5 JUMPI PUSH1 0x0 DUP1 REVERT JUMPDEST POP JUMP JUMPDEST PUSH1 0x0 DUP2 CALLDATALOAD SWAP1 POP PUSH2 0x307 DUP2 PUSH2 0x2E1 JUMP JUMPDEST SWAP3 SWAP2 POP POP JUMP JUMPDEST PUSH1 0x0 PUSH1 0x20 DUP3 DUP5 SUB SLT ISZERO PUSH2 0x323 JUMPI PUSH2 0x322 PUSH2 0x2D7 JUMP JUMPDEST JUMPDEST PUSH1 0x0 PUSH2 0x331 DUP5 DUP3 DUP6 ADD PUSH2 0x2F8 JUMP JUMPDEST SWAP2 POP POP SWAP3 SWAP2 POP POP JUMP JUMPDEST PUSH1 0x0 DUP2 MLOAD SWAP1 POP SWAP2 SWAP1 POP JUMP JUMPDEST PUSH1 0x0 DUP3 DUP3 MSTORE PUSH1 0x20 DUP3 ADD SWAP1 POP SWAP3 SWAP2 POP POP JUMP JUMPDEST PUSH1 0x0 JUMPDEST DUP4 DUP2 LT ISZERO PUSH2 0x374 JUMPI DUP1 DUP3 ADD MLOAD DUP2 DUP5 ADD MSTORE PUSH1 0x20 DUP2 ADD SWAP1 POP PUSH2 0x359 JUMP JUMPDEST PUSH1 0x0 DUP5 DUP5 ADD MSTORE POP POP POP POP JUMP JUMPDEST PUSH1 0x0 PUSH1 0x1F NOT PUSH1 0x1F DUP4 ADD AND SWAP1 POP SWAP2 SWAP1 POP JUMP JUMPDEST PUSH1 0x0 PUSH2 0x39C DUP3 PUSH2 0x33A JUMP JUMPDEST PUSH2 0x3A6 DUP2 DUP6 PUSH2 0x345 JUMP JUMPDEST SWAP4 POP PUSH2 0x3B6 DUP2 DUP6 PUSH1 0x20 DUP7 ADD PUSH2 0x356 JUMP JUMPDEST PUSH2 0x3BF DUP2 PUSH2 0x380 JUMP JUMPDEST DUP5 ADD SWAP2 POP POP SWAP3 SWAP2 POP POP JUMP JUMPDEST PUSH1 0x0 PUSH1 0x40 DUP3 ADD SWAP1 POP PUSH2 0x3DF PUSH1 0x0 DUP4 ADD DUP6 PUSH2 0x2A3 JUMP JUMPDEST DUP2 DUP2 SUB PUSH1 0x20 DUP4 ADD MSTORE PUSH2 0x3F1 DUP2 DUP5 PUSH2 0x391 JUMP JUMPDEST SWAP1 POP SWAP4 SWAP3 POP POP POP JUMP JUMPDEST PUSH1 0x0 DUP1 REVERT JUMPDEST PUSH1 0x0 DUP1 REVERT JUMPDEST PUSH32 0x4E487B7100000000000000000000000000000000000000000000000000000000 PUSH1 0x0 MSTORE PUSH1 0x41 PUSH1 0x4 MSTORE PUSH1 0x24 PUSH1 0x0 REVERT JUMPDEST PUSH2 0x43C DUP3 PUSH2 0x380 JUMP JUMPDEST DUP2 ADD DUP2 DUP2 LT PUSH8 0xFFFFFFFFFFFFFFFF DUP3 GT OR ISZERO PUSH2 0x45B JUMPI PUSH2 0x45A PUSH2 0x404 JUMP JUMPDEST JUMPDEST DUP1 PUSH1 0x40 MSTORE POP POP POP JUMP JUMPDEST PUSH1 0x0 PUSH2 0x46E PUSH2 0x2CD JUMP JUMPDEST SWAP1 POP PUSH2 0x47A DUP3 DUP3 PUSH2 0x433 JUMP JUMPDEST SWAP2 SWAP1 POP JUMP JUMPDEST PUSH1 0x0 PUSH8 0xFFFFFFFFFFFFFFFF DUP3 GT ISZERO PUSH2 0x49A JUMPI PUSH2 0x499 PUSH2 0x404 JUMP JUMPDEST JUMPDEST PUSH2 0x4A3 DUP3 PUSH2 0x380 JUMP JUMPDEST SWAP1 POP PUSH1 0x20 DUP2 ADD SWAP1 POP SWAP2 SWAP1 POP JUMP JUMPDEST DUP3 DUP2 DUP4 CALLDATACOPY PUSH1 0x0 DUP4 DUP4 ADD MSTORE POP POP POP JUMP JUMPDEST PUSH1 0x0 PUSH2 0x4D2 PUSH2 0x4CD DUP5 PUSH2 0x47F JUMP JUMPDEST PUSH2 0x464 JUMP JUMPDEST SWAP1 POP DUP3 DUP2 MSTORE PUSH1 0x20 DUP2 ADD DUP5 DUP5 DUP5 ADD GT ISZERO PUSH2 0x4EE JUMPI PUSH2 0x4ED PUSH2 0x3FF JUMP JUMPDEST JUMPDEST PUSH2 0x4F9 DUP5 DUP3 DUP6 PUSH2 0x4B0 JUMP JUMPDEST POP SWAP4 SWAP3 POP POP POP JUMP JUMPDEST PUSH1 0x0 DUP3 PUSH1 0x1F DUP4 ADD SLT PUSH2 0x516 JUMPI PUSH2 0x515 PUSH2 0x3FA JUMP JUMPDEST JUMPDEST DUP2 CALLDATALOAD PUSH2 0x526 DUP5 DUP3 PUSH1 0x20 DUP7 ADD PUSH2 0x4BF JUMP JUMPDEST SWAP2 POP POP SWAP3 SWAP2 POP POP JUMP JUMPDEST PUSH1 0x0 DUP1 PUSH1 0x40 DUP4 DUP6 SUB SLT ISZERO PUSH2 0x546 JUMPI PUSH2 0x545 PUSH2 0x2D7 JUMP JUMPDEST JUMPDEST PUSH1 0x0 DUP4 ADD CALLDATALOAD PUSH8 0xFFFFFFFFFFFFFFFF DUP2 GT ISZERO PUSH2 0x564 JUMPI PUSH2 0x563 PUSH2 0x2DC JUMP JUMPDEST JUMPDEST PUSH2 0x570 DUP6 DUP3 DUP7 ADD PUSH2 0x501 JUMP JUMPDEST SWAP3 POP POP PUSH1 0x20 PUSH2 0x581 DUP6 DUP3 DUP7 ADD PUSH2 0x2F8 JUMP JUMPDEST SWAP2 POP POP SWAP3 POP SWAP3 SWAP1 POP JUMP JUMPDEST PUSH1 0x0 PUSH1 0x20 DUP3 DUP5 SUB SLT ISZERO PUSH2 0x5A1 JUMPI PUSH2 0x5A0 PUSH2 0x2D7 JUMP JUMPDEST JUMPDEST PUSH1 0x0 DUP3 ADD CALLDATALOAD PUSH8 0xFFFFFFFFFFFFFFFF DUP2 GT ISZERO PUSH2 0x5BF JUMPI PUSH2 0x5BE PUSH2 0x2DC JUMP JUMPDEST JUMPDEST PUSH2 0x5CB DUP5 DUP3 DUP6 ADD PUSH2 0x501 JUMP JUMPDEST SWAP2 POP POP SWAP3 SWAP2 POP POP JUMP JUMPDEST PUSH32 0x4E487B7100000000000000000000000000000000000000000000000000000000 PUSH1 0x0 MSTORE PUSH1 0x22 PUSH1 0x4 MSTORE PUSH1 0x24 PUSH1 0x0 REVERT JUMPDEST PUSH1 0x0 PUSH1 0x2 DUP3 DIV SWAP1 POP PUSH1 0x1 DUP3 AND DUP1 PUSH2 0x61B JUMPI PUSH1 0x7F DUP3 AND SWAP2 POP JUMPDEST PUSH1 0x20 DUP3 LT DUP2 SUB PUSH2 0x62E JUMPI PUSH2 0x62D PUSH2 0x5D4 JUMP JUMPDEST JUMPDEST POP SWAP2 SWAP1 POP JUMP JUMPDEST PUSH1 0x0 DUP2 SWAP1 POP DUP2 PUSH1 0x0 MSTORE PUSH1 0x20 PUSH1 0x0 KECCAK256 SWAP1 POP SWAP2 SWAP1 POP JUMP JUMPDEST PUSH1 0x0 PUSH1 0x20 PUSH1 0x1F DUP4 ADD DIV SWAP1 POP SWAP2 SWAP1 POP JUMP JUMPDEST PUSH1 0x0 DUP3 DUP3 SHL SWAP1 POP SWAP3 SWAP2 POP POP JUMP JUMPDEST PUSH1 0x0 PUSH1 0x8 DUP4 MUL PUSH2 0x696 PUSH32 0xFFFFFFFFFFFFFFFFFFFFFFFFFFFFFFFFFFFFFFFFFFFFFFFFFFFFFFFFFFFFFFFF DUP3 PUSH2 0x659 JUMP JUMPDEST PUSH2 0x6A0 DUP7 DUP4 PUSH2 0x659 JUMP JUMPDEST SWAP6 POP DUP1 NOT DUP5 AND SWAP4 POP DUP1 DUP7 AND DUP5 OR SWAP3 POP POP POP SWAP4 SWAP3 POP POP POP JUMP JUMPDEST PUSH1 0x0 DUP2 SWAP1 POP SWAP2 SWAP1 POP JUMP JUMPDEST PUSH1 0x0 PUSH2 0x6DD PUSH2 0x6D8 PUSH2 0x6D3 DUP5 PUSH2 0x299 JUMP JUMPDEST PUSH2 0x6B8 JUMP JUMPDEST PUSH2 0x299 JUMP JUMPDEST SWAP1 POP SWAP2 SWAP1 POP JUMP JUMPDEST PUSH1 0x0 DUP2 SWAP1 POP SWAP2 SWAP1 POP JUMP JUMPDEST PUSH2 0x6F7 DUP4 PUSH2 0x6C2 JUMP JUMPDEST PUSH2 0x70B PUSH2 0x703 DUP3 PUSH2 0x6E4 JUMP JUMPDEST DUP5 DUP5 SLOAD PUSH2 0x666 JUMP JUMPDEST DUP3 SSTORE POP POP POP POP JUMP JUMPDEST PUSH1 0x0 SWAP1 JUMP JUMPDEST PUSH2 0x720 PUSH2 0x713 JUMP JUMPDEST PUSH2 0x72B DUP2 DUP5 DUP5 PUSH2 0x6EE JUMP JUMPDEST POP POP POP JUMP JUMPDEST JUMPDEST DUP2 DUP2 LT ISZERO PUSH2 0x74F JUMPI PUSH2 0x744 PUSH1 0x0 DUP3 PUSH2 0x718 JUMP JUMPDEST PUSH1 0x1 DUP2 ADD SWAP1 POP PUSH2 0x731 JUMP JUMPDEST POP POP JUMP JUMPDEST PUSH1 0x1F DUP3 GT ISZERO PUSH2 0x794 JUMPI PUSH2 0x765 DUP2 PUSH2 0x634 JUMP JUMPDEST PUSH2 0x76E DUP5 PUSH2 0x649 JUMP JUMPDEST DUP2 ADD PUSH1 0x20 DUP6 LT ISZERO PUSH2 0x77D JUMPI DUP2 SWAP1 POP JUMPDEST PUSH2 0x791 PUSH2 0x789 DUP6 PUSH2 0x649 JUMP JUMPDEST DUP4 ADD DUP3 PUSH2 0x730 JUMP JUMPDEST POP POP JUMPDEST POP POP POP JUMP JUMPDEST PUSH1 0x0 DUP3 DUP3 SHR SWAP1 POP SWAP3 SWAP2 POP POP JUMP JUMPDEST PUSH1 0x0 PUSH2 0x7B7 PUSH1 0x0 NOT DUP5 PUSH1 0x8 MUL PUSH2 0x799 JUMP JUMPDEST NOT DUP1 DUP4 AND SWAP2 POP POP SWAP3 SWAP2 POP POP JUMP JUMPDEST PUSH1 0x0 PUSH2 0x7D0 DUP4 DUP4 PUSH2 0x7A6 JUMP JUMPDEST SWAP2 POP DUP3 PUSH1 0x2 MUL DUP3 OR SWAP1 POP SWAP3 SWAP2 POP POP JUMP JUMPDEST PUSH2 0x7E9 DUP3 PUSH2 0x33A JUMP JUMPDEST PUSH8 0xFFFFFFFFFFFFFFFF DUP2 GT ISZERO PUSH2 0x802 JUMPI PUSH2 0x801 PUSH2 0x404 JUMP JUMPDEST JUMPDEST PUSH2 0x80C DUP3 SLOAD PUSH2 0x603 JUMP JUMPDEST PUSH2 0x817 DUP3 DUP3 DUP6 PUSH2 0x753 JUMP JUMPDEST PUSH1 0x0 PUSH1 0x20 SWAP1 POP PUSH1 0x1F DUP4 GT PUSH1 0x1 DUP2 EQ PUSH2 0x84A JUMPI PUSH1 0x0 DUP5 ISZERO PUSH2 0x838 JUMPI DUP3 DUP8 ADD MLOAD SWAP1 POP JUMPDEST PUSH2 0x842 DUP6 DUP3 PUSH2 0x7C4 JUMP JUMPDEST DUP7 SSTORE POP PUSH2 0x8AA JUMP JUMPDEST PUSH1 0x1F NOT DUP5 AND PUSH2 0x858 DUP7 PUSH2 0x634 JUMP JUMPDEST PUSH1 0x0 JUMPDEST DUP3 DUP2 LT ISZERO PUSH2 0x880 JUMPI DUP5 DUP10 ADD MLOAD DUP3 SSTORE PUSH1 0x1 DUP3 ADD SWAP2 POP PUSH1 0x20 DUP6 ADD SWAP5 POP PUSH1 0x20 DUP2 ADD SWAP1 POP PUSH2 0x85B JUMP JUMPDEST DUP7 DUP4 LT ISZERO PUSH2 0x89D JUMPI DUP5 DUP10 ADD MLOAD PUSH2 0x899 PUSH1 0x1F DUP10 AND DUP3 PUSH2 0x7A6 JUMP JUMPDEST DUP4 SSTORE POP JUMPDEST PUSH1 0x1 PUSH1 0x2 DUP9 MUL ADD DUP9 SSTORE POP POP POP JUMPDEST POP POP POP POP POP POP JUMP JUMPDEST PUSH1 0x0 DUP2 SWAP1 POP SWAP3 SWAP2 POP POP JUMP JUMPDEST PUSH1 0x0 PUSH2 0x8C8 DUP3 PUSH2 0x33A JUMP JUMPDEST PUSH2 0x8D2 DUP2 DUP6 PUSH2 0x8B2 JUMP JUMPDEST SWAP4 POP PUSH2 0x8E2 DUP2 DUP6 PUSH1 0x20 DUP7 ADD PUSH2 0x356 JUMP JUMPDEST DUP1 DUP5 ADD SWAP2 POP POP SWAP3 SWAP2 POP POP JUMP JUMPDEST PUSH1 0x0 PUSH2 0x8FA DUP3 DUP5 PUSH2 0x8BD JUMP JUMPDEST SWAP2 POP DUP2 SWAP1 POP SWAP3 SWAP2 POP POP JUMP INVALID LOG2 PUSH5 0x6970667358 0x22 SLT KECCAK256 0xE0 BYTE XOR 0xAB SWAP15 SWAP16 0xE3 PUSH29 0x5FB9EAF488F5CDCD3100268D268A602A085C35E475F9FDB864736F6C63 NUMBER STOP ADDMOD SGT STOP CALLER LOG2 PUSH5 0x6970667358 0x22 SLT KECCAK256 PUSH21 0x95C2322B22BC6955222925373A576A1B565B6C589D 0xAE LOG0 COINBASE MUL LOG1 RETURN DUP6 0xC PUSH27 0xDF64736F6C63430008130033000000000000000000000000000000 "
				},
				"gasEstimates": {
					"creation": {
						"codeDepositCost": "2288200",
						"executionCost": "2449",
						"totalCost": "2290649"
					},
					"external": {
						"betterFamilyFavoriteNumbersSum(string,string)": "infinite",
						"compareFavoriteNumbersAnyFamily(string,string,string,string)": "infinite",
						"createFamilySimpleStorage(string)": "infinite",
						"createMySimpleStorageContract()": "infinite",
						"createSimpleStorageContract()": "infinite",
						"familyAddTwoFavoriteNumbers(string,string,string)": "infinite",
						"familyFavoriteNumberSum(string)": "infinite",
						"familyGetFavoriteNumber(string,string)": "infinite",
						"familySimpleStorage(string)": "infinite",
						"familyStore(string,uint256,string)": "infinite",
						"listOfMySimpleStorageContracts(uint256)": "infinite",
						"listOfSimpleStorageContracts(uint256)": "infinite",
						"msfAddTwoFavoriteNumbers(uint256,string,string)": "infinite",
						"msfGetFavoriteNumber(uint256,string)": "infinite",
						"msfStore(uint256,uint256,string)": "infinite",
						"sfGet(uint256)": "infinite",
						"sfStore(uint256,uint256)": "infinite"
					}
				},
				"methodIdentifiers": {
					"betterFamilyFavoriteNumbersSum(string,string)": "fbe253c3",
					"compareFavoriteNumbersAnyFamily(string,string,string,string)": "e86b1f0a",
					"createFamilySimpleStorage(string)": "09c677f1",
					"createMySimpleStorageContract()": "18478734",
					"createSimpleStorageContract()": "1dda6541",
					"familyAddTwoFavoriteNumbers(string,string,string)": "a0a3ed09",
					"familyFavoriteNumberSum(string)": "049d1513",
					"familyGetFavoriteNumber(string,string)": "44eddd15",
					"familySimpleStorage(string)": "05ac9cfe",
					"familyStore(string,uint256,string)": "e8b87788",
					"listOfMySimpleStorageContracts(uint256)": "c2d1efdc",
					"listOfSimpleStorageContracts(uint256)": "f39f3035",
					"msfAddTwoFavoriteNumbers(uint256,string,string)": "83694e97",
					"msfGetFavoriteNumber(uint256,string)": "9b40d2f9",
					"msfStore(uint256,uint256,string)": "ceb12d64",
					"sfGet(uint256)": "c5f19c20",
					"sfStore(uint256,uint256)": "1563700f"
				}
			},
			"storageLayout": {
				"storage": [
					{
						"astId": 178,
						"contract": "contracts/Lesson 3/StorageFactory.sol:StorageFactory",
						"label": "listOfSimpleStorageContracts",
						"offset": 0,
						"slot": "0",
						"type": "t_array(t_contract(SimpleStorage)168)dyn_storage"
					},
					{
						"astId": 235,
						"contract": "contracts/Lesson 3/StorageFactory.sol:StorageFactory",
						"label": "listOfMySimpleStorageContracts",
						"offset": 0,
						"slot": "1",
						"type": "t_array(t_contract(MySimpleStorage)109)dyn_storage"
					},
					{
						"astId": 324,
						"contract": "contracts/Lesson 3/StorageFactory.sol:StorageFactory",
						"label": "familySimpleStorage",
						"offset": 0,
						"slot": "2",
						"type": "t_mapping(t_string_memory_ptr,t_contract(MySimpleStorage)109)"
					}
				],
				"types": {
					"t_array(t_contract(MySimpleStorage)109)dyn_storage": {
						"base": "t_contract(MySimpleStorage)109",
						"encoding": "dynamic_array",
						"label": "contract MySimpleStorage[]",
						"numberOfBytes": "32"
					},
					"t_array(t_contract(SimpleStorage)168)dyn_storage": {
						"base": "t_contract(SimpleStorage)168",
						"encoding": "dynamic_array",
						"label": "contract SimpleStorage[]",
						"numberOfBytes": "32"
					},
					"t_contract(MySimpleStorage)109": {
						"encoding": "inplace",
						"label": "contract MySimpleStorage",
						"numberOfBytes": "20"
					},
					"t_contract(SimpleStorage)168": {
						"encoding": "inplace",
						"label": "contract SimpleStorage",
						"numberOfBytes": "20"
					},
					"t_mapping(t_string_memory_ptr,t_contract(MySimpleStorage)109)": {
						"encoding": "mapping",
						"key": "t_string_memory_ptr",
						"label": "mapping(string => contract MySimpleStorage)",
						"numberOfBytes": "32",
						"value": "t_contract(MySimpleStorage)109"
					},
					"t_string_memory_ptr": {
						"encoding": "bytes",
						"label": "string",
						"numberOfBytes": "32"
					}
				}
			},
			"userdoc": {
				"kind": "user",
				"methods": {},
				"version": 1
			}
		}
	}
}